{
	"test.sol": {
		"TokenLockingPlatform": {
			"abi": [
				{
					"inputs": [
						{
							"internalType": "address",
							"name": "owner",
							"type": "address"
						}
					],
					"name": "OwnableInvalidOwner",
					"type": "error"
				},
				{
					"inputs": [
						{
							"internalType": "address",
							"name": "account",
							"type": "address"
						}
					],
					"name": "OwnableUnauthorizedAccount",
					"type": "error"
				},
				{
					"anonymous": false,
					"inputs": [
						{
							"indexed": true,
							"internalType": "address",
							"name": "user",
							"type": "address"
						},
						{
							"indexed": false,
							"internalType": "bool",
							"name": "approved",
							"type": "bool"
						}
					],
					"name": "CommunityVotedUnlock",
					"type": "event"
				},
				{
					"anonymous": false,
					"inputs": [
						{
							"indexed": true,
							"internalType": "address",
							"name": "previousOwner",
							"type": "address"
						},
						{
							"indexed": true,
							"internalType": "address",
							"name": "newOwner",
							"type": "address"
						}
					],
					"name": "OwnershipTransferred",
					"type": "event"
				},
				{
					"anonymous": false,
					"inputs": [
						{
							"indexed": true,
							"internalType": "uint256",
							"name": "proposalId",
							"type": "uint256"
						},
						{
							"indexed": true,
							"internalType": "address",
							"name": "proposer",
							"type": "address"
						},
						{
							"indexed": false,
							"internalType": "string",
							"name": "proposalType",
							"type": "string"
						},
						{
							"indexed": false,
							"internalType": "uint256",
							"name": "parameter",
							"type": "uint256"
						}
					],
					"name": "ProposalCreated",
					"type": "event"
				},
				{
					"anonymous": false,
					"inputs": [
						{
							"indexed": true,
							"internalType": "uint256",
							"name": "proposalId",
							"type": "uint256"
						}
					],
					"name": "ProposalExecuted",
					"type": "event"
				},
				{
					"anonymous": false,
					"inputs": [
						{
							"indexed": true,
							"internalType": "address",
							"name": "user",
							"type": "address"
						},
						{
							"indexed": true,
							"internalType": "address",
							"name": "token",
							"type": "address"
						},
						{
							"indexed": false,
							"internalType": "uint256",
							"name": "amount",
							"type": "uint256"
						},
						{
							"indexed": false,
							"internalType": "uint256",
							"name": "lockDuration",
							"type": "uint256"
						},
						{
							"indexed": false,
							"internalType": "uint256",
							"name": "vestingDuration",
							"type": "uint256"
						}
					],
					"name": "TokensLocked",
					"type": "event"
				},
				{
					"anonymous": false,
					"inputs": [
						{
							"indexed": true,
							"internalType": "address",
							"name": "user",
							"type": "address"
						},
						{
							"indexed": false,
							"internalType": "uint256",
							"name": "amount",
							"type": "uint256"
						}
					],
					"name": "TokensReleased",
					"type": "event"
				},
				{
					"anonymous": false,
					"inputs": [
						{
							"indexed": true,
							"internalType": "uint256",
							"name": "proposalId",
							"type": "uint256"
						},
						{
							"indexed": true,
							"internalType": "address",
							"name": "voter",
							"type": "address"
						},
						{
							"indexed": false,
							"internalType": "bool",
							"name": "support",
							"type": "bool"
						},
						{
							"indexed": false,
							"internalType": "uint256",
							"name": "weight",
							"type": "uint256"
						}
					],
					"name": "VoteCast",
					"type": "event"
				},
				{
					"inputs": [
						{
							"internalType": "uint256",
							"name": "proposalId",
							"type": "uint256"
						},
						{
							"internalType": "bool",
							"name": "support",
							"type": "bool"
						}
					],
					"name": "castVote",
					"outputs": [],
					"stateMutability": "nonpayable",
					"type": "function"
				},
				{
					"inputs": [
						{
							"internalType": "address",
							"name": "",
							"type": "address"
						}
					],
					"name": "communityVotedUnlock",
					"outputs": [
						{
							"internalType": "bool",
							"name": "",
							"type": "bool"
						}
					],
					"stateMutability": "view",
					"type": "function"
				},
				{
					"inputs": [
						{
							"internalType": "uint256",
							"name": "proposalId",
							"type": "uint256"
						}
					],
					"name": "executeProposal",
					"outputs": [],
					"stateMutability": "nonpayable",
					"type": "function"
				},
				{
					"inputs": [
						{
							"internalType": "address",
							"name": "token",
							"type": "address"
						},
						{
							"internalType": "uint256",
							"name": "amount",
							"type": "uint256"
						},
						{
							"internalType": "uint256",
							"name": "lockDuration",
							"type": "uint256"
						},
						{
							"internalType": "uint256",
							"name": "vestingDuration",
							"type": "uint256"
						}
					],
					"name": "lockTokens",
					"outputs": [],
					"stateMutability": "nonpayable",
					"type": "function"
				},
				{
					"inputs": [
						{
							"internalType": "address",
							"name": "",
							"type": "address"
						}
					],
					"name": "locks",
					"outputs": [
						{
							"internalType": "uint256",
							"name": "totalAmount",
							"type": "uint256"
						},
						{
							"internalType": "uint256",
							"name": "releasedAmount",
							"type": "uint256"
						},
						{
							"internalType": "uint256",
							"name": "lockStart",
							"type": "uint256"
						},
						{
							"internalType": "uint256",
							"name": "lockDuration",
							"type": "uint256"
						},
						{
							"internalType": "uint256",
							"name": "vestingDuration",
							"type": "uint256"
						},
						{
							"internalType": "bool",
							"name": "active",
							"type": "bool"
						},
						{
							"internalType": "address",
							"name": "token",
							"type": "address"
						}
					],
					"stateMutability": "view",
					"type": "function"
				},
				{
					"inputs": [],
					"name": "nextProposalId",
					"outputs": [
						{
							"internalType": "uint256",
							"name": "",
							"type": "uint256"
						}
					],
					"stateMutability": "view",
					"type": "function"
				},
				{
					"inputs": [],
					"name": "owner",
					"outputs": [
						{
							"internalType": "address",
							"name": "",
							"type": "address"
						}
					],
					"stateMutability": "view",
					"type": "function"
				},
				{
					"inputs": [
						{
							"internalType": "string",
							"name": "proposalType",
							"type": "string"
						},
						{
							"internalType": "uint256",
							"name": "parameter",
							"type": "uint256"
						}
					],
					"name": "proposeVote",
					"outputs": [],
					"stateMutability": "nonpayable",
					"type": "function"
				},
				{
					"inputs": [],
					"name": "releaseTokens",
					"outputs": [],
					"stateMutability": "nonpayable",
					"type": "function"
				},
				{
					"inputs": [],
					"name": "renounceOwnership",
					"outputs": [],
					"stateMutability": "nonpayable",
					"type": "function"
				},
				{
					"inputs": [
						{
							"internalType": "address",
							"name": "newOwner",
							"type": "address"
						}
					],
					"name": "transferOwnership",
					"outputs": [],
					"stateMutability": "nonpayable",
					"type": "function"
				},
				{
					"inputs": [
						{
							"internalType": "address",
							"name": "user",
							"type": "address"
						}
					],
					"name": "viewRemainingTokens",
					"outputs": [
						{
							"internalType": "uint256",
							"name": "",
							"type": "uint256"
						}
					],
					"stateMutability": "view",
					"type": "function"
				},
				{
					"inputs": [
						{
							"internalType": "uint256",
							"name": "",
							"type": "uint256"
						}
					],
					"name": "votes",
					"outputs": [
						{
							"internalType": "uint256",
							"name": "proposalId",
							"type": "uint256"
						},
						{
							"internalType": "address",
							"name": "proposer",
							"type": "address"
						},
						{
							"internalType": "uint256",
							"name": "startTime",
							"type": "uint256"
						},
						{
							"internalType": "uint256",
							"name": "endTime",
							"type": "uint256"
						},
						{
							"internalType": "uint256",
							"name": "yesVotes",
							"type": "uint256"
						},
						{
							"internalType": "uint256",
							"name": "noVotes",
							"type": "uint256"
						},
						{
							"internalType": "string",
							"name": "proposalType",
							"type": "string"
						},
						{
							"internalType": "uint256",
							"name": "parameter",
							"type": "uint256"
						},
						{
							"internalType": "bool",
							"name": "executed",
							"type": "bool"
						}
					],
					"stateMutability": "view",
					"type": "function"
				}
			],
			"devdoc": {
				"errors": {
					"OwnableInvalidOwner(address)": [
						{
							"details": "The owner is not a valid owner account. (eg. `address(0)`)"
						}
					],
					"OwnableUnauthorizedAccount(address)": [
						{
							"details": "The caller account is not authorized to perform an operation."
						}
					]
				},
				"kind": "dev",
				"methods": {
					"castVote(uint256,bool)": {
						"params": {
							"proposalId": "The ID of the proposal to vote on.",
							"support": "True to vote yes, false to vote no."
						}
					},
					"executeProposal(uint256)": {
						"params": {
							"proposalId": "The ID of the proposal to execute."
						}
					},
					"lockTokens(address,uint256,uint256,uint256)": {
						"params": {
							"amount": "The total amount of tokens to lock.",
							"lockDuration": "The initial lock period (in seconds).",
							"token": "The address of the ERC20 token to lock.",
							"vestingDuration": "The duration over which tokens are vested after the lock period."
						}
					},
					"owner()": {
						"details": "Returns the address of the current owner."
					},
					"proposeVote(string,uint256)": {
						"params": {
							"parameter": "The parameter for the proposal (tokens to release or seconds to extend).",
							"proposalType": "The type of proposal (\"release\" or \"extend\")."
						}
					},
					"renounceOwnership()": {
						"details": "Leaves the contract without owner. It will not be possible to call `onlyOwner` functions. Can only be called by the current owner. NOTE: Renouncing ownership will leave the contract without an owner, thereby disabling any functionality that is only available to the owner."
					},
					"transferOwnership(address)": {
						"details": "Transfers ownership of the contract to a new account (`newOwner`). Can only be called by the current owner."
					},
					"viewRemainingTokens(address)": {
						"params": {
							"user": "The address of the user."
						}
					}
				},
				"version": 1
			},
			"evm": {
				"assembly": "    /* \"test.sol\":234:8307  contract TokenLockingPlatform is Ownable(msg.sender) {... */\n  mstore(0x40, 0x80)\n  callvalue\n  dup1\n  iszero\n  tag_1\n  jumpi\n  0x00\n  dup1\n  revert\ntag_1:\n  pop\n    /* \"test.sol\":275:285  msg.sender */\n  caller\n    /* \"@openzeppelin/contracts/access/Ownable.sol\":1297:1298  0 */\n  0x00\n    /* \"@openzeppelin/contracts/access/Ownable.sol\":1273:1299  initialOwner == address(0) */\n  0xffffffffffffffffffffffffffffffffffffffff\n  and\n    /* \"@openzeppelin/contracts/access/Ownable.sol\":1273:1285  initialOwner */\n  dup2\n    /* \"@openzeppelin/contracts/access/Ownable.sol\":1273:1299  initialOwner == address(0) */\n  0xffffffffffffffffffffffffffffffffffffffff\n  and\n  sub\n    /* \"@openzeppelin/contracts/access/Ownable.sol\":1269:1364  if (initialOwner == address(0)) {... */\n  tag_4\n  jumpi\n    /* \"@openzeppelin/contracts/access/Ownable.sol\":1350:1351  0 */\n  0x00\n    /* \"@openzeppelin/contracts/access/Ownable.sol\":1322:1353  OwnableInvalidOwner(address(0)) */\n  mload(0x40)\n  0x1e4fbdf700000000000000000000000000000000000000000000000000000000\n  dup2\n  mstore\n  0x04\n  add\n  tag_5\n  swap2\n  swap1\n  tag_6\n  jump\t// in\ntag_5:\n  mload(0x40)\n  dup1\n  swap2\n  sub\n  swap1\n  revert\n    /* \"@openzeppelin/contracts/access/Ownable.sol\":1269:1364  if (initialOwner == address(0)) {... */\ntag_4:\n    /* \"@openzeppelin/contracts/access/Ownable.sol\":1373:1405  _transferOwnership(initialOwner) */\n  tag_7\n    /* \"@openzeppelin/contracts/access/Ownable.sol\":1392:1404  initialOwner */\n  dup2\n    /* \"@openzeppelin/contracts/access/Ownable.sol\":1373:1391  _transferOwnership */\n  shl(0x20, tag_8)\n    /* \"@openzeppelin/contracts/access/Ownable.sol\":1373:1405  _transferOwnership(initialOwner) */\n  0x20\n  shr\n  jump\t// in\ntag_7:\n    /* \"@openzeppelin/contracts/access/Ownable.sol\":1225:1412  constructor(address initialOwner) {... */\n  pop\n    /* \"test.sol\":234:8307  contract TokenLockingPlatform is Ownable(msg.sender) {... */\n  jump(tag_9)\n    /* \"@openzeppelin/contracts/access/Ownable.sol\":2912:3099  function _transferOwnership(address newOwner) internal virtual {... */\ntag_8:\n    /* \"@openzeppelin/contracts/access/Ownable.sol\":2985:3001  address oldOwner */\n  0x00\n    /* \"@openzeppelin/contracts/access/Ownable.sol\":3004:3010  _owner */\n  dup1\n  0x00\n  swap1\n  sload\n  swap1\n  0x0100\n  exp\n  swap1\n  div\n  0xffffffffffffffffffffffffffffffffffffffff\n  and\n    /* \"@openzeppelin/contracts/access/Ownable.sol\":2985:3010  address oldOwner = _owner */\n  swap1\n  pop\n    /* \"@openzeppelin/contracts/access/Ownable.sol\":3029:3037  newOwner */\n  dup2\n    /* \"@openzeppelin/contracts/access/Ownable.sol\":3020:3026  _owner */\n  0x00\n  dup1\n    /* \"@openzeppelin/contracts/access/Ownable.sol\":3020:3037  _owner = newOwner */\n  0x0100\n  exp\n  dup2\n  sload\n  dup2\n  0xffffffffffffffffffffffffffffffffffffffff\n  mul\n  not\n  and\n  swap1\n  dup4\n  0xffffffffffffffffffffffffffffffffffffffff\n  and\n  mul\n  or\n  swap1\n  sstore\n  pop\n    /* \"@openzeppelin/contracts/access/Ownable.sol\":3083:3091  newOwner */\n  dup2\n    /* \"@openzeppelin/contracts/access/Ownable.sol\":3052:3092  OwnershipTransferred(oldOwner, newOwner) */\n  0xffffffffffffffffffffffffffffffffffffffff\n  and\n    /* \"@openzeppelin/contracts/access/Ownable.sol\":3073:3081  oldOwner */\n  dup2\n    /* \"@openzeppelin/contracts/access/Ownable.sol\":3052:3092  OwnershipTransferred(oldOwner, newOwner) */\n  0xffffffffffffffffffffffffffffffffffffffff\n  and\n  0x8be0079c531659141344cd1fd0a4f28419497f9722a3daafe3b4186f6b6457e0\n  mload(0x40)\n  mload(0x40)\n  dup1\n  swap2\n  sub\n  swap1\n  log3\n    /* \"@openzeppelin/contracts/access/Ownable.sol\":2975:3099  {... */\n  pop\n    /* \"@openzeppelin/contracts/access/Ownable.sol\":2912:3099  function _transferOwnership(address newOwner) internal virtual {... */\n  pop\n  jump\t// out\n    /* \"#utility.yul\":7:133   */\ntag_11:\n    /* \"#utility.yul\":44:51   */\n  0x00\n    /* \"#utility.yul\":84:126   */\n  0xffffffffffffffffffffffffffffffffffffffff\n    /* \"#utility.yul\":77:82   */\n  dup3\n    /* \"#utility.yul\":73:127   */\n  and\n    /* \"#utility.yul\":62:127   */\n  swap1\n  pop\n    /* \"#utility.yul\":7:133   */\n  swap2\n  swap1\n  pop\n  jump\t// out\n    /* \"#utility.yul\":139:235   */\ntag_12:\n    /* \"#utility.yul\":176:183   */\n  0x00\n    /* \"#utility.yul\":205:229   */\n  tag_17\n    /* \"#utility.yul\":223:228   */\n  dup3\n    /* \"#utility.yul\":205:229   */\n  tag_11\n  jump\t// in\ntag_17:\n    /* \"#utility.yul\":194:229   */\n  swap1\n  pop\n    /* \"#utility.yul\":139:235   */\n  swap2\n  swap1\n  pop\n  jump\t// out\n    /* \"#utility.yul\":241:359   */\ntag_13:\n    /* \"#utility.yul\":328:352   */\n  tag_19\n    /* \"#utility.yul\":346:351   */\n  dup2\n    /* \"#utility.yul\":328:352   */\n  tag_12\n  jump\t// in\ntag_19:\n    /* \"#utility.yul\":323:326   */\n  dup3\n    /* \"#utility.yul\":316:353   */\n  mstore\n    /* \"#utility.yul\":241:359   */\n  pop\n  pop\n  jump\t// out\n    /* \"#utility.yul\":365:587   */\ntag_6:\n    /* \"#utility.yul\":458:462   */\n  0x00\n    /* \"#utility.yul\":496:498   */\n  0x20\n    /* \"#utility.yul\":485:494   */\n  dup3\n    /* \"#utility.yul\":481:499   */\n  add\n    /* \"#utility.yul\":473:499   */\n  swap1\n  pop\n    /* \"#utility.yul\":509:580   */\n  tag_21\n    /* \"#utility.yul\":577:578   */\n  0x00\n    /* \"#utility.yul\":566:575   */\n  dup4\n    /* \"#utility.yul\":562:579   */\n  add\n    /* \"#utility.yul\":553:559   */\n  dup5\n    /* \"#utility.yul\":509:580   */\n  tag_13\n  jump\t// in\ntag_21:\n    /* \"#utility.yul\":365:587   */\n  swap3\n  swap2\n  pop\n  pop\n  jump\t// out\n    /* \"test.sol\":234:8307  contract TokenLockingPlatform is Ownable(msg.sender) {... */\ntag_9:\n  dataSize(sub_0)\n  dup1\n  dataOffset(sub_0)\n  0x00\n  codecopy\n  0x00\n  return\nstop\n\nsub_0: assembly {\n        /* \"test.sol\":234:8307  contract TokenLockingPlatform is Ownable(msg.sender) {... */\n      mstore(0x40, 0x80)\n      callvalue\n      dup1\n      iszero\n      tag_1\n      jumpi\n      0x00\n      dup1\n      revert\n    tag_1:\n      pop\n      jumpi(tag_2, lt(calldatasize, 0x04))\n      shr(0xe0, calldataload(0x00))\n      dup1\n      0x715018a6\n      gt\n      tag_16\n      jumpi\n      dup1\n      0x910a8dd2\n      gt\n      tag_17\n      jumpi\n      dup1\n      0x910a8dd2\n      eq\n      tag_12\n      jumpi\n      dup1\n      0xa96f8668\n      eq\n      tag_13\n      jumpi\n      dup1\n      0xe393173e\n      eq\n      tag_14\n      jumpi\n      dup1\n      0xf2fde38b\n      eq\n      tag_15\n      jumpi\n      jump(tag_2)\n    tag_17:\n      dup1\n      0x715018a6\n      eq\n      tag_9\n      jumpi\n      dup1\n      0x82134e7b\n      eq\n      tag_10\n      jumpi\n      dup1\n      0x8da5cb5b\n      eq\n      tag_11\n      jumpi\n      jump(tag_2)\n    tag_16:\n      dup1\n      0x0d61b519\n      eq\n      tag_3\n      jumpi\n      dup1\n      0x15373e3d\n      eq\n      tag_4\n      jumpi\n      dup1\n      0x2ab09d14\n      eq\n      tag_5\n      jumpi\n      dup1\n      0x5783f8e7\n      eq\n      tag_6\n      jumpi\n      dup1\n      0x5de9a137\n      eq\n      tag_7\n      jumpi\n      dup1\n      0x5df81330\n      eq\n      tag_8\n      jumpi\n    tag_2:\n      0x00\n      dup1\n      revert\n        /* \"test.sol\":6880:7976  function executeProposal(uint256 proposalId) external {... */\n    tag_3:\n      tag_18\n      0x04\n      dup1\n      calldatasize\n      sub\n      dup2\n      add\n      swap1\n      tag_19\n      swap2\n      swap1\n      tag_20\n      jump\t// in\n    tag_19:\n      tag_21\n      jump\t// in\n    tag_18:\n      stop\n        /* \"test.sol\":5694:6744  function castVote(uint256 proposalId, bool support) external {... */\n    tag_4:\n      tag_22\n      0x04\n      dup1\n      calldatasize\n      sub\n      dup2\n      add\n      swap1\n      tag_23\n      swap2\n      swap1\n      tag_24\n      jump\t// in\n    tag_23:\n      tag_25\n      jump\t// in\n    tag_22:\n      stop\n        /* \"test.sol\":943:972  uint256 public nextProposalId */\n    tag_5:\n      tag_26\n      tag_27\n      jump\t// in\n    tag_26:\n      mload(0x40)\n      tag_28\n      swap2\n      swap1\n      tag_29\n      jump\t// in\n    tag_28:\n      mload(0x40)\n      dup1\n      swap2\n      sub\n      swap1\n      return\n        /* \"test.sol\":2175:3093  function lockTokens(... */\n    tag_6:\n      tag_30\n      0x04\n      dup1\n      calldatasize\n      sub\n      dup2\n      add\n      swap1\n      tag_31\n      swap2\n      swap1\n      tag_32\n      jump\t// in\n    tag_31:\n      tag_33\n      jump\t// in\n    tag_30:\n      stop\n        /* \"test.sol\":1023:1060  mapping(address => Lock) public locks */\n    tag_7:\n      tag_34\n      0x04\n      dup1\n      calldatasize\n      sub\n      dup2\n      add\n      swap1\n      tag_35\n      swap2\n      swap1\n      tag_36\n      jump\t// in\n    tag_35:\n      tag_37\n      jump\t// in\n    tag_34:\n      mload(0x40)\n      tag_38\n      swap8\n      swap7\n      swap6\n      swap5\n      swap4\n      swap3\n      swap2\n      swap1\n      tag_39\n      jump\t// in\n    tag_38:\n      mload(0x40)\n      dup1\n      swap2\n      sub\n      swap1\n      return\n        /* \"test.sol\":979:1016  mapping(uint256 => Vote) public votes */\n    tag_8:\n      tag_40\n      0x04\n      dup1\n      calldatasize\n      sub\n      dup2\n      add\n      swap1\n      tag_41\n      swap2\n      swap1\n      tag_20\n      jump\t// in\n    tag_41:\n      tag_42\n      jump\t// in\n    tag_40:\n      mload(0x40)\n      tag_43\n      swap10\n      swap9\n      swap8\n      swap7\n      swap6\n      swap5\n      swap4\n      swap3\n      swap2\n      swap1\n      tag_44\n      jump\t// in\n    tag_43:\n      mload(0x40)\n      dup1\n      swap2\n      sub\n      swap1\n      return\n        /* \"@openzeppelin/contracts/access/Ownable.sol\":2293:2394  function renounceOwnership() public virtual onlyOwner {... */\n    tag_9:\n      tag_45\n      tag_46\n      jump\t// in\n    tag_45:\n      stop\n        /* \"test.sol\":1067:1119  mapping(address => bool) public communityVotedUnlock */\n    tag_10:\n      tag_47\n      0x04\n      dup1\n      calldatasize\n      sub\n      dup2\n      add\n      swap1\n      tag_48\n      swap2\n      swap1\n      tag_36\n      jump\t// in\n    tag_48:\n      tag_49\n      jump\t// in\n    tag_47:\n      mload(0x40)\n      tag_50\n      swap2\n      swap1\n      tag_51\n      jump\t// in\n    tag_50:\n      mload(0x40)\n      dup1\n      swap2\n      sub\n      swap1\n      return\n        /* \"@openzeppelin/contracts/access/Ownable.sol\":1638:1723  function owner() public view virtual returns (address) {... */\n    tag_11:\n      tag_52\n      tag_53\n      jump\t// in\n    tag_52:\n      mload(0x40)\n      tag_54\n      swap2\n      swap1\n      tag_55\n      jump\t// in\n    tag_54:\n      mload(0x40)\n      dup1\n      swap2\n      sub\n      swap1\n      return\n        /* \"test.sol\":8108:8304  function viewRemainingTokens(address user) external view returns (uint256) {... */\n    tag_12:\n      tag_56\n      0x04\n      dup1\n      calldatasize\n      sub\n      dup2\n      add\n      swap1\n      tag_57\n      swap2\n      swap1\n      tag_36\n      jump\t// in\n    tag_57:\n      tag_58\n      jump\t// in\n    tag_56:\n      mload(0x40)\n      tag_59\n      swap2\n      swap1\n      tag_29\n      jump\t// in\n    tag_59:\n      mload(0x40)\n      dup1\n      swap2\n      sub\n      swap1\n      return\n        /* \"test.sol\":3181:4359  function releaseTokens() external onlyIfActive(msg.sender) {... */\n    tag_13:\n      tag_60\n      tag_61\n      jump\t// in\n    tag_60:\n      stop\n        /* \"test.sol\":4639:5503  function proposeVote(string memory proposalType, uint256 parameter) external {... */\n    tag_14:\n      tag_62\n      0x04\n      dup1\n      calldatasize\n      sub\n      dup2\n      add\n      swap1\n      tag_63\n      swap2\n      swap1\n      tag_64\n      jump\t// in\n    tag_63:\n      tag_65\n      jump\t// in\n    tag_62:\n      stop\n        /* \"@openzeppelin/contracts/access/Ownable.sol\":2543:2758  function transferOwnership(address newOwner) public virtual onlyOwner {... */\n    tag_15:\n      tag_66\n      0x04\n      dup1\n      calldatasize\n      sub\n      dup2\n      add\n      swap1\n      tag_67\n      swap2\n      swap1\n      tag_36\n      jump\t// in\n    tag_67:\n      tag_68\n      jump\t// in\n    tag_66:\n      stop\n        /* \"test.sol\":6880:7976  function executeProposal(uint256 proposalId) external {... */\n    tag_21:\n        /* \"test.sol\":6945:6962  Vote storage vote */\n      0x00\n        /* \"test.sol\":6965:6970  votes */\n      0x02\n        /* \"test.sol\":6965:6982  votes[proposalId] */\n      0x00\n        /* \"test.sol\":6971:6981  proposalId */\n      dup4\n        /* \"test.sol\":6965:6982  votes[proposalId] */\n      dup2\n      mstore\n      0x20\n      add\n      swap1\n      dup2\n      mstore\n      0x20\n      add\n      0x00\n      keccak256\n        /* \"test.sol\":6945:6982  Vote storage vote = votes[proposalId] */\n      swap1\n      pop\n        /* \"test.sol\":7019:7023  vote */\n      dup1\n        /* \"test.sol\":7019:7031  vote.endTime */\n      0x03\n      add\n      sload\n        /* \"test.sol\":7001:7016  block.timestamp */\n      timestamp\n        /* \"test.sol\":7001:7031  block.timestamp > vote.endTime */\n      gt\n        /* \"test.sol\":6993:7058  require(block.timestamp > vote.endTime, \"Voting period not over\") */\n      tag_70\n      jumpi\n      mload(0x40)\n      0x08c379a000000000000000000000000000000000000000000000000000000000\n      dup2\n      mstore\n      0x04\n      add\n      tag_71\n      swap1\n      tag_72\n      jump\t// in\n    tag_71:\n      mload(0x40)\n      dup1\n      swap2\n      sub\n      swap1\n      revert\n    tag_70:\n        /* \"test.sol\":7078:7082  vote */\n      dup1\n        /* \"test.sol\":7078:7091  vote.executed */\n      0x08\n      add\n      0x00\n      swap1\n      sload\n      swap1\n      0x0100\n      exp\n      swap1\n      div\n      0xff\n      and\n        /* \"test.sol\":7077:7091  !vote.executed */\n      iszero\n        /* \"test.sol\":7069:7121  require(!vote.executed, \"Proposal already executed\") */\n      tag_73\n      jumpi\n      mload(0x40)\n      0x08c379a000000000000000000000000000000000000000000000000000000000\n      dup2\n      mstore\n      0x04\n      add\n      tag_74\n      swap1\n      tag_75\n      jump\t// in\n    tag_74:\n      mload(0x40)\n      dup1\n      swap2\n      sub\n      swap1\n      revert\n    tag_73:\n        /* \"test.sol\":7154:7158  vote */\n      dup1\n        /* \"test.sol\":7154:7166  vote.noVotes */\n      0x05\n      add\n      sload\n        /* \"test.sol\":7138:7142  vote */\n      dup2\n        /* \"test.sol\":7138:7151  vote.yesVotes */\n      0x04\n      add\n      sload\n        /* \"test.sol\":7138:7166  vote.yesVotes > vote.noVotes */\n      gt\n        /* \"test.sol\":7134:7890  if (vote.yesVotes > vote.noVotes) {... */\n      iszero\n      tag_76\n      jumpi\n        /* \"test.sol\":7237:7257  keccak256(\"release\") */\n      0x585a6dc6f7e8656767705fa1b809ec2c27086762f615cdddb3cd21888983b3e3\n        /* \"test.sol\":7214:7218  vote */\n      dup2\n        /* \"test.sol\":7214:7231  vote.proposalType */\n      0x06\n      add\n        /* \"test.sol\":7197:7232  abi.encodePacked(vote.proposalType) */\n      add(0x20, mload(0x40))\n      tag_77\n      swap2\n      swap1\n      tag_78\n      jump\t// in\n    tag_77:\n      mload(0x40)\n      0x20\n      dup2\n      dup4\n      sub\n      sub\n      dup2\n      mstore\n      swap1\n      0x40\n      mstore\n        /* \"test.sol\":7187:7233  keccak256(abi.encodePacked(vote.proposalType)) */\n      dup1\n      mload\n      swap1\n      0x20\n      add\n      keccak256\n        /* \"test.sol\":7187:7257  keccak256(abi.encodePacked(vote.proposalType)) == keccak256(\"release\") */\n      sub\n        /* \"test.sol\":7183:7879  if (keccak256(abi.encodePacked(vote.proposalType)) == keccak256(\"release\")) {... */\n      tag_79\n      jumpi\n        /* \"test.sol\":7278:7299  Lock storage userLock */\n      0x00\n        /* \"test.sol\":7302:7307  locks */\n      0x03\n        /* \"test.sol\":7302:7322  locks[vote.proposer] */\n      0x00\n        /* \"test.sol\":7308:7312  vote */\n      dup4\n        /* \"test.sol\":7308:7321  vote.proposer */\n      0x01\n      add\n      0x00\n      swap1\n      sload\n      swap1\n      0x0100\n      exp\n      swap1\n      div\n      0xffffffffffffffffffffffffffffffffffffffff\n      and\n        /* \"test.sol\":7302:7322  locks[vote.proposer] */\n      0xffffffffffffffffffffffffffffffffffffffff\n      and\n      0xffffffffffffffffffffffffffffffffffffffff\n      and\n      dup2\n      mstore\n      0x20\n      add\n      swap1\n      dup2\n      mstore\n      0x20\n      add\n      0x00\n      keccak256\n        /* \"test.sol\":7278:7322  Lock storage userLock = locks[vote.proposer] */\n      swap1\n      pop\n        /* \"test.sol\":7349:7357  userLock */\n      dup1\n        /* \"test.sol\":7349:7364  userLock.active */\n      0x05\n      add\n      0x00\n      swap1\n      sload\n      swap1\n      0x0100\n      exp\n      swap1\n      div\n      0xff\n      and\n        /* \"test.sol\":7341:7383  require(userLock.active, \"No active lock\") */\n      tag_80\n      jumpi\n      mload(0x40)\n      0x08c379a000000000000000000000000000000000000000000000000000000000\n      dup2\n      mstore\n      0x04\n      add\n      tag_81\n      swap1\n      tag_82\n      jump\t// in\n    tag_81:\n      mload(0x40)\n      dup1\n      swap2\n      sub\n      swap1\n      revert\n    tag_80:\n        /* \"test.sol\":7428:7471  userLock.releasedAmount.add(vote.parameter) */\n      tag_83\n        /* \"test.sol\":7456:7460  vote */\n      dup3\n        /* \"test.sol\":7456:7470  vote.parameter */\n      0x07\n      add\n      sload\n        /* \"test.sol\":7428:7436  userLock */\n      dup3\n        /* \"test.sol\":7428:7451  userLock.releasedAmount */\n      0x01\n      add\n      sload\n        /* \"test.sol\":7428:7455  userLock.releasedAmount.add */\n      tag_84\n      swap1\n        /* \"test.sol\":7428:7471  userLock.releasedAmount.add(vote.parameter) */\n      swap2\n      swap1\n      0xffffffff\n      and\n      jump\t// in\n    tag_83:\n        /* \"test.sol\":7402:7410  userLock */\n      dup2\n        /* \"test.sol\":7402:7425  userLock.releasedAmount */\n      0x01\n      add\n        /* \"test.sol\":7402:7471  userLock.releasedAmount = userLock.releasedAmount.add(vote.parameter) */\n      dup2\n      swap1\n      sstore\n      pop\n        /* \"test.sol\":7525:7533  userLock */\n      dup1\n        /* \"test.sol\":7525:7545  userLock.totalAmount */\n      0x00\n      add\n      sload\n        /* \"test.sol\":7498:7506  userLock */\n      dup2\n        /* \"test.sol\":7498:7521  userLock.releasedAmount */\n      0x01\n      add\n      sload\n        /* \"test.sol\":7498:7545  userLock.releasedAmount <= userLock.totalAmount */\n      gt\n      iszero\n        /* \"test.sol\":7490:7577  require(userLock.releasedAmount <= userLock.totalAmount, \"Exceeds total locked amount\") */\n      tag_85\n      jumpi\n      mload(0x40)\n      0x08c379a000000000000000000000000000000000000000000000000000000000\n      dup2\n      mstore\n      0x04\n      add\n      tag_86\n      swap1\n      tag_87\n      jump\t// in\n    tag_86:\n      mload(0x40)\n      dup1\n      swap2\n      sub\n      swap1\n      revert\n    tag_85:\n        /* \"test.sol\":7603:7611  userLock */\n      dup1\n        /* \"test.sol\":7603:7617  userLock.token */\n      0x05\n      add\n      0x01\n      swap1\n      sload\n      swap1\n      0x0100\n      exp\n      swap1\n      div\n      0xffffffffffffffffffffffffffffffffffffffff\n      and\n        /* \"test.sol\":7596:7627  IERC20(userLock.token).transfer */\n      0xffffffffffffffffffffffffffffffffffffffff\n      and\n      0xa9059cbb\n        /* \"test.sol\":7628:7632  vote */\n      dup4\n        /* \"test.sol\":7628:7641  vote.proposer */\n      0x01\n      add\n      0x00\n      swap1\n      sload\n      swap1\n      0x0100\n      exp\n      swap1\n      div\n      0xffffffffffffffffffffffffffffffffffffffff\n      and\n        /* \"test.sol\":7643:7647  vote */\n      dup5\n        /* \"test.sol\":7643:7657  vote.parameter */\n      0x07\n      add\n      sload\n        /* \"test.sol\":7596:7658  IERC20(userLock.token).transfer(vote.proposer, vote.parameter) */\n      mload(0x40)\n      dup4\n      0xffffffff\n      and\n      0xe0\n      shl\n      dup2\n      mstore\n      0x04\n      add\n      tag_88\n      swap3\n      swap2\n      swap1\n      tag_89\n      jump\t// in\n    tag_88:\n      0x20\n      mload(0x40)\n      dup1\n      dup4\n      sub\n      dup2\n      0x00\n      dup8\n      gas\n      call\n      iszero\n      dup1\n      iszero\n      tag_91\n      jumpi\n      returndatasize\n      0x00\n      dup1\n      returndatacopy\n      revert(0x00, returndatasize)\n    tag_91:\n      pop\n      pop\n      pop\n      pop\n      mload(0x40)\n      returndatasize\n      not(0x1f)\n      0x1f\n      dup3\n      add\n      and\n      dup3\n      add\n      dup1\n      0x40\n      mstore\n      pop\n      dup2\n      add\n      swap1\n      tag_92\n      swap2\n      swap1\n      tag_93\n      jump\t// in\n    tag_92:\n      pop\n        /* \"test.sol\":7259:7674  {... */\n      pop\n        /* \"test.sol\":7183:7879  if (keccak256(abi.encodePacked(vote.proposalType)) == keccak256(\"release\")) {... */\n      jump(tag_94)\n    tag_79:\n        /* \"test.sol\":7734:7753  keccak256(\"extend\") */\n      0xa99e074f7ed01ed29d2214dc7fa7597b09d83d0c921b513239f2a0ce30dce124\n        /* \"test.sol\":7711:7715  vote */\n      dup2\n        /* \"test.sol\":7711:7728  vote.proposalType */\n      0x06\n      add\n        /* \"test.sol\":7694:7729  abi.encodePacked(vote.proposalType) */\n      add(0x20, mload(0x40))\n      tag_95\n      swap2\n      swap1\n      tag_78\n      jump\t// in\n    tag_95:\n      mload(0x40)\n      0x20\n      dup2\n      dup4\n      sub\n      sub\n      dup2\n      mstore\n      swap1\n      0x40\n      mstore\n        /* \"test.sol\":7684:7730  keccak256(abi.encodePacked(vote.proposalType)) */\n      dup1\n      mload\n      swap1\n      0x20\n      add\n      keccak256\n        /* \"test.sol\":7684:7753  keccak256(abi.encodePacked(vote.proposalType)) == keccak256(\"extend\") */\n      sub\n        /* \"test.sol\":7680:7879  if (keccak256(abi.encodePacked(vote.proposalType)) == keccak256(\"extend\")) {... */\n      tag_96\n      jumpi\n        /* \"test.sol\":7810:7863  locks[vote.proposer].lockDuration.add(vote.parameter) */\n      tag_97\n        /* \"test.sol\":7848:7852  vote */\n      dup2\n        /* \"test.sol\":7848:7862  vote.parameter */\n      0x07\n      add\n      sload\n        /* \"test.sol\":7810:7815  locks */\n      0x03\n        /* \"test.sol\":7810:7830  locks[vote.proposer] */\n      0x00\n        /* \"test.sol\":7816:7820  vote */\n      dup5\n        /* \"test.sol\":7816:7829  vote.proposer */\n      0x01\n      add\n      0x00\n      swap1\n      sload\n      swap1\n      0x0100\n      exp\n      swap1\n      div\n      0xffffffffffffffffffffffffffffffffffffffff\n      and\n        /* \"test.sol\":7810:7830  locks[vote.proposer] */\n      0xffffffffffffffffffffffffffffffffffffffff\n      and\n      0xffffffffffffffffffffffffffffffffffffffff\n      and\n      dup2\n      mstore\n      0x20\n      add\n      swap1\n      dup2\n      mstore\n      0x20\n      add\n      0x00\n      keccak256\n        /* \"test.sol\":7810:7843  locks[vote.proposer].lockDuration */\n      0x03\n      add\n      sload\n        /* \"test.sol\":7810:7847  locks[vote.proposer].lockDuration.add */\n      tag_84\n      swap1\n        /* \"test.sol\":7810:7863  locks[vote.proposer].lockDuration.add(vote.parameter) */\n      swap2\n      swap1\n      0xffffffff\n      and\n      jump\t// in\n    tag_97:\n        /* \"test.sol\":7774:7779  locks */\n      0x03\n        /* \"test.sol\":7774:7794  locks[vote.proposer] */\n      0x00\n        /* \"test.sol\":7780:7784  vote */\n      dup4\n        /* \"test.sol\":7780:7793  vote.proposer */\n      0x01\n      add\n      0x00\n      swap1\n      sload\n      swap1\n      0x0100\n      exp\n      swap1\n      div\n      0xffffffffffffffffffffffffffffffffffffffff\n      and\n        /* \"test.sol\":7774:7794  locks[vote.proposer] */\n      0xffffffffffffffffffffffffffffffffffffffff\n      and\n      0xffffffffffffffffffffffffffffffffffffffff\n      and\n      dup2\n      mstore\n      0x20\n      add\n      swap1\n      dup2\n      mstore\n      0x20\n      add\n      0x00\n      keccak256\n        /* \"test.sol\":7774:7807  locks[vote.proposer].lockDuration */\n      0x03\n      add\n        /* \"test.sol\":7774:7863  locks[vote.proposer].lockDuration = locks[vote.proposer].lockDuration.add(vote.parameter) */\n      dup2\n      swap1\n      sstore\n      pop\n        /* \"test.sol\":7680:7879  if (keccak256(abi.encodePacked(vote.proposalType)) == keccak256(\"extend\")) {... */\n    tag_96:\n        /* \"test.sol\":7183:7879  if (keccak256(abi.encodePacked(vote.proposalType)) == keccak256(\"release\")) {... */\n    tag_94:\n        /* \"test.sol\":7134:7890  if (vote.yesVotes > vote.noVotes) {... */\n    tag_76:\n        /* \"test.sol\":7918:7922  true */\n      0x01\n        /* \"test.sol\":7902:7906  vote */\n      dup2\n        /* \"test.sol\":7902:7915  vote.executed */\n      0x08\n      add\n      0x00\n        /* \"test.sol\":7902:7922  vote.executed = true */\n      0x0100\n      exp\n      dup2\n      sload\n      dup2\n      0xff\n      mul\n      not\n      and\n      swap1\n      dup4\n      iszero\n      iszero\n      mul\n      or\n      swap1\n      sstore\n      pop\n        /* \"test.sol\":7957:7967  proposalId */\n      dup2\n        /* \"test.sol\":7940:7968  ProposalExecuted(proposalId) */\n      0x712ae1383f79ac853f8d882153778e0260ef8f03b504e2866e0593e04d2b291f\n      mload(0x40)\n      mload(0x40)\n      dup1\n      swap2\n      sub\n      swap1\n      log2\n        /* \"test.sol\":6934:7976  {... */\n      pop\n        /* \"test.sol\":6880:7976  function executeProposal(uint256 proposalId) external {... */\n      pop\n      jump\t// out\n        /* \"test.sol\":5694:6744  function castVote(uint256 proposalId, bool support) external {... */\n    tag_25:\n        /* \"test.sol\":5766:5783  Vote storage vote */\n      0x00\n        /* \"test.sol\":5786:5791  votes */\n      0x02\n        /* \"test.sol\":5786:5803  votes[proposalId] */\n      0x00\n        /* \"test.sol\":5792:5802  proposalId */\n      dup5\n        /* \"test.sol\":5786:5803  votes[proposalId] */\n      dup2\n      mstore\n      0x20\n      add\n      swap1\n      dup2\n      mstore\n      0x20\n      add\n      0x00\n      keccak256\n        /* \"test.sol\":5766:5803  Vote storage vote = votes[proposalId] */\n      swap1\n      pop\n        /* \"test.sol\":5841:5845  vote */\n      dup1\n        /* \"test.sol\":5841:5855  vote.startTime */\n      0x02\n      add\n      sload\n        /* \"test.sol\":5822:5837  block.timestamp */\n      timestamp\n        /* \"test.sol\":5822:5855  block.timestamp >= vote.startTime */\n      lt\n      iszero\n        /* \"test.sol\":5814:5882  require(block.timestamp >= vote.startTime, \"Voting has not started\") */\n      tag_99\n      jumpi\n      mload(0x40)\n      0x08c379a000000000000000000000000000000000000000000000000000000000\n      dup2\n      mstore\n      0x04\n      add\n      tag_100\n      swap1\n      tag_101\n      jump\t// in\n    tag_100:\n      mload(0x40)\n      dup1\n      swap2\n      sub\n      swap1\n      revert\n    tag_99:\n        /* \"test.sol\":5920:5924  vote */\n      dup1\n        /* \"test.sol\":5920:5932  vote.endTime */\n      0x03\n      add\n      sload\n        /* \"test.sol\":5901:5916  block.timestamp */\n      timestamp\n        /* \"test.sol\":5901:5932  block.timestamp <= vote.endTime */\n      gt\n      iszero\n        /* \"test.sol\":5893:5953  require(block.timestamp <= vote.endTime, \"Voting has ended\") */\n      tag_102\n      jumpi\n      mload(0x40)\n      0x08c379a000000000000000000000000000000000000000000000000000000000\n      dup2\n      mstore\n      0x04\n      add\n      tag_103\n      swap1\n      tag_104\n      jump\t// in\n    tag_103:\n      mload(0x40)\n      dup1\n      swap2\n      sub\n      swap1\n      revert\n    tag_102:\n        /* \"test.sol\":5973:5977  vote */\n      dup1\n        /* \"test.sol\":5973:5986  vote.hasVoted */\n      0x09\n      add\n        /* \"test.sol\":5973:5998  vote.hasVoted[msg.sender] */\n      0x00\n        /* \"test.sol\":5987:5997  msg.sender */\n      caller\n        /* \"test.sol\":5973:5998  vote.hasVoted[msg.sender] */\n      0xffffffffffffffffffffffffffffffffffffffff\n      and\n      0xffffffffffffffffffffffffffffffffffffffff\n      and\n      dup2\n      mstore\n      0x20\n      add\n      swap1\n      dup2\n      mstore\n      0x20\n      add\n      0x00\n      keccak256\n      0x00\n      swap1\n      sload\n      swap1\n      0x0100\n      exp\n      swap1\n      div\n      0xff\n      and\n        /* \"test.sol\":5972:5998  !vote.hasVoted[msg.sender] */\n      iszero\n        /* \"test.sol\":5964:6016  require(!vote.hasVoted[msg.sender], \"Already voted\") */\n      tag_105\n      jumpi\n      mload(0x40)\n      0x08c379a000000000000000000000000000000000000000000000000000000000\n      dup2\n      mstore\n      0x04\n      add\n      tag_106\n      swap1\n      tag_107\n      jump\t// in\n    tag_106:\n      mload(0x40)\n      dup1\n      swap2\n      sub\n      swap1\n      revert\n    tag_105:\n        /* \"test.sol\":6029:6049  uint256 voterBalance */\n      0x00\n        /* \"test.sol\":6059:6064  locks */\n      0x03\n        /* \"test.sol\":6059:6076  locks[msg.sender] */\n      0x00\n        /* \"test.sol\":6065:6075  msg.sender */\n      caller\n        /* \"test.sol\":6059:6076  locks[msg.sender] */\n      0xffffffffffffffffffffffffffffffffffffffff\n      and\n      0xffffffffffffffffffffffffffffffffffffffff\n      and\n      dup2\n      mstore\n      0x20\n      add\n      swap1\n      dup2\n      mstore\n      0x20\n      add\n      0x00\n      keccak256\n        /* \"test.sol\":6059:6082  locks[msg.sender].token */\n      0x05\n      add\n      0x01\n      swap1\n      sload\n      swap1\n      0x0100\n      exp\n      swap1\n      div\n      0xffffffffffffffffffffffffffffffffffffffff\n      and\n        /* \"test.sol\":6052:6093  IERC20(locks[msg.sender].token).balanceOf */\n      0xffffffffffffffffffffffffffffffffffffffff\n      and\n      0x70a08231\n        /* \"test.sol\":6094:6104  msg.sender */\n      caller\n        /* \"test.sol\":6052:6105  IERC20(locks[msg.sender].token).balanceOf(msg.sender) */\n      mload(0x40)\n      dup3\n      0xffffffff\n      and\n      0xe0\n      shl\n      dup2\n      mstore\n      0x04\n      add\n      tag_108\n      swap2\n      swap1\n      tag_55\n      jump\t// in\n    tag_108:\n      0x20\n      mload(0x40)\n      dup1\n      dup4\n      sub\n      dup2\n      dup7\n      gas\n      staticcall\n      iszero\n      dup1\n      iszero\n      tag_110\n      jumpi\n      returndatasize\n      0x00\n      dup1\n      returndatacopy\n      revert(0x00, returndatasize)\n    tag_110:\n      pop\n      pop\n      pop\n      pop\n      mload(0x40)\n      returndatasize\n      not(0x1f)\n      0x1f\n      dup3\n      add\n      and\n      dup3\n      add\n      dup1\n      0x40\n      mstore\n      pop\n      dup2\n      add\n      swap1\n      tag_111\n      swap2\n      swap1\n      tag_112\n      jump\t// in\n    tag_111:\n        /* \"test.sol\":6029:6105  uint256 voterBalance = IERC20(locks[msg.sender].token).balanceOf(msg.sender) */\n      swap1\n      pop\n        /* \"test.sol\":6116:6137  uint256 lockedBalance */\n      0x00\n        /* \"test.sol\":6140:6207  locks[msg.sender].totalAmount.sub(locks[msg.sender].releasedAmount) */\n      tag_113\n        /* \"test.sol\":6174:6179  locks */\n      0x03\n        /* \"test.sol\":6174:6191  locks[msg.sender] */\n      0x00\n        /* \"test.sol\":6180:6190  msg.sender */\n      caller\n        /* \"test.sol\":6174:6191  locks[msg.sender] */\n      0xffffffffffffffffffffffffffffffffffffffff\n      and\n      0xffffffffffffffffffffffffffffffffffffffff\n      and\n      dup2\n      mstore\n      0x20\n      add\n      swap1\n      dup2\n      mstore\n      0x20\n      add\n      0x00\n      keccak256\n        /* \"test.sol\":6174:6206  locks[msg.sender].releasedAmount */\n      0x01\n      add\n      sload\n        /* \"test.sol\":6140:6145  locks */\n      0x03\n        /* \"test.sol\":6140:6157  locks[msg.sender] */\n      0x00\n        /* \"test.sol\":6146:6156  msg.sender */\n      caller\n        /* \"test.sol\":6140:6157  locks[msg.sender] */\n      0xffffffffffffffffffffffffffffffffffffffff\n      and\n      0xffffffffffffffffffffffffffffffffffffffff\n      and\n      dup2\n      mstore\n      0x20\n      add\n      swap1\n      dup2\n      mstore\n      0x20\n      add\n      0x00\n      keccak256\n        /* \"test.sol\":6140:6169  locks[msg.sender].totalAmount */\n      0x00\n      add\n      sload\n        /* \"test.sol\":6140:6173  locks[msg.sender].totalAmount.sub */\n      tag_114\n      swap1\n        /* \"test.sol\":6140:6207  locks[msg.sender].totalAmount.sub(locks[msg.sender].releasedAmount) */\n      swap2\n      swap1\n      0xffffffff\n      and\n      jump\t// in\n    tag_113:\n        /* \"test.sol\":6116:6207  uint256 lockedBalance = locks[msg.sender].totalAmount.sub(locks[msg.sender].releasedAmount) */\n      swap1\n      pop\n        /* \"test.sol\":6218:6243  uint256 circulatingSupply */\n      0x00\n        /* \"test.sol\":6246:6310  IERC20(locks[msg.sender].token).totalSupply().sub(lockedBalance) */\n      tag_115\n        /* \"test.sol\":6296:6309  lockedBalance */\n      dup3\n        /* \"test.sol\":6253:6258  locks */\n      0x03\n        /* \"test.sol\":6253:6270  locks[msg.sender] */\n      0x00\n        /* \"test.sol\":6259:6269  msg.sender */\n      caller\n        /* \"test.sol\":6253:6270  locks[msg.sender] */\n      0xffffffffffffffffffffffffffffffffffffffff\n      and\n      0xffffffffffffffffffffffffffffffffffffffff\n      and\n      dup2\n      mstore\n      0x20\n      add\n      swap1\n      dup2\n      mstore\n      0x20\n      add\n      0x00\n      keccak256\n        /* \"test.sol\":6253:6276  locks[msg.sender].token */\n      0x05\n      add\n      0x01\n      swap1\n      sload\n      swap1\n      0x0100\n      exp\n      swap1\n      div\n      0xffffffffffffffffffffffffffffffffffffffff\n      and\n        /* \"test.sol\":6246:6289  IERC20(locks[msg.sender].token).totalSupply */\n      0xffffffffffffffffffffffffffffffffffffffff\n      and\n      0x18160ddd\n        /* \"test.sol\":6246:6291  IERC20(locks[msg.sender].token).totalSupply() */\n      mload(0x40)\n      dup2\n      0xffffffff\n      and\n      0xe0\n      shl\n      dup2\n      mstore\n      0x04\n      add\n      0x20\n      mload(0x40)\n      dup1\n      dup4\n      sub\n      dup2\n      dup7\n      gas\n      staticcall\n      iszero\n      dup1\n      iszero\n      tag_117\n      jumpi\n      returndatasize\n      0x00\n      dup1\n      returndatacopy\n      revert(0x00, returndatasize)\n    tag_117:\n      pop\n      pop\n      pop\n      pop\n      mload(0x40)\n      returndatasize\n      not(0x1f)\n      0x1f\n      dup3\n      add\n      and\n      dup3\n      add\n      dup1\n      0x40\n      mstore\n      pop\n      dup2\n      add\n      swap1\n      tag_118\n      swap2\n      swap1\n      tag_112\n      jump\t// in\n    tag_118:\n        /* \"test.sol\":6246:6295  IERC20(locks[msg.sender].token).totalSupply().sub */\n      tag_114\n      swap1\n        /* \"test.sol\":6246:6310  IERC20(locks[msg.sender].token).totalSupply().sub(lockedBalance) */\n      swap2\n      swap1\n      0xffffffff\n      and\n      jump\t// in\n    tag_115:\n        /* \"test.sol\":6218:6310  uint256 circulatingSupply = IERC20(locks[msg.sender].token).totalSupply().sub(lockedBalance) */\n      swap1\n      pop\n        /* \"test.sol\":6323:6342  uint256 voterWeight */\n      0x00\n        /* \"test.sol\":6345:6390  voterBalance.mul(1e18).div(circulatingSupply) */\n      tag_119\n        /* \"test.sol\":6372:6389  circulatingSupply */\n      dup3\n        /* \"test.sol\":6345:6367  voterBalance.mul(1e18) */\n      tag_120\n        /* \"test.sol\":6362:6366  1e18 */\n      0x0de0b6b3a7640000\n        /* \"test.sol\":6345:6357  voterBalance */\n      dup8\n        /* \"test.sol\":6345:6361  voterBalance.mul */\n      tag_121\n      swap1\n        /* \"test.sol\":6345:6367  voterBalance.mul(1e18) */\n      swap2\n      swap1\n      0xffffffff\n      and\n      jump\t// in\n    tag_120:\n        /* \"test.sol\":6345:6371  voterBalance.mul(1e18).div */\n      tag_122\n      swap1\n        /* \"test.sol\":6345:6390  voterBalance.mul(1e18).div(circulatingSupply) */\n      swap2\n      swap1\n      0xffffffff\n      and\n      jump\t// in\n    tag_119:\n        /* \"test.sol\":6323:6390  uint256 voterWeight = voterBalance.mul(1e18).div(circulatingSupply) */\n      swap1\n      pop\n        /* \"test.sol\":6423:6424  0 */\n      0x00\n        /* \"test.sol\":6409:6420  voterWeight */\n      dup2\n        /* \"test.sol\":6409:6424  voterWeight > 0 */\n      gt\n        /* \"test.sol\":6401:6444  require(voterWeight > 0, \"No voting power\") */\n      tag_123\n      jumpi\n      mload(0x40)\n      0x08c379a000000000000000000000000000000000000000000000000000000000\n      dup2\n      mstore\n      0x04\n      add\n      tag_124\n      swap1\n      tag_125\n      jump\t// in\n    tag_124:\n      mload(0x40)\n      dup1\n      swap2\n      sub\n      swap1\n      revert\n    tag_123:\n        /* \"test.sol\":6461:6468  support */\n      dup6\n        /* \"test.sol\":6457:6620  if (support) {... */\n      iszero\n      tag_126\n      jumpi\n        /* \"test.sol\":6501:6531  vote.yesVotes.add(voterWeight) */\n      tag_127\n        /* \"test.sol\":6519:6530  voterWeight */\n      dup2\n        /* \"test.sol\":6501:6505  vote */\n      dup7\n        /* \"test.sol\":6501:6514  vote.yesVotes */\n      0x04\n      add\n      sload\n        /* \"test.sol\":6501:6518  vote.yesVotes.add */\n      tag_84\n      swap1\n        /* \"test.sol\":6501:6531  vote.yesVotes.add(voterWeight) */\n      swap2\n      swap1\n      0xffffffff\n      and\n      jump\t// in\n    tag_127:\n        /* \"test.sol\":6485:6489  vote */\n      dup6\n        /* \"test.sol\":6485:6498  vote.yesVotes */\n      0x04\n      add\n        /* \"test.sol\":6485:6531  vote.yesVotes = vote.yesVotes.add(voterWeight) */\n      dup2\n      swap1\n      sstore\n      pop\n        /* \"test.sol\":6457:6620  if (support) {... */\n      jump(tag_128)\n    tag_126:\n        /* \"test.sol\":6579:6608  vote.noVotes.add(voterWeight) */\n      tag_129\n        /* \"test.sol\":6596:6607  voterWeight */\n      dup2\n        /* \"test.sol\":6579:6583  vote */\n      dup7\n        /* \"test.sol\":6579:6591  vote.noVotes */\n      0x05\n      add\n      sload\n        /* \"test.sol\":6579:6595  vote.noVotes.add */\n      tag_84\n      swap1\n        /* \"test.sol\":6579:6608  vote.noVotes.add(voterWeight) */\n      swap2\n      swap1\n      0xffffffff\n      and\n      jump\t// in\n    tag_129:\n        /* \"test.sol\":6564:6568  vote */\n      dup6\n        /* \"test.sol\":6564:6576  vote.noVotes */\n      0x05\n      add\n        /* \"test.sol\":6564:6608  vote.noVotes = vote.noVotes.add(voterWeight) */\n      dup2\n      swap1\n      sstore\n      pop\n        /* \"test.sol\":6457:6620  if (support) {... */\n    tag_128:\n        /* \"test.sol\":6660:6664  true */\n      0x01\n        /* \"test.sol\":6632:6636  vote */\n      dup6\n        /* \"test.sol\":6632:6645  vote.hasVoted */\n      0x09\n      add\n        /* \"test.sol\":6632:6657  vote.hasVoted[msg.sender] */\n      0x00\n        /* \"test.sol\":6646:6656  msg.sender */\n      caller\n        /* \"test.sol\":6632:6657  vote.hasVoted[msg.sender] */\n      0xffffffffffffffffffffffffffffffffffffffff\n      and\n      0xffffffffffffffffffffffffffffffffffffffff\n      and\n      dup2\n      mstore\n      0x20\n      add\n      swap1\n      dup2\n      mstore\n      0x20\n      add\n      0x00\n      keccak256\n      0x00\n        /* \"test.sol\":6632:6664  vote.hasVoted[msg.sender] = true */\n      0x0100\n      exp\n      dup2\n      sload\n      dup2\n      0xff\n      mul\n      not\n      and\n      swap1\n      dup4\n      iszero\n      iszero\n      mul\n      or\n      swap1\n      sstore\n      pop\n        /* \"test.sol\":6703:6713  msg.sender */\n      caller\n        /* \"test.sol\":6682:6736  VoteCast(proposalId, msg.sender, support, voterWeight) */\n      0xffffffffffffffffffffffffffffffffffffffff\n      and\n        /* \"test.sol\":6691:6701  proposalId */\n      dup8\n        /* \"test.sol\":6682:6736  VoteCast(proposalId, msg.sender, support, voterWeight) */\n      0xcbdf6214089cba887ecbf35a0b6a734589959c9763342c756bb2a80ca2bc9f6e\n        /* \"test.sol\":6715:6722  support */\n      dup9\n        /* \"test.sol\":6724:6735  voterWeight */\n      dup5\n        /* \"test.sol\":6682:6736  VoteCast(proposalId, msg.sender, support, voterWeight) */\n      mload(0x40)\n      tag_130\n      swap3\n      swap2\n      swap1\n      tag_131\n      jump\t// in\n    tag_130:\n      mload(0x40)\n      dup1\n      swap2\n      sub\n      swap1\n      log3\n        /* \"test.sol\":5755:6744  {... */\n      pop\n      pop\n      pop\n      pop\n      pop\n        /* \"test.sol\":5694:6744  function castVote(uint256 proposalId, bool support) external {... */\n      pop\n      pop\n      jump\t// out\n        /* \"test.sol\":943:972  uint256 public nextProposalId */\n    tag_27:\n      sload(0x01)\n      dup2\n      jump\t// out\n        /* \"test.sol\":2175:3093  function lockTokens(... */\n    tag_33:\n        /* \"test.sol\":2353:2354  0 */\n      0x00\n        /* \"test.sol\":2344:2350  amount */\n      dup4\n        /* \"test.sol\":2344:2354  amount > 0 */\n      gt\n        /* \"test.sol\":2336:2391  require(amount > 0, \"Amount must be greater than zero\") */\n      tag_133\n      jumpi\n      mload(0x40)\n      0x08c379a000000000000000000000000000000000000000000000000000000000\n      dup2\n      mstore\n      0x04\n      add\n      tag_134\n      swap1\n      tag_135\n      jump\t// in\n    tag_134:\n      mload(0x40)\n      dup1\n      swap2\n      sub\n      swap1\n      revert\n    tag_133:\n        /* \"test.sol\":2426:2434  180 days */\n      0xed4e00\n        /* \"test.sol\":2410:2422  lockDuration */\n      dup3\n        /* \"test.sol\":2410:2434  lockDuration >= 180 days */\n      lt\n      iszero\n        /* \"test.sol\":2402:2478  require(lockDuration >= 180 days, \"Lock duration must be at least 6 months\") */\n      tag_136\n      jumpi\n      mload(0x40)\n      0x08c379a000000000000000000000000000000000000000000000000000000000\n      dup2\n      mstore\n      0x04\n      add\n      tag_137\n      swap1\n      tag_138\n      jump\t// in\n    tag_137:\n      mload(0x40)\n      dup1\n      swap2\n      sub\n      swap1\n      revert\n    tag_136:\n        /* \"test.sol\":2516:2517  0 */\n      0x00\n        /* \"test.sol\":2497:2512  vestingDuration */\n      dup2\n        /* \"test.sol\":2497:2517  vestingDuration >= 0 */\n      lt\n      iszero\n        /* \"test.sol\":2489:2559  require(vestingDuration >= 0, \"Vesting duration must be non-negative\") */\n      tag_139\n      jumpi\n      mload(0x40)\n      0x08c379a000000000000000000000000000000000000000000000000000000000\n      dup2\n      mstore\n      0x04\n      add\n      tag_140\n      swap1\n      tag_141\n      jump\t// in\n    tag_140:\n      mload(0x40)\n      dup1\n      swap2\n      sub\n      swap1\n      revert\n    tag_139:\n        /* \"test.sol\":2572:2584  IERC20 erc20 */\n      0x00\n        /* \"test.sol\":2594:2599  token */\n      dup5\n        /* \"test.sol\":2572:2600  IERC20 erc20 = IERC20(token) */\n      swap1\n      pop\n        /* \"test.sol\":2619:2624  erc20 */\n      dup1\n        /* \"test.sol\":2619:2637  erc20.transferFrom */\n      0xffffffffffffffffffffffffffffffffffffffff\n      and\n      0x23b872dd\n        /* \"test.sol\":2638:2648  msg.sender */\n      caller\n        /* \"test.sol\":2658:2662  this */\n      address\n        /* \"test.sol\":2665:2671  amount */\n      dup8\n        /* \"test.sol\":2619:2672  erc20.transferFrom(msg.sender, address(this), amount) */\n      mload(0x40)\n      dup5\n      0xffffffff\n      and\n      0xe0\n      shl\n      dup2\n      mstore\n      0x04\n      add\n      tag_142\n      swap4\n      swap3\n      swap2\n      swap1\n      tag_143\n      jump\t// in\n    tag_142:\n      0x20\n      mload(0x40)\n      dup1\n      dup4\n      sub\n      dup2\n      0x00\n      dup8\n      gas\n      call\n      iszero\n      dup1\n      iszero\n      tag_145\n      jumpi\n      returndatasize\n      0x00\n      dup1\n      returndatacopy\n      revert(0x00, returndatasize)\n    tag_145:\n      pop\n      pop\n      pop\n      pop\n      mload(0x40)\n      returndatasize\n      not(0x1f)\n      0x1f\n      dup3\n      add\n      and\n      dup3\n      add\n      dup1\n      0x40\n      mstore\n      pop\n      dup2\n      add\n      swap1\n      tag_146\n      swap2\n      swap1\n      tag_93\n      jump\t// in\n    tag_146:\n        /* \"test.sol\":2611:2698  require(erc20.transferFrom(msg.sender, address(this), amount), \"Token transfer failed\") */\n      tag_147\n      jumpi\n      mload(0x40)\n      0x08c379a000000000000000000000000000000000000000000000000000000000\n      dup2\n      mstore\n      0x04\n      add\n      tag_148\n      swap1\n      tag_149\n      jump\t// in\n    tag_148:\n      mload(0x40)\n      dup1\n      swap2\n      sub\n      swap1\n      revert\n    tag_147:\n        /* \"test.sol\":2731:2997  Lock({... */\n      mload(0x40)\n      dup1\n      0xe0\n      add\n      0x40\n      mstore\n      dup1\n        /* \"test.sol\":2764:2770  amount */\n      dup6\n        /* \"test.sol\":2731:2997  Lock({... */\n      dup2\n      mstore\n      0x20\n      add\n        /* \"test.sol\":2801:2802  0 */\n      0x00\n        /* \"test.sol\":2731:2997  Lock({... */\n      dup2\n      mstore\n      0x20\n      add\n        /* \"test.sol\":2828:2843  block.timestamp */\n      timestamp\n        /* \"test.sol\":2731:2997  Lock({... */\n      dup2\n      mstore\n      0x20\n      add\n        /* \"test.sol\":2872:2884  lockDuration */\n      dup5\n        /* \"test.sol\":2731:2997  Lock({... */\n      dup2\n      mstore\n      0x20\n      add\n        /* \"test.sol\":2916:2931  vestingDuration */\n      dup4\n        /* \"test.sol\":2731:2997  Lock({... */\n      dup2\n      mstore\n      0x20\n      add\n        /* \"test.sol\":2954:2958  true */\n      0x01\n        /* \"test.sol\":2731:2997  Lock({... */\n      iszero\n      iszero\n      dup2\n      mstore\n      0x20\n      add\n        /* \"test.sol\":2980:2985  token */\n      dup7\n        /* \"test.sol\":2731:2997  Lock({... */\n      0xffffffffffffffffffffffffffffffffffffffff\n      and\n      dup2\n      mstore\n      pop\n        /* \"test.sol\":2711:2716  locks */\n      0x03\n        /* \"test.sol\":2711:2728  locks[msg.sender] */\n      0x00\n        /* \"test.sol\":2717:2727  msg.sender */\n      caller\n        /* \"test.sol\":2711:2728  locks[msg.sender] */\n      0xffffffffffffffffffffffffffffffffffffffff\n      and\n      0xffffffffffffffffffffffffffffffffffffffff\n      and\n      dup2\n      mstore\n      0x20\n      add\n      swap1\n      dup2\n      mstore\n      0x20\n      add\n      0x00\n      keccak256\n        /* \"test.sol\":2711:2997  locks[msg.sender] = Lock({... */\n      0x00\n      dup3\n      add\n      mload\n      dup2\n      0x00\n      add\n      sstore\n      0x20\n      dup3\n      add\n      mload\n      dup2\n      0x01\n      add\n      sstore\n      0x40\n      dup3\n      add\n      mload\n      dup2\n      0x02\n      add\n      sstore\n      0x60\n      dup3\n      add\n      mload\n      dup2\n      0x03\n      add\n      sstore\n      0x80\n      dup3\n      add\n      mload\n      dup2\n      0x04\n      add\n      sstore\n      0xa0\n      dup3\n      add\n      mload\n      dup2\n      0x05\n      add\n      exp(0x0100, 0x00)\n      dup2\n      sload\n      dup2\n      0xff\n      mul\n      not\n      and\n      swap1\n      dup4\n      iszero\n      iszero\n      mul\n      or\n      swap1\n      sstore\n      pop\n      0xc0\n      dup3\n      add\n      mload\n      dup2\n      0x05\n      add\n      exp(0x0100, 0x01)\n      dup2\n      sload\n      dup2\n      0xffffffffffffffffffffffffffffffffffffffff\n      mul\n      not\n      and\n      swap1\n      dup4\n      0xffffffffffffffffffffffffffffffffffffffff\n      and\n      mul\n      or\n      swap1\n      sstore\n      pop\n      swap1\n      pop\n      pop\n        /* \"test.sol\":3040:3045  token */\n      dup5\n        /* \"test.sol\":3015:3085  TokensLocked(msg.sender, token, amount, lockDuration, vestingDuration) */\n      0xffffffffffffffffffffffffffffffffffffffff\n      and\n        /* \"test.sol\":3028:3038  msg.sender */\n      caller\n        /* \"test.sol\":3015:3085  TokensLocked(msg.sender, token, amount, lockDuration, vestingDuration) */\n      0xffffffffffffffffffffffffffffffffffffffff\n      and\n      0xa6782d3322abbfbe850e6d5c5c78e8e1df603ea07608bb9a62dd83f40d4feccc\n        /* \"test.sol\":3047:3053  amount */\n      dup7\n        /* \"test.sol\":3055:3067  lockDuration */\n      dup7\n        /* \"test.sol\":3069:3084  vestingDuration */\n      dup7\n        /* \"test.sol\":3015:3085  TokensLocked(msg.sender, token, amount, lockDuration, vestingDuration) */\n      mload(0x40)\n      tag_150\n      swap4\n      swap3\n      swap2\n      swap1\n      tag_151\n      jump\t// in\n    tag_150:\n      mload(0x40)\n      dup1\n      swap2\n      sub\n      swap1\n      log3\n        /* \"test.sol\":2325:3093  {... */\n      pop\n        /* \"test.sol\":2175:3093  function lockTokens(... */\n      pop\n      pop\n      pop\n      pop\n      jump\t// out\n        /* \"test.sol\":1023:1060  mapping(address => Lock) public locks */\n    tag_37:\n      mstore(0x20, 0x03)\n      dup1\n      0x00\n      mstore\n      keccak256(0x00, 0x40)\n      0x00\n      swap2\n      pop\n      swap1\n      pop\n      dup1\n      0x00\n      add\n      sload\n      swap1\n      dup1\n      0x01\n      add\n      sload\n      swap1\n      dup1\n      0x02\n      add\n      sload\n      swap1\n      dup1\n      0x03\n      add\n      sload\n      swap1\n      dup1\n      0x04\n      add\n      sload\n      swap1\n      dup1\n      0x05\n      add\n      0x00\n      swap1\n      sload\n      swap1\n      0x0100\n      exp\n      swap1\n      div\n      0xff\n      and\n      swap1\n      dup1\n      0x05\n      add\n      0x01\n      swap1\n      sload\n      swap1\n      0x0100\n      exp\n      swap1\n      div\n      0xffffffffffffffffffffffffffffffffffffffff\n      and\n      swap1\n      pop\n      dup8\n      jump\t// out\n        /* \"test.sol\":979:1016  mapping(uint256 => Vote) public votes */\n    tag_42:\n      mstore(0x20, 0x02)\n      dup1\n      0x00\n      mstore\n      keccak256(0x00, 0x40)\n      0x00\n      swap2\n      pop\n      swap1\n      pop\n      dup1\n      0x00\n      add\n      sload\n      swap1\n      dup1\n      0x01\n      add\n      0x00\n      swap1\n      sload\n      swap1\n      0x0100\n      exp\n      swap1\n      div\n      0xffffffffffffffffffffffffffffffffffffffff\n      and\n      swap1\n      dup1\n      0x02\n      add\n      sload\n      swap1\n      dup1\n      0x03\n      add\n      sload\n      swap1\n      dup1\n      0x04\n      add\n      sload\n      swap1\n      dup1\n      0x05\n      add\n      sload\n      swap1\n      dup1\n      0x06\n      add\n      dup1\n      sload\n      tag_152\n      swap1\n      tag_153\n      jump\t// in\n    tag_152:\n      dup1\n      0x1f\n      add\n      0x20\n      dup1\n      swap2\n      div\n      mul\n      0x20\n      add\n      mload(0x40)\n      swap1\n      dup2\n      add\n      0x40\n      mstore\n      dup1\n      swap3\n      swap2\n      swap1\n      dup2\n      dup2\n      mstore\n      0x20\n      add\n      dup3\n      dup1\n      sload\n      tag_154\n      swap1\n      tag_153\n      jump\t// in\n    tag_154:\n      dup1\n      iszero\n      tag_155\n      jumpi\n      dup1\n      0x1f\n      lt\n      tag_156\n      jumpi\n      0x0100\n      dup1\n      dup4\n      sload\n      div\n      mul\n      dup4\n      mstore\n      swap2\n      0x20\n      add\n      swap2\n      jump(tag_155)\n    tag_156:\n      dup3\n      add\n      swap2\n      swap1\n      0x00\n      mstore\n      keccak256(0x00, 0x20)\n      swap1\n    tag_157:\n      dup2\n      sload\n      dup2\n      mstore\n      swap1\n      0x01\n      add\n      swap1\n      0x20\n      add\n      dup1\n      dup4\n      gt\n      tag_157\n      jumpi\n      dup3\n      swap1\n      sub\n      0x1f\n      and\n      dup3\n      add\n      swap2\n    tag_155:\n      pop\n      pop\n      pop\n      pop\n      pop\n      swap1\n      dup1\n      0x07\n      add\n      sload\n      swap1\n      dup1\n      0x08\n      add\n      0x00\n      swap1\n      sload\n      swap1\n      0x0100\n      exp\n      swap1\n      div\n      0xff\n      and\n      swap1\n      pop\n      dup10\n      jump\t// out\n        /* \"@openzeppelin/contracts/access/Ownable.sol\":2293:2394  function renounceOwnership() public virtual onlyOwner {... */\n    tag_46:\n        /* \"@openzeppelin/contracts/access/Ownable.sol\":1531:1544  _checkOwner() */\n      tag_159\n        /* \"@openzeppelin/contracts/access/Ownable.sol\":1531:1542  _checkOwner */\n      tag_160\n        /* \"@openzeppelin/contracts/access/Ownable.sol\":1531:1544  _checkOwner() */\n      jump\t// in\n    tag_159:\n        /* \"@openzeppelin/contracts/access/Ownable.sol\":2357:2387  _transferOwnership(address(0)) */\n      tag_162\n        /* \"@openzeppelin/contracts/access/Ownable.sol\":2384:2385  0 */\n      0x00\n        /* \"@openzeppelin/contracts/access/Ownable.sol\":2357:2375  _transferOwnership */\n      tag_163\n        /* \"@openzeppelin/contracts/access/Ownable.sol\":2357:2387  _transferOwnership(address(0)) */\n      jump\t// in\n    tag_162:\n        /* \"@openzeppelin/contracts/access/Ownable.sol\":2293:2394  function renounceOwnership() public virtual onlyOwner {... */\n      jump\t// out\n        /* \"test.sol\":1067:1119  mapping(address => bool) public communityVotedUnlock */\n    tag_49:\n      mstore(0x20, 0x04)\n      dup1\n      0x00\n      mstore\n      keccak256(0x00, 0x40)\n      0x00\n      swap2\n      pop\n      sload\n      swap1\n      0x0100\n      exp\n      swap1\n      div\n      0xff\n      and\n      dup2\n      jump\t// out\n        /* \"@openzeppelin/contracts/access/Ownable.sol\":1638:1723  function owner() public view virtual returns (address) {... */\n    tag_53:\n        /* \"@openzeppelin/contracts/access/Ownable.sol\":1684:1691  address */\n      0x00\n        /* \"@openzeppelin/contracts/access/Ownable.sol\":1710:1716  _owner */\n      dup1\n      0x00\n      swap1\n      sload\n      swap1\n      0x0100\n      exp\n      swap1\n      div\n      0xffffffffffffffffffffffffffffffffffffffff\n      and\n        /* \"@openzeppelin/contracts/access/Ownable.sol\":1703:1716  return _owner */\n      swap1\n      pop\n        /* \"@openzeppelin/contracts/access/Ownable.sol\":1638:1723  function owner() public view virtual returns (address) {... */\n      swap1\n      jump\t// out\n        /* \"test.sol\":8108:8304  function viewRemainingTokens(address user) external view returns (uint256) {... */\n    tag_58:\n        /* \"test.sol\":8174:8181  uint256 */\n      0x00\n        /* \"test.sol\":8194:8215  Lock storage userLock */\n      dup1\n        /* \"test.sol\":8218:8223  locks */\n      0x03\n        /* \"test.sol\":8218:8229  locks[user] */\n      0x00\n        /* \"test.sol\":8224:8228  user */\n      dup5\n        /* \"test.sol\":8218:8229  locks[user] */\n      0xffffffffffffffffffffffffffffffffffffffff\n      and\n      0xffffffffffffffffffffffffffffffffffffffff\n      and\n      dup2\n      mstore\n      0x20\n      add\n      swap1\n      dup2\n      mstore\n      0x20\n      add\n      0x00\n      keccak256\n        /* \"test.sol\":8194:8229  Lock storage userLock = locks[user] */\n      swap1\n      pop\n        /* \"test.sol\":8247:8296  userLock.totalAmount.sub(userLock.releasedAmount) */\n      tag_166\n        /* \"test.sol\":8272:8280  userLock */\n      dup2\n        /* \"test.sol\":8272:8295  userLock.releasedAmount */\n      0x01\n      add\n      sload\n        /* \"test.sol\":8247:8255  userLock */\n      dup3\n        /* \"test.sol\":8247:8267  userLock.totalAmount */\n      0x00\n      add\n      sload\n        /* \"test.sol\":8247:8271  userLock.totalAmount.sub */\n      tag_114\n      swap1\n        /* \"test.sol\":8247:8296  userLock.totalAmount.sub(userLock.releasedAmount) */\n      swap2\n      swap1\n      0xffffffff\n      and\n      jump\t// in\n    tag_166:\n        /* \"test.sol\":8240:8296  return userLock.totalAmount.sub(userLock.releasedAmount) */\n      swap2\n      pop\n      pop\n        /* \"test.sol\":8108:8304  function viewRemainingTokens(address user) external view returns (uint256) {... */\n      swap2\n      swap1\n      pop\n      jump\t// out\n        /* \"test.sol\":3181:4359  function releaseTokens() external onlyIfActive(msg.sender) {... */\n    tag_61:\n        /* \"test.sol\":3228:3238  msg.sender */\n      caller\n        /* \"test.sol\":1734:1739  locks */\n      0x03\n        /* \"test.sol\":1734:1745  locks[user] */\n      0x00\n        /* \"test.sol\":1740:1744  user */\n      dup3\n        /* \"test.sol\":1734:1745  locks[user] */\n      0xffffffffffffffffffffffffffffffffffffffff\n      and\n      0xffffffffffffffffffffffffffffffffffffffff\n      and\n      dup2\n      mstore\n      0x20\n      add\n      swap1\n      dup2\n      mstore\n      0x20\n      add\n      0x00\n      keccak256\n        /* \"test.sol\":1734:1752  locks[user].active */\n      0x05\n      add\n      0x00\n      swap1\n      sload\n      swap1\n      0x0100\n      exp\n      swap1\n      div\n      0xff\n      and\n        /* \"test.sol\":1726:1777  require(locks[user].active, \"No active lock found\") */\n      tag_168\n      jumpi\n      mload(0x40)\n      0x08c379a000000000000000000000000000000000000000000000000000000000\n      dup2\n      mstore\n      0x04\n      add\n      tag_169\n      swap1\n      tag_170\n      jump\t// in\n    tag_169:\n      mload(0x40)\n      dup1\n      swap2\n      sub\n      swap1\n      revert\n    tag_168:\n        /* \"test.sol\":3251:3272  Lock storage userLock */\n      0x00\n        /* \"test.sol\":3275:3280  locks */\n      0x03\n        /* \"test.sol\":3275:3292  locks[msg.sender] */\n      0x00\n        /* \"test.sol\":3281:3291  msg.sender */\n      caller\n        /* \"test.sol\":3275:3292  locks[msg.sender] */\n      0xffffffffffffffffffffffffffffffffffffffff\n      and\n      0xffffffffffffffffffffffffffffffffffffffff\n      and\n      dup2\n      mstore\n      0x20\n      add\n      swap1\n      dup2\n      mstore\n      0x20\n      add\n      0x00\n      keccak256\n        /* \"test.sol\":3251:3292  Lock storage userLock = locks[msg.sender] */\n      swap1\n      pop\n        /* \"test.sol\":3332:3377  userLock.lockStart.add(userLock.lockDuration) */\n      tag_172\n        /* \"test.sol\":3355:3363  userLock */\n      dup2\n        /* \"test.sol\":3355:3376  userLock.lockDuration */\n      0x03\n      add\n      sload\n        /* \"test.sol\":3332:3340  userLock */\n      dup3\n        /* \"test.sol\":3332:3350  userLock.lockStart */\n      0x02\n      add\n      sload\n        /* \"test.sol\":3332:3354  userLock.lockStart.add */\n      tag_84\n      swap1\n        /* \"test.sol\":3332:3377  userLock.lockStart.add(userLock.lockDuration) */\n      swap2\n      swap1\n      0xffffffff\n      and\n      jump\t// in\n    tag_172:\n        /* \"test.sol\":3313:3328  block.timestamp */\n      timestamp\n        /* \"test.sol\":3313:3377  block.timestamp >= userLock.lockStart.add(userLock.lockDuration) */\n      lt\n      iszero\n        /* \"test.sol\":3305:3406  require(block.timestamp >= userLock.lockStart.add(userLock.lockDuration), \"Lock period not yet over\") */\n      tag_173\n      jumpi\n      mload(0x40)\n      0x08c379a000000000000000000000000000000000000000000000000000000000\n      dup2\n      mstore\n      0x04\n      add\n      tag_174\n      swap1\n      tag_175\n      jump\t// in\n    tag_174:\n      mload(0x40)\n      dup1\n      swap2\n      sub\n      swap1\n      revert\n    tag_173:\n        /* \"test.sol\":3419:3438  uint256 elapsedTime */\n      0x00\n        /* \"test.sol\":3441:3507  block.timestamp.sub(userLock.lockStart.add(userLock.lockDuration)) */\n      tag_176\n        /* \"test.sol\":3461:3506  userLock.lockStart.add(userLock.lockDuration) */\n      tag_177\n        /* \"test.sol\":3484:3492  userLock */\n      dup4\n        /* \"test.sol\":3484:3505  userLock.lockDuration */\n      0x03\n      add\n      sload\n        /* \"test.sol\":3461:3469  userLock */\n      dup5\n        /* \"test.sol\":3461:3479  userLock.lockStart */\n      0x02\n      add\n      sload\n        /* \"test.sol\":3461:3483  userLock.lockStart.add */\n      tag_84\n      swap1\n        /* \"test.sol\":3461:3506  userLock.lockStart.add(userLock.lockDuration) */\n      swap2\n      swap1\n      0xffffffff\n      and\n      jump\t// in\n    tag_177:\n        /* \"test.sol\":3441:3456  block.timestamp */\n      timestamp\n        /* \"test.sol\":3441:3460  block.timestamp.sub */\n      tag_114\n      swap1\n        /* \"test.sol\":3441:3507  block.timestamp.sub(userLock.lockStart.add(userLock.lockDuration)) */\n      swap2\n      swap1\n      0xffffffff\n      and\n      jump\t// in\n    tag_176:\n        /* \"test.sol\":3419:3507  uint256 elapsedTime = block.timestamp.sub(userLock.lockStart.add(userLock.lockDuration)) */\n      swap1\n      pop\n        /* \"test.sol\":3518:3536  uint256 vestingEnd */\n      0x00\n        /* \"test.sol\":3539:3614  userLock.lockStart.add(userLock.lockDuration).add(userLock.vestingDuration) */\n      tag_178\n        /* \"test.sol\":3589:3597  userLock */\n      dup4\n        /* \"test.sol\":3589:3613  userLock.vestingDuration */\n      0x04\n      add\n      sload\n        /* \"test.sol\":3539:3584  userLock.lockStart.add(userLock.lockDuration) */\n      tag_179\n        /* \"test.sol\":3562:3570  userLock */\n      dup6\n        /* \"test.sol\":3562:3583  userLock.lockDuration */\n      0x03\n      add\n      sload\n        /* \"test.sol\":3539:3547  userLock */\n      dup7\n        /* \"test.sol\":3539:3557  userLock.lockStart */\n      0x02\n      add\n      sload\n        /* \"test.sol\":3539:3561  userLock.lockStart.add */\n      tag_84\n      swap1\n        /* \"test.sol\":3539:3584  userLock.lockStart.add(userLock.lockDuration) */\n      swap2\n      swap1\n      0xffffffff\n      and\n      jump\t// in\n    tag_179:\n        /* \"test.sol\":3539:3588  userLock.lockStart.add(userLock.lockDuration).add */\n      tag_84\n      swap1\n        /* \"test.sol\":3539:3614  userLock.lockStart.add(userLock.lockDuration).add(userLock.vestingDuration) */\n      swap2\n      swap1\n      0xffffffff\n      and\n      jump\t// in\n    tag_178:\n        /* \"test.sol\":3518:3614  uint256 vestingEnd = userLock.lockStart.add(userLock.lockDuration).add(userLock.vestingDuration) */\n      swap1\n      pop\n        /* \"test.sol\":3627:3651  uint256 releasableAmount */\n      0x00\n        /* \"test.sol\":3687:3697  vestingEnd */\n      dup2\n        /* \"test.sol\":3668:3683  block.timestamp */\n      timestamp\n        /* \"test.sol\":3668:3697  block.timestamp >= vestingEnd */\n      lt\n        /* \"test.sol\":3664:3942  if (block.timestamp >= vestingEnd) {... */\n      tag_180\n      jumpi\n        /* \"test.sol\":3733:3782  userLock.totalAmount.sub(userLock.releasedAmount) */\n      tag_181\n        /* \"test.sol\":3758:3766  userLock */\n      dup5\n        /* \"test.sol\":3758:3781  userLock.releasedAmount */\n      0x01\n      add\n      sload\n        /* \"test.sol\":3733:3741  userLock */\n      dup6\n        /* \"test.sol\":3733:3753  userLock.totalAmount */\n      0x00\n      add\n      sload\n        /* \"test.sol\":3733:3757  userLock.totalAmount.sub */\n      tag_114\n      swap1\n        /* \"test.sol\":3733:3782  userLock.totalAmount.sub(userLock.releasedAmount) */\n      swap2\n      swap1\n      0xffffffff\n      and\n      jump\t// in\n    tag_181:\n        /* \"test.sol\":3714:3782  releasableAmount = userLock.totalAmount.sub(userLock.releasedAmount) */\n      swap1\n      pop\n        /* \"test.sol\":3664:3942  if (block.timestamp >= vestingEnd) {... */\n      jump(tag_182)\n    tag_180:\n        /* \"test.sol\":3834:3930  userLock.totalAmount.mul(elapsedTime).div(userLock.vestingDuration).sub(userLock.releasedAmount) */\n      tag_183\n        /* \"test.sol\":3906:3914  userLock */\n      dup5\n        /* \"test.sol\":3906:3929  userLock.releasedAmount */\n      0x01\n      add\n      sload\n        /* \"test.sol\":3834:3901  userLock.totalAmount.mul(elapsedTime).div(userLock.vestingDuration) */\n      tag_184\n        /* \"test.sol\":3876:3884  userLock */\n      dup7\n        /* \"test.sol\":3876:3900  userLock.vestingDuration */\n      0x04\n      add\n      sload\n        /* \"test.sol\":3834:3871  userLock.totalAmount.mul(elapsedTime) */\n      tag_185\n        /* \"test.sol\":3859:3870  elapsedTime */\n      dup8\n        /* \"test.sol\":3834:3842  userLock */\n      dup10\n        /* \"test.sol\":3834:3854  userLock.totalAmount */\n      0x00\n      add\n      sload\n        /* \"test.sol\":3834:3858  userLock.totalAmount.mul */\n      tag_121\n      swap1\n        /* \"test.sol\":3834:3871  userLock.totalAmount.mul(elapsedTime) */\n      swap2\n      swap1\n      0xffffffff\n      and\n      jump\t// in\n    tag_185:\n        /* \"test.sol\":3834:3875  userLock.totalAmount.mul(elapsedTime).div */\n      tag_122\n      swap1\n        /* \"test.sol\":3834:3901  userLock.totalAmount.mul(elapsedTime).div(userLock.vestingDuration) */\n      swap2\n      swap1\n      0xffffffff\n      and\n      jump\t// in\n    tag_184:\n        /* \"test.sol\":3834:3905  userLock.totalAmount.mul(elapsedTime).div(userLock.vestingDuration).sub */\n      tag_114\n      swap1\n        /* \"test.sol\":3834:3930  userLock.totalAmount.mul(elapsedTime).div(userLock.vestingDuration).sub(userLock.releasedAmount) */\n      swap2\n      swap1\n      0xffffffff\n      and\n      jump\t// in\n    tag_183:\n        /* \"test.sol\":3815:3930  releasableAmount = userLock.totalAmount.mul(elapsedTime).div(userLock.vestingDuration).sub(userLock.releasedAmount) */\n      swap1\n      pop\n        /* \"test.sol\":3664:3942  if (block.timestamp >= vestingEnd) {... */\n    tag_182:\n        /* \"test.sol\":3981:3982  0 */\n      0x00\n        /* \"test.sol\":3962:3978  releasableAmount */\n      dup2\n        /* \"test.sol\":3962:3982  releasableAmount > 0 */\n      gt\n        /* \"test.sol\":3954:4018  require(releasableAmount > 0, \"No tokens available for release\") */\n      tag_186\n      jumpi\n      mload(0x40)\n      0x08c379a000000000000000000000000000000000000000000000000000000000\n      dup2\n      mstore\n      0x04\n      add\n      tag_187\n      swap1\n      tag_188\n      jump\t// in\n    tag_187:\n      mload(0x40)\n      dup1\n      swap2\n      sub\n      swap1\n      revert\n    tag_186:\n        /* \"test.sol\":4057:4102  userLock.releasedAmount.add(releasableAmount) */\n      tag_189\n        /* \"test.sol\":4085:4101  releasableAmount */\n      dup2\n        /* \"test.sol\":4057:4065  userLock */\n      dup6\n        /* \"test.sol\":4057:4080  userLock.releasedAmount */\n      0x01\n      add\n      sload\n        /* \"test.sol\":4057:4084  userLock.releasedAmount.add */\n      tag_84\n      swap1\n        /* \"test.sol\":4057:4102  userLock.releasedAmount.add(releasableAmount) */\n      swap2\n      swap1\n      0xffffffff\n      and\n      jump\t// in\n    tag_189:\n        /* \"test.sol\":4031:4039  userLock */\n      dup5\n        /* \"test.sol\":4031:4054  userLock.releasedAmount */\n      0x01\n      add\n        /* \"test.sol\":4031:4102  userLock.releasedAmount = userLock.releasedAmount.add(releasableAmount) */\n      dup2\n      swap1\n      sstore\n      pop\n        /* \"test.sol\":4120:4128  userLock */\n      dup4\n        /* \"test.sol\":4120:4134  userLock.token */\n      0x05\n      add\n      0x01\n      swap1\n      sload\n      swap1\n      0x0100\n      exp\n      swap1\n      div\n      0xffffffffffffffffffffffffffffffffffffffff\n      and\n        /* \"test.sol\":4113:4144  IERC20(userLock.token).transfer */\n      0xffffffffffffffffffffffffffffffffffffffff\n      and\n      0xa9059cbb\n        /* \"test.sol\":4145:4155  msg.sender */\n      caller\n        /* \"test.sol\":4157:4173  releasableAmount */\n      dup4\n        /* \"test.sol\":4113:4174  IERC20(userLock.token).transfer(msg.sender, releasableAmount) */\n      mload(0x40)\n      dup4\n      0xffffffff\n      and\n      0xe0\n      shl\n      dup2\n      mstore\n      0x04\n      add\n      tag_190\n      swap3\n      swap2\n      swap1\n      tag_89\n      jump\t// in\n    tag_190:\n      0x20\n      mload(0x40)\n      dup1\n      dup4\n      sub\n      dup2\n      0x00\n      dup8\n      gas\n      call\n      iszero\n      dup1\n      iszero\n      tag_192\n      jumpi\n      returndatasize\n      0x00\n      dup1\n      returndatacopy\n      revert(0x00, returndatasize)\n    tag_192:\n      pop\n      pop\n      pop\n      pop\n      mload(0x40)\n      returndatasize\n      not(0x1f)\n      0x1f\n      dup3\n      add\n      and\n      dup3\n      add\n      dup1\n      0x40\n      mstore\n      pop\n      dup2\n      add\n      swap1\n      tag_193\n      swap2\n      swap1\n      tag_93\n      jump\t// in\n    tag_193:\n      pop\n        /* \"test.sol\":4207:4217  msg.sender */\n      caller\n        /* \"test.sol\":4192:4236  TokensReleased(msg.sender, releasableAmount) */\n      0xffffffffffffffffffffffffffffffffffffffff\n      and\n      0xc7798891864187665ac6dd119286e44ec13f014527aeeb2b8eb3fd413df93179\n        /* \"test.sol\":4219:4235  releasableAmount */\n      dup3\n        /* \"test.sol\":4192:4236  TokensReleased(msg.sender, releasableAmount) */\n      mload(0x40)\n      tag_194\n      swap2\n      swap1\n      tag_29\n      jump\t// in\n    tag_194:\n      mload(0x40)\n      dup1\n      swap2\n      sub\n      swap1\n      log2\n        /* \"test.sol\":4280:4288  userLock */\n      dup4\n        /* \"test.sol\":4280:4300  userLock.totalAmount */\n      0x00\n      add\n      sload\n        /* \"test.sol\":4253:4261  userLock */\n      dup5\n        /* \"test.sol\":4253:4276  userLock.releasedAmount */\n      0x01\n      add\n      sload\n        /* \"test.sol\":4253:4300  userLock.releasedAmount == userLock.totalAmount */\n      sub\n        /* \"test.sol\":4249:4352  if (userLock.releasedAmount == userLock.totalAmount) {... */\n      tag_195\n      jumpi\n        /* \"test.sol\":4335:4340  false */\n      0x00\n        /* \"test.sol\":4317:4325  userLock */\n      dup5\n        /* \"test.sol\":4317:4332  userLock.active */\n      0x05\n      add\n      0x00\n        /* \"test.sol\":4317:4340  userLock.active = false */\n      0x0100\n      exp\n      dup2\n      sload\n      dup2\n      0xff\n      mul\n      not\n      and\n      swap1\n      dup4\n      iszero\n      iszero\n      mul\n      or\n      swap1\n      sstore\n      pop\n        /* \"test.sol\":4249:4352  if (userLock.releasedAmount == userLock.totalAmount) {... */\n    tag_195:\n        /* \"test.sol\":3240:4359  {... */\n      pop\n      pop\n      pop\n      pop\n        /* \"test.sol\":3181:4359  function releaseTokens() external onlyIfActive(msg.sender) {... */\n      pop\n      jump\t// out\n        /* \"test.sol\":4639:5503  function proposeVote(string memory proposalType, uint256 parameter) external {... */\n    tag_65:\n        /* \"test.sol\":4731:4736  locks */\n      0x03\n        /* \"test.sol\":4731:4748  locks[msg.sender] */\n      0x00\n        /* \"test.sol\":4737:4747  msg.sender */\n      caller\n        /* \"test.sol\":4731:4748  locks[msg.sender] */\n      0xffffffffffffffffffffffffffffffffffffffff\n      and\n      0xffffffffffffffffffffffffffffffffffffffff\n      and\n      dup2\n      mstore\n      0x20\n      add\n      swap1\n      dup2\n      mstore\n      0x20\n      add\n      0x00\n      keccak256\n        /* \"test.sol\":4731:4755  locks[msg.sender].active */\n      0x05\n      add\n      0x00\n      swap1\n      sload\n      swap1\n      0x0100\n      exp\n      swap1\n      div\n      0xff\n      and\n        /* \"test.sol\":4723:4791  require(locks[msg.sender].active, \"Only active lockers can propose\") */\n      tag_197\n      jumpi\n      mload(0x40)\n      0x08c379a000000000000000000000000000000000000000000000000000000000\n      dup2\n      mstore\n      0x04\n      add\n      tag_198\n      swap1\n      tag_199\n      jump\t// in\n    tag_198:\n      mload(0x40)\n      dup1\n      swap2\n      sub\n      swap1\n      revert\n    tag_197:\n        /* \"test.sol\":4861:4881  keccak256(\"release\") */\n      0x585a6dc6f7e8656767705fa1b809ec2c27086762f615cdddb3cd21888983b3e3\n        /* \"test.sol\":4843:4855  proposalType */\n      dup3\n        /* \"test.sol\":4826:4856  abi.encodePacked(proposalType) */\n      add(0x20, mload(0x40))\n      tag_200\n      swap2\n      swap1\n      tag_201\n      jump\t// in\n    tag_200:\n      mload(0x40)\n      0x20\n      dup2\n      dup4\n      sub\n      sub\n      dup2\n      mstore\n      swap1\n      0x40\n      mstore\n        /* \"test.sol\":4816:4857  keccak256(abi.encodePacked(proposalType)) */\n      dup1\n      mload\n      swap1\n      0x20\n      add\n      keccak256\n        /* \"test.sol\":4816:4881  keccak256(abi.encodePacked(proposalType)) == keccak256(\"release\") */\n      eq\n        /* \"test.sol\":4816:4958  keccak256(abi.encodePacked(proposalType)) == keccak256(\"release\") ||... */\n      dup1\n      tag_202\n      jumpi\n      pop\n        /* \"test.sol\":4939:4958  keccak256(\"extend\") */\n      0xa99e074f7ed01ed29d2214dc7fa7597b09d83d0c921b513239f2a0ce30dce124\n        /* \"test.sol\":4921:4933  proposalType */\n      dup3\n        /* \"test.sol\":4904:4934  abi.encodePacked(proposalType) */\n      add(0x20, mload(0x40))\n      tag_203\n      swap2\n      swap1\n      tag_201\n      jump\t// in\n    tag_203:\n      mload(0x40)\n      0x20\n      dup2\n      dup4\n      sub\n      sub\n      dup2\n      mstore\n      swap1\n      0x40\n      mstore\n        /* \"test.sol\":4894:4935  keccak256(abi.encodePacked(proposalType)) */\n      dup1\n      mload\n      swap1\n      0x20\n      add\n      keccak256\n        /* \"test.sol\":4894:4958  keccak256(abi.encodePacked(proposalType)) == keccak256(\"extend\") */\n      eq\n        /* \"test.sol\":4816:4958  keccak256(abi.encodePacked(proposalType)) == keccak256(\"release\") ||... */\n    tag_202:\n        /* \"test.sol\":4798:4999  require(... */\n      tag_204\n      jumpi\n      mload(0x40)\n      0x08c379a000000000000000000000000000000000000000000000000000000000\n      dup2\n      mstore\n      0x04\n      add\n      tag_205\n      swap1\n      tag_206\n      jump\t// in\n    tag_205:\n      mload(0x40)\n      dup1\n      swap2\n      sub\n      swap1\n      revert\n    tag_204:\n        /* \"test.sol\":5042:5059  Vote storage vote */\n      0x00\n        /* \"test.sol\":5062:5067  votes */\n      0x02\n        /* \"test.sol\":5062:5083  votes[nextProposalId] */\n      0x00\n        /* \"test.sol\":5068:5082  nextProposalId */\n      sload(0x01)\n        /* \"test.sol\":5062:5083  votes[nextProposalId] */\n      dup2\n      mstore\n      0x20\n      add\n      swap1\n      dup2\n      mstore\n      0x20\n      add\n      0x00\n      keccak256\n        /* \"test.sol\":5042:5083  Vote storage vote = votes[nextProposalId] */\n      swap1\n      pop\n        /* \"test.sol\":5108:5122  nextProposalId */\n      sload(0x01)\n        /* \"test.sol\":5090:5094  vote */\n      dup2\n        /* \"test.sol\":5090:5105  vote.proposalId */\n      0x00\n      add\n        /* \"test.sol\":5090:5122  vote.proposalId = nextProposalId */\n      dup2\n      swap1\n      sstore\n      pop\n        /* \"test.sol\":5145:5155  msg.sender */\n      caller\n        /* \"test.sol\":5129:5133  vote */\n      dup2\n        /* \"test.sol\":5129:5142  vote.proposer */\n      0x01\n      add\n      0x00\n        /* \"test.sol\":5129:5155  vote.proposer = msg.sender */\n      0x0100\n      exp\n      dup2\n      sload\n      dup2\n      0xffffffffffffffffffffffffffffffffffffffff\n      mul\n      not\n      and\n      swap1\n      dup4\n      0xffffffffffffffffffffffffffffffffffffffff\n      and\n      mul\n      or\n      swap1\n      sstore\n      pop\n        /* \"test.sol\":5179:5194  block.timestamp */\n      timestamp\n        /* \"test.sol\":5162:5166  vote */\n      dup2\n        /* \"test.sol\":5162:5176  vote.startTime */\n      0x02\n      add\n        /* \"test.sol\":5162:5194  vote.startTime = block.timestamp */\n      dup2\n      swap1\n      sstore\n      pop\n        /* \"test.sol\":5216:5243  block.timestamp.add(7 days) */\n      tag_207\n        /* \"test.sol\":5236:5242  7 days */\n      0x093a80\n        /* \"test.sol\":5216:5231  block.timestamp */\n      timestamp\n        /* \"test.sol\":5216:5235  block.timestamp.add */\n      tag_84\n      swap1\n        /* \"test.sol\":5216:5243  block.timestamp.add(7 days) */\n      swap2\n      swap1\n      0xffffffff\n      and\n      jump\t// in\n    tag_207:\n        /* \"test.sol\":5201:5205  vote */\n      dup2\n        /* \"test.sol\":5201:5213  vote.endTime */\n      0x03\n      add\n        /* \"test.sol\":5201:5243  vote.endTime = block.timestamp.add(7 days) */\n      dup2\n      swap1\n      sstore\n      pop\n        /* \"test.sol\":5266:5267  0 */\n      0x00\n        /* \"test.sol\":5250:5254  vote */\n      dup2\n        /* \"test.sol\":5250:5263  vote.yesVotes */\n      0x04\n      add\n        /* \"test.sol\":5250:5267  vote.yesVotes = 0 */\n      dup2\n      swap1\n      sstore\n      pop\n        /* \"test.sol\":5289:5290  0 */\n      0x00\n        /* \"test.sol\":5274:5278  vote */\n      dup2\n        /* \"test.sol\":5274:5286  vote.noVotes */\n      0x05\n      add\n        /* \"test.sol\":5274:5290  vote.noVotes = 0 */\n      dup2\n      swap1\n      sstore\n      pop\n        /* \"test.sol\":5317:5329  proposalType */\n      dup3\n        /* \"test.sol\":5297:5301  vote */\n      dup2\n        /* \"test.sol\":5297:5314  vote.proposalType */\n      0x06\n      add\n        /* \"test.sol\":5297:5329  vote.proposalType = proposalType */\n      swap1\n      dup2\n      tag_208\n      swap2\n      swap1\n      tag_209\n      jump\t// in\n    tag_208:\n      pop\n        /* \"test.sol\":5353:5362  parameter */\n      dup2\n        /* \"test.sol\":5336:5340  vote */\n      dup2\n        /* \"test.sol\":5336:5350  vote.parameter */\n      0x07\n      add\n        /* \"test.sol\":5336:5362  vote.parameter = parameter */\n      dup2\n      swap1\n      sstore\n      pop\n        /* \"test.sol\":5385:5390  false */\n      0x00\n        /* \"test.sol\":5369:5373  vote */\n      dup2\n        /* \"test.sol\":5369:5382  vote.executed */\n      0x08\n      add\n      0x00\n        /* \"test.sol\":5369:5390  vote.executed = false */\n      0x0100\n      exp\n      dup2\n      sload\n      dup2\n      0xff\n      mul\n      not\n      and\n      swap1\n      dup4\n      iszero\n      iszero\n      mul\n      or\n      swap1\n      sstore\n      pop\n        /* \"test.sol\":5436:5446  msg.sender */\n      caller\n        /* \"test.sol\":5404:5472  ProposalCreated(nextProposalId, msg.sender, proposalType, parameter) */\n      0xffffffffffffffffffffffffffffffffffffffff\n      and\n        /* \"test.sol\":5420:5434  nextProposalId */\n      sload(0x01)\n        /* \"test.sol\":5404:5472  ProposalCreated(nextProposalId, msg.sender, proposalType, parameter) */\n      0x98120a6aaa04295520ab4e01c6c1235dd316e822cc9ff31db7b3f197366d18bd\n        /* \"test.sol\":5448:5460  proposalType */\n      dup6\n        /* \"test.sol\":5462:5471  parameter */\n      dup6\n        /* \"test.sol\":5404:5472  ProposalCreated(nextProposalId, msg.sender, proposalType, parameter) */\n      mload(0x40)\n      tag_210\n      swap3\n      swap2\n      swap1\n      tag_211\n      jump\t// in\n    tag_210:\n      mload(0x40)\n      dup1\n      swap2\n      sub\n      swap1\n      log3\n        /* \"test.sol\":5479:5493  nextProposalId */\n      0x01\n      0x00\n        /* \"test.sol\":5479:5495  nextProposalId++ */\n      dup2\n      sload\n      dup1\n      swap3\n      swap2\n      swap1\n      tag_212\n      swap1\n      tag_213\n      jump\t// in\n    tag_212:\n      swap2\n      swap1\n      pop\n      sstore\n      pop\n        /* \"test.sol\":4716:5503  {... */\n      pop\n        /* \"test.sol\":4639:5503  function proposeVote(string memory proposalType, uint256 parameter) external {... */\n      pop\n      pop\n      jump\t// out\n        /* \"@openzeppelin/contracts/access/Ownable.sol\":2543:2758  function transferOwnership(address newOwner) public virtual onlyOwner {... */\n    tag_68:\n        /* \"@openzeppelin/contracts/access/Ownable.sol\":1531:1544  _checkOwner() */\n      tag_215\n        /* \"@openzeppelin/contracts/access/Ownable.sol\":1531:1542  _checkOwner */\n      tag_160\n        /* \"@openzeppelin/contracts/access/Ownable.sol\":1531:1544  _checkOwner() */\n      jump\t// in\n    tag_215:\n        /* \"@openzeppelin/contracts/access/Ownable.sol\":2647:2648  0 */\n      0x00\n        /* \"@openzeppelin/contracts/access/Ownable.sol\":2627:2649  newOwner == address(0) */\n      0xffffffffffffffffffffffffffffffffffffffff\n      and\n        /* \"@openzeppelin/contracts/access/Ownable.sol\":2627:2635  newOwner */\n      dup2\n        /* \"@openzeppelin/contracts/access/Ownable.sol\":2627:2649  newOwner == address(0) */\n      0xffffffffffffffffffffffffffffffffffffffff\n      and\n      sub\n        /* \"@openzeppelin/contracts/access/Ownable.sol\":2623:2714  if (newOwner == address(0)) {... */\n      tag_217\n      jumpi\n        /* \"@openzeppelin/contracts/access/Ownable.sol\":2700:2701  0 */\n      0x00\n        /* \"@openzeppelin/contracts/access/Ownable.sol\":2672:2703  OwnableInvalidOwner(address(0)) */\n      mload(0x40)\n      0x1e4fbdf700000000000000000000000000000000000000000000000000000000\n      dup2\n      mstore\n      0x04\n      add\n      tag_218\n      swap2\n      swap1\n      tag_55\n      jump\t// in\n    tag_218:\n      mload(0x40)\n      dup1\n      swap2\n      sub\n      swap1\n      revert\n        /* \"@openzeppelin/contracts/access/Ownable.sol\":2623:2714  if (newOwner == address(0)) {... */\n    tag_217:\n        /* \"@openzeppelin/contracts/access/Ownable.sol\":2723:2751  _transferOwnership(newOwner) */\n      tag_219\n        /* \"@openzeppelin/contracts/access/Ownable.sol\":2742:2750  newOwner */\n      dup2\n        /* \"@openzeppelin/contracts/access/Ownable.sol\":2723:2741  _transferOwnership */\n      tag_163\n        /* \"@openzeppelin/contracts/access/Ownable.sol\":2723:2751  _transferOwnership(newOwner) */\n      jump\t// in\n    tag_219:\n        /* \"@openzeppelin/contracts/access/Ownable.sol\":2543:2758  function transferOwnership(address newOwner) public virtual onlyOwner {... */\n      pop\n      jump\t// out\n        /* \"@openzeppelin/contracts/utils/math/SafeMath.sol\":2755:2851  function add(uint256 a, uint256 b) internal pure returns (uint256) {... */\n    tag_84:\n        /* \"@openzeppelin/contracts/utils/math/SafeMath.sol\":2813:2820  uint256 */\n      0x00\n        /* \"@openzeppelin/contracts/utils/math/SafeMath.sol\":2843:2844  b */\n      dup2\n        /* \"@openzeppelin/contracts/utils/math/SafeMath.sol\":2839:2840  a */\n      dup4\n        /* \"@openzeppelin/contracts/utils/math/SafeMath.sol\":2839:2844  a + b */\n      tag_221\n      swap2\n      swap1\n      tag_222\n      jump\t// in\n    tag_221:\n        /* \"@openzeppelin/contracts/utils/math/SafeMath.sol\":2832:2844  return a + b */\n      swap1\n      pop\n        /* \"@openzeppelin/contracts/utils/math/SafeMath.sol\":2755:2851  function add(uint256 a, uint256 b) internal pure returns (uint256) {... */\n      swap3\n      swap2\n      pop\n      pop\n      jump\t// out\n        /* \"@openzeppelin/contracts/utils/math/SafeMath.sol\":3122:3218  function sub(uint256 a, uint256 b) internal pure returns (uint256) {... */\n    tag_114:\n        /* \"@openzeppelin/contracts/utils/math/SafeMath.sol\":3180:3187  uint256 */\n      0x00\n        /* \"@openzeppelin/contracts/utils/math/SafeMath.sol\":3210:3211  b */\n      dup2\n        /* \"@openzeppelin/contracts/utils/math/SafeMath.sol\":3206:3207  a */\n      dup4\n        /* \"@openzeppelin/contracts/utils/math/SafeMath.sol\":3206:3211  a - b */\n      tag_224\n      swap2\n      swap1\n      tag_225\n      jump\t// in\n    tag_224:\n        /* \"@openzeppelin/contracts/utils/math/SafeMath.sol\":3199:3211  return a - b */\n      swap1\n      pop\n        /* \"@openzeppelin/contracts/utils/math/SafeMath.sol\":3122:3218  function sub(uint256 a, uint256 b) internal pure returns (uint256) {... */\n      swap3\n      swap2\n      pop\n      pop\n      jump\t// out\n        /* \"@openzeppelin/contracts/utils/math/SafeMath.sol\":3465:3561  function mul(uint256 a, uint256 b) internal pure returns (uint256) {... */\n    tag_121:\n        /* \"@openzeppelin/contracts/utils/math/SafeMath.sol\":3523:3530  uint256 */\n      0x00\n        /* \"@openzeppelin/contracts/utils/math/SafeMath.sol\":3553:3554  b */\n      dup2\n        /* \"@openzeppelin/contracts/utils/math/SafeMath.sol\":3549:3550  a */\n      dup4\n        /* \"@openzeppelin/contracts/utils/math/SafeMath.sol\":3549:3554  a * b */\n      tag_227\n      swap2\n      swap1\n      tag_228\n      jump\t// in\n    tag_227:\n        /* \"@openzeppelin/contracts/utils/math/SafeMath.sol\":3542:3554  return a * b */\n      swap1\n      pop\n        /* \"@openzeppelin/contracts/utils/math/SafeMath.sol\":3465:3561  function mul(uint256 a, uint256 b) internal pure returns (uint256) {... */\n      swap3\n      swap2\n      pop\n      pop\n      jump\t// out\n        /* \"@openzeppelin/contracts/utils/math/SafeMath.sol\":3850:3946  function div(uint256 a, uint256 b) internal pure returns (uint256) {... */\n    tag_122:\n        /* \"@openzeppelin/contracts/utils/math/SafeMath.sol\":3908:3915  uint256 */\n      0x00\n        /* \"@openzeppelin/contracts/utils/math/SafeMath.sol\":3938:3939  b */\n      dup2\n        /* \"@openzeppelin/contracts/utils/math/SafeMath.sol\":3934:3935  a */\n      dup4\n        /* \"@openzeppelin/contracts/utils/math/SafeMath.sol\":3934:3939  a / b */\n      tag_230\n      swap2\n      swap1\n      tag_231\n      jump\t// in\n    tag_230:\n        /* \"@openzeppelin/contracts/utils/math/SafeMath.sol\":3927:3939  return a / b */\n      swap1\n      pop\n        /* \"@openzeppelin/contracts/utils/math/SafeMath.sol\":3850:3946  function div(uint256 a, uint256 b) internal pure returns (uint256) {... */\n      swap3\n      swap2\n      pop\n      pop\n      jump\t// out\n        /* \"@openzeppelin/contracts/access/Ownable.sol\":1796:1958  function _checkOwner() internal view virtual {... */\n    tag_160:\n        /* \"@openzeppelin/contracts/access/Ownable.sol\":1866:1878  _msgSender() */\n      tag_233\n        /* \"@openzeppelin/contracts/access/Ownable.sol\":1866:1876  _msgSender */\n      tag_234\n        /* \"@openzeppelin/contracts/access/Ownable.sol\":1866:1878  _msgSender() */\n      jump\t// in\n    tag_233:\n        /* \"@openzeppelin/contracts/access/Ownable.sol\":1855:1878  owner() != _msgSender() */\n      0xffffffffffffffffffffffffffffffffffffffff\n      and\n        /* \"@openzeppelin/contracts/access/Ownable.sol\":1855:1862  owner() */\n      tag_235\n        /* \"@openzeppelin/contracts/access/Ownable.sol\":1855:1860  owner */\n      tag_53\n        /* \"@openzeppelin/contracts/access/Ownable.sol\":1855:1862  owner() */\n      jump\t// in\n    tag_235:\n        /* \"@openzeppelin/contracts/access/Ownable.sol\":1855:1878  owner() != _msgSender() */\n      0xffffffffffffffffffffffffffffffffffffffff\n      and\n      eq\n        /* \"@openzeppelin/contracts/access/Ownable.sol\":1851:1952  if (owner() != _msgSender()) {... */\n      tag_236\n      jumpi\n        /* \"@openzeppelin/contracts/access/Ownable.sol\":1928:1940  _msgSender() */\n      tag_237\n        /* \"@openzeppelin/contracts/access/Ownable.sol\":1928:1938  _msgSender */\n      tag_234\n        /* \"@openzeppelin/contracts/access/Ownable.sol\":1928:1940  _msgSender() */\n      jump\t// in\n    tag_237:\n        /* \"@openzeppelin/contracts/access/Ownable.sol\":1901:1941  OwnableUnauthorizedAccount(_msgSender()) */\n      mload(0x40)\n      0x118cdaa700000000000000000000000000000000000000000000000000000000\n      dup2\n      mstore\n      0x04\n      add\n      tag_238\n      swap2\n      swap1\n      tag_55\n      jump\t// in\n    tag_238:\n      mload(0x40)\n      dup1\n      swap2\n      sub\n      swap1\n      revert\n        /* \"@openzeppelin/contracts/access/Ownable.sol\":1851:1952  if (owner() != _msgSender()) {... */\n    tag_236:\n        /* \"@openzeppelin/contracts/access/Ownable.sol\":1796:1958  function _checkOwner() internal view virtual {... */\n      jump\t// out\n        /* \"@openzeppelin/contracts/access/Ownable.sol\":2912:3099  function _transferOwnership(address newOwner) internal virtual {... */\n    tag_163:\n        /* \"@openzeppelin/contracts/access/Ownable.sol\":2985:3001  address oldOwner */\n      0x00\n        /* \"@openzeppelin/contracts/access/Ownable.sol\":3004:3010  _owner */\n      dup1\n      0x00\n      swap1\n      sload\n      swap1\n      0x0100\n      exp\n      swap1\n      div\n      0xffffffffffffffffffffffffffffffffffffffff\n      and\n        /* \"@openzeppelin/contracts/access/Ownable.sol\":2985:3010  address oldOwner = _owner */\n      swap1\n      pop\n        /* \"@openzeppelin/contracts/access/Ownable.sol\":3029:3037  newOwner */\n      dup2\n        /* \"@openzeppelin/contracts/access/Ownable.sol\":3020:3026  _owner */\n      0x00\n      dup1\n        /* \"@openzeppelin/contracts/access/Ownable.sol\":3020:3037  _owner = newOwner */\n      0x0100\n      exp\n      dup2\n      sload\n      dup2\n      0xffffffffffffffffffffffffffffffffffffffff\n      mul\n      not\n      and\n      swap1\n      dup4\n      0xffffffffffffffffffffffffffffffffffffffff\n      and\n      mul\n      or\n      swap1\n      sstore\n      pop\n        /* \"@openzeppelin/contracts/access/Ownable.sol\":3083:3091  newOwner */\n      dup2\n        /* \"@openzeppelin/contracts/access/Ownable.sol\":3052:3092  OwnershipTransferred(oldOwner, newOwner) */\n      0xffffffffffffffffffffffffffffffffffffffff\n      and\n        /* \"@openzeppelin/contracts/access/Ownable.sol\":3073:3081  oldOwner */\n      dup2\n        /* \"@openzeppelin/contracts/access/Ownable.sol\":3052:3092  OwnershipTransferred(oldOwner, newOwner) */\n      0xffffffffffffffffffffffffffffffffffffffff\n      and\n      0x8be0079c531659141344cd1fd0a4f28419497f9722a3daafe3b4186f6b6457e0\n      mload(0x40)\n      mload(0x40)\n      dup1\n      swap2\n      sub\n      swap1\n      log3\n        /* \"@openzeppelin/contracts/access/Ownable.sol\":2975:3099  {... */\n      pop\n        /* \"@openzeppelin/contracts/access/Ownable.sol\":2912:3099  function _transferOwnership(address newOwner) internal virtual {... */\n      pop\n      jump\t// out\n        /* \"@openzeppelin/contracts/utils/Context.sol\":656:752  function _msgSender() internal view virtual returns (address) {... */\n    tag_234:\n        /* \"@openzeppelin/contracts/utils/Context.sol\":709:716  address */\n      0x00\n        /* \"@openzeppelin/contracts/utils/Context.sol\":735:745  msg.sender */\n      caller\n        /* \"@openzeppelin/contracts/utils/Context.sol\":728:745  return msg.sender */\n      swap1\n      pop\n        /* \"@openzeppelin/contracts/utils/Context.sol\":656:752  function _msgSender() internal view virtual returns (address) {... */\n      swap1\n      jump\t// out\n        /* \"#utility.yul\":7:82   */\n    tag_241:\n        /* \"#utility.yul\":40:46   */\n      0x00\n        /* \"#utility.yul\":73:75   */\n      0x40\n        /* \"#utility.yul\":67:76   */\n      mload\n        /* \"#utility.yul\":57:76   */\n      swap1\n      pop\n        /* \"#utility.yul\":7:82   */\n      swap1\n      jump\t// out\n        /* \"#utility.yul\":88:205   */\n    tag_242:\n        /* \"#utility.yul\":197:198   */\n      0x00\n        /* \"#utility.yul\":194:195   */\n      dup1\n        /* \"#utility.yul\":187:199   */\n      revert\n        /* \"#utility.yul\":211:328   */\n    tag_243:\n        /* \"#utility.yul\":320:321   */\n      0x00\n        /* \"#utility.yul\":317:318   */\n      dup1\n        /* \"#utility.yul\":310:322   */\n      revert\n        /* \"#utility.yul\":334:411   */\n    tag_244:\n        /* \"#utility.yul\":371:378   */\n      0x00\n        /* \"#utility.yul\":400:405   */\n      dup2\n        /* \"#utility.yul\":389:405   */\n      swap1\n      pop\n        /* \"#utility.yul\":334:411   */\n      swap2\n      swap1\n      pop\n      jump\t// out\n        /* \"#utility.yul\":417:539   */\n    tag_245:\n        /* \"#utility.yul\":490:514   */\n      tag_334\n        /* \"#utility.yul\":508:513   */\n      dup2\n        /* \"#utility.yul\":490:514   */\n      tag_244\n      jump\t// in\n    tag_334:\n        /* \"#utility.yul\":483:488   */\n      dup2\n        /* \"#utility.yul\":480:515   */\n      eq\n        /* \"#utility.yul\":470:533   */\n      tag_335\n      jumpi\n        /* \"#utility.yul\":529:530   */\n      0x00\n        /* \"#utility.yul\":526:527   */\n      dup1\n        /* \"#utility.yul\":519:531   */\n      revert\n        /* \"#utility.yul\":470:533   */\n    tag_335:\n        /* \"#utility.yul\":417:539   */\n      pop\n      jump\t// out\n        /* \"#utility.yul\":545:684   */\n    tag_246:\n        /* \"#utility.yul\":591:596   */\n      0x00\n        /* \"#utility.yul\":629:635   */\n      dup2\n        /* \"#utility.yul\":616:636   */\n      calldataload\n        /* \"#utility.yul\":607:636   */\n      swap1\n      pop\n        /* \"#utility.yul\":645:678   */\n      tag_337\n        /* \"#utility.yul\":672:677   */\n      dup2\n        /* \"#utility.yul\":645:678   */\n      tag_245\n      jump\t// in\n    tag_337:\n        /* \"#utility.yul\":545:684   */\n      swap3\n      swap2\n      pop\n      pop\n      jump\t// out\n        /* \"#utility.yul\":690:1019   */\n    tag_20:\n        /* \"#utility.yul\":749:755   */\n      0x00\n        /* \"#utility.yul\":798:800   */\n      0x20\n        /* \"#utility.yul\":786:795   */\n      dup3\n        /* \"#utility.yul\":777:784   */\n      dup5\n        /* \"#utility.yul\":773:796   */\n      sub\n        /* \"#utility.yul\":769:801   */\n      slt\n        /* \"#utility.yul\":766:885   */\n      iszero\n      tag_339\n      jumpi\n        /* \"#utility.yul\":804:883   */\n      tag_340\n      tag_242\n      jump\t// in\n    tag_340:\n        /* \"#utility.yul\":766:885   */\n    tag_339:\n        /* \"#utility.yul\":924:925   */\n      0x00\n        /* \"#utility.yul\":949:1002   */\n      tag_341\n        /* \"#utility.yul\":994:1001   */\n      dup5\n        /* \"#utility.yul\":985:991   */\n      dup3\n        /* \"#utility.yul\":974:983   */\n      dup6\n        /* \"#utility.yul\":970:992   */\n      add\n        /* \"#utility.yul\":949:1002   */\n      tag_246\n      jump\t// in\n    tag_341:\n        /* \"#utility.yul\":939:1002   */\n      swap2\n      pop\n        /* \"#utility.yul\":895:1012   */\n      pop\n        /* \"#utility.yul\":690:1019   */\n      swap3\n      swap2\n      pop\n      pop\n      jump\t// out\n        /* \"#utility.yul\":1025:1115   */\n    tag_247:\n        /* \"#utility.yul\":1059:1066   */\n      0x00\n        /* \"#utility.yul\":1102:1107   */\n      dup2\n        /* \"#utility.yul\":1095:1108   */\n      iszero\n        /* \"#utility.yul\":1088:1109   */\n      iszero\n        /* \"#utility.yul\":1077:1109   */\n      swap1\n      pop\n        /* \"#utility.yul\":1025:1115   */\n      swap2\n      swap1\n      pop\n      jump\t// out\n        /* \"#utility.yul\":1121:1237   */\n    tag_248:\n        /* \"#utility.yul\":1191:1212   */\n      tag_344\n        /* \"#utility.yul\":1206:1211   */\n      dup2\n        /* \"#utility.yul\":1191:1212   */\n      tag_247\n      jump\t// in\n    tag_344:\n        /* \"#utility.yul\":1184:1189   */\n      dup2\n        /* \"#utility.yul\":1181:1213   */\n      eq\n        /* \"#utility.yul\":1171:1231   */\n      tag_345\n      jumpi\n        /* \"#utility.yul\":1227:1228   */\n      0x00\n        /* \"#utility.yul\":1224:1225   */\n      dup1\n        /* \"#utility.yul\":1217:1229   */\n      revert\n        /* \"#utility.yul\":1171:1231   */\n    tag_345:\n        /* \"#utility.yul\":1121:1237   */\n      pop\n      jump\t// out\n        /* \"#utility.yul\":1243:1376   */\n    tag_249:\n        /* \"#utility.yul\":1286:1291   */\n      0x00\n        /* \"#utility.yul\":1324:1330   */\n      dup2\n        /* \"#utility.yul\":1311:1331   */\n      calldataload\n        /* \"#utility.yul\":1302:1331   */\n      swap1\n      pop\n        /* \"#utility.yul\":1340:1370   */\n      tag_347\n        /* \"#utility.yul\":1364:1369   */\n      dup2\n        /* \"#utility.yul\":1340:1370   */\n      tag_248\n      jump\t// in\n    tag_347:\n        /* \"#utility.yul\":1243:1376   */\n      swap3\n      swap2\n      pop\n      pop\n      jump\t// out\n        /* \"#utility.yul\":1382:1850   */\n    tag_24:\n        /* \"#utility.yul\":1447:1453   */\n      0x00\n        /* \"#utility.yul\":1455:1461   */\n      dup1\n        /* \"#utility.yul\":1504:1506   */\n      0x40\n        /* \"#utility.yul\":1492:1501   */\n      dup4\n        /* \"#utility.yul\":1483:1490   */\n      dup6\n        /* \"#utility.yul\":1479:1502   */\n      sub\n        /* \"#utility.yul\":1475:1507   */\n      slt\n        /* \"#utility.yul\":1472:1591   */\n      iszero\n      tag_349\n      jumpi\n        /* \"#utility.yul\":1510:1589   */\n      tag_350\n      tag_242\n      jump\t// in\n    tag_350:\n        /* \"#utility.yul\":1472:1591   */\n    tag_349:\n        /* \"#utility.yul\":1630:1631   */\n      0x00\n        /* \"#utility.yul\":1655:1708   */\n      tag_351\n        /* \"#utility.yul\":1700:1707   */\n      dup6\n        /* \"#utility.yul\":1691:1697   */\n      dup3\n        /* \"#utility.yul\":1680:1689   */\n      dup7\n        /* \"#utility.yul\":1676:1698   */\n      add\n        /* \"#utility.yul\":1655:1708   */\n      tag_246\n      jump\t// in\n    tag_351:\n        /* \"#utility.yul\":1645:1708   */\n      swap3\n      pop\n        /* \"#utility.yul\":1601:1718   */\n      pop\n        /* \"#utility.yul\":1757:1759   */\n      0x20\n        /* \"#utility.yul\":1783:1833   */\n      tag_352\n        /* \"#utility.yul\":1825:1832   */\n      dup6\n        /* \"#utility.yul\":1816:1822   */\n      dup3\n        /* \"#utility.yul\":1805:1814   */\n      dup7\n        /* \"#utility.yul\":1801:1823   */\n      add\n        /* \"#utility.yul\":1783:1833   */\n      tag_249\n      jump\t// in\n    tag_352:\n        /* \"#utility.yul\":1773:1833   */\n      swap2\n      pop\n        /* \"#utility.yul\":1728:1843   */\n      pop\n        /* \"#utility.yul\":1382:1850   */\n      swap3\n      pop\n      swap3\n      swap1\n      pop\n      jump\t// out\n        /* \"#utility.yul\":1856:1974   */\n    tag_250:\n        /* \"#utility.yul\":1943:1967   */\n      tag_354\n        /* \"#utility.yul\":1961:1966   */\n      dup2\n        /* \"#utility.yul\":1943:1967   */\n      tag_244\n      jump\t// in\n    tag_354:\n        /* \"#utility.yul\":1938:1941   */\n      dup3\n        /* \"#utility.yul\":1931:1968   */\n      mstore\n        /* \"#utility.yul\":1856:1974   */\n      pop\n      pop\n      jump\t// out\n        /* \"#utility.yul\":1980:2202   */\n    tag_29:\n        /* \"#utility.yul\":2073:2077   */\n      0x00\n        /* \"#utility.yul\":2111:2113   */\n      0x20\n        /* \"#utility.yul\":2100:2109   */\n      dup3\n        /* \"#utility.yul\":2096:2114   */\n      add\n        /* \"#utility.yul\":2088:2114   */\n      swap1\n      pop\n        /* \"#utility.yul\":2124:2195   */\n      tag_356\n        /* \"#utility.yul\":2192:2193   */\n      0x00\n        /* \"#utility.yul\":2181:2190   */\n      dup4\n        /* \"#utility.yul\":2177:2194   */\n      add\n        /* \"#utility.yul\":2168:2174   */\n      dup5\n        /* \"#utility.yul\":2124:2195   */\n      tag_250\n      jump\t// in\n    tag_356:\n        /* \"#utility.yul\":1980:2202   */\n      swap3\n      swap2\n      pop\n      pop\n      jump\t// out\n        /* \"#utility.yul\":2208:2334   */\n    tag_251:\n        /* \"#utility.yul\":2245:2252   */\n      0x00\n        /* \"#utility.yul\":2285:2327   */\n      0xffffffffffffffffffffffffffffffffffffffff\n        /* \"#utility.yul\":2278:2283   */\n      dup3\n        /* \"#utility.yul\":2274:2328   */\n      and\n        /* \"#utility.yul\":2263:2328   */\n      swap1\n      pop\n        /* \"#utility.yul\":2208:2334   */\n      swap2\n      swap1\n      pop\n      jump\t// out\n        /* \"#utility.yul\":2340:2436   */\n    tag_252:\n        /* \"#utility.yul\":2377:2384   */\n      0x00\n        /* \"#utility.yul\":2406:2430   */\n      tag_359\n        /* \"#utility.yul\":2424:2429   */\n      dup3\n        /* \"#utility.yul\":2406:2430   */\n      tag_251\n      jump\t// in\n    tag_359:\n        /* \"#utility.yul\":2395:2430   */\n      swap1\n      pop\n        /* \"#utility.yul\":2340:2436   */\n      swap2\n      swap1\n      pop\n      jump\t// out\n        /* \"#utility.yul\":2442:2564   */\n    tag_253:\n        /* \"#utility.yul\":2515:2539   */\n      tag_361\n        /* \"#utility.yul\":2533:2538   */\n      dup2\n        /* \"#utility.yul\":2515:2539   */\n      tag_252\n      jump\t// in\n    tag_361:\n        /* \"#utility.yul\":2508:2513   */\n      dup2\n        /* \"#utility.yul\":2505:2540   */\n      eq\n        /* \"#utility.yul\":2495:2558   */\n      tag_362\n      jumpi\n        /* \"#utility.yul\":2554:2555   */\n      0x00\n        /* \"#utility.yul\":2551:2552   */\n      dup1\n        /* \"#utility.yul\":2544:2556   */\n      revert\n        /* \"#utility.yul\":2495:2558   */\n    tag_362:\n        /* \"#utility.yul\":2442:2564   */\n      pop\n      jump\t// out\n        /* \"#utility.yul\":2570:2709   */\n    tag_254:\n        /* \"#utility.yul\":2616:2621   */\n      0x00\n        /* \"#utility.yul\":2654:2660   */\n      dup2\n        /* \"#utility.yul\":2641:2661   */\n      calldataload\n        /* \"#utility.yul\":2632:2661   */\n      swap1\n      pop\n        /* \"#utility.yul\":2670:2703   */\n      tag_364\n        /* \"#utility.yul\":2697:2702   */\n      dup2\n        /* \"#utility.yul\":2670:2703   */\n      tag_253\n      jump\t// in\n    tag_364:\n        /* \"#utility.yul\":2570:2709   */\n      swap3\n      swap2\n      pop\n      pop\n      jump\t// out\n        /* \"#utility.yul\":2715:3480   */\n    tag_32:\n        /* \"#utility.yul\":2801:2807   */\n      0x00\n        /* \"#utility.yul\":2809:2815   */\n      dup1\n        /* \"#utility.yul\":2817:2823   */\n      0x00\n        /* \"#utility.yul\":2825:2831   */\n      dup1\n        /* \"#utility.yul\":2874:2877   */\n      0x80\n        /* \"#utility.yul\":2862:2871   */\n      dup6\n        /* \"#utility.yul\":2853:2860   */\n      dup8\n        /* \"#utility.yul\":2849:2872   */\n      sub\n        /* \"#utility.yul\":2845:2878   */\n      slt\n        /* \"#utility.yul\":2842:2962   */\n      iszero\n      tag_366\n      jumpi\n        /* \"#utility.yul\":2881:2960   */\n      tag_367\n      tag_242\n      jump\t// in\n    tag_367:\n        /* \"#utility.yul\":2842:2962   */\n    tag_366:\n        /* \"#utility.yul\":3001:3002   */\n      0x00\n        /* \"#utility.yul\":3026:3079   */\n      tag_368\n        /* \"#utility.yul\":3071:3078   */\n      dup8\n        /* \"#utility.yul\":3062:3068   */\n      dup3\n        /* \"#utility.yul\":3051:3060   */\n      dup9\n        /* \"#utility.yul\":3047:3069   */\n      add\n        /* \"#utility.yul\":3026:3079   */\n      tag_254\n      jump\t// in\n    tag_368:\n        /* \"#utility.yul\":3016:3079   */\n      swap5\n      pop\n        /* \"#utility.yul\":2972:3089   */\n      pop\n        /* \"#utility.yul\":3128:3130   */\n      0x20\n        /* \"#utility.yul\":3154:3207   */\n      tag_369\n        /* \"#utility.yul\":3199:3206   */\n      dup8\n        /* \"#utility.yul\":3190:3196   */\n      dup3\n        /* \"#utility.yul\":3179:3188   */\n      dup9\n        /* \"#utility.yul\":3175:3197   */\n      add\n        /* \"#utility.yul\":3154:3207   */\n      tag_246\n      jump\t// in\n    tag_369:\n        /* \"#utility.yul\":3144:3207   */\n      swap4\n      pop\n        /* \"#utility.yul\":3099:3217   */\n      pop\n        /* \"#utility.yul\":3256:3258   */\n      0x40\n        /* \"#utility.yul\":3282:3335   */\n      tag_370\n        /* \"#utility.yul\":3327:3334   */\n      dup8\n        /* \"#utility.yul\":3318:3324   */\n      dup3\n        /* \"#utility.yul\":3307:3316   */\n      dup9\n        /* \"#utility.yul\":3303:3325   */\n      add\n        /* \"#utility.yul\":3282:3335   */\n      tag_246\n      jump\t// in\n    tag_370:\n        /* \"#utility.yul\":3272:3335   */\n      swap3\n      pop\n        /* \"#utility.yul\":3227:3345   */\n      pop\n        /* \"#utility.yul\":3384:3386   */\n      0x60\n        /* \"#utility.yul\":3410:3463   */\n      tag_371\n        /* \"#utility.yul\":3455:3462   */\n      dup8\n        /* \"#utility.yul\":3446:3452   */\n      dup3\n        /* \"#utility.yul\":3435:3444   */\n      dup9\n        /* \"#utility.yul\":3431:3453   */\n      add\n        /* \"#utility.yul\":3410:3463   */\n      tag_246\n      jump\t// in\n    tag_371:\n        /* \"#utility.yul\":3400:3463   */\n      swap2\n      pop\n        /* \"#utility.yul\":3355:3473   */\n      pop\n        /* \"#utility.yul\":2715:3480   */\n      swap3\n      swap6\n      swap2\n      swap5\n      pop\n      swap3\n      pop\n      jump\t// out\n        /* \"#utility.yul\":3486:3815   */\n    tag_36:\n        /* \"#utility.yul\":3545:3551   */\n      0x00\n        /* \"#utility.yul\":3594:3596   */\n      0x20\n        /* \"#utility.yul\":3582:3591   */\n      dup3\n        /* \"#utility.yul\":3573:3580   */\n      dup5\n        /* \"#utility.yul\":3569:3592   */\n      sub\n        /* \"#utility.yul\":3565:3597   */\n      slt\n        /* \"#utility.yul\":3562:3681   */\n      iszero\n      tag_373\n      jumpi\n        /* \"#utility.yul\":3600:3679   */\n      tag_374\n      tag_242\n      jump\t// in\n    tag_374:\n        /* \"#utility.yul\":3562:3681   */\n    tag_373:\n        /* \"#utility.yul\":3720:3721   */\n      0x00\n        /* \"#utility.yul\":3745:3798   */\n      tag_375\n        /* \"#utility.yul\":3790:3797   */\n      dup5\n        /* \"#utility.yul\":3781:3787   */\n      dup3\n        /* \"#utility.yul\":3770:3779   */\n      dup6\n        /* \"#utility.yul\":3766:3788   */\n      add\n        /* \"#utility.yul\":3745:3798   */\n      tag_254\n      jump\t// in\n    tag_375:\n        /* \"#utility.yul\":3735:3798   */\n      swap2\n      pop\n        /* \"#utility.yul\":3691:3808   */\n      pop\n        /* \"#utility.yul\":3486:3815   */\n      swap3\n      swap2\n      pop\n      pop\n      jump\t// out\n        /* \"#utility.yul\":3821:3930   */\n    tag_255:\n        /* \"#utility.yul\":3902:3923   */\n      tag_377\n        /* \"#utility.yul\":3917:3922   */\n      dup2\n        /* \"#utility.yul\":3902:3923   */\n      tag_247\n      jump\t// in\n    tag_377:\n        /* \"#utility.yul\":3897:3900   */\n      dup3\n        /* \"#utility.yul\":3890:3924   */\n      mstore\n        /* \"#utility.yul\":3821:3930   */\n      pop\n      pop\n      jump\t// out\n        /* \"#utility.yul\":3936:4054   */\n    tag_256:\n        /* \"#utility.yul\":4023:4047   */\n      tag_379\n        /* \"#utility.yul\":4041:4046   */\n      dup2\n        /* \"#utility.yul\":4023:4047   */\n      tag_252\n      jump\t// in\n    tag_379:\n        /* \"#utility.yul\":4018:4021   */\n      dup3\n        /* \"#utility.yul\":4011:4048   */\n      mstore\n        /* \"#utility.yul\":3936:4054   */\n      pop\n      pop\n      jump\t// out\n        /* \"#utility.yul\":4060:4934   */\n    tag_39:\n        /* \"#utility.yul\":4315:4319   */\n      0x00\n        /* \"#utility.yul\":4353:4356   */\n      0xe0\n        /* \"#utility.yul\":4342:4351   */\n      dup3\n        /* \"#utility.yul\":4338:4357   */\n      add\n        /* \"#utility.yul\":4330:4357   */\n      swap1\n      pop\n        /* \"#utility.yul\":4367:4438   */\n      tag_381\n        /* \"#utility.yul\":4435:4436   */\n      0x00\n        /* \"#utility.yul\":4424:4433   */\n      dup4\n        /* \"#utility.yul\":4420:4437   */\n      add\n        /* \"#utility.yul\":4411:4417   */\n      dup11\n        /* \"#utility.yul\":4367:4438   */\n      tag_250\n      jump\t// in\n    tag_381:\n        /* \"#utility.yul\":4448:4520   */\n      tag_382\n        /* \"#utility.yul\":4516:4518   */\n      0x20\n        /* \"#utility.yul\":4505:4514   */\n      dup4\n        /* \"#utility.yul\":4501:4519   */\n      add\n        /* \"#utility.yul\":4492:4498   */\n      dup10\n        /* \"#utility.yul\":4448:4520   */\n      tag_250\n      jump\t// in\n    tag_382:\n        /* \"#utility.yul\":4530:4602   */\n      tag_383\n        /* \"#utility.yul\":4598:4600   */\n      0x40\n        /* \"#utility.yul\":4587:4596   */\n      dup4\n        /* \"#utility.yul\":4583:4601   */\n      add\n        /* \"#utility.yul\":4574:4580   */\n      dup9\n        /* \"#utility.yul\":4530:4602   */\n      tag_250\n      jump\t// in\n    tag_383:\n        /* \"#utility.yul\":4612:4684   */\n      tag_384\n        /* \"#utility.yul\":4680:4682   */\n      0x60\n        /* \"#utility.yul\":4669:4678   */\n      dup4\n        /* \"#utility.yul\":4665:4683   */\n      add\n        /* \"#utility.yul\":4656:4662   */\n      dup8\n        /* \"#utility.yul\":4612:4684   */\n      tag_250\n      jump\t// in\n    tag_384:\n        /* \"#utility.yul\":4694:4767   */\n      tag_385\n        /* \"#utility.yul\":4762:4765   */\n      0x80\n        /* \"#utility.yul\":4751:4760   */\n      dup4\n        /* \"#utility.yul\":4747:4766   */\n      add\n        /* \"#utility.yul\":4738:4744   */\n      dup7\n        /* \"#utility.yul\":4694:4767   */\n      tag_250\n      jump\t// in\n    tag_385:\n        /* \"#utility.yul\":4777:4844   */\n      tag_386\n        /* \"#utility.yul\":4839:4842   */\n      0xa0\n        /* \"#utility.yul\":4828:4837   */\n      dup4\n        /* \"#utility.yul\":4824:4843   */\n      add\n        /* \"#utility.yul\":4815:4821   */\n      dup6\n        /* \"#utility.yul\":4777:4844   */\n      tag_255\n      jump\t// in\n    tag_386:\n        /* \"#utility.yul\":4854:4927   */\n      tag_387\n        /* \"#utility.yul\":4922:4925   */\n      0xc0\n        /* \"#utility.yul\":4911:4920   */\n      dup4\n        /* \"#utility.yul\":4907:4926   */\n      add\n        /* \"#utility.yul\":4898:4904   */\n      dup5\n        /* \"#utility.yul\":4854:4927   */\n      tag_256\n      jump\t// in\n    tag_387:\n        /* \"#utility.yul\":4060:4934   */\n      swap9\n      swap8\n      pop\n      pop\n      pop\n      pop\n      pop\n      pop\n      pop\n      pop\n      jump\t// out\n        /* \"#utility.yul\":4940:5039   */\n    tag_257:\n        /* \"#utility.yul\":4992:4998   */\n      0x00\n        /* \"#utility.yul\":5026:5031   */\n      dup2\n        /* \"#utility.yul\":5020:5032   */\n      mload\n        /* \"#utility.yul\":5010:5032   */\n      swap1\n      pop\n        /* \"#utility.yul\":4940:5039   */\n      swap2\n      swap1\n      pop\n      jump\t// out\n        /* \"#utility.yul\":5045:5214   */\n    tag_258:\n        /* \"#utility.yul\":5129:5140   */\n      0x00\n        /* \"#utility.yul\":5163:5169   */\n      dup3\n        /* \"#utility.yul\":5158:5161   */\n      dup3\n        /* \"#utility.yul\":5151:5170   */\n      mstore\n        /* \"#utility.yul\":5203:5207   */\n      0x20\n        /* \"#utility.yul\":5198:5201   */\n      dup3\n        /* \"#utility.yul\":5194:5208   */\n      add\n        /* \"#utility.yul\":5179:5208   */\n      swap1\n      pop\n        /* \"#utility.yul\":5045:5214   */\n      swap3\n      swap2\n      pop\n      pop\n      jump\t// out\n        /* \"#utility.yul\":5220:5359   */\n    tag_259:\n        /* \"#utility.yul\":5309:5315   */\n      dup3\n        /* \"#utility.yul\":5304:5307   */\n      dup2\n        /* \"#utility.yul\":5299:5302   */\n      dup4\n        /* \"#utility.yul\":5293:5316   */\n      mcopy\n        /* \"#utility.yul\":5350:5351   */\n      0x00\n        /* \"#utility.yul\":5341:5347   */\n      dup4\n        /* \"#utility.yul\":5336:5339   */\n      dup4\n        /* \"#utility.yul\":5332:5348   */\n      add\n        /* \"#utility.yul\":5325:5352   */\n      mstore\n        /* \"#utility.yul\":5220:5359   */\n      pop\n      pop\n      pop\n      jump\t// out\n        /* \"#utility.yul\":5365:5467   */\n    tag_260:\n        /* \"#utility.yul\":5406:5412   */\n      0x00\n        /* \"#utility.yul\":5457:5459   */\n      0x1f\n        /* \"#utility.yul\":5453:5460   */\n      not\n        /* \"#utility.yul\":5448:5450   */\n      0x1f\n        /* \"#utility.yul\":5441:5446   */\n      dup4\n        /* \"#utility.yul\":5437:5451   */\n      add\n        /* \"#utility.yul\":5433:5461   */\n      and\n        /* \"#utility.yul\":5423:5461   */\n      swap1\n      pop\n        /* \"#utility.yul\":5365:5467   */\n      swap2\n      swap1\n      pop\n      jump\t// out\n        /* \"#utility.yul\":5473:5850   */\n    tag_261:\n        /* \"#utility.yul\":5561:5564   */\n      0x00\n        /* \"#utility.yul\":5589:5628   */\n      tag_393\n        /* \"#utility.yul\":5622:5627   */\n      dup3\n        /* \"#utility.yul\":5589:5628   */\n      tag_257\n      jump\t// in\n    tag_393:\n        /* \"#utility.yul\":5644:5715   */\n      tag_394\n        /* \"#utility.yul\":5708:5714   */\n      dup2\n        /* \"#utility.yul\":5703:5706   */\n      dup6\n        /* \"#utility.yul\":5644:5715   */\n      tag_258\n      jump\t// in\n    tag_394:\n        /* \"#utility.yul\":5637:5715   */\n      swap4\n      pop\n        /* \"#utility.yul\":5724:5789   */\n      tag_395\n        /* \"#utility.yul\":5782:5788   */\n      dup2\n        /* \"#utility.yul\":5777:5780   */\n      dup6\n        /* \"#utility.yul\":5770:5774   */\n      0x20\n        /* \"#utility.yul\":5763:5768   */\n      dup7\n        /* \"#utility.yul\":5759:5775   */\n      add\n        /* \"#utility.yul\":5724:5789   */\n      tag_259\n      jump\t// in\n    tag_395:\n        /* \"#utility.yul\":5814:5843   */\n      tag_396\n        /* \"#utility.yul\":5836:5842   */\n      dup2\n        /* \"#utility.yul\":5814:5843   */\n      tag_260\n      jump\t// in\n    tag_396:\n        /* \"#utility.yul\":5809:5812   */\n      dup5\n        /* \"#utility.yul\":5805:5844   */\n      add\n        /* \"#utility.yul\":5798:5844   */\n      swap2\n      pop\n        /* \"#utility.yul\":5565:5850   */\n      pop\n        /* \"#utility.yul\":5473:5850   */\n      swap3\n      swap2\n      pop\n      pop\n      jump\t// out\n        /* \"#utility.yul\":5856:7043   */\n    tag_44:\n        /* \"#utility.yul\":6187:6191   */\n      0x00\n        /* \"#utility.yul\":6225:6228   */\n      0x0120\n        /* \"#utility.yul\":6214:6223   */\n      dup3\n        /* \"#utility.yul\":6210:6229   */\n      add\n        /* \"#utility.yul\":6202:6229   */\n      swap1\n      pop\n        /* \"#utility.yul\":6239:6310   */\n      tag_398\n        /* \"#utility.yul\":6307:6308   */\n      0x00\n        /* \"#utility.yul\":6296:6305   */\n      dup4\n        /* \"#utility.yul\":6292:6309   */\n      add\n        /* \"#utility.yul\":6283:6289   */\n      dup13\n        /* \"#utility.yul\":6239:6310   */\n      tag_250\n      jump\t// in\n    tag_398:\n        /* \"#utility.yul\":6320:6392   */\n      tag_399\n        /* \"#utility.yul\":6388:6390   */\n      0x20\n        /* \"#utility.yul\":6377:6386   */\n      dup4\n        /* \"#utility.yul\":6373:6391   */\n      add\n        /* \"#utility.yul\":6364:6370   */\n      dup12\n        /* \"#utility.yul\":6320:6392   */\n      tag_256\n      jump\t// in\n    tag_399:\n        /* \"#utility.yul\":6402:6474   */\n      tag_400\n        /* \"#utility.yul\":6470:6472   */\n      0x40\n        /* \"#utility.yul\":6459:6468   */\n      dup4\n        /* \"#utility.yul\":6455:6473   */\n      add\n        /* \"#utility.yul\":6446:6452   */\n      dup11\n        /* \"#utility.yul\":6402:6474   */\n      tag_250\n      jump\t// in\n    tag_400:\n        /* \"#utility.yul\":6484:6556   */\n      tag_401\n        /* \"#utility.yul\":6552:6554   */\n      0x60\n        /* \"#utility.yul\":6541:6550   */\n      dup4\n        /* \"#utility.yul\":6537:6555   */\n      add\n        /* \"#utility.yul\":6528:6534   */\n      dup10\n        /* \"#utility.yul\":6484:6556   */\n      tag_250\n      jump\t// in\n    tag_401:\n        /* \"#utility.yul\":6566:6639   */\n      tag_402\n        /* \"#utility.yul\":6634:6637   */\n      0x80\n        /* \"#utility.yul\":6623:6632   */\n      dup4\n        /* \"#utility.yul\":6619:6638   */\n      add\n        /* \"#utility.yul\":6610:6616   */\n      dup9\n        /* \"#utility.yul\":6566:6639   */\n      tag_250\n      jump\t// in\n    tag_402:\n        /* \"#utility.yul\":6649:6722   */\n      tag_403\n        /* \"#utility.yul\":6717:6720   */\n      0xa0\n        /* \"#utility.yul\":6706:6715   */\n      dup4\n        /* \"#utility.yul\":6702:6721   */\n      add\n        /* \"#utility.yul\":6693:6699   */\n      dup8\n        /* \"#utility.yul\":6649:6722   */\n      tag_250\n      jump\t// in\n    tag_403:\n        /* \"#utility.yul\":6770:6779   */\n      dup2\n        /* \"#utility.yul\":6764:6768   */\n      dup2\n        /* \"#utility.yul\":6760:6780   */\n      sub\n        /* \"#utility.yul\":6754:6757   */\n      0xc0\n        /* \"#utility.yul\":6743:6752   */\n      dup4\n        /* \"#utility.yul\":6739:6758   */\n      add\n        /* \"#utility.yul\":6732:6781   */\n      mstore\n        /* \"#utility.yul\":6798:6876   */\n      tag_404\n        /* \"#utility.yul\":6871:6875   */\n      dup2\n        /* \"#utility.yul\":6862:6868   */\n      dup7\n        /* \"#utility.yul\":6798:6876   */\n      tag_261\n      jump\t// in\n    tag_404:\n        /* \"#utility.yul\":6790:6876   */\n      swap1\n      pop\n        /* \"#utility.yul\":6886:6959   */\n      tag_405\n        /* \"#utility.yul\":6954:6957   */\n      0xe0\n        /* \"#utility.yul\":6943:6952   */\n      dup4\n        /* \"#utility.yul\":6939:6958   */\n      add\n        /* \"#utility.yul\":6930:6936   */\n      dup6\n        /* \"#utility.yul\":6886:6959   */\n      tag_250\n      jump\t// in\n    tag_405:\n        /* \"#utility.yul\":6969:7036   */\n      tag_406\n        /* \"#utility.yul\":7031:7034   */\n      0x0100\n        /* \"#utility.yul\":7020:7029   */\n      dup4\n        /* \"#utility.yul\":7016:7035   */\n      add\n        /* \"#utility.yul\":7007:7013   */\n      dup5\n        /* \"#utility.yul\":6969:7036   */\n      tag_255\n      jump\t// in\n    tag_406:\n        /* \"#utility.yul\":5856:7043   */\n      swap11\n      swap10\n      pop\n      pop\n      pop\n      pop\n      pop\n      pop\n      pop\n      pop\n      pop\n      pop\n      jump\t// out\n        /* \"#utility.yul\":7049:7259   */\n    tag_51:\n        /* \"#utility.yul\":7136:7140   */\n      0x00\n        /* \"#utility.yul\":7174:7176   */\n      0x20\n        /* \"#utility.yul\":7163:7172   */\n      dup3\n        /* \"#utility.yul\":7159:7177   */\n      add\n        /* \"#utility.yul\":7151:7177   */\n      swap1\n      pop\n        /* \"#utility.yul\":7187:7252   */\n      tag_408\n        /* \"#utility.yul\":7249:7250   */\n      0x00\n        /* \"#utility.yul\":7238:7247   */\n      dup4\n        /* \"#utility.yul\":7234:7251   */\n      add\n        /* \"#utility.yul\":7225:7231   */\n      dup5\n        /* \"#utility.yul\":7187:7252   */\n      tag_255\n      jump\t// in\n    tag_408:\n        /* \"#utility.yul\":7049:7259   */\n      swap3\n      swap2\n      pop\n      pop\n      jump\t// out\n        /* \"#utility.yul\":7265:7487   */\n    tag_55:\n        /* \"#utility.yul\":7358:7362   */\n      0x00\n        /* \"#utility.yul\":7396:7398   */\n      0x20\n        /* \"#utility.yul\":7385:7394   */\n      dup3\n        /* \"#utility.yul\":7381:7399   */\n      add\n        /* \"#utility.yul\":7373:7399   */\n      swap1\n      pop\n        /* \"#utility.yul\":7409:7480   */\n      tag_410\n        /* \"#utility.yul\":7477:7478   */\n      0x00\n        /* \"#utility.yul\":7466:7475   */\n      dup4\n        /* \"#utility.yul\":7462:7479   */\n      add\n        /* \"#utility.yul\":7453:7459   */\n      dup5\n        /* \"#utility.yul\":7409:7480   */\n      tag_256\n      jump\t// in\n    tag_410:\n        /* \"#utility.yul\":7265:7487   */\n      swap3\n      swap2\n      pop\n      pop\n      jump\t// out\n        /* \"#utility.yul\":7493:7610   */\n    tag_262:\n        /* \"#utility.yul\":7602:7603   */\n      0x00\n        /* \"#utility.yul\":7599:7600   */\n      dup1\n        /* \"#utility.yul\":7592:7604   */\n      revert\n        /* \"#utility.yul\":7616:7733   */\n    tag_263:\n        /* \"#utility.yul\":7725:7726   */\n      0x00\n        /* \"#utility.yul\":7722:7723   */\n      dup1\n        /* \"#utility.yul\":7715:7727   */\n      revert\n        /* \"#utility.yul\":7739:7919   */\n    tag_264:\n        /* \"#utility.yul\":7787:7864   */\n      0x4e487b7100000000000000000000000000000000000000000000000000000000\n        /* \"#utility.yul\":7784:7785   */\n      0x00\n        /* \"#utility.yul\":7777:7865   */\n      mstore\n        /* \"#utility.yul\":7884:7888   */\n      0x41\n        /* \"#utility.yul\":7881:7882   */\n      0x04\n        /* \"#utility.yul\":7874:7889   */\n      mstore\n        /* \"#utility.yul\":7908:7912   */\n      0x24\n        /* \"#utility.yul\":7905:7906   */\n      0x00\n        /* \"#utility.yul\":7898:7913   */\n      revert\n        /* \"#utility.yul\":7925:8206   */\n    tag_265:\n        /* \"#utility.yul\":8008:8035   */\n      tag_415\n        /* \"#utility.yul\":8030:8034   */\n      dup3\n        /* \"#utility.yul\":8008:8035   */\n      tag_260\n      jump\t// in\n    tag_415:\n        /* \"#utility.yul\":8000:8006   */\n      dup2\n        /* \"#utility.yul\":7996:8036   */\n      add\n        /* \"#utility.yul\":8138:8144   */\n      dup2\n        /* \"#utility.yul\":8126:8136   */\n      dup2\n        /* \"#utility.yul\":8123:8145   */\n      lt\n        /* \"#utility.yul\":8102:8120   */\n      0xffffffffffffffff\n        /* \"#utility.yul\":8090:8100   */\n      dup3\n        /* \"#utility.yul\":8087:8121   */\n      gt\n        /* \"#utility.yul\":8084:8146   */\n      or\n        /* \"#utility.yul\":8081:8169   */\n      iszero\n      tag_416\n      jumpi\n        /* \"#utility.yul\":8149:8167   */\n      tag_417\n      tag_264\n      jump\t// in\n    tag_417:\n        /* \"#utility.yul\":8081:8169   */\n    tag_416:\n        /* \"#utility.yul\":8189:8199   */\n      dup1\n        /* \"#utility.yul\":8185:8187   */\n      0x40\n        /* \"#utility.yul\":8178:8200   */\n      mstore\n        /* \"#utility.yul\":7968:8206   */\n      pop\n        /* \"#utility.yul\":7925:8206   */\n      pop\n      pop\n      jump\t// out\n        /* \"#utility.yul\":8212:8341   */\n    tag_266:\n        /* \"#utility.yul\":8246:8252   */\n      0x00\n        /* \"#utility.yul\":8273:8293   */\n      tag_419\n      tag_241\n      jump\t// in\n    tag_419:\n        /* \"#utility.yul\":8263:8293   */\n      swap1\n      pop\n        /* \"#utility.yul\":8302:8335   */\n      tag_420\n        /* \"#utility.yul\":8330:8334   */\n      dup3\n        /* \"#utility.yul\":8322:8328   */\n      dup3\n        /* \"#utility.yul\":8302:8335   */\n      tag_265\n      jump\t// in\n    tag_420:\n        /* \"#utility.yul\":8212:8341   */\n      swap2\n      swap1\n      pop\n      jump\t// out\n        /* \"#utility.yul\":8347:8655   */\n    tag_267:\n        /* \"#utility.yul\":8409:8413   */\n      0x00\n        /* \"#utility.yul\":8499:8517   */\n      0xffffffffffffffff\n        /* \"#utility.yul\":8491:8497   */\n      dup3\n        /* \"#utility.yul\":8488:8518   */\n      gt\n        /* \"#utility.yul\":8485:8541   */\n      iszero\n      tag_422\n      jumpi\n        /* \"#utility.yul\":8521:8539   */\n      tag_423\n      tag_264\n      jump\t// in\n    tag_423:\n        /* \"#utility.yul\":8485:8541   */\n    tag_422:\n        /* \"#utility.yul\":8559:8588   */\n      tag_424\n        /* \"#utility.yul\":8581:8587   */\n      dup3\n        /* \"#utility.yul\":8559:8588   */\n      tag_260\n      jump\t// in\n    tag_424:\n        /* \"#utility.yul\":8551:8588   */\n      swap1\n      pop\n        /* \"#utility.yul\":8643:8647   */\n      0x20\n        /* \"#utility.yul\":8637:8641   */\n      dup2\n        /* \"#utility.yul\":8633:8648   */\n      add\n        /* \"#utility.yul\":8625:8648   */\n      swap1\n      pop\n        /* \"#utility.yul\":8347:8655   */\n      swap2\n      swap1\n      pop\n      jump\t// out\n        /* \"#utility.yul\":8661:8809   */\n    tag_268:\n        /* \"#utility.yul\":8759:8765   */\n      dup3\n        /* \"#utility.yul\":8754:8757   */\n      dup2\n        /* \"#utility.yul\":8749:8752   */\n      dup4\n        /* \"#utility.yul\":8736:8766   */\n      calldatacopy\n        /* \"#utility.yul\":8800:8801   */\n      0x00\n        /* \"#utility.yul\":8791:8797   */\n      dup4\n        /* \"#utility.yul\":8786:8789   */\n      dup4\n        /* \"#utility.yul\":8782:8798   */\n      add\n        /* \"#utility.yul\":8775:8802   */\n      mstore\n        /* \"#utility.yul\":8661:8809   */\n      pop\n      pop\n      pop\n      jump\t// out\n        /* \"#utility.yul\":8815:9240   */\n    tag_269:\n        /* \"#utility.yul\":8893:8898   */\n      0x00\n        /* \"#utility.yul\":8918:8984   */\n      tag_427\n        /* \"#utility.yul\":8934:8983   */\n      tag_428\n        /* \"#utility.yul\":8976:8982   */\n      dup5\n        /* \"#utility.yul\":8934:8983   */\n      tag_267\n      jump\t// in\n    tag_428:\n        /* \"#utility.yul\":8918:8984   */\n      tag_266\n      jump\t// in\n    tag_427:\n        /* \"#utility.yul\":8909:8984   */\n      swap1\n      pop\n        /* \"#utility.yul\":9007:9013   */\n      dup3\n        /* \"#utility.yul\":9000:9005   */\n      dup2\n        /* \"#utility.yul\":8993:9014   */\n      mstore\n        /* \"#utility.yul\":9045:9049   */\n      0x20\n        /* \"#utility.yul\":9038:9043   */\n      dup2\n        /* \"#utility.yul\":9034:9050   */\n      add\n        /* \"#utility.yul\":9083:9086   */\n      dup5\n        /* \"#utility.yul\":9074:9080   */\n      dup5\n        /* \"#utility.yul\":9069:9072   */\n      dup5\n        /* \"#utility.yul\":9065:9081   */\n      add\n        /* \"#utility.yul\":9062:9087   */\n      gt\n        /* \"#utility.yul\":9059:9171   */\n      iszero\n      tag_429\n      jumpi\n        /* \"#utility.yul\":9090:9169   */\n      tag_430\n      tag_263\n      jump\t// in\n    tag_430:\n        /* \"#utility.yul\":9059:9171   */\n    tag_429:\n        /* \"#utility.yul\":9180:9234   */\n      tag_431\n        /* \"#utility.yul\":9227:9233   */\n      dup5\n        /* \"#utility.yul\":9222:9225   */\n      dup3\n        /* \"#utility.yul\":9217:9220   */\n      dup6\n        /* \"#utility.yul\":9180:9234   */\n      tag_268\n      jump\t// in\n    tag_431:\n        /* \"#utility.yul\":8899:9240   */\n      pop\n        /* \"#utility.yul\":8815:9240   */\n      swap4\n      swap3\n      pop\n      pop\n      pop\n      jump\t// out\n        /* \"#utility.yul\":9260:9600   */\n    tag_270:\n        /* \"#utility.yul\":9316:9321   */\n      0x00\n        /* \"#utility.yul\":9365:9368   */\n      dup3\n        /* \"#utility.yul\":9358:9362   */\n      0x1f\n        /* \"#utility.yul\":9350:9356   */\n      dup4\n        /* \"#utility.yul\":9346:9363   */\n      add\n        /* \"#utility.yul\":9342:9369   */\n      slt\n        /* \"#utility.yul\":9332:9454   */\n      tag_433\n      jumpi\n        /* \"#utility.yul\":9373:9452   */\n      tag_434\n      tag_262\n      jump\t// in\n    tag_434:\n        /* \"#utility.yul\":9332:9454   */\n    tag_433:\n        /* \"#utility.yul\":9490:9496   */\n      dup2\n        /* \"#utility.yul\":9477:9497   */\n      calldataload\n        /* \"#utility.yul\":9515:9594   */\n      tag_435\n        /* \"#utility.yul\":9590:9593   */\n      dup5\n        /* \"#utility.yul\":9582:9588   */\n      dup3\n        /* \"#utility.yul\":9575:9579   */\n      0x20\n        /* \"#utility.yul\":9567:9573   */\n      dup7\n        /* \"#utility.yul\":9563:9580   */\n      add\n        /* \"#utility.yul\":9515:9594   */\n      tag_269\n      jump\t// in\n    tag_435:\n        /* \"#utility.yul\":9506:9594   */\n      swap2\n      pop\n        /* \"#utility.yul\":9322:9600   */\n      pop\n        /* \"#utility.yul\":9260:9600   */\n      swap3\n      swap2\n      pop\n      pop\n      jump\t// out\n        /* \"#utility.yul\":9606:10260   */\n    tag_64:\n        /* \"#utility.yul\":9684:9690   */\n      0x00\n        /* \"#utility.yul\":9692:9698   */\n      dup1\n        /* \"#utility.yul\":9741:9743   */\n      0x40\n        /* \"#utility.yul\":9729:9738   */\n      dup4\n        /* \"#utility.yul\":9720:9727   */\n      dup6\n        /* \"#utility.yul\":9716:9739   */\n      sub\n        /* \"#utility.yul\":9712:9744   */\n      slt\n        /* \"#utility.yul\":9709:9828   */\n      iszero\n      tag_437\n      jumpi\n        /* \"#utility.yul\":9747:9826   */\n      tag_438\n      tag_242\n      jump\t// in\n    tag_438:\n        /* \"#utility.yul\":9709:9828   */\n    tag_437:\n        /* \"#utility.yul\":9895:9896   */\n      0x00\n        /* \"#utility.yul\":9884:9893   */\n      dup4\n        /* \"#utility.yul\":9880:9897   */\n      add\n        /* \"#utility.yul\":9867:9898   */\n      calldataload\n        /* \"#utility.yul\":9925:9943   */\n      0xffffffffffffffff\n        /* \"#utility.yul\":9917:9923   */\n      dup2\n        /* \"#utility.yul\":9914:9944   */\n      gt\n        /* \"#utility.yul\":9911:10028   */\n      iszero\n      tag_439\n      jumpi\n        /* \"#utility.yul\":9947:10026   */\n      tag_440\n      tag_243\n      jump\t// in\n    tag_440:\n        /* \"#utility.yul\":9911:10028   */\n    tag_439:\n        /* \"#utility.yul\":10052:10115   */\n      tag_441\n        /* \"#utility.yul\":10107:10114   */\n      dup6\n        /* \"#utility.yul\":10098:10104   */\n      dup3\n        /* \"#utility.yul\":10087:10096   */\n      dup7\n        /* \"#utility.yul\":10083:10105   */\n      add\n        /* \"#utility.yul\":10052:10115   */\n      tag_270\n      jump\t// in\n    tag_441:\n        /* \"#utility.yul\":10042:10115   */\n      swap3\n      pop\n        /* \"#utility.yul\":9838:10125   */\n      pop\n        /* \"#utility.yul\":10164:10166   */\n      0x20\n        /* \"#utility.yul\":10190:10243   */\n      tag_442\n        /* \"#utility.yul\":10235:10242   */\n      dup6\n        /* \"#utility.yul\":10226:10232   */\n      dup3\n        /* \"#utility.yul\":10215:10224   */\n      dup7\n        /* \"#utility.yul\":10211:10233   */\n      add\n        /* \"#utility.yul\":10190:10243   */\n      tag_246\n      jump\t// in\n    tag_442:\n        /* \"#utility.yul\":10180:10243   */\n      swap2\n      pop\n        /* \"#utility.yul\":10135:10253   */\n      pop\n        /* \"#utility.yul\":9606:10260   */\n      swap3\n      pop\n      swap3\n      swap1\n      pop\n      jump\t// out\n        /* \"#utility.yul\":10266:10438   */\n    tag_271:\n        /* \"#utility.yul\":10406:10430   */\n      0x566f74696e6720706572696f64206e6f74206f76657200000000000000000000\n        /* \"#utility.yul\":10402:10403   */\n      0x00\n        /* \"#utility.yul\":10394:10400   */\n      dup3\n        /* \"#utility.yul\":10390:10404   */\n      add\n        /* \"#utility.yul\":10383:10431   */\n      mstore\n        /* \"#utility.yul\":10266:10438   */\n      pop\n      jump\t// out\n        /* \"#utility.yul\":10444:10810   */\n    tag_272:\n        /* \"#utility.yul\":10586:10589   */\n      0x00\n        /* \"#utility.yul\":10607:10674   */\n      tag_445\n        /* \"#utility.yul\":10671:10673   */\n      0x16\n        /* \"#utility.yul\":10666:10669   */\n      dup4\n        /* \"#utility.yul\":10607:10674   */\n      tag_258\n      jump\t// in\n    tag_445:\n        /* \"#utility.yul\":10600:10674   */\n      swap2\n      pop\n        /* \"#utility.yul\":10683:10776   */\n      tag_446\n        /* \"#utility.yul\":10772:10775   */\n      dup3\n        /* \"#utility.yul\":10683:10776   */\n      tag_271\n      jump\t// in\n    tag_446:\n        /* \"#utility.yul\":10801:10803   */\n      0x20\n        /* \"#utility.yul\":10796:10799   */\n      dup3\n        /* \"#utility.yul\":10792:10804   */\n      add\n        /* \"#utility.yul\":10785:10804   */\n      swap1\n      pop\n        /* \"#utility.yul\":10444:10810   */\n      swap2\n      swap1\n      pop\n      jump\t// out\n        /* \"#utility.yul\":10816:11235   */\n    tag_72:\n        /* \"#utility.yul\":10982:10986   */\n      0x00\n        /* \"#utility.yul\":11020:11022   */\n      0x20\n        /* \"#utility.yul\":11009:11018   */\n      dup3\n        /* \"#utility.yul\":11005:11023   */\n      add\n        /* \"#utility.yul\":10997:11023   */\n      swap1\n      pop\n        /* \"#utility.yul\":11069:11078   */\n      dup2\n        /* \"#utility.yul\":11063:11067   */\n      dup2\n        /* \"#utility.yul\":11059:11079   */\n      sub\n        /* \"#utility.yul\":11055:11056   */\n      0x00\n        /* \"#utility.yul\":11044:11053   */\n      dup4\n        /* \"#utility.yul\":11040:11057   */\n      add\n        /* \"#utility.yul\":11033:11080   */\n      mstore\n        /* \"#utility.yul\":11097:11228   */\n      tag_448\n        /* \"#utility.yul\":11223:11227   */\n      dup2\n        /* \"#utility.yul\":11097:11228   */\n      tag_272\n      jump\t// in\n    tag_448:\n        /* \"#utility.yul\":11089:11228   */\n      swap1\n      pop\n        /* \"#utility.yul\":10816:11235   */\n      swap2\n      swap1\n      pop\n      jump\t// out\n        /* \"#utility.yul\":11241:11416   */\n    tag_273:\n        /* \"#utility.yul\":11381:11408   */\n      0x50726f706f73616c20616c726561647920657865637574656400000000000000\n        /* \"#utility.yul\":11377:11378   */\n      0x00\n        /* \"#utility.yul\":11369:11375   */\n      dup3\n        /* \"#utility.yul\":11365:11379   */\n      add\n        /* \"#utility.yul\":11358:11409   */\n      mstore\n        /* \"#utility.yul\":11241:11416   */\n      pop\n      jump\t// out\n        /* \"#utility.yul\":11422:11788   */\n    tag_274:\n        /* \"#utility.yul\":11564:11567   */\n      0x00\n        /* \"#utility.yul\":11585:11652   */\n      tag_451\n        /* \"#utility.yul\":11649:11651   */\n      0x19\n        /* \"#utility.yul\":11644:11647   */\n      dup4\n        /* \"#utility.yul\":11585:11652   */\n      tag_258\n      jump\t// in\n    tag_451:\n        /* \"#utility.yul\":11578:11652   */\n      swap2\n      pop\n        /* \"#utility.yul\":11661:11754   */\n      tag_452\n        /* \"#utility.yul\":11750:11753   */\n      dup3\n        /* \"#utility.yul\":11661:11754   */\n      tag_273\n      jump\t// in\n    tag_452:\n        /* \"#utility.yul\":11779:11781   */\n      0x20\n        /* \"#utility.yul\":11774:11777   */\n      dup3\n        /* \"#utility.yul\":11770:11782   */\n      add\n        /* \"#utility.yul\":11763:11782   */\n      swap1\n      pop\n        /* \"#utility.yul\":11422:11788   */\n      swap2\n      swap1\n      pop\n      jump\t// out\n        /* \"#utility.yul\":11794:12213   */\n    tag_75:\n        /* \"#utility.yul\":11960:11964   */\n      0x00\n        /* \"#utility.yul\":11998:12000   */\n      0x20\n        /* \"#utility.yul\":11987:11996   */\n      dup3\n        /* \"#utility.yul\":11983:12001   */\n      add\n        /* \"#utility.yul\":11975:12001   */\n      swap1\n      pop\n        /* \"#utility.yul\":12047:12056   */\n      dup2\n        /* \"#utility.yul\":12041:12045   */\n      dup2\n        /* \"#utility.yul\":12037:12057   */\n      sub\n        /* \"#utility.yul\":12033:12034   */\n      0x00\n        /* \"#utility.yul\":12022:12031   */\n      dup4\n        /* \"#utility.yul\":12018:12035   */\n      add\n        /* \"#utility.yul\":12011:12058   */\n      mstore\n        /* \"#utility.yul\":12075:12206   */\n      tag_454\n        /* \"#utility.yul\":12201:12205   */\n      dup2\n        /* \"#utility.yul\":12075:12206   */\n      tag_274\n      jump\t// in\n    tag_454:\n        /* \"#utility.yul\":12067:12206   */\n      swap1\n      pop\n        /* \"#utility.yul\":11794:12213   */\n      swap2\n      swap1\n      pop\n      jump\t// out\n        /* \"#utility.yul\":12219:12399   */\n    tag_275:\n        /* \"#utility.yul\":12267:12344   */\n      0x4e487b7100000000000000000000000000000000000000000000000000000000\n        /* \"#utility.yul\":12264:12265   */\n      0x00\n        /* \"#utility.yul\":12257:12345   */\n      mstore\n        /* \"#utility.yul\":12364:12368   */\n      0x22\n        /* \"#utility.yul\":12361:12362   */\n      0x04\n        /* \"#utility.yul\":12354:12369   */\n      mstore\n        /* \"#utility.yul\":12388:12392   */\n      0x24\n        /* \"#utility.yul\":12385:12386   */\n      0x00\n        /* \"#utility.yul\":12378:12393   */\n      revert\n        /* \"#utility.yul\":12405:12725   */\n    tag_153:\n        /* \"#utility.yul\":12449:12455   */\n      0x00\n        /* \"#utility.yul\":12486:12487   */\n      0x02\n        /* \"#utility.yul\":12480:12484   */\n      dup3\n        /* \"#utility.yul\":12476:12488   */\n      div\n        /* \"#utility.yul\":12466:12488   */\n      swap1\n      pop\n        /* \"#utility.yul\":12533:12534   */\n      0x01\n        /* \"#utility.yul\":12527:12531   */\n      dup3\n        /* \"#utility.yul\":12523:12535   */\n      and\n        /* \"#utility.yul\":12554:12572   */\n      dup1\n        /* \"#utility.yul\":12544:12625   */\n      tag_457\n      jumpi\n        /* \"#utility.yul\":12610:12614   */\n      0x7f\n        /* \"#utility.yul\":12602:12608   */\n      dup3\n        /* \"#utility.yul\":12598:12615   */\n      and\n        /* \"#utility.yul\":12588:12615   */\n      swap2\n      pop\n        /* \"#utility.yul\":12544:12625   */\n    tag_457:\n        /* \"#utility.yul\":12672:12674   */\n      0x20\n        /* \"#utility.yul\":12664:12670   */\n      dup3\n        /* \"#utility.yul\":12661:12675   */\n      lt\n        /* \"#utility.yul\":12641:12659   */\n      dup2\n        /* \"#utility.yul\":12638:12676   */\n      sub\n        /* \"#utility.yul\":12635:12719   */\n      tag_458\n      jumpi\n        /* \"#utility.yul\":12691:12709   */\n      tag_459\n      tag_275\n      jump\t// in\n    tag_459:\n        /* \"#utility.yul\":12635:12719   */\n    tag_458:\n        /* \"#utility.yul\":12456:12725   */\n      pop\n        /* \"#utility.yul\":12405:12725   */\n      swap2\n      swap1\n      pop\n      jump\t// out\n        /* \"#utility.yul\":12731:12879   */\n    tag_276:\n        /* \"#utility.yul\":12833:12844   */\n      0x00\n        /* \"#utility.yul\":12870:12873   */\n      dup2\n        /* \"#utility.yul\":12855:12873   */\n      swap1\n      pop\n        /* \"#utility.yul\":12731:12879   */\n      swap3\n      swap2\n      pop\n      pop\n      jump\t// out\n        /* \"#utility.yul\":12885:13026   */\n    tag_277:\n        /* \"#utility.yul\":12934:12938   */\n      0x00\n        /* \"#utility.yul\":12957:12960   */\n      dup2\n        /* \"#utility.yul\":12949:12960   */\n      swap1\n      pop\n        /* \"#utility.yul\":12980:12983   */\n      dup2\n        /* \"#utility.yul\":12977:12978   */\n      0x00\n        /* \"#utility.yul\":12970:12984   */\n      mstore\n        /* \"#utility.yul\":13014:13018   */\n      0x20\n        /* \"#utility.yul\":13011:13012   */\n      0x00\n        /* \"#utility.yul\":13001:13019   */\n      keccak256\n        /* \"#utility.yul\":12993:13019   */\n      swap1\n      pop\n        /* \"#utility.yul\":12885:13026   */\n      swap2\n      swap1\n      pop\n      jump\t// out\n        /* \"#utility.yul\":13056:13930   */\n    tag_278:\n        /* \"#utility.yul\":13159:13162   */\n      0x00\n        /* \"#utility.yul\":13196:13201   */\n      dup2\n        /* \"#utility.yul\":13190:13202   */\n      sload\n        /* \"#utility.yul\":13225:13261   */\n      tag_463\n        /* \"#utility.yul\":13251:13260   */\n      dup2\n        /* \"#utility.yul\":13225:13261   */\n      tag_153\n      jump\t// in\n    tag_463:\n        /* \"#utility.yul\":13277:13366   */\n      tag_464\n        /* \"#utility.yul\":13359:13365   */\n      dup2\n        /* \"#utility.yul\":13354:13357   */\n      dup7\n        /* \"#utility.yul\":13277:13366   */\n      tag_276\n      jump\t// in\n    tag_464:\n        /* \"#utility.yul\":13270:13366   */\n      swap5\n      pop\n        /* \"#utility.yul\":13397:13398   */\n      0x01\n        /* \"#utility.yul\":13386:13395   */\n      dup3\n        /* \"#utility.yul\":13382:13399   */\n      and\n        /* \"#utility.yul\":13413:13414   */\n      0x00\n        /* \"#utility.yul\":13408:13574   */\n      dup2\n      eq\n      tag_466\n      jumpi\n        /* \"#utility.yul\":13588:13589   */\n      0x01\n        /* \"#utility.yul\":13583:13924   */\n      dup2\n      eq\n      tag_467\n      jumpi\n        /* \"#utility.yul\":13375:13924   */\n      jump(tag_465)\n        /* \"#utility.yul\":13408:13574   */\n    tag_466:\n        /* \"#utility.yul\":13492:13496   */\n      0xff\n        /* \"#utility.yul\":13488:13497   */\n      not\n        /* \"#utility.yul\":13477:13486   */\n      dup4\n        /* \"#utility.yul\":13473:13498   */\n      and\n        /* \"#utility.yul\":13468:13471   */\n      dup7\n        /* \"#utility.yul\":13461:13499   */\n      mstore\n        /* \"#utility.yul\":13554:13560   */\n      dup2\n        /* \"#utility.yul\":13547:13561   */\n      iszero\n        /* \"#utility.yul\":13540:13562   */\n      iszero\n        /* \"#utility.yul\":13532:13538   */\n      dup3\n        /* \"#utility.yul\":13528:13563   */\n      mul\n        /* \"#utility.yul\":13523:13526   */\n      dup7\n        /* \"#utility.yul\":13519:13564   */\n      add\n        /* \"#utility.yul\":13512:13564   */\n      swap4\n      pop\n        /* \"#utility.yul\":13408:13574   */\n      jump(tag_465)\n        /* \"#utility.yul\":13583:13924   */\n    tag_467:\n        /* \"#utility.yul\":13650:13688   */\n      tag_468\n        /* \"#utility.yul\":13682:13687   */\n      dup6\n        /* \"#utility.yul\":13650:13688   */\n      tag_277\n      jump\t// in\n    tag_468:\n        /* \"#utility.yul\":13710:13711   */\n      0x00\n        /* \"#utility.yul\":13724:13878   */\n    tag_469:\n        /* \"#utility.yul\":13738:13744   */\n      dup4\n        /* \"#utility.yul\":13735:13736   */\n      dup2\n        /* \"#utility.yul\":13732:13745   */\n      lt\n        /* \"#utility.yul\":13724:13878   */\n      iszero\n      tag_471\n      jumpi\n        /* \"#utility.yul\":13812:13819   */\n      dup2\n        /* \"#utility.yul\":13806:13820   */\n      sload\n        /* \"#utility.yul\":13802:13803   */\n      dup2\n        /* \"#utility.yul\":13797:13800   */\n      dup10\n        /* \"#utility.yul\":13793:13804   */\n      add\n        /* \"#utility.yul\":13786:13821   */\n      mstore\n        /* \"#utility.yul\":13862:13863   */\n      0x01\n        /* \"#utility.yul\":13853:13860   */\n      dup3\n        /* \"#utility.yul\":13849:13864   */\n      add\n        /* \"#utility.yul\":13838:13864   */\n      swap2\n      pop\n        /* \"#utility.yul\":13760:13764   */\n      0x20\n        /* \"#utility.yul\":13757:13758   */\n      dup2\n        /* \"#utility.yul\":13753:13765   */\n      add\n        /* \"#utility.yul\":13748:13765   */\n      swap1\n      pop\n        /* \"#utility.yul\":13724:13878   */\n      jump(tag_469)\n    tag_471:\n        /* \"#utility.yul\":13907:13913   */\n      dup4\n        /* \"#utility.yul\":13902:13905   */\n      dup9\n        /* \"#utility.yul\":13898:13914   */\n      add\n        /* \"#utility.yul\":13891:13914   */\n      swap6\n      pop\n        /* \"#utility.yul\":13590:13924   */\n      pop\n      pop\n        /* \"#utility.yul\":13375:13924   */\n    tag_465:\n      pop\n        /* \"#utility.yul\":13163:13930   */\n      pop\n      pop\n        /* \"#utility.yul\":13056:13930   */\n      swap3\n      swap2\n      pop\n      pop\n      jump\t// out\n        /* \"#utility.yul\":13936:14205   */\n    tag_78:\n        /* \"#utility.yul\":14065:14068   */\n      0x00\n        /* \"#utility.yul\":14087:14179   */\n      tag_473\n        /* \"#utility.yul\":14175:14178   */\n      dup3\n        /* \"#utility.yul\":14166:14172   */\n      dup5\n        /* \"#utility.yul\":14087:14179   */\n      tag_278\n      jump\t// in\n    tag_473:\n        /* \"#utility.yul\":14080:14179   */\n      swap2\n      pop\n        /* \"#utility.yul\":14196:14199   */\n      dup2\n        /* \"#utility.yul\":14189:14199   */\n      swap1\n      pop\n        /* \"#utility.yul\":13936:14205   */\n      swap3\n      swap2\n      pop\n      pop\n      jump\t// out\n        /* \"#utility.yul\":14211:14375   */\n    tag_279:\n        /* \"#utility.yul\":14351:14367   */\n      0x4e6f20616374697665206c6f636b000000000000000000000000000000000000\n        /* \"#utility.yul\":14347:14348   */\n      0x00\n        /* \"#utility.yul\":14339:14345   */\n      dup3\n        /* \"#utility.yul\":14335:14349   */\n      add\n        /* \"#utility.yul\":14328:14368   */\n      mstore\n        /* \"#utility.yul\":14211:14375   */\n      pop\n      jump\t// out\n        /* \"#utility.yul\":14381:14747   */\n    tag_280:\n        /* \"#utility.yul\":14523:14526   */\n      0x00\n        /* \"#utility.yul\":14544:14611   */\n      tag_476\n        /* \"#utility.yul\":14608:14610   */\n      0x0e\n        /* \"#utility.yul\":14603:14606   */\n      dup4\n        /* \"#utility.yul\":14544:14611   */\n      tag_258\n      jump\t// in\n    tag_476:\n        /* \"#utility.yul\":14537:14611   */\n      swap2\n      pop\n        /* \"#utility.yul\":14620:14713   */\n      tag_477\n        /* \"#utility.yul\":14709:14712   */\n      dup3\n        /* \"#utility.yul\":14620:14713   */\n      tag_279\n      jump\t// in\n    tag_477:\n        /* \"#utility.yul\":14738:14740   */\n      0x20\n        /* \"#utility.yul\":14733:14736   */\n      dup3\n        /* \"#utility.yul\":14729:14741   */\n      add\n        /* \"#utility.yul\":14722:14741   */\n      swap1\n      pop\n        /* \"#utility.yul\":14381:14747   */\n      swap2\n      swap1\n      pop\n      jump\t// out\n        /* \"#utility.yul\":14753:15172   */\n    tag_82:\n        /* \"#utility.yul\":14919:14923   */\n      0x00\n        /* \"#utility.yul\":14957:14959   */\n      0x20\n        /* \"#utility.yul\":14946:14955   */\n      dup3\n        /* \"#utility.yul\":14942:14960   */\n      add\n        /* \"#utility.yul\":14934:14960   */\n      swap1\n      pop\n        /* \"#utility.yul\":15006:15015   */\n      dup2\n        /* \"#utility.yul\":15000:15004   */\n      dup2\n        /* \"#utility.yul\":14996:15016   */\n      sub\n        /* \"#utility.yul\":14992:14993   */\n      0x00\n        /* \"#utility.yul\":14981:14990   */\n      dup4\n        /* \"#utility.yul\":14977:14994   */\n      add\n        /* \"#utility.yul\":14970:15017   */\n      mstore\n        /* \"#utility.yul\":15034:15165   */\n      tag_479\n        /* \"#utility.yul\":15160:15164   */\n      dup2\n        /* \"#utility.yul\":15034:15165   */\n      tag_280\n      jump\t// in\n    tag_479:\n        /* \"#utility.yul\":15026:15165   */\n      swap1\n      pop\n        /* \"#utility.yul\":14753:15172   */\n      swap2\n      swap1\n      pop\n      jump\t// out\n        /* \"#utility.yul\":15178:15355   */\n    tag_281:\n        /* \"#utility.yul\":15318:15347   */\n      0x4578636565647320746f74616c206c6f636b656420616d6f756e740000000000\n        /* \"#utility.yul\":15314:15315   */\n      0x00\n        /* \"#utility.yul\":15306:15312   */\n      dup3\n        /* \"#utility.yul\":15302:15316   */\n      add\n        /* \"#utility.yul\":15295:15348   */\n      mstore\n        /* \"#utility.yul\":15178:15355   */\n      pop\n      jump\t// out\n        /* \"#utility.yul\":15361:15727   */\n    tag_282:\n        /* \"#utility.yul\":15503:15506   */\n      0x00\n        /* \"#utility.yul\":15524:15591   */\n      tag_482\n        /* \"#utility.yul\":15588:15590   */\n      0x1b\n        /* \"#utility.yul\":15583:15586   */\n      dup4\n        /* \"#utility.yul\":15524:15591   */\n      tag_258\n      jump\t// in\n    tag_482:\n        /* \"#utility.yul\":15517:15591   */\n      swap2\n      pop\n        /* \"#utility.yul\":15600:15693   */\n      tag_483\n        /* \"#utility.yul\":15689:15692   */\n      dup3\n        /* \"#utility.yul\":15600:15693   */\n      tag_281\n      jump\t// in\n    tag_483:\n        /* \"#utility.yul\":15718:15720   */\n      0x20\n        /* \"#utility.yul\":15713:15716   */\n      dup3\n        /* \"#utility.yul\":15709:15721   */\n      add\n        /* \"#utility.yul\":15702:15721   */\n      swap1\n      pop\n        /* \"#utility.yul\":15361:15727   */\n      swap2\n      swap1\n      pop\n      jump\t// out\n        /* \"#utility.yul\":15733:16152   */\n    tag_87:\n        /* \"#utility.yul\":15899:15903   */\n      0x00\n        /* \"#utility.yul\":15937:15939   */\n      0x20\n        /* \"#utility.yul\":15926:15935   */\n      dup3\n        /* \"#utility.yul\":15922:15940   */\n      add\n        /* \"#utility.yul\":15914:15940   */\n      swap1\n      pop\n        /* \"#utility.yul\":15986:15995   */\n      dup2\n        /* \"#utility.yul\":15980:15984   */\n      dup2\n        /* \"#utility.yul\":15976:15996   */\n      sub\n        /* \"#utility.yul\":15972:15973   */\n      0x00\n        /* \"#utility.yul\":15961:15970   */\n      dup4\n        /* \"#utility.yul\":15957:15974   */\n      add\n        /* \"#utility.yul\":15950:15997   */\n      mstore\n        /* \"#utility.yul\":16014:16145   */\n      tag_485\n        /* \"#utility.yul\":16140:16144   */\n      dup2\n        /* \"#utility.yul\":16014:16145   */\n      tag_282\n      jump\t// in\n    tag_485:\n        /* \"#utility.yul\":16006:16145   */\n      swap1\n      pop\n        /* \"#utility.yul\":15733:16152   */\n      swap2\n      swap1\n      pop\n      jump\t// out\n        /* \"#utility.yul\":16158:16490   */\n    tag_89:\n        /* \"#utility.yul\":16279:16283   */\n      0x00\n        /* \"#utility.yul\":16317:16319   */\n      0x40\n        /* \"#utility.yul\":16306:16315   */\n      dup3\n        /* \"#utility.yul\":16302:16320   */\n      add\n        /* \"#utility.yul\":16294:16320   */\n      swap1\n      pop\n        /* \"#utility.yul\":16330:16401   */\n      tag_487\n        /* \"#utility.yul\":16398:16399   */\n      0x00\n        /* \"#utility.yul\":16387:16396   */\n      dup4\n        /* \"#utility.yul\":16383:16400   */\n      add\n        /* \"#utility.yul\":16374:16380   */\n      dup6\n        /* \"#utility.yul\":16330:16401   */\n      tag_256\n      jump\t// in\n    tag_487:\n        /* \"#utility.yul\":16411:16483   */\n      tag_488\n        /* \"#utility.yul\":16479:16481   */\n      0x20\n        /* \"#utility.yul\":16468:16477   */\n      dup4\n        /* \"#utility.yul\":16464:16482   */\n      add\n        /* \"#utility.yul\":16455:16461   */\n      dup5\n        /* \"#utility.yul\":16411:16483   */\n      tag_250\n      jump\t// in\n    tag_488:\n        /* \"#utility.yul\":16158:16490   */\n      swap4\n      swap3\n      pop\n      pop\n      pop\n      jump\t// out\n        /* \"#utility.yul\":16496:16633   */\n    tag_283:\n        /* \"#utility.yul\":16550:16555   */\n      0x00\n        /* \"#utility.yul\":16581:16587   */\n      dup2\n        /* \"#utility.yul\":16575:16588   */\n      mload\n        /* \"#utility.yul\":16566:16588   */\n      swap1\n      pop\n        /* \"#utility.yul\":16597:16627   */\n      tag_490\n        /* \"#utility.yul\":16621:16626   */\n      dup2\n        /* \"#utility.yul\":16597:16627   */\n      tag_248\n      jump\t// in\n    tag_490:\n        /* \"#utility.yul\":16496:16633   */\n      swap3\n      swap2\n      pop\n      pop\n      jump\t// out\n        /* \"#utility.yul\":16639:16984   */\n    tag_93:\n        /* \"#utility.yul\":16706:16712   */\n      0x00\n        /* \"#utility.yul\":16755:16757   */\n      0x20\n        /* \"#utility.yul\":16743:16752   */\n      dup3\n        /* \"#utility.yul\":16734:16741   */\n      dup5\n        /* \"#utility.yul\":16730:16753   */\n      sub\n        /* \"#utility.yul\":16726:16758   */\n      slt\n        /* \"#utility.yul\":16723:16842   */\n      iszero\n      tag_492\n      jumpi\n        /* \"#utility.yul\":16761:16840   */\n      tag_493\n      tag_242\n      jump\t// in\n    tag_493:\n        /* \"#utility.yul\":16723:16842   */\n    tag_492:\n        /* \"#utility.yul\":16881:16882   */\n      0x00\n        /* \"#utility.yul\":16906:16967   */\n      tag_494\n        /* \"#utility.yul\":16959:16966   */\n      dup5\n        /* \"#utility.yul\":16950:16956   */\n      dup3\n        /* \"#utility.yul\":16939:16948   */\n      dup6\n        /* \"#utility.yul\":16935:16957   */\n      add\n        /* \"#utility.yul\":16906:16967   */\n      tag_283\n      jump\t// in\n    tag_494:\n        /* \"#utility.yul\":16896:16967   */\n      swap2\n      pop\n        /* \"#utility.yul\":16852:16977   */\n      pop\n        /* \"#utility.yul\":16639:16984   */\n      swap3\n      swap2\n      pop\n      pop\n      jump\t// out\n        /* \"#utility.yul\":16990:17162   */\n    tag_284:\n        /* \"#utility.yul\":17130:17154   */\n      0x566f74696e6720686173206e6f74207374617274656400000000000000000000\n        /* \"#utility.yul\":17126:17127   */\n      0x00\n        /* \"#utility.yul\":17118:17124   */\n      dup3\n        /* \"#utility.yul\":17114:17128   */\n      add\n        /* \"#utility.yul\":17107:17155   */\n      mstore\n        /* \"#utility.yul\":16990:17162   */\n      pop\n      jump\t// out\n        /* \"#utility.yul\":17168:17534   */\n    tag_285:\n        /* \"#utility.yul\":17310:17313   */\n      0x00\n        /* \"#utility.yul\":17331:17398   */\n      tag_497\n        /* \"#utility.yul\":17395:17397   */\n      0x16\n        /* \"#utility.yul\":17390:17393   */\n      dup4\n        /* \"#utility.yul\":17331:17398   */\n      tag_258\n      jump\t// in\n    tag_497:\n        /* \"#utility.yul\":17324:17398   */\n      swap2\n      pop\n        /* \"#utility.yul\":17407:17500   */\n      tag_498\n        /* \"#utility.yul\":17496:17499   */\n      dup3\n        /* \"#utility.yul\":17407:17500   */\n      tag_284\n      jump\t// in\n    tag_498:\n        /* \"#utility.yul\":17525:17527   */\n      0x20\n        /* \"#utility.yul\":17520:17523   */\n      dup3\n        /* \"#utility.yul\":17516:17528   */\n      add\n        /* \"#utility.yul\":17509:17528   */\n      swap1\n      pop\n        /* \"#utility.yul\":17168:17534   */\n      swap2\n      swap1\n      pop\n      jump\t// out\n        /* \"#utility.yul\":17540:17959   */\n    tag_101:\n        /* \"#utility.yul\":17706:17710   */\n      0x00\n        /* \"#utility.yul\":17744:17746   */\n      0x20\n        /* \"#utility.yul\":17733:17742   */\n      dup3\n        /* \"#utility.yul\":17729:17747   */\n      add\n        /* \"#utility.yul\":17721:17747   */\n      swap1\n      pop\n        /* \"#utility.yul\":17793:17802   */\n      dup2\n        /* \"#utility.yul\":17787:17791   */\n      dup2\n        /* \"#utility.yul\":17783:17803   */\n      sub\n        /* \"#utility.yul\":17779:17780   */\n      0x00\n        /* \"#utility.yul\":17768:17777   */\n      dup4\n        /* \"#utility.yul\":17764:17781   */\n      add\n        /* \"#utility.yul\":17757:17804   */\n      mstore\n        /* \"#utility.yul\":17821:17952   */\n      tag_500\n        /* \"#utility.yul\":17947:17951   */\n      dup2\n        /* \"#utility.yul\":17821:17952   */\n      tag_285\n      jump\t// in\n    tag_500:\n        /* \"#utility.yul\":17813:17952   */\n      swap1\n      pop\n        /* \"#utility.yul\":17540:17959   */\n      swap2\n      swap1\n      pop\n      jump\t// out\n        /* \"#utility.yul\":17965:18131   */\n    tag_286:\n        /* \"#utility.yul\":18105:18123   */\n      0x566f74696e672068617320656e64656400000000000000000000000000000000\n        /* \"#utility.yul\":18101:18102   */\n      0x00\n        /* \"#utility.yul\":18093:18099   */\n      dup3\n        /* \"#utility.yul\":18089:18103   */\n      add\n        /* \"#utility.yul\":18082:18124   */\n      mstore\n        /* \"#utility.yul\":17965:18131   */\n      pop\n      jump\t// out\n        /* \"#utility.yul\":18137:18503   */\n    tag_287:\n        /* \"#utility.yul\":18279:18282   */\n      0x00\n        /* \"#utility.yul\":18300:18367   */\n      tag_503\n        /* \"#utility.yul\":18364:18366   */\n      0x10\n        /* \"#utility.yul\":18359:18362   */\n      dup4\n        /* \"#utility.yul\":18300:18367   */\n      tag_258\n      jump\t// in\n    tag_503:\n        /* \"#utility.yul\":18293:18367   */\n      swap2\n      pop\n        /* \"#utility.yul\":18376:18469   */\n      tag_504\n        /* \"#utility.yul\":18465:18468   */\n      dup3\n        /* \"#utility.yul\":18376:18469   */\n      tag_286\n      jump\t// in\n    tag_504:\n        /* \"#utility.yul\":18494:18496   */\n      0x20\n        /* \"#utility.yul\":18489:18492   */\n      dup3\n        /* \"#utility.yul\":18485:18497   */\n      add\n        /* \"#utility.yul\":18478:18497   */\n      swap1\n      pop\n        /* \"#utility.yul\":18137:18503   */\n      swap2\n      swap1\n      pop\n      jump\t// out\n        /* \"#utility.yul\":18509:18928   */\n    tag_104:\n        /* \"#utility.yul\":18675:18679   */\n      0x00\n        /* \"#utility.yul\":18713:18715   */\n      0x20\n        /* \"#utility.yul\":18702:18711   */\n      dup3\n        /* \"#utility.yul\":18698:18716   */\n      add\n        /* \"#utility.yul\":18690:18716   */\n      swap1\n      pop\n        /* \"#utility.yul\":18762:18771   */\n      dup2\n        /* \"#utility.yul\":18756:18760   */\n      dup2\n        /* \"#utility.yul\":18752:18772   */\n      sub\n        /* \"#utility.yul\":18748:18749   */\n      0x00\n        /* \"#utility.yul\":18737:18746   */\n      dup4\n        /* \"#utility.yul\":18733:18750   */\n      add\n        /* \"#utility.yul\":18726:18773   */\n      mstore\n        /* \"#utility.yul\":18790:18921   */\n      tag_506\n        /* \"#utility.yul\":18916:18920   */\n      dup2\n        /* \"#utility.yul\":18790:18921   */\n      tag_287\n      jump\t// in\n    tag_506:\n        /* \"#utility.yul\":18782:18921   */\n      swap1\n      pop\n        /* \"#utility.yul\":18509:18928   */\n      swap2\n      swap1\n      pop\n      jump\t// out\n        /* \"#utility.yul\":18934:19097   */\n    tag_288:\n        /* \"#utility.yul\":19074:19089   */\n      0x416c726561647920766f74656400000000000000000000000000000000000000\n        /* \"#utility.yul\":19070:19071   */\n      0x00\n        /* \"#utility.yul\":19062:19068   */\n      dup3\n        /* \"#utility.yul\":19058:19072   */\n      add\n        /* \"#utility.yul\":19051:19090   */\n      mstore\n        /* \"#utility.yul\":18934:19097   */\n      pop\n      jump\t// out\n        /* \"#utility.yul\":19103:19469   */\n    tag_289:\n        /* \"#utility.yul\":19245:19248   */\n      0x00\n        /* \"#utility.yul\":19266:19333   */\n      tag_509\n        /* \"#utility.yul\":19330:19332   */\n      0x0d\n        /* \"#utility.yul\":19325:19328   */\n      dup4\n        /* \"#utility.yul\":19266:19333   */\n      tag_258\n      jump\t// in\n    tag_509:\n        /* \"#utility.yul\":19259:19333   */\n      swap2\n      pop\n        /* \"#utility.yul\":19342:19435   */\n      tag_510\n        /* \"#utility.yul\":19431:19434   */\n      dup3\n        /* \"#utility.yul\":19342:19435   */\n      tag_288\n      jump\t// in\n    tag_510:\n        /* \"#utility.yul\":19460:19462   */\n      0x20\n        /* \"#utility.yul\":19455:19458   */\n      dup3\n        /* \"#utility.yul\":19451:19463   */\n      add\n        /* \"#utility.yul\":19444:19463   */\n      swap1\n      pop\n        /* \"#utility.yul\":19103:19469   */\n      swap2\n      swap1\n      pop\n      jump\t// out\n        /* \"#utility.yul\":19475:19894   */\n    tag_107:\n        /* \"#utility.yul\":19641:19645   */\n      0x00\n        /* \"#utility.yul\":19679:19681   */\n      0x20\n        /* \"#utility.yul\":19668:19677   */\n      dup3\n        /* \"#utility.yul\":19664:19682   */\n      add\n        /* \"#utility.yul\":19656:19682   */\n      swap1\n      pop\n        /* \"#utility.yul\":19728:19737   */\n      dup2\n        /* \"#utility.yul\":19722:19726   */\n      dup2\n        /* \"#utility.yul\":19718:19738   */\n      sub\n        /* \"#utility.yul\":19714:19715   */\n      0x00\n        /* \"#utility.yul\":19703:19712   */\n      dup4\n        /* \"#utility.yul\":19699:19716   */\n      add\n        /* \"#utility.yul\":19692:19739   */\n      mstore\n        /* \"#utility.yul\":19756:19887   */\n      tag_512\n        /* \"#utility.yul\":19882:19886   */\n      dup2\n        /* \"#utility.yul\":19756:19887   */\n      tag_289\n      jump\t// in\n    tag_512:\n        /* \"#utility.yul\":19748:19887   */\n      swap1\n      pop\n        /* \"#utility.yul\":19475:19894   */\n      swap2\n      swap1\n      pop\n      jump\t// out\n        /* \"#utility.yul\":19900:20043   */\n    tag_290:\n        /* \"#utility.yul\":19957:19962   */\n      0x00\n        /* \"#utility.yul\":19988:19994   */\n      dup2\n        /* \"#utility.yul\":19982:19995   */\n      mload\n        /* \"#utility.yul\":19973:19995   */\n      swap1\n      pop\n        /* \"#utility.yul\":20004:20037   */\n      tag_514\n        /* \"#utility.yul\":20031:20036   */\n      dup2\n        /* \"#utility.yul\":20004:20037   */\n      tag_245\n      jump\t// in\n    tag_514:\n        /* \"#utility.yul\":19900:20043   */\n      swap3\n      swap2\n      pop\n      pop\n      jump\t// out\n        /* \"#utility.yul\":20049:20400   */\n    tag_112:\n        /* \"#utility.yul\":20119:20125   */\n      0x00\n        /* \"#utility.yul\":20168:20170   */\n      0x20\n        /* \"#utility.yul\":20156:20165   */\n      dup3\n        /* \"#utility.yul\":20147:20154   */\n      dup5\n        /* \"#utility.yul\":20143:20166   */\n      sub\n        /* \"#utility.yul\":20139:20171   */\n      slt\n        /* \"#utility.yul\":20136:20255   */\n      iszero\n      tag_516\n      jumpi\n        /* \"#utility.yul\":20174:20253   */\n      tag_517\n      tag_242\n      jump\t// in\n    tag_517:\n        /* \"#utility.yul\":20136:20255   */\n    tag_516:\n        /* \"#utility.yul\":20294:20295   */\n      0x00\n        /* \"#utility.yul\":20319:20383   */\n      tag_518\n        /* \"#utility.yul\":20375:20382   */\n      dup5\n        /* \"#utility.yul\":20366:20372   */\n      dup3\n        /* \"#utility.yul\":20355:20364   */\n      dup6\n        /* \"#utility.yul\":20351:20373   */\n      add\n        /* \"#utility.yul\":20319:20383   */\n      tag_290\n      jump\t// in\n    tag_518:\n        /* \"#utility.yul\":20309:20383   */\n      swap2\n      pop\n        /* \"#utility.yul\":20265:20393   */\n      pop\n        /* \"#utility.yul\":20049:20400   */\n      swap3\n      swap2\n      pop\n      pop\n      jump\t// out\n        /* \"#utility.yul\":20406:20571   */\n    tag_291:\n        /* \"#utility.yul\":20546:20563   */\n      0x4e6f20766f74696e6720706f7765720000000000000000000000000000000000\n        /* \"#utility.yul\":20542:20543   */\n      0x00\n        /* \"#utility.yul\":20534:20540   */\n      dup3\n        /* \"#utility.yul\":20530:20544   */\n      add\n        /* \"#utility.yul\":20523:20564   */\n      mstore\n        /* \"#utility.yul\":20406:20571   */\n      pop\n      jump\t// out\n        /* \"#utility.yul\":20577:20943   */\n    tag_292:\n        /* \"#utility.yul\":20719:20722   */\n      0x00\n        /* \"#utility.yul\":20740:20807   */\n      tag_521\n        /* \"#utility.yul\":20804:20806   */\n      0x0f\n        /* \"#utility.yul\":20799:20802   */\n      dup4\n        /* \"#utility.yul\":20740:20807   */\n      tag_258\n      jump\t// in\n    tag_521:\n        /* \"#utility.yul\":20733:20807   */\n      swap2\n      pop\n        /* \"#utility.yul\":20816:20909   */\n      tag_522\n        /* \"#utility.yul\":20905:20908   */\n      dup3\n        /* \"#utility.yul\":20816:20909   */\n      tag_291\n      jump\t// in\n    tag_522:\n        /* \"#utility.yul\":20934:20936   */\n      0x20\n        /* \"#utility.yul\":20929:20932   */\n      dup3\n        /* \"#utility.yul\":20925:20937   */\n      add\n        /* \"#utility.yul\":20918:20937   */\n      swap1\n      pop\n        /* \"#utility.yul\":20577:20943   */\n      swap2\n      swap1\n      pop\n      jump\t// out\n        /* \"#utility.yul\":20949:21368   */\n    tag_125:\n        /* \"#utility.yul\":21115:21119   */\n      0x00\n        /* \"#utility.yul\":21153:21155   */\n      0x20\n        /* \"#utility.yul\":21142:21151   */\n      dup3\n        /* \"#utility.yul\":21138:21156   */\n      add\n        /* \"#utility.yul\":21130:21156   */\n      swap1\n      pop\n        /* \"#utility.yul\":21202:21211   */\n      dup2\n        /* \"#utility.yul\":21196:21200   */\n      dup2\n        /* \"#utility.yul\":21192:21212   */\n      sub\n        /* \"#utility.yul\":21188:21189   */\n      0x00\n        /* \"#utility.yul\":21177:21186   */\n      dup4\n        /* \"#utility.yul\":21173:21190   */\n      add\n        /* \"#utility.yul\":21166:21213   */\n      mstore\n        /* \"#utility.yul\":21230:21361   */\n      tag_524\n        /* \"#utility.yul\":21356:21360   */\n      dup2\n        /* \"#utility.yul\":21230:21361   */\n      tag_292\n      jump\t// in\n    tag_524:\n        /* \"#utility.yul\":21222:21361   */\n      swap1\n      pop\n        /* \"#utility.yul\":20949:21368   */\n      swap2\n      swap1\n      pop\n      jump\t// out\n        /* \"#utility.yul\":21374:21694   */\n    tag_131:\n        /* \"#utility.yul\":21489:21493   */\n      0x00\n        /* \"#utility.yul\":21527:21529   */\n      0x40\n        /* \"#utility.yul\":21516:21525   */\n      dup3\n        /* \"#utility.yul\":21512:21530   */\n      add\n        /* \"#utility.yul\":21504:21530   */\n      swap1\n      pop\n        /* \"#utility.yul\":21540:21605   */\n      tag_526\n        /* \"#utility.yul\":21602:21603   */\n      0x00\n        /* \"#utility.yul\":21591:21600   */\n      dup4\n        /* \"#utility.yul\":21587:21604   */\n      add\n        /* \"#utility.yul\":21578:21584   */\n      dup6\n        /* \"#utility.yul\":21540:21605   */\n      tag_255\n      jump\t// in\n    tag_526:\n        /* \"#utility.yul\":21615:21687   */\n      tag_527\n        /* \"#utility.yul\":21683:21685   */\n      0x20\n        /* \"#utility.yul\":21672:21681   */\n      dup4\n        /* \"#utility.yul\":21668:21686   */\n      add\n        /* \"#utility.yul\":21659:21665   */\n      dup5\n        /* \"#utility.yul\":21615:21687   */\n      tag_250\n      jump\t// in\n    tag_527:\n        /* \"#utility.yul\":21374:21694   */\n      swap4\n      swap3\n      pop\n      pop\n      pop\n      jump\t// out\n        /* \"#utility.yul\":21700:21882   */\n    tag_293:\n        /* \"#utility.yul\":21840:21874   */\n      0x416d6f756e74206d7573742062652067726561746572207468616e207a65726f\n        /* \"#utility.yul\":21836:21837   */\n      0x00\n        /* \"#utility.yul\":21828:21834   */\n      dup3\n        /* \"#utility.yul\":21824:21838   */\n      add\n        /* \"#utility.yul\":21817:21875   */\n      mstore\n        /* \"#utility.yul\":21700:21882   */\n      pop\n      jump\t// out\n        /* \"#utility.yul\":21888:22254   */\n    tag_294:\n        /* \"#utility.yul\":22030:22033   */\n      0x00\n        /* \"#utility.yul\":22051:22118   */\n      tag_530\n        /* \"#utility.yul\":22115:22117   */\n      0x20\n        /* \"#utility.yul\":22110:22113   */\n      dup4\n        /* \"#utility.yul\":22051:22118   */\n      tag_258\n      jump\t// in\n    tag_530:\n        /* \"#utility.yul\":22044:22118   */\n      swap2\n      pop\n        /* \"#utility.yul\":22127:22220   */\n      tag_531\n        /* \"#utility.yul\":22216:22219   */\n      dup3\n        /* \"#utility.yul\":22127:22220   */\n      tag_293\n      jump\t// in\n    tag_531:\n        /* \"#utility.yul\":22245:22247   */\n      0x20\n        /* \"#utility.yul\":22240:22243   */\n      dup3\n        /* \"#utility.yul\":22236:22248   */\n      add\n        /* \"#utility.yul\":22229:22248   */\n      swap1\n      pop\n        /* \"#utility.yul\":21888:22254   */\n      swap2\n      swap1\n      pop\n      jump\t// out\n        /* \"#utility.yul\":22260:22679   */\n    tag_135:\n        /* \"#utility.yul\":22426:22430   */\n      0x00\n        /* \"#utility.yul\":22464:22466   */\n      0x20\n        /* \"#utility.yul\":22453:22462   */\n      dup3\n        /* \"#utility.yul\":22449:22467   */\n      add\n        /* \"#utility.yul\":22441:22467   */\n      swap1\n      pop\n        /* \"#utility.yul\":22513:22522   */\n      dup2\n        /* \"#utility.yul\":22507:22511   */\n      dup2\n        /* \"#utility.yul\":22503:22523   */\n      sub\n        /* \"#utility.yul\":22499:22500   */\n      0x00\n        /* \"#utility.yul\":22488:22497   */\n      dup4\n        /* \"#utility.yul\":22484:22501   */\n      add\n        /* \"#utility.yul\":22477:22524   */\n      mstore\n        /* \"#utility.yul\":22541:22672   */\n      tag_533\n        /* \"#utility.yul\":22667:22671   */\n      dup2\n        /* \"#utility.yul\":22541:22672   */\n      tag_294\n      jump\t// in\n    tag_533:\n        /* \"#utility.yul\":22533:22672   */\n      swap1\n      pop\n        /* \"#utility.yul\":22260:22679   */\n      swap2\n      swap1\n      pop\n      jump\t// out\n        /* \"#utility.yul\":22685:22911   */\n    tag_295:\n        /* \"#utility.yul\":22825:22859   */\n      0x4c6f636b206475726174696f6e206d757374206265206174206c656173742036\n        /* \"#utility.yul\":22821:22822   */\n      0x00\n        /* \"#utility.yul\":22813:22819   */\n      dup3\n        /* \"#utility.yul\":22809:22823   */\n      add\n        /* \"#utility.yul\":22802:22860   */\n      mstore\n        /* \"#utility.yul\":22894:22903   */\n      0x206d6f6e74687300000000000000000000000000000000000000000000000000\n        /* \"#utility.yul\":22889:22891   */\n      0x20\n        /* \"#utility.yul\":22881:22887   */\n      dup3\n        /* \"#utility.yul\":22877:22892   */\n      add\n        /* \"#utility.yul\":22870:22904   */\n      mstore\n        /* \"#utility.yul\":22685:22911   */\n      pop\n      jump\t// out\n        /* \"#utility.yul\":22917:23283   */\n    tag_296:\n        /* \"#utility.yul\":23059:23062   */\n      0x00\n        /* \"#utility.yul\":23080:23147   */\n      tag_536\n        /* \"#utility.yul\":23144:23146   */\n      0x27\n        /* \"#utility.yul\":23139:23142   */\n      dup4\n        /* \"#utility.yul\":23080:23147   */\n      tag_258\n      jump\t// in\n    tag_536:\n        /* \"#utility.yul\":23073:23147   */\n      swap2\n      pop\n        /* \"#utility.yul\":23156:23249   */\n      tag_537\n        /* \"#utility.yul\":23245:23248   */\n      dup3\n        /* \"#utility.yul\":23156:23249   */\n      tag_295\n      jump\t// in\n    tag_537:\n        /* \"#utility.yul\":23274:23276   */\n      0x40\n        /* \"#utility.yul\":23269:23272   */\n      dup3\n        /* \"#utility.yul\":23265:23277   */\n      add\n        /* \"#utility.yul\":23258:23277   */\n      swap1\n      pop\n        /* \"#utility.yul\":22917:23283   */\n      swap2\n      swap1\n      pop\n      jump\t// out\n        /* \"#utility.yul\":23289:23708   */\n    tag_138:\n        /* \"#utility.yul\":23455:23459   */\n      0x00\n        /* \"#utility.yul\":23493:23495   */\n      0x20\n        /* \"#utility.yul\":23482:23491   */\n      dup3\n        /* \"#utility.yul\":23478:23496   */\n      add\n        /* \"#utility.yul\":23470:23496   */\n      swap1\n      pop\n        /* \"#utility.yul\":23542:23551   */\n      dup2\n        /* \"#utility.yul\":23536:23540   */\n      dup2\n        /* \"#utility.yul\":23532:23552   */\n      sub\n        /* \"#utility.yul\":23528:23529   */\n      0x00\n        /* \"#utility.yul\":23517:23526   */\n      dup4\n        /* \"#utility.yul\":23513:23530   */\n      add\n        /* \"#utility.yul\":23506:23553   */\n      mstore\n        /* \"#utility.yul\":23570:23701   */\n      tag_539\n        /* \"#utility.yul\":23696:23700   */\n      dup2\n        /* \"#utility.yul\":23570:23701   */\n      tag_296\n      jump\t// in\n    tag_539:\n        /* \"#utility.yul\":23562:23701   */\n      swap1\n      pop\n        /* \"#utility.yul\":23289:23708   */\n      swap2\n      swap1\n      pop\n      jump\t// out\n        /* \"#utility.yul\":23714:23938   */\n    tag_297:\n        /* \"#utility.yul\":23854:23888   */\n      0x56657374696e67206475726174696f6e206d757374206265206e6f6e2d6e6567\n        /* \"#utility.yul\":23850:23851   */\n      0x00\n        /* \"#utility.yul\":23842:23848   */\n      dup3\n        /* \"#utility.yul\":23838:23852   */\n      add\n        /* \"#utility.yul\":23831:23889   */\n      mstore\n        /* \"#utility.yul\":23923:23930   */\n      0x6174697665000000000000000000000000000000000000000000000000000000\n        /* \"#utility.yul\":23918:23920   */\n      0x20\n        /* \"#utility.yul\":23910:23916   */\n      dup3\n        /* \"#utility.yul\":23906:23921   */\n      add\n        /* \"#utility.yul\":23899:23931   */\n      mstore\n        /* \"#utility.yul\":23714:23938   */\n      pop\n      jump\t// out\n        /* \"#utility.yul\":23944:24310   */\n    tag_298:\n        /* \"#utility.yul\":24086:24089   */\n      0x00\n        /* \"#utility.yul\":24107:24174   */\n      tag_542\n        /* \"#utility.yul\":24171:24173   */\n      0x25\n        /* \"#utility.yul\":24166:24169   */\n      dup4\n        /* \"#utility.yul\":24107:24174   */\n      tag_258\n      jump\t// in\n    tag_542:\n        /* \"#utility.yul\":24100:24174   */\n      swap2\n      pop\n        /* \"#utility.yul\":24183:24276   */\n      tag_543\n        /* \"#utility.yul\":24272:24275   */\n      dup3\n        /* \"#utility.yul\":24183:24276   */\n      tag_297\n      jump\t// in\n    tag_543:\n        /* \"#utility.yul\":24301:24303   */\n      0x40\n        /* \"#utility.yul\":24296:24299   */\n      dup3\n        /* \"#utility.yul\":24292:24304   */\n      add\n        /* \"#utility.yul\":24285:24304   */\n      swap1\n      pop\n        /* \"#utility.yul\":23944:24310   */\n      swap2\n      swap1\n      pop\n      jump\t// out\n        /* \"#utility.yul\":24316:24735   */\n    tag_141:\n        /* \"#utility.yul\":24482:24486   */\n      0x00\n        /* \"#utility.yul\":24520:24522   */\n      0x20\n        /* \"#utility.yul\":24509:24518   */\n      dup3\n        /* \"#utility.yul\":24505:24523   */\n      add\n        /* \"#utility.yul\":24497:24523   */\n      swap1\n      pop\n        /* \"#utility.yul\":24569:24578   */\n      dup2\n        /* \"#utility.yul\":24563:24567   */\n      dup2\n        /* \"#utility.yul\":24559:24579   */\n      sub\n        /* \"#utility.yul\":24555:24556   */\n      0x00\n        /* \"#utility.yul\":24544:24553   */\n      dup4\n        /* \"#utility.yul\":24540:24557   */\n      add\n        /* \"#utility.yul\":24533:24580   */\n      mstore\n        /* \"#utility.yul\":24597:24728   */\n      tag_545\n        /* \"#utility.yul\":24723:24727   */\n      dup2\n        /* \"#utility.yul\":24597:24728   */\n      tag_298\n      jump\t// in\n    tag_545:\n        /* \"#utility.yul\":24589:24728   */\n      swap1\n      pop\n        /* \"#utility.yul\":24316:24735   */\n      swap2\n      swap1\n      pop\n      jump\t// out\n        /* \"#utility.yul\":24741:25183   */\n    tag_143:\n        /* \"#utility.yul\":24890:24894   */\n      0x00\n        /* \"#utility.yul\":24928:24930   */\n      0x60\n        /* \"#utility.yul\":24917:24926   */\n      dup3\n        /* \"#utility.yul\":24913:24931   */\n      add\n        /* \"#utility.yul\":24905:24931   */\n      swap1\n      pop\n        /* \"#utility.yul\":24941:25012   */\n      tag_547\n        /* \"#utility.yul\":25009:25010   */\n      0x00\n        /* \"#utility.yul\":24998:25007   */\n      dup4\n        /* \"#utility.yul\":24994:25011   */\n      add\n        /* \"#utility.yul\":24985:24991   */\n      dup7\n        /* \"#utility.yul\":24941:25012   */\n      tag_256\n      jump\t// in\n    tag_547:\n        /* \"#utility.yul\":25022:25094   */\n      tag_548\n        /* \"#utility.yul\":25090:25092   */\n      0x20\n        /* \"#utility.yul\":25079:25088   */\n      dup4\n        /* \"#utility.yul\":25075:25093   */\n      add\n        /* \"#utility.yul\":25066:25072   */\n      dup6\n        /* \"#utility.yul\":25022:25094   */\n      tag_256\n      jump\t// in\n    tag_548:\n        /* \"#utility.yul\":25104:25176   */\n      tag_549\n        /* \"#utility.yul\":25172:25174   */\n      0x40\n        /* \"#utility.yul\":25161:25170   */\n      dup4\n        /* \"#utility.yul\":25157:25175   */\n      add\n        /* \"#utility.yul\":25148:25154   */\n      dup5\n        /* \"#utility.yul\":25104:25176   */\n      tag_250\n      jump\t// in\n    tag_549:\n        /* \"#utility.yul\":24741:25183   */\n      swap5\n      swap4\n      pop\n      pop\n      pop\n      pop\n      jump\t// out\n        /* \"#utility.yul\":25189:25360   */\n    tag_299:\n        /* \"#utility.yul\":25329:25352   */\n      0x546f6b656e207472616e73666572206661696c65640000000000000000000000\n        /* \"#utility.yul\":25325:25326   */\n      0x00\n        /* \"#utility.yul\":25317:25323   */\n      dup3\n        /* \"#utility.yul\":25313:25327   */\n      add\n        /* \"#utility.yul\":25306:25353   */\n      mstore\n        /* \"#utility.yul\":25189:25360   */\n      pop\n      jump\t// out\n        /* \"#utility.yul\":25366:25732   */\n    tag_300:\n        /* \"#utility.yul\":25508:25511   */\n      0x00\n        /* \"#utility.yul\":25529:25596   */\n      tag_552\n        /* \"#utility.yul\":25593:25595   */\n      0x15\n        /* \"#utility.yul\":25588:25591   */\n      dup4\n        /* \"#utility.yul\":25529:25596   */\n      tag_258\n      jump\t// in\n    tag_552:\n        /* \"#utility.yul\":25522:25596   */\n      swap2\n      pop\n        /* \"#utility.yul\":25605:25698   */\n      tag_553\n        /* \"#utility.yul\":25694:25697   */\n      dup3\n        /* \"#utility.yul\":25605:25698   */\n      tag_299\n      jump\t// in\n    tag_553:\n        /* \"#utility.yul\":25723:25725   */\n      0x20\n        /* \"#utility.yul\":25718:25721   */\n      dup3\n        /* \"#utility.yul\":25714:25726   */\n      add\n        /* \"#utility.yul\":25707:25726   */\n      swap1\n      pop\n        /* \"#utility.yul\":25366:25732   */\n      swap2\n      swap1\n      pop\n      jump\t// out\n        /* \"#utility.yul\":25738:26157   */\n    tag_149:\n        /* \"#utility.yul\":25904:25908   */\n      0x00\n        /* \"#utility.yul\":25942:25944   */\n      0x20\n        /* \"#utility.yul\":25931:25940   */\n      dup3\n        /* \"#utility.yul\":25927:25945   */\n      add\n        /* \"#utility.yul\":25919:25945   */\n      swap1\n      pop\n        /* \"#utility.yul\":25991:26000   */\n      dup2\n        /* \"#utility.yul\":25985:25989   */\n      dup2\n        /* \"#utility.yul\":25981:26001   */\n      sub\n        /* \"#utility.yul\":25977:25978   */\n      0x00\n        /* \"#utility.yul\":25966:25975   */\n      dup4\n        /* \"#utility.yul\":25962:25979   */\n      add\n        /* \"#utility.yul\":25955:26002   */\n      mstore\n        /* \"#utility.yul\":26019:26150   */\n      tag_555\n        /* \"#utility.yul\":26145:26149   */\n      dup2\n        /* \"#utility.yul\":26019:26150   */\n      tag_300\n      jump\t// in\n    tag_555:\n        /* \"#utility.yul\":26011:26150   */\n      swap1\n      pop\n        /* \"#utility.yul\":25738:26157   */\n      swap2\n      swap1\n      pop\n      jump\t// out\n        /* \"#utility.yul\":26163:26605   */\n    tag_151:\n        /* \"#utility.yul\":26312:26316   */\n      0x00\n        /* \"#utility.yul\":26350:26352   */\n      0x60\n        /* \"#utility.yul\":26339:26348   */\n      dup3\n        /* \"#utility.yul\":26335:26353   */\n      add\n        /* \"#utility.yul\":26327:26353   */\n      swap1\n      pop\n        /* \"#utility.yul\":26363:26434   */\n      tag_557\n        /* \"#utility.yul\":26431:26432   */\n      0x00\n        /* \"#utility.yul\":26420:26429   */\n      dup4\n        /* \"#utility.yul\":26416:26433   */\n      add\n        /* \"#utility.yul\":26407:26413   */\n      dup7\n        /* \"#utility.yul\":26363:26434   */\n      tag_250\n      jump\t// in\n    tag_557:\n        /* \"#utility.yul\":26444:26516   */\n      tag_558\n        /* \"#utility.yul\":26512:26514   */\n      0x20\n        /* \"#utility.yul\":26501:26510   */\n      dup4\n        /* \"#utility.yul\":26497:26515   */\n      add\n        /* \"#utility.yul\":26488:26494   */\n      dup6\n        /* \"#utility.yul\":26444:26516   */\n      tag_250\n      jump\t// in\n    tag_558:\n        /* \"#utility.yul\":26526:26598   */\n      tag_559\n        /* \"#utility.yul\":26594:26596   */\n      0x40\n        /* \"#utility.yul\":26583:26592   */\n      dup4\n        /* \"#utility.yul\":26579:26597   */\n      add\n        /* \"#utility.yul\":26570:26576   */\n      dup5\n        /* \"#utility.yul\":26526:26598   */\n      tag_250\n      jump\t// in\n    tag_559:\n        /* \"#utility.yul\":26163:26605   */\n      swap5\n      swap4\n      pop\n      pop\n      pop\n      pop\n      jump\t// out\n        /* \"#utility.yul\":26611:26781   */\n    tag_301:\n        /* \"#utility.yul\":26751:26773   */\n      0x4e6f20616374697665206c6f636b20666f756e64000000000000000000000000\n        /* \"#utility.yul\":26747:26748   */\n      0x00\n        /* \"#utility.yul\":26739:26745   */\n      dup3\n        /* \"#utility.yul\":26735:26749   */\n      add\n        /* \"#utility.yul\":26728:26774   */\n      mstore\n        /* \"#utility.yul\":26611:26781   */\n      pop\n      jump\t// out\n        /* \"#utility.yul\":26787:27153   */\n    tag_302:\n        /* \"#utility.yul\":26929:26932   */\n      0x00\n        /* \"#utility.yul\":26950:27017   */\n      tag_562\n        /* \"#utility.yul\":27014:27016   */\n      0x14\n        /* \"#utility.yul\":27009:27012   */\n      dup4\n        /* \"#utility.yul\":26950:27017   */\n      tag_258\n      jump\t// in\n    tag_562:\n        /* \"#utility.yul\":26943:27017   */\n      swap2\n      pop\n        /* \"#utility.yul\":27026:27119   */\n      tag_563\n        /* \"#utility.yul\":27115:27118   */\n      dup3\n        /* \"#utility.yul\":27026:27119   */\n      tag_301\n      jump\t// in\n    tag_563:\n        /* \"#utility.yul\":27144:27146   */\n      0x20\n        /* \"#utility.yul\":27139:27142   */\n      dup3\n        /* \"#utility.yul\":27135:27147   */\n      add\n        /* \"#utility.yul\":27128:27147   */\n      swap1\n      pop\n        /* \"#utility.yul\":26787:27153   */\n      swap2\n      swap1\n      pop\n      jump\t// out\n        /* \"#utility.yul\":27159:27578   */\n    tag_170:\n        /* \"#utility.yul\":27325:27329   */\n      0x00\n        /* \"#utility.yul\":27363:27365   */\n      0x20\n        /* \"#utility.yul\":27352:27361   */\n      dup3\n        /* \"#utility.yul\":27348:27366   */\n      add\n        /* \"#utility.yul\":27340:27366   */\n      swap1\n      pop\n        /* \"#utility.yul\":27412:27421   */\n      dup2\n        /* \"#utility.yul\":27406:27410   */\n      dup2\n        /* \"#utility.yul\":27402:27422   */\n      sub\n        /* \"#utility.yul\":27398:27399   */\n      0x00\n        /* \"#utility.yul\":27387:27396   */\n      dup4\n        /* \"#utility.yul\":27383:27400   */\n      add\n        /* \"#utility.yul\":27376:27423   */\n      mstore\n        /* \"#utility.yul\":27440:27571   */\n      tag_565\n        /* \"#utility.yul\":27566:27570   */\n      dup2\n        /* \"#utility.yul\":27440:27571   */\n      tag_302\n      jump\t// in\n    tag_565:\n        /* \"#utility.yul\":27432:27571   */\n      swap1\n      pop\n        /* \"#utility.yul\":27159:27578   */\n      swap2\n      swap1\n      pop\n      jump\t// out\n        /* \"#utility.yul\":27584:27758   */\n    tag_303:\n        /* \"#utility.yul\":27724:27750   */\n      0x4c6f636b20706572696f64206e6f7420796574206f7665720000000000000000\n        /* \"#utility.yul\":27720:27721   */\n      0x00\n        /* \"#utility.yul\":27712:27718   */\n      dup3\n        /* \"#utility.yul\":27708:27722   */\n      add\n        /* \"#utility.yul\":27701:27751   */\n      mstore\n        /* \"#utility.yul\":27584:27758   */\n      pop\n      jump\t// out\n        /* \"#utility.yul\":27764:28130   */\n    tag_304:\n        /* \"#utility.yul\":27906:27909   */\n      0x00\n        /* \"#utility.yul\":27927:27994   */\n      tag_568\n        /* \"#utility.yul\":27991:27993   */\n      0x18\n        /* \"#utility.yul\":27986:27989   */\n      dup4\n        /* \"#utility.yul\":27927:27994   */\n      tag_258\n      jump\t// in\n    tag_568:\n        /* \"#utility.yul\":27920:27994   */\n      swap2\n      pop\n        /* \"#utility.yul\":28003:28096   */\n      tag_569\n        /* \"#utility.yul\":28092:28095   */\n      dup3\n        /* \"#utility.yul\":28003:28096   */\n      tag_303\n      jump\t// in\n    tag_569:\n        /* \"#utility.yul\":28121:28123   */\n      0x20\n        /* \"#utility.yul\":28116:28119   */\n      dup3\n        /* \"#utility.yul\":28112:28124   */\n      add\n        /* \"#utility.yul\":28105:28124   */\n      swap1\n      pop\n        /* \"#utility.yul\":27764:28130   */\n      swap2\n      swap1\n      pop\n      jump\t// out\n        /* \"#utility.yul\":28136:28555   */\n    tag_175:\n        /* \"#utility.yul\":28302:28306   */\n      0x00\n        /* \"#utility.yul\":28340:28342   */\n      0x20\n        /* \"#utility.yul\":28329:28338   */\n      dup3\n        /* \"#utility.yul\":28325:28343   */\n      add\n        /* \"#utility.yul\":28317:28343   */\n      swap1\n      pop\n        /* \"#utility.yul\":28389:28398   */\n      dup2\n        /* \"#utility.yul\":28383:28387   */\n      dup2\n        /* \"#utility.yul\":28379:28399   */\n      sub\n        /* \"#utility.yul\":28375:28376   */\n      0x00\n        /* \"#utility.yul\":28364:28373   */\n      dup4\n        /* \"#utility.yul\":28360:28377   */\n      add\n        /* \"#utility.yul\":28353:28400   */\n      mstore\n        /* \"#utility.yul\":28417:28548   */\n      tag_571\n        /* \"#utility.yul\":28543:28547   */\n      dup2\n        /* \"#utility.yul\":28417:28548   */\n      tag_304\n      jump\t// in\n    tag_571:\n        /* \"#utility.yul\":28409:28548   */\n      swap1\n      pop\n        /* \"#utility.yul\":28136:28555   */\n      swap2\n      swap1\n      pop\n      jump\t// out\n        /* \"#utility.yul\":28561:28742   */\n    tag_305:\n        /* \"#utility.yul\":28701:28734   */\n      0x4e6f20746f6b656e7320617661696c61626c6520666f722072656c6561736500\n        /* \"#utility.yul\":28697:28698   */\n      0x00\n        /* \"#utility.yul\":28689:28695   */\n      dup3\n        /* \"#utility.yul\":28685:28699   */\n      add\n        /* \"#utility.yul\":28678:28735   */\n      mstore\n        /* \"#utility.yul\":28561:28742   */\n      pop\n      jump\t// out\n        /* \"#utility.yul\":28748:29114   */\n    tag_306:\n        /* \"#utility.yul\":28890:28893   */\n      0x00\n        /* \"#utility.yul\":28911:28978   */\n      tag_574\n        /* \"#utility.yul\":28975:28977   */\n      0x1f\n        /* \"#utility.yul\":28970:28973   */\n      dup4\n        /* \"#utility.yul\":28911:28978   */\n      tag_258\n      jump\t// in\n    tag_574:\n        /* \"#utility.yul\":28904:28978   */\n      swap2\n      pop\n        /* \"#utility.yul\":28987:29080   */\n      tag_575\n        /* \"#utility.yul\":29076:29079   */\n      dup3\n        /* \"#utility.yul\":28987:29080   */\n      tag_305\n      jump\t// in\n    tag_575:\n        /* \"#utility.yul\":29105:29107   */\n      0x20\n        /* \"#utility.yul\":29100:29103   */\n      dup3\n        /* \"#utility.yul\":29096:29108   */\n      add\n        /* \"#utility.yul\":29089:29108   */\n      swap1\n      pop\n        /* \"#utility.yul\":28748:29114   */\n      swap2\n      swap1\n      pop\n      jump\t// out\n        /* \"#utility.yul\":29120:29539   */\n    tag_188:\n        /* \"#utility.yul\":29286:29290   */\n      0x00\n        /* \"#utility.yul\":29324:29326   */\n      0x20\n        /* \"#utility.yul\":29313:29322   */\n      dup3\n        /* \"#utility.yul\":29309:29327   */\n      add\n        /* \"#utility.yul\":29301:29327   */\n      swap1\n      pop\n        /* \"#utility.yul\":29373:29382   */\n      dup2\n        /* \"#utility.yul\":29367:29371   */\n      dup2\n        /* \"#utility.yul\":29363:29383   */\n      sub\n        /* \"#utility.yul\":29359:29360   */\n      0x00\n        /* \"#utility.yul\":29348:29357   */\n      dup4\n        /* \"#utility.yul\":29344:29361   */\n      add\n        /* \"#utility.yul\":29337:29384   */\n      mstore\n        /* \"#utility.yul\":29401:29532   */\n      tag_577\n        /* \"#utility.yul\":29527:29531   */\n      dup2\n        /* \"#utility.yul\":29401:29532   */\n      tag_306\n      jump\t// in\n    tag_577:\n        /* \"#utility.yul\":29393:29532   */\n      swap1\n      pop\n        /* \"#utility.yul\":29120:29539   */\n      swap2\n      swap1\n      pop\n      jump\t// out\n        /* \"#utility.yul\":29545:29726   */\n    tag_307:\n        /* \"#utility.yul\":29685:29718   */\n      0x4f6e6c7920616374697665206c6f636b6572732063616e2070726f706f736500\n        /* \"#utility.yul\":29681:29682   */\n      0x00\n        /* \"#utility.yul\":29673:29679   */\n      dup3\n        /* \"#utility.yul\":29669:29683   */\n      add\n        /* \"#utility.yul\":29662:29719   */\n      mstore\n        /* \"#utility.yul\":29545:29726   */\n      pop\n      jump\t// out\n        /* \"#utility.yul\":29732:30098   */\n    tag_308:\n        /* \"#utility.yul\":29874:29877   */\n      0x00\n        /* \"#utility.yul\":29895:29962   */\n      tag_580\n        /* \"#utility.yul\":29959:29961   */\n      0x1f\n        /* \"#utility.yul\":29954:29957   */\n      dup4\n        /* \"#utility.yul\":29895:29962   */\n      tag_258\n      jump\t// in\n    tag_580:\n        /* \"#utility.yul\":29888:29962   */\n      swap2\n      pop\n        /* \"#utility.yul\":29971:30064   */\n      tag_581\n        /* \"#utility.yul\":30060:30063   */\n      dup3\n        /* \"#utility.yul\":29971:30064   */\n      tag_307\n      jump\t// in\n    tag_581:\n        /* \"#utility.yul\":30089:30091   */\n      0x20\n        /* \"#utility.yul\":30084:30087   */\n      dup3\n        /* \"#utility.yul\":30080:30092   */\n      add\n        /* \"#utility.yul\":30073:30092   */\n      swap1\n      pop\n        /* \"#utility.yul\":29732:30098   */\n      swap2\n      swap1\n      pop\n      jump\t// out\n        /* \"#utility.yul\":30104:30523   */\n    tag_199:\n        /* \"#utility.yul\":30270:30274   */\n      0x00\n        /* \"#utility.yul\":30308:30310   */\n      0x20\n        /* \"#utility.yul\":30297:30306   */\n      dup3\n        /* \"#utility.yul\":30293:30311   */\n      add\n        /* \"#utility.yul\":30285:30311   */\n      swap1\n      pop\n        /* \"#utility.yul\":30357:30366   */\n      dup2\n        /* \"#utility.yul\":30351:30355   */\n      dup2\n        /* \"#utility.yul\":30347:30367   */\n      sub\n        /* \"#utility.yul\":30343:30344   */\n      0x00\n        /* \"#utility.yul\":30332:30341   */\n      dup4\n        /* \"#utility.yul\":30328:30345   */\n      add\n        /* \"#utility.yul\":30321:30368   */\n      mstore\n        /* \"#utility.yul\":30385:30516   */\n      tag_583\n        /* \"#utility.yul\":30511:30515   */\n      dup2\n        /* \"#utility.yul\":30385:30516   */\n      tag_308\n      jump\t// in\n    tag_583:\n        /* \"#utility.yul\":30377:30516   */\n      swap1\n      pop\n        /* \"#utility.yul\":30104:30523   */\n      swap2\n      swap1\n      pop\n      jump\t// out\n        /* \"#utility.yul\":30529:30919   */\n    tag_309:\n        /* \"#utility.yul\":30635:30638   */\n      0x00\n        /* \"#utility.yul\":30663:30702   */\n      tag_585\n        /* \"#utility.yul\":30696:30701   */\n      dup3\n        /* \"#utility.yul\":30663:30702   */\n      tag_257\n      jump\t// in\n    tag_585:\n        /* \"#utility.yul\":30718:30807   */\n      tag_586\n        /* \"#utility.yul\":30800:30806   */\n      dup2\n        /* \"#utility.yul\":30795:30798   */\n      dup6\n        /* \"#utility.yul\":30718:30807   */\n      tag_276\n      jump\t// in\n    tag_586:\n        /* \"#utility.yul\":30711:30807   */\n      swap4\n      pop\n        /* \"#utility.yul\":30816:30881   */\n      tag_587\n        /* \"#utility.yul\":30874:30880   */\n      dup2\n        /* \"#utility.yul\":30869:30872   */\n      dup6\n        /* \"#utility.yul\":30862:30866   */\n      0x20\n        /* \"#utility.yul\":30855:30860   */\n      dup7\n        /* \"#utility.yul\":30851:30867   */\n      add\n        /* \"#utility.yul\":30816:30881   */\n      tag_259\n      jump\t// in\n    tag_587:\n        /* \"#utility.yul\":30906:30912   */\n      dup1\n        /* \"#utility.yul\":30901:30904   */\n      dup5\n        /* \"#utility.yul\":30897:30913   */\n      add\n        /* \"#utility.yul\":30890:30913   */\n      swap2\n      pop\n        /* \"#utility.yul\":30639:30919   */\n      pop\n        /* \"#utility.yul\":30529:30919   */\n      swap3\n      swap2\n      pop\n      pop\n      jump\t// out\n        /* \"#utility.yul\":30925:31200   */\n    tag_201:\n        /* \"#utility.yul\":31057:31060   */\n      0x00\n        /* \"#utility.yul\":31079:31174   */\n      tag_589\n        /* \"#utility.yul\":31170:31173   */\n      dup3\n        /* \"#utility.yul\":31161:31167   */\n      dup5\n        /* \"#utility.yul\":31079:31174   */\n      tag_309\n      jump\t// in\n    tag_589:\n        /* \"#utility.yul\":31072:31174   */\n      swap2\n      pop\n        /* \"#utility.yul\":31191:31194   */\n      dup2\n        /* \"#utility.yul\":31184:31194   */\n      swap1\n      pop\n        /* \"#utility.yul\":30925:31200   */\n      swap3\n      swap2\n      pop\n      pop\n      jump\t// out\n        /* \"#utility.yul\":31206:31377   */\n    tag_310:\n        /* \"#utility.yul\":31346:31369   */\n      0x496e76616c69642070726f706f73616c20747970650000000000000000000000\n        /* \"#utility.yul\":31342:31343   */\n      0x00\n        /* \"#utility.yul\":31334:31340   */\n      dup3\n        /* \"#utility.yul\":31330:31344   */\n      add\n        /* \"#utility.yul\":31323:31370   */\n      mstore\n        /* \"#utility.yul\":31206:31377   */\n      pop\n      jump\t// out\n        /* \"#utility.yul\":31383:31749   */\n    tag_311:\n        /* \"#utility.yul\":31525:31528   */\n      0x00\n        /* \"#utility.yul\":31546:31613   */\n      tag_592\n        /* \"#utility.yul\":31610:31612   */\n      0x15\n        /* \"#utility.yul\":31605:31608   */\n      dup4\n        /* \"#utility.yul\":31546:31613   */\n      tag_258\n      jump\t// in\n    tag_592:\n        /* \"#utility.yul\":31539:31613   */\n      swap2\n      pop\n        /* \"#utility.yul\":31622:31715   */\n      tag_593\n        /* \"#utility.yul\":31711:31714   */\n      dup3\n        /* \"#utility.yul\":31622:31715   */\n      tag_310\n      jump\t// in\n    tag_593:\n        /* \"#utility.yul\":31740:31742   */\n      0x20\n        /* \"#utility.yul\":31735:31738   */\n      dup3\n        /* \"#utility.yul\":31731:31743   */\n      add\n        /* \"#utility.yul\":31724:31743   */\n      swap1\n      pop\n        /* \"#utility.yul\":31383:31749   */\n      swap2\n      swap1\n      pop\n      jump\t// out\n        /* \"#utility.yul\":31755:32174   */\n    tag_206:\n        /* \"#utility.yul\":31921:31925   */\n      0x00\n        /* \"#utility.yul\":31959:31961   */\n      0x20\n        /* \"#utility.yul\":31948:31957   */\n      dup3\n        /* \"#utility.yul\":31944:31962   */\n      add\n        /* \"#utility.yul\":31936:31962   */\n      swap1\n      pop\n        /* \"#utility.yul\":32008:32017   */\n      dup2\n        /* \"#utility.yul\":32002:32006   */\n      dup2\n        /* \"#utility.yul\":31998:32018   */\n      sub\n        /* \"#utility.yul\":31994:31995   */\n      0x00\n        /* \"#utility.yul\":31983:31992   */\n      dup4\n        /* \"#utility.yul\":31979:31996   */\n      add\n        /* \"#utility.yul\":31972:32019   */\n      mstore\n        /* \"#utility.yul\":32036:32167   */\n      tag_595\n        /* \"#utility.yul\":32162:32166   */\n      dup2\n        /* \"#utility.yul\":32036:32167   */\n      tag_311\n      jump\t// in\n    tag_595:\n        /* \"#utility.yul\":32028:32167   */\n      swap1\n      pop\n        /* \"#utility.yul\":31755:32174   */\n      swap2\n      swap1\n      pop\n      jump\t// out\n        /* \"#utility.yul\":32180:32273   */\n    tag_312:\n        /* \"#utility.yul\":32217:32223   */\n      0x00\n        /* \"#utility.yul\":32264:32266   */\n      0x20\n        /* \"#utility.yul\":32259:32261   */\n      0x1f\n        /* \"#utility.yul\":32252:32257   */\n      dup4\n        /* \"#utility.yul\":32248:32262   */\n      add\n        /* \"#utility.yul\":32244:32267   */\n      div\n        /* \"#utility.yul\":32234:32267   */\n      swap1\n      pop\n        /* \"#utility.yul\":32180:32273   */\n      swap2\n      swap1\n      pop\n      jump\t// out\n        /* \"#utility.yul\":32279:32386   */\n    tag_313:\n        /* \"#utility.yul\":32323:32331   */\n      0x00\n        /* \"#utility.yul\":32373:32378   */\n      dup3\n        /* \"#utility.yul\":32367:32371   */\n      dup3\n        /* \"#utility.yul\":32363:32379   */\n      shl\n        /* \"#utility.yul\":32342:32379   */\n      swap1\n      pop\n        /* \"#utility.yul\":32279:32386   */\n      swap3\n      swap2\n      pop\n      pop\n      jump\t// out\n        /* \"#utility.yul\":32392:32785   */\n    tag_314:\n        /* \"#utility.yul\":32461:32467   */\n      0x00\n        /* \"#utility.yul\":32511:32512   */\n      0x08\n        /* \"#utility.yul\":32499:32509   */\n      dup4\n        /* \"#utility.yul\":32495:32513   */\n      mul\n        /* \"#utility.yul\":32534:32631   */\n      tag_599\n        /* \"#utility.yul\":32564:32630   */\n      0xffffffffffffffffffffffffffffffffffffffffffffffffffffffffffffffff\n        /* \"#utility.yul\":32553:32562   */\n      dup3\n        /* \"#utility.yul\":32534:32631   */\n      tag_313\n      jump\t// in\n    tag_599:\n        /* \"#utility.yul\":32652:32691   */\n      tag_600\n        /* \"#utility.yul\":32682:32690   */\n      dup7\n        /* \"#utility.yul\":32671:32680   */\n      dup4\n        /* \"#utility.yul\":32652:32691   */\n      tag_313\n      jump\t// in\n    tag_600:\n        /* \"#utility.yul\":32640:32691   */\n      swap6\n      pop\n        /* \"#utility.yul\":32724:32728   */\n      dup1\n        /* \"#utility.yul\":32720:32729   */\n      not\n        /* \"#utility.yul\":32713:32718   */\n      dup5\n        /* \"#utility.yul\":32709:32730   */\n      and\n        /* \"#utility.yul\":32700:32730   */\n      swap4\n      pop\n        /* \"#utility.yul\":32773:32777   */\n      dup1\n        /* \"#utility.yul\":32763:32771   */\n      dup7\n        /* \"#utility.yul\":32759:32778   */\n      and\n        /* \"#utility.yul\":32752:32757   */\n      dup5\n        /* \"#utility.yul\":32749:32779   */\n      or\n        /* \"#utility.yul\":32739:32779   */\n      swap3\n      pop\n        /* \"#utility.yul\":32468:32785   */\n      pop\n      pop\n        /* \"#utility.yul\":32392:32785   */\n      swap4\n      swap3\n      pop\n      pop\n      pop\n      jump\t// out\n        /* \"#utility.yul\":32791:32851   */\n    tag_315:\n        /* \"#utility.yul\":32819:32822   */\n      0x00\n        /* \"#utility.yul\":32840:32845   */\n      dup2\n        /* \"#utility.yul\":32833:32845   */\n      swap1\n      pop\n        /* \"#utility.yul\":32791:32851   */\n      swap2\n      swap1\n      pop\n      jump\t// out\n        /* \"#utility.yul\":32857:32999   */\n    tag_316:\n        /* \"#utility.yul\":32907:32916   */\n      0x00\n        /* \"#utility.yul\":32940:32993   */\n      tag_603\n        /* \"#utility.yul\":32958:32992   */\n      tag_604\n        /* \"#utility.yul\":32967:32991   */\n      tag_605\n        /* \"#utility.yul\":32985:32990   */\n      dup5\n        /* \"#utility.yul\":32967:32991   */\n      tag_244\n      jump\t// in\n    tag_605:\n        /* \"#utility.yul\":32958:32992   */\n      tag_315\n      jump\t// in\n    tag_604:\n        /* \"#utility.yul\":32940:32993   */\n      tag_244\n      jump\t// in\n    tag_603:\n        /* \"#utility.yul\":32927:32993   */\n      swap1\n      pop\n        /* \"#utility.yul\":32857:32999   */\n      swap2\n      swap1\n      pop\n      jump\t// out\n        /* \"#utility.yul\":33005:33080   */\n    tag_317:\n        /* \"#utility.yul\":33048:33051   */\n      0x00\n        /* \"#utility.yul\":33069:33074   */\n      dup2\n        /* \"#utility.yul\":33062:33074   */\n      swap1\n      pop\n        /* \"#utility.yul\":33005:33080   */\n      swap2\n      swap1\n      pop\n      jump\t// out\n        /* \"#utility.yul\":33086:33355   */\n    tag_318:\n        /* \"#utility.yul\":33196:33235   */\n      tag_608\n        /* \"#utility.yul\":33227:33234   */\n      dup4\n        /* \"#utility.yul\":33196:33235   */\n      tag_316\n      jump\t// in\n    tag_608:\n        /* \"#utility.yul\":33257:33348   */\n      tag_609\n        /* \"#utility.yul\":33306:33347   */\n      tag_610\n        /* \"#utility.yul\":33330:33346   */\n      dup3\n        /* \"#utility.yul\":33306:33347   */\n      tag_317\n      jump\t// in\n    tag_610:\n        /* \"#utility.yul\":33298:33304   */\n      dup5\n        /* \"#utility.yul\":33291:33295   */\n      dup5\n        /* \"#utility.yul\":33285:33296   */\n      sload\n        /* \"#utility.yul\":33257:33348   */\n      tag_314\n      jump\t// in\n    tag_609:\n        /* \"#utility.yul\":33251:33255   */\n      dup3\n        /* \"#utility.yul\":33244:33349   */\n      sstore\n        /* \"#utility.yul\":33162:33355   */\n      pop\n        /* \"#utility.yul\":33086:33355   */\n      pop\n      pop\n      pop\n      jump\t// out\n        /* \"#utility.yul\":33361:33434   */\n    tag_319:\n        /* \"#utility.yul\":33406:33409   */\n      0x00\n        /* \"#utility.yul\":33361:33434   */\n      swap1\n      jump\t// out\n        /* \"#utility.yul\":33440:33629   */\n    tag_320:\n        /* \"#utility.yul\":33517:33549   */\n      tag_613\n      tag_319\n      jump\t// in\n    tag_613:\n        /* \"#utility.yul\":33558:33623   */\n      tag_614\n        /* \"#utility.yul\":33616:33622   */\n      dup2\n        /* \"#utility.yul\":33608:33614   */\n      dup5\n        /* \"#utility.yul\":33602:33606   */\n      dup5\n        /* \"#utility.yul\":33558:33623   */\n      tag_318\n      jump\t// in\n    tag_614:\n        /* \"#utility.yul\":33493:33629   */\n      pop\n        /* \"#utility.yul\":33440:33629   */\n      pop\n      pop\n      jump\t// out\n        /* \"#utility.yul\":33635:33821   */\n    tag_321:\n        /* \"#utility.yul\":33695:33815   */\n    tag_616:\n        /* \"#utility.yul\":33712:33715   */\n      dup2\n        /* \"#utility.yul\":33705:33710   */\n      dup2\n        /* \"#utility.yul\":33702:33716   */\n      lt\n        /* \"#utility.yul\":33695:33815   */\n      iszero\n      tag_618\n      jumpi\n        /* \"#utility.yul\":33766:33805   */\n      tag_619\n        /* \"#utility.yul\":33803:33804   */\n      0x00\n        /* \"#utility.yul\":33796:33801   */\n      dup3\n        /* \"#utility.yul\":33766:33805   */\n      tag_320\n      jump\t// in\n    tag_619:\n        /* \"#utility.yul\":33739:33740   */\n      0x01\n        /* \"#utility.yul\":33732:33737   */\n      dup2\n        /* \"#utility.yul\":33728:33741   */\n      add\n        /* \"#utility.yul\":33719:33741   */\n      swap1\n      pop\n        /* \"#utility.yul\":33695:33815   */\n      jump(tag_616)\n    tag_618:\n        /* \"#utility.yul\":33635:33821   */\n      pop\n      pop\n      jump\t// out\n        /* \"#utility.yul\":33827:34370   */\n    tag_322:\n        /* \"#utility.yul\":33928:33930   */\n      0x1f\n        /* \"#utility.yul\":33923:33926   */\n      dup3\n        /* \"#utility.yul\":33920:33931   */\n      gt\n        /* \"#utility.yul\":33917:34363   */\n      iszero\n      tag_621\n      jumpi\n        /* \"#utility.yul\":33962:34000   */\n      tag_622\n        /* \"#utility.yul\":33994:33999   */\n      dup2\n        /* \"#utility.yul\":33962:34000   */\n      tag_277\n      jump\t// in\n    tag_622:\n        /* \"#utility.yul\":34046:34075   */\n      tag_623\n        /* \"#utility.yul\":34064:34074   */\n      dup5\n        /* \"#utility.yul\":34046:34075   */\n      tag_312\n      jump\t// in\n    tag_623:\n        /* \"#utility.yul\":34036:34044   */\n      dup2\n        /* \"#utility.yul\":34032:34076   */\n      add\n        /* \"#utility.yul\":34229:34231   */\n      0x20\n        /* \"#utility.yul\":34217:34227   */\n      dup6\n        /* \"#utility.yul\":34214:34232   */\n      lt\n        /* \"#utility.yul\":34211:34260   */\n      iszero\n      tag_624\n      jumpi\n        /* \"#utility.yul\":34250:34258   */\n      dup2\n        /* \"#utility.yul\":34235:34258   */\n      swap1\n      pop\n        /* \"#utility.yul\":34211:34260   */\n    tag_624:\n        /* \"#utility.yul\":34273:34353   */\n      tag_625\n        /* \"#utility.yul\":34329:34351   */\n      tag_626\n        /* \"#utility.yul\":34347:34350   */\n      dup6\n        /* \"#utility.yul\":34329:34351   */\n      tag_312\n      jump\t// in\n    tag_626:\n        /* \"#utility.yul\":34319:34327   */\n      dup4\n        /* \"#utility.yul\":34315:34352   */\n      add\n        /* \"#utility.yul\":34302:34313   */\n      dup3\n        /* \"#utility.yul\":34273:34353   */\n      tag_321\n      jump\t// in\n    tag_625:\n        /* \"#utility.yul\":33932:34363   */\n      pop\n      pop\n        /* \"#utility.yul\":33917:34363   */\n    tag_621:\n        /* \"#utility.yul\":33827:34370   */\n      pop\n      pop\n      pop\n      jump\t// out\n        /* \"#utility.yul\":34376:34493   */\n    tag_323:\n        /* \"#utility.yul\":34430:34438   */\n      0x00\n        /* \"#utility.yul\":34480:34485   */\n      dup3\n        /* \"#utility.yul\":34474:34478   */\n      dup3\n        /* \"#utility.yul\":34470:34486   */\n      shr\n        /* \"#utility.yul\":34449:34486   */\n      swap1\n      pop\n        /* \"#utility.yul\":34376:34493   */\n      swap3\n      swap2\n      pop\n      pop\n      jump\t// out\n        /* \"#utility.yul\":34499:34668   */\n    tag_324:\n        /* \"#utility.yul\":34543:34549   */\n      0x00\n        /* \"#utility.yul\":34576:34627   */\n      tag_629\n        /* \"#utility.yul\":34624:34625   */\n      0x00\n        /* \"#utility.yul\":34620:34626   */\n      not\n        /* \"#utility.yul\":34612:34617   */\n      dup5\n        /* \"#utility.yul\":34609:34610   */\n      0x08\n        /* \"#utility.yul\":34605:34618   */\n      mul\n        /* \"#utility.yul\":34576:34627   */\n      tag_323\n      jump\t// in\n    tag_629:\n        /* \"#utility.yul\":34572:34628   */\n      not\n        /* \"#utility.yul\":34657:34661   */\n      dup1\n        /* \"#utility.yul\":34651:34655   */\n      dup4\n        /* \"#utility.yul\":34647:34662   */\n      and\n        /* \"#utility.yul\":34637:34662   */\n      swap2\n      pop\n        /* \"#utility.yul\":34550:34668   */\n      pop\n        /* \"#utility.yul\":34499:34668   */\n      swap3\n      swap2\n      pop\n      pop\n      jump\t// out\n        /* \"#utility.yul\":34673:34968   */\n    tag_325:\n        /* \"#utility.yul\":34749:34753   */\n      0x00\n        /* \"#utility.yul\":34895:34924   */\n      tag_631\n        /* \"#utility.yul\":34920:34923   */\n      dup4\n        /* \"#utility.yul\":34914:34918   */\n      dup4\n        /* \"#utility.yul\":34895:34924   */\n      tag_324\n      jump\t// in\n    tag_631:\n        /* \"#utility.yul\":34887:34924   */\n      swap2\n      pop\n        /* \"#utility.yul\":34957:34960   */\n      dup3\n        /* \"#utility.yul\":34954:34955   */\n      0x02\n        /* \"#utility.yul\":34950:34961   */\n      mul\n        /* \"#utility.yul\":34944:34948   */\n      dup3\n        /* \"#utility.yul\":34941:34962   */\n      or\n        /* \"#utility.yul\":34933:34962   */\n      swap1\n      pop\n        /* \"#utility.yul\":34673:34968   */\n      swap3\n      swap2\n      pop\n      pop\n      jump\t// out\n        /* \"#utility.yul\":34973:36368   */\n    tag_209:\n        /* \"#utility.yul\":35090:35127   */\n      tag_633\n        /* \"#utility.yul\":35123:35126   */\n      dup3\n        /* \"#utility.yul\":35090:35127   */\n      tag_257\n      jump\t// in\n    tag_633:\n        /* \"#utility.yul\":35192:35210   */\n      0xffffffffffffffff\n        /* \"#utility.yul\":35184:35190   */\n      dup2\n        /* \"#utility.yul\":35181:35211   */\n      gt\n        /* \"#utility.yul\":35178:35234   */\n      iszero\n      tag_634\n      jumpi\n        /* \"#utility.yul\":35214:35232   */\n      tag_635\n      tag_264\n      jump\t// in\n    tag_635:\n        /* \"#utility.yul\":35178:35234   */\n    tag_634:\n        /* \"#utility.yul\":35258:35296   */\n      tag_636\n        /* \"#utility.yul\":35290:35294   */\n      dup3\n        /* \"#utility.yul\":35284:35295   */\n      sload\n        /* \"#utility.yul\":35258:35296   */\n      tag_153\n      jump\t// in\n    tag_636:\n        /* \"#utility.yul\":35343:35410   */\n      tag_637\n        /* \"#utility.yul\":35403:35409   */\n      dup3\n        /* \"#utility.yul\":35395:35401   */\n      dup3\n        /* \"#utility.yul\":35389:35393   */\n      dup6\n        /* \"#utility.yul\":35343:35410   */\n      tag_322\n      jump\t// in\n    tag_637:\n        /* \"#utility.yul\":35437:35438   */\n      0x00\n        /* \"#utility.yul\":35461:35465   */\n      0x20\n        /* \"#utility.yul\":35448:35465   */\n      swap1\n      pop\n        /* \"#utility.yul\":35493:35495   */\n      0x1f\n        /* \"#utility.yul\":35485:35491   */\n      dup4\n        /* \"#utility.yul\":35482:35496   */\n      gt\n        /* \"#utility.yul\":35510:35511   */\n      0x01\n        /* \"#utility.yul\":35505:36123   */\n      dup2\n      eq\n      tag_639\n      jumpi\n        /* \"#utility.yul\":36167:36168   */\n      0x00\n        /* \"#utility.yul\":36184:36190   */\n      dup5\n        /* \"#utility.yul\":36181:36258   */\n      iszero\n      tag_640\n      jumpi\n        /* \"#utility.yul\":36233:36242   */\n      dup3\n        /* \"#utility.yul\":36228:36231   */\n      dup8\n        /* \"#utility.yul\":36224:36243   */\n      add\n        /* \"#utility.yul\":36218:36244   */\n      mload\n        /* \"#utility.yul\":36209:36244   */\n      swap1\n      pop\n        /* \"#utility.yul\":36181:36258   */\n    tag_640:\n        /* \"#utility.yul\":36284:36351   */\n      tag_641\n        /* \"#utility.yul\":36344:36350   */\n      dup6\n        /* \"#utility.yul\":36337:36342   */\n      dup3\n        /* \"#utility.yul\":36284:36351   */\n      tag_325\n      jump\t// in\n    tag_641:\n        /* \"#utility.yul\":36278:36282   */\n      dup7\n        /* \"#utility.yul\":36271:36352   */\n      sstore\n        /* \"#utility.yul\":36140:36362   */\n      pop\n        /* \"#utility.yul\":35475:36362   */\n      jump(tag_638)\n        /* \"#utility.yul\":35505:36123   */\n    tag_639:\n        /* \"#utility.yul\":35557:35561   */\n      0x1f\n        /* \"#utility.yul\":35553:35562   */\n      not\n        /* \"#utility.yul\":35545:35551   */\n      dup5\n        /* \"#utility.yul\":35541:35563   */\n      and\n        /* \"#utility.yul\":35591:35628   */\n      tag_642\n        /* \"#utility.yul\":35623:35627   */\n      dup7\n        /* \"#utility.yul\":35591:35628   */\n      tag_277\n      jump\t// in\n    tag_642:\n        /* \"#utility.yul\":35650:35651   */\n      0x00\n        /* \"#utility.yul\":35664:35872   */\n    tag_643:\n        /* \"#utility.yul\":35678:35685   */\n      dup3\n        /* \"#utility.yul\":35675:35676   */\n      dup2\n        /* \"#utility.yul\":35672:35686   */\n      lt\n        /* \"#utility.yul\":35664:35872   */\n      iszero\n      tag_645\n      jumpi\n        /* \"#utility.yul\":35757:35766   */\n      dup5\n        /* \"#utility.yul\":35752:35755   */\n      dup10\n        /* \"#utility.yul\":35748:35767   */\n      add\n        /* \"#utility.yul\":35742:35768   */\n      mload\n        /* \"#utility.yul\":35734:35740   */\n      dup3\n        /* \"#utility.yul\":35727:35769   */\n      sstore\n        /* \"#utility.yul\":35808:35809   */\n      0x01\n        /* \"#utility.yul\":35800:35806   */\n      dup3\n        /* \"#utility.yul\":35796:35810   */\n      add\n        /* \"#utility.yul\":35786:35810   */\n      swap2\n      pop\n        /* \"#utility.yul\":35855:35857   */\n      0x20\n        /* \"#utility.yul\":35844:35853   */\n      dup6\n        /* \"#utility.yul\":35840:35858   */\n      add\n        /* \"#utility.yul\":35827:35858   */\n      swap5\n      pop\n        /* \"#utility.yul\":35701:35705   */\n      0x20\n        /* \"#utility.yul\":35698:35699   */\n      dup2\n        /* \"#utility.yul\":35694:35706   */\n      add\n        /* \"#utility.yul\":35689:35706   */\n      swap1\n      pop\n        /* \"#utility.yul\":35664:35872   */\n      jump(tag_643)\n    tag_645:\n        /* \"#utility.yul\":35900:35906   */\n      dup7\n        /* \"#utility.yul\":35891:35898   */\n      dup4\n        /* \"#utility.yul\":35888:35907   */\n      lt\n        /* \"#utility.yul\":35885:36064   */\n      iszero\n      tag_646\n      jumpi\n        /* \"#utility.yul\":35958:35967   */\n      dup5\n        /* \"#utility.yul\":35953:35956   */\n      dup10\n        /* \"#utility.yul\":35949:35968   */\n      add\n        /* \"#utility.yul\":35943:35969   */\n      mload\n        /* \"#utility.yul\":36001:36049   */\n      tag_647\n        /* \"#utility.yul\":36043:36047   */\n      0x1f\n        /* \"#utility.yul\":36035:36041   */\n      dup10\n        /* \"#utility.yul\":36031:36048   */\n      and\n        /* \"#utility.yul\":36020:36029   */\n      dup3\n        /* \"#utility.yul\":36001:36049   */\n      tag_324\n      jump\t// in\n    tag_647:\n        /* \"#utility.yul\":35993:35999   */\n      dup4\n        /* \"#utility.yul\":35986:36050   */\n      sstore\n        /* \"#utility.yul\":35908:36064   */\n      pop\n        /* \"#utility.yul\":35885:36064   */\n    tag_646:\n        /* \"#utility.yul\":36110:36111   */\n      0x01\n        /* \"#utility.yul\":36106:36107   */\n      0x02\n        /* \"#utility.yul\":36098:36104   */\n      dup9\n        /* \"#utility.yul\":36094:36108   */\n      mul\n        /* \"#utility.yul\":36090:36112   */\n      add\n        /* \"#utility.yul\":36084:36088   */\n      dup9\n        /* \"#utility.yul\":36077:36113   */\n      sstore\n        /* \"#utility.yul\":35512:36123   */\n      pop\n      pop\n      pop\n        /* \"#utility.yul\":35475:36362   */\n    tag_638:\n      pop\n        /* \"#utility.yul\":35065:36368   */\n      pop\n      pop\n      pop\n        /* \"#utility.yul\":34973:36368   */\n      pop\n      pop\n      jump\t// out\n        /* \"#utility.yul\":36374:36797   */\n    tag_211:\n        /* \"#utility.yul\":36515:36519   */\n      0x00\n        /* \"#utility.yul\":36553:36555   */\n      0x40\n        /* \"#utility.yul\":36542:36551   */\n      dup3\n        /* \"#utility.yul\":36538:36556   */\n      add\n        /* \"#utility.yul\":36530:36556   */\n      swap1\n      pop\n        /* \"#utility.yul\":36602:36611   */\n      dup2\n        /* \"#utility.yul\":36596:36600   */\n      dup2\n        /* \"#utility.yul\":36592:36612   */\n      sub\n        /* \"#utility.yul\":36588:36589   */\n      0x00\n        /* \"#utility.yul\":36577:36586   */\n      dup4\n        /* \"#utility.yul\":36573:36590   */\n      add\n        /* \"#utility.yul\":36566:36613   */\n      mstore\n        /* \"#utility.yul\":36630:36708   */\n      tag_649\n        /* \"#utility.yul\":36703:36707   */\n      dup2\n        /* \"#utility.yul\":36694:36700   */\n      dup6\n        /* \"#utility.yul\":36630:36708   */\n      tag_261\n      jump\t// in\n    tag_649:\n        /* \"#utility.yul\":36622:36708   */\n      swap1\n      pop\n        /* \"#utility.yul\":36718:36790   */\n      tag_650\n        /* \"#utility.yul\":36786:36788   */\n      0x20\n        /* \"#utility.yul\":36775:36784   */\n      dup4\n        /* \"#utility.yul\":36771:36789   */\n      add\n        /* \"#utility.yul\":36762:36768   */\n      dup5\n        /* \"#utility.yul\":36718:36790   */\n      tag_250\n      jump\t// in\n    tag_650:\n        /* \"#utility.yul\":36374:36797   */\n      swap4\n      swap3\n      pop\n      pop\n      pop\n      jump\t// out\n        /* \"#utility.yul\":36803:36983   */\n    tag_326:\n        /* \"#utility.yul\":36851:36928   */\n      0x4e487b7100000000000000000000000000000000000000000000000000000000\n        /* \"#utility.yul\":36848:36849   */\n      0x00\n        /* \"#utility.yul\":36841:36929   */\n      mstore\n        /* \"#utility.yul\":36948:36952   */\n      0x11\n        /* \"#utility.yul\":36945:36946   */\n      0x04\n        /* \"#utility.yul\":36938:36953   */\n      mstore\n        /* \"#utility.yul\":36972:36976   */\n      0x24\n        /* \"#utility.yul\":36969:36970   */\n      0x00\n        /* \"#utility.yul\":36962:36977   */\n      revert\n        /* \"#utility.yul\":36989:37222   */\n    tag_213:\n        /* \"#utility.yul\":37028:37031   */\n      0x00\n        /* \"#utility.yul\":37051:37075   */\n      tag_653\n        /* \"#utility.yul\":37069:37074   */\n      dup3\n        /* \"#utility.yul\":37051:37075   */\n      tag_244\n      jump\t// in\n    tag_653:\n        /* \"#utility.yul\":37042:37075   */\n      swap2\n      pop\n        /* \"#utility.yul\":37097:37163   */\n      0xffffffffffffffffffffffffffffffffffffffffffffffffffffffffffffffff\n        /* \"#utility.yul\":37090:37095   */\n      dup3\n        /* \"#utility.yul\":37087:37164   */\n      sub\n        /* \"#utility.yul\":37084:37187   */\n      tag_654\n      jumpi\n        /* \"#utility.yul\":37167:37185   */\n      tag_655\n      tag_326\n      jump\t// in\n    tag_655:\n        /* \"#utility.yul\":37084:37187   */\n    tag_654:\n        /* \"#utility.yul\":37214:37215   */\n      0x01\n        /* \"#utility.yul\":37207:37212   */\n      dup3\n        /* \"#utility.yul\":37203:37216   */\n      add\n        /* \"#utility.yul\":37196:37216   */\n      swap1\n      pop\n        /* \"#utility.yul\":36989:37222   */\n      swap2\n      swap1\n      pop\n      jump\t// out\n        /* \"#utility.yul\":37228:37419   */\n    tag_222:\n        /* \"#utility.yul\":37268:37271   */\n      0x00\n        /* \"#utility.yul\":37287:37307   */\n      tag_657\n        /* \"#utility.yul\":37305:37306   */\n      dup3\n        /* \"#utility.yul\":37287:37307   */\n      tag_244\n      jump\t// in\n    tag_657:\n        /* \"#utility.yul\":37282:37307   */\n      swap2\n      pop\n        /* \"#utility.yul\":37321:37341   */\n      tag_658\n        /* \"#utility.yul\":37339:37340   */\n      dup4\n        /* \"#utility.yul\":37321:37341   */\n      tag_244\n      jump\t// in\n    tag_658:\n        /* \"#utility.yul\":37316:37341   */\n      swap3\n      pop\n        /* \"#utility.yul\":37364:37365   */\n      dup3\n        /* \"#utility.yul\":37361:37362   */\n      dup3\n        /* \"#utility.yul\":37357:37366   */\n      add\n        /* \"#utility.yul\":37350:37366   */\n      swap1\n      pop\n        /* \"#utility.yul\":37385:37388   */\n      dup1\n        /* \"#utility.yul\":37382:37383   */\n      dup3\n        /* \"#utility.yul\":37379:37389   */\n      gt\n        /* \"#utility.yul\":37376:37412   */\n      iszero\n      tag_659\n      jumpi\n        /* \"#utility.yul\":37392:37410   */\n      tag_660\n      tag_326\n      jump\t// in\n    tag_660:\n        /* \"#utility.yul\":37376:37412   */\n    tag_659:\n        /* \"#utility.yul\":37228:37419   */\n      swap3\n      swap2\n      pop\n      pop\n      jump\t// out\n        /* \"#utility.yul\":37425:37619   */\n    tag_225:\n        /* \"#utility.yul\":37465:37469   */\n      0x00\n        /* \"#utility.yul\":37485:37505   */\n      tag_662\n        /* \"#utility.yul\":37503:37504   */\n      dup3\n        /* \"#utility.yul\":37485:37505   */\n      tag_244\n      jump\t// in\n    tag_662:\n        /* \"#utility.yul\":37480:37505   */\n      swap2\n      pop\n        /* \"#utility.yul\":37519:37539   */\n      tag_663\n        /* \"#utility.yul\":37537:37538   */\n      dup4\n        /* \"#utility.yul\":37519:37539   */\n      tag_244\n      jump\t// in\n    tag_663:\n        /* \"#utility.yul\":37514:37539   */\n      swap3\n      pop\n        /* \"#utility.yul\":37563:37564   */\n      dup3\n        /* \"#utility.yul\":37560:37561   */\n      dup3\n        /* \"#utility.yul\":37556:37565   */\n      sub\n        /* \"#utility.yul\":37548:37565   */\n      swap1\n      pop\n        /* \"#utility.yul\":37587:37588   */\n      dup2\n        /* \"#utility.yul\":37581:37585   */\n      dup2\n        /* \"#utility.yul\":37578:37589   */\n      gt\n        /* \"#utility.yul\":37575:37612   */\n      iszero\n      tag_664\n      jumpi\n        /* \"#utility.yul\":37592:37610   */\n      tag_665\n      tag_326\n      jump\t// in\n    tag_665:\n        /* \"#utility.yul\":37575:37612   */\n    tag_664:\n        /* \"#utility.yul\":37425:37619   */\n      swap3\n      swap2\n      pop\n      pop\n      jump\t// out\n        /* \"#utility.yul\":37625:38035   */\n    tag_228:\n        /* \"#utility.yul\":37665:37672   */\n      0x00\n        /* \"#utility.yul\":37688:37708   */\n      tag_667\n        /* \"#utility.yul\":37706:37707   */\n      dup3\n        /* \"#utility.yul\":37688:37708   */\n      tag_244\n      jump\t// in\n    tag_667:\n        /* \"#utility.yul\":37683:37708   */\n      swap2\n      pop\n        /* \"#utility.yul\":37722:37742   */\n      tag_668\n        /* \"#utility.yul\":37740:37741   */\n      dup4\n        /* \"#utility.yul\":37722:37742   */\n      tag_244\n      jump\t// in\n    tag_668:\n        /* \"#utility.yul\":37717:37742   */\n      swap3\n      pop\n        /* \"#utility.yul\":37777:37778   */\n      dup3\n        /* \"#utility.yul\":37774:37775   */\n      dup3\n        /* \"#utility.yul\":37770:37779   */\n      mul\n        /* \"#utility.yul\":37799:37829   */\n      tag_669\n        /* \"#utility.yul\":37817:37828   */\n      dup2\n        /* \"#utility.yul\":37799:37829   */\n      tag_244\n      jump\t// in\n    tag_669:\n        /* \"#utility.yul\":37788:37829   */\n      swap2\n      pop\n        /* \"#utility.yul\":37978:37979   */\n      dup3\n        /* \"#utility.yul\":37969:37976   */\n      dup3\n        /* \"#utility.yul\":37965:37980   */\n      div\n        /* \"#utility.yul\":37962:37963   */\n      dup5\n        /* \"#utility.yul\":37959:37981   */\n      eq\n        /* \"#utility.yul\":37939:37940   */\n      dup4\n        /* \"#utility.yul\":37932:37941   */\n      iszero\n        /* \"#utility.yul\":37912:37995   */\n      or\n        /* \"#utility.yul\":37889:38028   */\n      tag_670\n      jumpi\n        /* \"#utility.yul\":38008:38026   */\n      tag_671\n      tag_326\n      jump\t// in\n    tag_671:\n        /* \"#utility.yul\":37889:38028   */\n    tag_670:\n        /* \"#utility.yul\":37673:38035   */\n      pop\n        /* \"#utility.yul\":37625:38035   */\n      swap3\n      swap2\n      pop\n      pop\n      jump\t// out\n        /* \"#utility.yul\":38041:38221   */\n    tag_327:\n        /* \"#utility.yul\":38089:38166   */\n      0x4e487b7100000000000000000000000000000000000000000000000000000000\n        /* \"#utility.yul\":38086:38087   */\n      0x00\n        /* \"#utility.yul\":38079:38167   */\n      mstore\n        /* \"#utility.yul\":38186:38190   */\n      0x12\n        /* \"#utility.yul\":38183:38184   */\n      0x04\n        /* \"#utility.yul\":38176:38191   */\n      mstore\n        /* \"#utility.yul\":38210:38214   */\n      0x24\n        /* \"#utility.yul\":38207:38208   */\n      0x00\n        /* \"#utility.yul\":38200:38215   */\n      revert\n        /* \"#utility.yul\":38227:38412   */\n    tag_231:\n        /* \"#utility.yul\":38267:38268   */\n      0x00\n        /* \"#utility.yul\":38284:38304   */\n      tag_674\n        /* \"#utility.yul\":38302:38303   */\n      dup3\n        /* \"#utility.yul\":38284:38304   */\n      tag_244\n      jump\t// in\n    tag_674:\n        /* \"#utility.yul\":38279:38304   */\n      swap2\n      pop\n        /* \"#utility.yul\":38318:38338   */\n      tag_675\n        /* \"#utility.yul\":38336:38337   */\n      dup4\n        /* \"#utility.yul\":38318:38338   */\n      tag_244\n      jump\t// in\n    tag_675:\n        /* \"#utility.yul\":38313:38338   */\n      swap3\n      pop\n        /* \"#utility.yul\":38357:38358   */\n      dup3\n        /* \"#utility.yul\":38347:38382   */\n      tag_676\n      jumpi\n        /* \"#utility.yul\":38362:38380   */\n      tag_677\n      tag_327\n      jump\t// in\n    tag_677:\n        /* \"#utility.yul\":38347:38382   */\n    tag_676:\n        /* \"#utility.yul\":38404:38405   */\n      dup3\n        /* \"#utility.yul\":38401:38402   */\n      dup3\n        /* \"#utility.yul\":38397:38406   */\n      div\n        /* \"#utility.yul\":38392:38406   */\n      swap1\n      pop\n        /* \"#utility.yul\":38227:38412   */\n      swap3\n      swap2\n      pop\n      pop\n      jump\t// out\n\n    auxdata: 0xa2646970667358221220b0637a3b1fa337c35fb3b1e7db884322789a54c62e72c1ca7a32380d12111e6564736f6c63430008190033\n}\n",
				"bytecode": {
					"linkReferences": {},
					"object": "608060405234801561000f575f80fd5b50335f73ffffffffffffffffffffffffffffffffffffffff168173ffffffffffffffffffffffffffffffffffffffff1603610081575f6040517f1e4fbdf70000000000000000000000000000000000000000000000000000000081526004016100789190610196565b60405180910390fd5b6100908161009660201b60201c565b506101af565b5f805f9054906101000a900473ffffffffffffffffffffffffffffffffffffffff169050815f806101000a81548173ffffffffffffffffffffffffffffffffffffffff021916908373ffffffffffffffffffffffffffffffffffffffff1602179055508173ffffffffffffffffffffffffffffffffffffffff168173ffffffffffffffffffffffffffffffffffffffff167f8be0079c531659141344cd1fd0a4f28419497f9722a3daafe3b4186f6b6457e060405160405180910390a35050565b5f73ffffffffffffffffffffffffffffffffffffffff82169050919050565b5f61018082610157565b9050919050565b61019081610176565b82525050565b5f6020820190506101a95f830184610187565b92915050565b612c97806101bc5f395ff3fe608060405234801561000f575f80fd5b50600436106100cd575f3560e01c8063715018a61161008a578063910a8dd211610064578063910a8dd214610209578063a96f866814610239578063e393173e14610243578063f2fde38b1461025f576100cd565b8063715018a6146101b157806382134e7b146101bb5780638da5cb5b146101eb576100cd565b80630d61b519146100d157806315373e3d146100ed5780632ab09d14146101095780635783f8e7146101275780635de9a137146101435780635df8133014610179575b5f80fd5b6100eb60048036038101906100e691906119ae565b61027b565b005b61010760048036038101906101029190611a0e565b6106f4565b005b610111610be1565b60405161011e9190611a5b565b60405180910390f35b610141600480360381019061013c9190611ace565b610be7565b005b61015d60048036038101906101589190611b32565b610f04565b6040516101709796959493929190611b7b565b60405180910390f35b610193600480360381019061018e91906119ae565b610f6e565b6040516101a899989796959493929190611c58565b60405180910390f35b6101b9611069565b005b6101d560048036038101906101d09190611b32565b61107c565b6040516101e29190611cea565b60405180910390f35b6101f3611099565b6040516102009190611d03565b60405180910390f35b610223600480360381019061021e9190611b32565b6110c0565b6040516102309190611a5b565b60405180910390f35b610241611123565b005b61025d60048036038101906102589190611e48565b61149f565b005b61027960048036038101906102749190611b32565b611743565b005b5f60025f8381526020019081526020015f209050806003015442116102d5576040517f08c379a00000000000000000000000000000000000000000000000000000000081526004016102cc90611eec565b60405180910390fd5b806008015f9054906101000a900460ff1615610326576040517f08c379a000000000000000000000000000000000000000000000000000000000815260040161031d90611f54565b60405180910390fd5b8060050154816004015411156106a7577f585a6dc6f7e8656767705fa1b809ec2c27086762f615cdddb3cd21888983b3e38160060160405160200161036b919061206b565b6040516020818303038152906040528051906020012003610573575f60035f836001015f9054906101000a900473ffffffffffffffffffffffffffffffffffffffff1673ffffffffffffffffffffffffffffffffffffffff1673ffffffffffffffffffffffffffffffffffffffff1681526020019081526020015f209050806005015f9054906101000a900460ff16610439576040517f08c379a0000000000000000000000000000000000000000000000000000000008152600401610430906120cb565b60405180910390fd5b610454826007015482600101546117c790919063ffffffff16565b8160010181905550805f0154816001015411156104a6576040517f08c379a000000000000000000000000000000000000000000000000000000000815260040161049d90612133565b60405180910390fd5b8060050160019054906101000a900473ffffffffffffffffffffffffffffffffffffffff1673ffffffffffffffffffffffffffffffffffffffff1663a9059cbb836001015f9054906101000a900473ffffffffffffffffffffffffffffffffffffffff1684600701546040518363ffffffff1660e01b815260040161052c929190612151565b6020604051808303815f875af1158015610548573d5f803e3d5ffd5b505050506040513d601f19601f8201168201806040525081019061056c919061218c565b50506106a6565b7fa99e074f7ed01ed29d2214dc7fa7597b09d83d0c921b513239f2a0ce30dce124816006016040516020016105a8919061206b565b60405160208183030381529060405280519060200120036106a55761063d816007015460035f846001015f9054906101000a900473ffffffffffffffffffffffffffffffffffffffff1673ffffffffffffffffffffffffffffffffffffffff1673ffffffffffffffffffffffffffffffffffffffff1681526020019081526020015f20600301546117c790919063ffffffff16565b60035f836001015f9054906101000a900473ffffffffffffffffffffffffffffffffffffffff1673ffffffffffffffffffffffffffffffffffffffff1673ffffffffffffffffffffffffffffffffffffffff1681526020019081526020015f20600301819055505b5b5b6001816008015f6101000a81548160ff021916908315150217905550817f712ae1383f79ac853f8d882153778e0260ef8f03b504e2866e0593e04d2b291f60405160405180910390a25050565b5f60025f8481526020019081526020015f209050806002015442101561074f576040517f08c379a000000000000000000000000000000000000000000000000000000000815260040161074690612201565b60405180910390fd5b8060030154421115610796576040517f08c379a000000000000000000000000000000000000000000000000000000000815260040161078d90612269565b60405180910390fd5b806009015f3373ffffffffffffffffffffffffffffffffffffffff1673ffffffffffffffffffffffffffffffffffffffff1681526020019081526020015f205f9054906101000a900460ff1615610822576040517f08c379a0000000000000000000000000000000000000000000000000000000008152600401610819906122d1565b60405180910390fd5b5f60035f3373ffffffffffffffffffffffffffffffffffffffff1673ffffffffffffffffffffffffffffffffffffffff1681526020019081526020015f2060050160019054906101000a900473ffffffffffffffffffffffffffffffffffffffff1673ffffffffffffffffffffffffffffffffffffffff166370a08231336040518263ffffffff1660e01b81526004016108bc9190611d03565b602060405180830381865afa1580156108d7573d5f803e3d5ffd5b505050506040513d601f19601f820116820180604052508101906108fb9190612303565b90505f61099060035f3373ffffffffffffffffffffffffffffffffffffffff1673ffffffffffffffffffffffffffffffffffffffff1681526020019081526020015f206001015460035f3373ffffffffffffffffffffffffffffffffffffffff1673ffffffffffffffffffffffffffffffffffffffff1681526020019081526020015f205f01546117dc90919063ffffffff16565b90505f610a728260035f3373ffffffffffffffffffffffffffffffffffffffff1673ffffffffffffffffffffffffffffffffffffffff1681526020019081526020015f2060050160019054906101000a900473ffffffffffffffffffffffffffffffffffffffff1673ffffffffffffffffffffffffffffffffffffffff166318160ddd6040518163ffffffff1660e01b8152600401602060405180830381865afa158015610a40573d5f803e3d5ffd5b505050506040513d601f19601f82011682018060405250810190610a649190612303565b6117dc90919063ffffffff16565b90505f610aa282610a94670de0b6b3a7640000876117f190919063ffffffff16565b61180690919063ffffffff16565b90505f8111610ae6576040517f08c379a0000000000000000000000000000000000000000000000000000000008152600401610add90612378565b60405180910390fd5b8515610b1057610b038186600401546117c790919063ffffffff16565b8560040181905550610b30565b610b278186600501546117c790919063ffffffff16565b85600501819055505b6001856009015f3373ffffffffffffffffffffffffffffffffffffffff1673ffffffffffffffffffffffffffffffffffffffff1681526020019081526020015f205f6101000a81548160ff0219169083151502179055503373ffffffffffffffffffffffffffffffffffffffff16877fcbdf6214089cba887ecbf35a0b6a734589959c9763342c756bb2a80ca2bc9f6e8884604051610bd0929190612396565b60405180910390a350505050505050565b60015481565b5f8311610c29576040517f08c379a0000000000000000000000000000000000000000000000000000000008152600401610c2090612407565b60405180910390fd5b62ed4e00821015610c6f576040517f08c379a0000000000000000000000000000000000000000000000000000000008152600401610c6690612495565b60405180910390fd5b5f811015610cb2576040517f08c379a0000000000000000000000000000000000000000000000000000000008152600401610ca990612523565b60405180910390fd5b5f8490508073ffffffffffffffffffffffffffffffffffffffff166323b872dd3330876040518463ffffffff1660e01b8152600401610cf393929190612541565b6020604051808303815f875af1158015610d0f573d5f803e3d5ffd5b505050506040513d601f19601f82011682018060405250810190610d33919061218c565b610d72576040517f08c379a0000000000000000000000000000000000000000000000000000000008152600401610d69906125c0565b60405180910390fd5b6040518060e001604052808581526020015f81526020014281526020018481526020018381526020016001151581526020018673ffffffffffffffffffffffffffffffffffffffff1681525060035f3373ffffffffffffffffffffffffffffffffffffffff1673ffffffffffffffffffffffffffffffffffffffff1681526020019081526020015f205f820151815f01556020820151816001015560408201518160020155606082015181600301556080820151816004015560a0820151816005015f6101000a81548160ff02191690831515021790555060c08201518160050160016101000a81548173ffffffffffffffffffffffffffffffffffffffff021916908373ffffffffffffffffffffffffffffffffffffffff1602179055509050508473ffffffffffffffffffffffffffffffffffffffff163373ffffffffffffffffffffffffffffffffffffffff167fa6782d3322abbfbe850e6d5c5c78e8e1df603ea07608bb9a62dd83f40d4feccc868686604051610ef5939291906125de565b60405180910390a35050505050565b6003602052805f5260405f205f91509050805f015490806001015490806002015490806003015490806004015490806005015f9054906101000a900460ff16908060050160019054906101000a900473ffffffffffffffffffffffffffffffffffffffff16905087565b6002602052805f5260405f205f91509050805f015490806001015f9054906101000a900473ffffffffffffffffffffffffffffffffffffffff1690806002015490806003015490806004015490806005015490806006018054610fd090611f9f565b80601f0160208091040260200160405190810160405280929190818152602001828054610ffc90611f9f565b80156110475780601f1061101e57610100808354040283529160200191611047565b820191905f5260205f20905b81548152906001019060200180831161102a57829003601f168201915b505050505090806007015490806008015f9054906101000a900460ff16905089565b61107161181b565b61107a5f6118a2565b565b6004602052805f5260405f205f915054906101000a900460ff1681565b5f805f9054906101000a900473ffffffffffffffffffffffffffffffffffffffff16905090565b5f8060035f8473ffffffffffffffffffffffffffffffffffffffff1673ffffffffffffffffffffffffffffffffffffffff1681526020019081526020015f20905061111b8160010154825f01546117dc90919063ffffffff16565b915050919050565b3360035f8273ffffffffffffffffffffffffffffffffffffffff1673ffffffffffffffffffffffffffffffffffffffff1681526020019081526020015f206005015f9054906101000a900460ff166111b0576040517f08c379a00000000000000000000000000000000000000000000000000000000081526004016111a79061265d565b60405180910390fd5b5f60035f3373ffffffffffffffffffffffffffffffffffffffff1673ffffffffffffffffffffffffffffffffffffffff1681526020019081526020015f20905061120b816003015482600201546117c790919063ffffffff16565b42101561124d576040517f08c379a0000000000000000000000000000000000000000000000000000000008152600401611244906126c5565b60405180910390fd5b5f61127b61126c836003015484600201546117c790919063ffffffff16565b426117dc90919063ffffffff16565b90505f6112af83600401546112a1856003015486600201546117c790919063ffffffff16565b6117c790919063ffffffff16565b90505f8142106112da576112d38460010154855f01546117dc90919063ffffffff16565b905061131f565b61131c846001015461130e866004015461130087895f01546117f190919063ffffffff16565b61180690919063ffffffff16565b6117dc90919063ffffffff16565b90505b5f8111611361576040517f08c379a00000000000000000000000000000000000000000000000000000000081526004016113589061272d565b60405180910390fd5b6113788185600101546117c790919063ffffffff16565b84600101819055508360050160019054906101000a900473ffffffffffffffffffffffffffffffffffffffff1673ffffffffffffffffffffffffffffffffffffffff1663a9059cbb33836040518363ffffffff1660e01b81526004016113df929190612151565b6020604051808303815f875af11580156113fb573d5f803e3d5ffd5b505050506040513d601f19601f8201168201806040525081019061141f919061218c565b503373ffffffffffffffffffffffffffffffffffffffff167fc7798891864187665ac6dd119286e44ec13f014527aeeb2b8eb3fd413df93179826040516114669190611a5b565b60405180910390a2835f0154846001015403611498575f846005015f6101000a81548160ff0219169083151502179055505b5050505050565b60035f3373ffffffffffffffffffffffffffffffffffffffff1673ffffffffffffffffffffffffffffffffffffffff1681526020019081526020015f206005015f9054906101000a900460ff1661152b576040517f08c379a000000000000000000000000000000000000000000000000000000000815260040161152290612795565b60405180910390fd5b7f585a6dc6f7e8656767705fa1b809ec2c27086762f615cdddb3cd21888983b3e38260405160200161155d91906127e3565b6040516020818303038152906040528051906020012014806115c457507fa99e074f7ed01ed29d2214dc7fa7597b09d83d0c921b513239f2a0ce30dce124826040516020016115ac91906127e3565b60405160208183030381529060405280519060200120145b611603576040517f08c379a00000000000000000000000000000000000000000000000000000000081526004016115fa90612843565b60405180910390fd5b5f60025f60015481526020019081526020015f209050600154815f018190555033816001015f6101000a81548173ffffffffffffffffffffffffffffffffffffffff021916908373ffffffffffffffffffffffffffffffffffffffff16021790555042816002018190555061168462093a80426117c790919063ffffffff16565b81600301819055505f81600401819055505f8160050181905550828160060190816116af91906129ec565b508181600701819055505f816008015f6101000a81548160ff0219169083151502179055503373ffffffffffffffffffffffffffffffffffffffff166001547f98120a6aaa04295520ab4e01c6c1235dd316e822cc9ff31db7b3f197366d18bd858560405161171f929190612abb565b60405180910390a360015f81548092919061173990612b16565b9190505550505050565b61174b61181b565b5f73ffffffffffffffffffffffffffffffffffffffff168173ffffffffffffffffffffffffffffffffffffffff16036117bb575f6040517f1e4fbdf70000000000000000000000000000000000000000000000000000000081526004016117b29190611d03565b60405180910390fd5b6117c4816118a2565b50565b5f81836117d49190612b5d565b905092915050565b5f81836117e99190612b90565b905092915050565b5f81836117fe9190612bc3565b905092915050565b5f81836118139190612c31565b905092915050565b611823611963565b73ffffffffffffffffffffffffffffffffffffffff16611841611099565b73ffffffffffffffffffffffffffffffffffffffff16146118a057611864611963565b6040517f118cdaa70000000000000000000000000000000000000000000000000000000081526004016118979190611d03565b60405180910390fd5b565b5f805f9054906101000a900473ffffffffffffffffffffffffffffffffffffffff169050815f806101000a81548173ffffffffffffffffffffffffffffffffffffffff021916908373ffffffffffffffffffffffffffffffffffffffff1602179055508173ffffffffffffffffffffffffffffffffffffffff168173ffffffffffffffffffffffffffffffffffffffff167f8be0079c531659141344cd1fd0a4f28419497f9722a3daafe3b4186f6b6457e060405160405180910390a35050565b5f33905090565b5f604051905090565b5f80fd5b5f80fd5b5f819050919050565b61198d8161197b565b8114611997575f80fd5b50565b5f813590506119a881611984565b92915050565b5f602082840312156119c3576119c2611973565b5b5f6119d08482850161199a565b91505092915050565b5f8115159050919050565b6119ed816119d9565b81146119f7575f80fd5b50565b5f81359050611a08816119e4565b92915050565b5f8060408385031215611a2457611a23611973565b5b5f611a318582860161199a565b9250506020611a42858286016119fa565b9150509250929050565b611a558161197b565b82525050565b5f602082019050611a6e5f830184611a4c565b92915050565b5f73ffffffffffffffffffffffffffffffffffffffff82169050919050565b5f611a9d82611a74565b9050919050565b611aad81611a93565b8114611ab7575f80fd5b50565b5f81359050611ac881611aa4565b92915050565b5f805f8060808587031215611ae657611ae5611973565b5b5f611af387828801611aba565b9450506020611b048782880161199a565b9350506040611b158782880161199a565b9250506060611b268782880161199a565b91505092959194509250565b5f60208284031215611b4757611b46611973565b5b5f611b5484828501611aba565b91505092915050565b611b66816119d9565b82525050565b611b7581611a93565b82525050565b5f60e082019050611b8e5f83018a611a4c565b611b9b6020830189611a4c565b611ba86040830188611a4c565b611bb56060830187611a4c565b611bc26080830186611a4c565b611bcf60a0830185611b5d565b611bdc60c0830184611b6c565b98975050505050505050565b5f81519050919050565b5f82825260208201905092915050565b8281835e5f83830152505050565b5f601f19601f8301169050919050565b5f611c2a82611be8565b611c348185611bf2565b9350611c44818560208601611c02565b611c4d81611c10565b840191505092915050565b5f61012082019050611c6c5f83018c611a4c565b611c79602083018b611b6c565b611c86604083018a611a4c565b611c936060830189611a4c565b611ca06080830188611a4c565b611cad60a0830187611a4c565b81810360c0830152611cbf8186611c20565b9050611cce60e0830185611a4c565b611cdc610100830184611b5d565b9a9950505050505050505050565b5f602082019050611cfd5f830184611b5d565b92915050565b5f602082019050611d165f830184611b6c565b92915050565b5f80fd5b5f80fd5b7f4e487b71000000000000000000000000000000000000000000000000000000005f52604160045260245ffd5b611d5a82611c10565b810181811067ffffffffffffffff82111715611d7957611d78611d24565b5b80604052505050565b5f611d8b61196a565b9050611d978282611d51565b919050565b5f67ffffffffffffffff821115611db657611db5611d24565b5b611dbf82611c10565b9050602081019050919050565b828183375f83830152505050565b5f611dec611de784611d9c565b611d82565b905082815260208101848484011115611e0857611e07611d20565b5b611e13848285611dcc565b509392505050565b5f82601f830112611e2f57611e2e611d1c565b5b8135611e3f848260208601611dda565b91505092915050565b5f8060408385031215611e5e57611e5d611973565b5b5f83013567ffffffffffffffff811115611e7b57611e7a611977565b5b611e8785828601611e1b565b9250506020611e988582860161199a565b9150509250929050565b7f566f74696e6720706572696f64206e6f74206f766572000000000000000000005f82015250565b5f611ed6601683611bf2565b9150611ee182611ea2565b602082019050919050565b5f6020820190508181035f830152611f0381611eca565b9050919050565b7f50726f706f73616c20616c7265616479206578656375746564000000000000005f82015250565b5f611f3e601983611bf2565b9150611f4982611f0a565b602082019050919050565b5f6020820190508181035f830152611f6b81611f32565b9050919050565b7f4e487b71000000000000000000000000000000000000000000000000000000005f52602260045260245ffd5b5f6002820490506001821680611fb657607f821691505b602082108103611fc957611fc8611f72565b5b50919050565b5f81905092915050565b5f819050815f5260205f209050919050565b5f8154611ff781611f9f565b6120018186611fcf565b9450600182165f811461201b576001811461203057612062565b60ff1983168652811515820286019350612062565b61203985611fd9565b5f5b8381101561205a5781548189015260018201915060208101905061203b565b838801955050505b50505092915050565b5f6120768284611feb565b915081905092915050565b7f4e6f20616374697665206c6f636b0000000000000000000000000000000000005f82015250565b5f6120b5600e83611bf2565b91506120c082612081565b602082019050919050565b5f6020820190508181035f8301526120e2816120a9565b9050919050565b7f4578636565647320746f74616c206c6f636b656420616d6f756e7400000000005f82015250565b5f61211d601b83611bf2565b9150612128826120e9565b602082019050919050565b5f6020820190508181035f83015261214a81612111565b9050919050565b5f6040820190506121645f830185611b6c565b6121716020830184611a4c565b9392505050565b5f81519050612186816119e4565b92915050565b5f602082840312156121a1576121a0611973565b5b5f6121ae84828501612178565b91505092915050565b7f566f74696e6720686173206e6f742073746172746564000000000000000000005f82015250565b5f6121eb601683611bf2565b91506121f6826121b7565b602082019050919050565b5f6020820190508181035f830152612218816121df565b9050919050565b7f566f74696e672068617320656e646564000000000000000000000000000000005f82015250565b5f612253601083611bf2565b915061225e8261221f565b602082019050919050565b5f6020820190508181035f83015261228081612247565b9050919050565b7f416c726561647920766f746564000000000000000000000000000000000000005f82015250565b5f6122bb600d83611bf2565b91506122c682612287565b602082019050919050565b5f6020820190508181035f8301526122e8816122af565b9050919050565b5f815190506122fd81611984565b92915050565b5f6020828403121561231857612317611973565b5b5f612325848285016122ef565b91505092915050565b7f4e6f20766f74696e6720706f77657200000000000000000000000000000000005f82015250565b5f612362600f83611bf2565b915061236d8261232e565b602082019050919050565b5f6020820190508181035f83015261238f81612356565b9050919050565b5f6040820190506123a95f830185611b5d565b6123b66020830184611a4c565b9392505050565b7f416d6f756e74206d7573742062652067726561746572207468616e207a65726f5f82015250565b5f6123f1602083611bf2565b91506123fc826123bd565b602082019050919050565b5f6020820190508181035f83015261241e816123e5565b9050919050565b7f4c6f636b206475726174696f6e206d757374206265206174206c6561737420365f8201527f206d6f6e74687300000000000000000000000000000000000000000000000000602082015250565b5f61247f602783611bf2565b915061248a82612425565b604082019050919050565b5f6020820190508181035f8301526124ac81612473565b9050919050565b7f56657374696e67206475726174696f6e206d757374206265206e6f6e2d6e65675f8201527f6174697665000000000000000000000000000000000000000000000000000000602082015250565b5f61250d602583611bf2565b9150612518826124b3565b604082019050919050565b5f6020820190508181035f83015261253a81612501565b9050919050565b5f6060820190506125545f830186611b6c565b6125616020830185611b6c565b61256e6040830184611a4c565b949350505050565b7f546f6b656e207472616e73666572206661696c656400000000000000000000005f82015250565b5f6125aa601583611bf2565b91506125b582612576565b602082019050919050565b5f6020820190508181035f8301526125d78161259e565b9050919050565b5f6060820190506125f15f830186611a4c565b6125fe6020830185611a4c565b61260b6040830184611a4c565b949350505050565b7f4e6f20616374697665206c6f636b20666f756e640000000000000000000000005f82015250565b5f612647601483611bf2565b915061265282612613565b602082019050919050565b5f6020820190508181035f8301526126748161263b565b9050919050565b7f4c6f636b20706572696f64206e6f7420796574206f76657200000000000000005f82015250565b5f6126af601883611bf2565b91506126ba8261267b565b602082019050919050565b5f6020820190508181035f8301526126dc816126a3565b9050919050565b7f4e6f20746f6b656e7320617661696c61626c6520666f722072656c65617365005f82015250565b5f612717601f83611bf2565b9150612722826126e3565b602082019050919050565b5f6020820190508181035f8301526127448161270b565b9050919050565b7f4f6e6c7920616374697665206c6f636b6572732063616e2070726f706f7365005f82015250565b5f61277f601f83611bf2565b915061278a8261274b565b602082019050919050565b5f6020820190508181035f8301526127ac81612773565b9050919050565b5f6127bd82611be8565b6127c78185611fcf565b93506127d7818560208601611c02565b80840191505092915050565b5f6127ee82846127b3565b915081905092915050565b7f496e76616c69642070726f706f73616c207479706500000000000000000000005f82015250565b5f61282d601583611bf2565b9150612838826127f9565b602082019050919050565b5f6020820190508181035f83015261285a81612821565b9050919050565b5f6020601f8301049050919050565b5f82821b905092915050565b5f600883026128ab7fffffffffffffffffffffffffffffffffffffffffffffffffffffffffffffffff82612870565b6128b58683612870565b95508019841693508086168417925050509392505050565b5f819050919050565b5f6128f06128eb6128e68461197b565b6128cd565b61197b565b9050919050565b5f819050919050565b612909836128d6565b61291d612915826128f7565b84845461287c565b825550505050565b5f90565b612931612925565b61293c818484612900565b505050565b5b8181101561295f576129545f82612929565b600181019050612942565b5050565b601f8211156129a45761297581611fd9565b61297e84612861565b8101602085101561298d578190505b6129a161299985612861565b830182612941565b50505b505050565b5f82821c905092915050565b5f6129c45f19846008026129a9565b1980831691505092915050565b5f6129dc83836129b5565b9150826002028217905092915050565b6129f582611be8565b67ffffffffffffffff811115612a0e57612a0d611d24565b5b612a188254611f9f565b612a23828285612963565b5f60209050601f831160018114612a54575f8415612a42578287015190505b612a4c85826129d1565b865550612ab3565b601f198416612a6286611fd9565b5f5b82811015612a8957848901518255600182019150602085019450602081019050612a64565b86831015612aa65784890151612aa2601f8916826129b5565b8355505b6001600288020188555050505b505050505050565b5f6040820190508181035f830152612ad38185611c20565b9050612ae26020830184611a4c565b9392505050565b7f4e487b71000000000000000000000000000000000000000000000000000000005f52601160045260245ffd5b5f612b208261197b565b91507fffffffffffffffffffffffffffffffffffffffffffffffffffffffffffffffff8203612b5257612b51612ae9565b5b600182019050919050565b5f612b678261197b565b9150612b728361197b565b9250828201905080821115612b8a57612b89612ae9565b5b92915050565b5f612b9a8261197b565b9150612ba58361197b565b9250828203905081811115612bbd57612bbc612ae9565b5b92915050565b5f612bcd8261197b565b9150612bd88361197b565b9250828202612be68161197b565b91508282048414831517612bfd57612bfc612ae9565b5b5092915050565b7f4e487b71000000000000000000000000000000000000000000000000000000005f52601260045260245ffd5b5f612c3b8261197b565b9150612c468361197b565b925082612c5657612c55612c04565b5b82820490509291505056fea2646970667358221220b0637a3b1fa337c35fb3b1e7db884322789a54c62e72c1ca7a32380d12111e6564736f6c63430008190033",
					"opcodes": "PUSH1 0x80 PUSH1 0x40 MSTORE CALLVALUE DUP1 ISZERO PUSH2 0xF JUMPI PUSH0 DUP1 REVERT JUMPDEST POP CALLER PUSH0 PUSH20 0xFFFFFFFFFFFFFFFFFFFFFFFFFFFFFFFFFFFFFFFF AND DUP2 PUSH20 0xFFFFFFFFFFFFFFFFFFFFFFFFFFFFFFFFFFFFFFFF AND SUB PUSH2 0x81 JUMPI PUSH0 PUSH1 0x40 MLOAD PUSH32 0x1E4FBDF700000000000000000000000000000000000000000000000000000000 DUP2 MSTORE PUSH1 0x4 ADD PUSH2 0x78 SWAP2 SWAP1 PUSH2 0x196 JUMP JUMPDEST PUSH1 0x40 MLOAD DUP1 SWAP2 SUB SWAP1 REVERT JUMPDEST PUSH2 0x90 DUP2 PUSH2 0x96 PUSH1 0x20 SHL PUSH1 0x20 SHR JUMP JUMPDEST POP PUSH2 0x1AF JUMP JUMPDEST PUSH0 DUP1 PUSH0 SWAP1 SLOAD SWAP1 PUSH2 0x100 EXP SWAP1 DIV PUSH20 0xFFFFFFFFFFFFFFFFFFFFFFFFFFFFFFFFFFFFFFFF AND SWAP1 POP DUP2 PUSH0 DUP1 PUSH2 0x100 EXP DUP2 SLOAD DUP2 PUSH20 0xFFFFFFFFFFFFFFFFFFFFFFFFFFFFFFFFFFFFFFFF MUL NOT AND SWAP1 DUP4 PUSH20 0xFFFFFFFFFFFFFFFFFFFFFFFFFFFFFFFFFFFFFFFF AND MUL OR SWAP1 SSTORE POP DUP2 PUSH20 0xFFFFFFFFFFFFFFFFFFFFFFFFFFFFFFFFFFFFFFFF AND DUP2 PUSH20 0xFFFFFFFFFFFFFFFFFFFFFFFFFFFFFFFFFFFFFFFF AND PUSH32 0x8BE0079C531659141344CD1FD0A4F28419497F9722A3DAAFE3B4186F6B6457E0 PUSH1 0x40 MLOAD PUSH1 0x40 MLOAD DUP1 SWAP2 SUB SWAP1 LOG3 POP POP JUMP JUMPDEST PUSH0 PUSH20 0xFFFFFFFFFFFFFFFFFFFFFFFFFFFFFFFFFFFFFFFF DUP3 AND SWAP1 POP SWAP2 SWAP1 POP JUMP JUMPDEST PUSH0 PUSH2 0x180 DUP3 PUSH2 0x157 JUMP JUMPDEST SWAP1 POP SWAP2 SWAP1 POP JUMP JUMPDEST PUSH2 0x190 DUP2 PUSH2 0x176 JUMP JUMPDEST DUP3 MSTORE POP POP JUMP JUMPDEST PUSH0 PUSH1 0x20 DUP3 ADD SWAP1 POP PUSH2 0x1A9 PUSH0 DUP4 ADD DUP5 PUSH2 0x187 JUMP JUMPDEST SWAP3 SWAP2 POP POP JUMP JUMPDEST PUSH2 0x2C97 DUP1 PUSH2 0x1BC PUSH0 CODECOPY PUSH0 RETURN INVALID PUSH1 0x80 PUSH1 0x40 MSTORE CALLVALUE DUP1 ISZERO PUSH2 0xF JUMPI PUSH0 DUP1 REVERT JUMPDEST POP PUSH1 0x4 CALLDATASIZE LT PUSH2 0xCD JUMPI PUSH0 CALLDATALOAD PUSH1 0xE0 SHR DUP1 PUSH4 0x715018A6 GT PUSH2 0x8A JUMPI DUP1 PUSH4 0x910A8DD2 GT PUSH2 0x64 JUMPI DUP1 PUSH4 0x910A8DD2 EQ PUSH2 0x209 JUMPI DUP1 PUSH4 0xA96F8668 EQ PUSH2 0x239 JUMPI DUP1 PUSH4 0xE393173E EQ PUSH2 0x243 JUMPI DUP1 PUSH4 0xF2FDE38B EQ PUSH2 0x25F JUMPI PUSH2 0xCD JUMP JUMPDEST DUP1 PUSH4 0x715018A6 EQ PUSH2 0x1B1 JUMPI DUP1 PUSH4 0x82134E7B EQ PUSH2 0x1BB JUMPI DUP1 PUSH4 0x8DA5CB5B EQ PUSH2 0x1EB JUMPI PUSH2 0xCD JUMP JUMPDEST DUP1 PUSH4 0xD61B519 EQ PUSH2 0xD1 JUMPI DUP1 PUSH4 0x15373E3D EQ PUSH2 0xED JUMPI DUP1 PUSH4 0x2AB09D14 EQ PUSH2 0x109 JUMPI DUP1 PUSH4 0x5783F8E7 EQ PUSH2 0x127 JUMPI DUP1 PUSH4 0x5DE9A137 EQ PUSH2 0x143 JUMPI DUP1 PUSH4 0x5DF81330 EQ PUSH2 0x179 JUMPI JUMPDEST PUSH0 DUP1 REVERT JUMPDEST PUSH2 0xEB PUSH1 0x4 DUP1 CALLDATASIZE SUB DUP2 ADD SWAP1 PUSH2 0xE6 SWAP2 SWAP1 PUSH2 0x19AE JUMP JUMPDEST PUSH2 0x27B JUMP JUMPDEST STOP JUMPDEST PUSH2 0x107 PUSH1 0x4 DUP1 CALLDATASIZE SUB DUP2 ADD SWAP1 PUSH2 0x102 SWAP2 SWAP1 PUSH2 0x1A0E JUMP JUMPDEST PUSH2 0x6F4 JUMP JUMPDEST STOP JUMPDEST PUSH2 0x111 PUSH2 0xBE1 JUMP JUMPDEST PUSH1 0x40 MLOAD PUSH2 0x11E SWAP2 SWAP1 PUSH2 0x1A5B JUMP JUMPDEST PUSH1 0x40 MLOAD DUP1 SWAP2 SUB SWAP1 RETURN JUMPDEST PUSH2 0x141 PUSH1 0x4 DUP1 CALLDATASIZE SUB DUP2 ADD SWAP1 PUSH2 0x13C SWAP2 SWAP1 PUSH2 0x1ACE JUMP JUMPDEST PUSH2 0xBE7 JUMP JUMPDEST STOP JUMPDEST PUSH2 0x15D PUSH1 0x4 DUP1 CALLDATASIZE SUB DUP2 ADD SWAP1 PUSH2 0x158 SWAP2 SWAP1 PUSH2 0x1B32 JUMP JUMPDEST PUSH2 0xF04 JUMP JUMPDEST PUSH1 0x40 MLOAD PUSH2 0x170 SWAP8 SWAP7 SWAP6 SWAP5 SWAP4 SWAP3 SWAP2 SWAP1 PUSH2 0x1B7B JUMP JUMPDEST PUSH1 0x40 MLOAD DUP1 SWAP2 SUB SWAP1 RETURN JUMPDEST PUSH2 0x193 PUSH1 0x4 DUP1 CALLDATASIZE SUB DUP2 ADD SWAP1 PUSH2 0x18E SWAP2 SWAP1 PUSH2 0x19AE JUMP JUMPDEST PUSH2 0xF6E JUMP JUMPDEST PUSH1 0x40 MLOAD PUSH2 0x1A8 SWAP10 SWAP9 SWAP8 SWAP7 SWAP6 SWAP5 SWAP4 SWAP3 SWAP2 SWAP1 PUSH2 0x1C58 JUMP JUMPDEST PUSH1 0x40 MLOAD DUP1 SWAP2 SUB SWAP1 RETURN JUMPDEST PUSH2 0x1B9 PUSH2 0x1069 JUMP JUMPDEST STOP JUMPDEST PUSH2 0x1D5 PUSH1 0x4 DUP1 CALLDATASIZE SUB DUP2 ADD SWAP1 PUSH2 0x1D0 SWAP2 SWAP1 PUSH2 0x1B32 JUMP JUMPDEST PUSH2 0x107C JUMP JUMPDEST PUSH1 0x40 MLOAD PUSH2 0x1E2 SWAP2 SWAP1 PUSH2 0x1CEA JUMP JUMPDEST PUSH1 0x40 MLOAD DUP1 SWAP2 SUB SWAP1 RETURN JUMPDEST PUSH2 0x1F3 PUSH2 0x1099 JUMP JUMPDEST PUSH1 0x40 MLOAD PUSH2 0x200 SWAP2 SWAP1 PUSH2 0x1D03 JUMP JUMPDEST PUSH1 0x40 MLOAD DUP1 SWAP2 SUB SWAP1 RETURN JUMPDEST PUSH2 0x223 PUSH1 0x4 DUP1 CALLDATASIZE SUB DUP2 ADD SWAP1 PUSH2 0x21E SWAP2 SWAP1 PUSH2 0x1B32 JUMP JUMPDEST PUSH2 0x10C0 JUMP JUMPDEST PUSH1 0x40 MLOAD PUSH2 0x230 SWAP2 SWAP1 PUSH2 0x1A5B JUMP JUMPDEST PUSH1 0x40 MLOAD DUP1 SWAP2 SUB SWAP1 RETURN JUMPDEST PUSH2 0x241 PUSH2 0x1123 JUMP JUMPDEST STOP JUMPDEST PUSH2 0x25D PUSH1 0x4 DUP1 CALLDATASIZE SUB DUP2 ADD SWAP1 PUSH2 0x258 SWAP2 SWAP1 PUSH2 0x1E48 JUMP JUMPDEST PUSH2 0x149F JUMP JUMPDEST STOP JUMPDEST PUSH2 0x279 PUSH1 0x4 DUP1 CALLDATASIZE SUB DUP2 ADD SWAP1 PUSH2 0x274 SWAP2 SWAP1 PUSH2 0x1B32 JUMP JUMPDEST PUSH2 0x1743 JUMP JUMPDEST STOP JUMPDEST PUSH0 PUSH1 0x2 PUSH0 DUP4 DUP2 MSTORE PUSH1 0x20 ADD SWAP1 DUP2 MSTORE PUSH1 0x20 ADD PUSH0 KECCAK256 SWAP1 POP DUP1 PUSH1 0x3 ADD SLOAD TIMESTAMP GT PUSH2 0x2D5 JUMPI PUSH1 0x40 MLOAD PUSH32 0x8C379A000000000000000000000000000000000000000000000000000000000 DUP2 MSTORE PUSH1 0x4 ADD PUSH2 0x2CC SWAP1 PUSH2 0x1EEC JUMP JUMPDEST PUSH1 0x40 MLOAD DUP1 SWAP2 SUB SWAP1 REVERT JUMPDEST DUP1 PUSH1 0x8 ADD PUSH0 SWAP1 SLOAD SWAP1 PUSH2 0x100 EXP SWAP1 DIV PUSH1 0xFF AND ISZERO PUSH2 0x326 JUMPI PUSH1 0x40 MLOAD PUSH32 0x8C379A000000000000000000000000000000000000000000000000000000000 DUP2 MSTORE PUSH1 0x4 ADD PUSH2 0x31D SWAP1 PUSH2 0x1F54 JUMP JUMPDEST PUSH1 0x40 MLOAD DUP1 SWAP2 SUB SWAP1 REVERT JUMPDEST DUP1 PUSH1 0x5 ADD SLOAD DUP2 PUSH1 0x4 ADD SLOAD GT ISZERO PUSH2 0x6A7 JUMPI PUSH32 0x585A6DC6F7E8656767705FA1B809EC2C27086762F615CDDDB3CD21888983B3E3 DUP2 PUSH1 0x6 ADD PUSH1 0x40 MLOAD PUSH1 0x20 ADD PUSH2 0x36B SWAP2 SWAP1 PUSH2 0x206B JUMP JUMPDEST PUSH1 0x40 MLOAD PUSH1 0x20 DUP2 DUP4 SUB SUB DUP2 MSTORE SWAP1 PUSH1 0x40 MSTORE DUP1 MLOAD SWAP1 PUSH1 0x20 ADD KECCAK256 SUB PUSH2 0x573 JUMPI PUSH0 PUSH1 0x3 PUSH0 DUP4 PUSH1 0x1 ADD PUSH0 SWAP1 SLOAD SWAP1 PUSH2 0x100 EXP SWAP1 DIV PUSH20 0xFFFFFFFFFFFFFFFFFFFFFFFFFFFFFFFFFFFFFFFF AND PUSH20 0xFFFFFFFFFFFFFFFFFFFFFFFFFFFFFFFFFFFFFFFF AND PUSH20 0xFFFFFFFFFFFFFFFFFFFFFFFFFFFFFFFFFFFFFFFF AND DUP2 MSTORE PUSH1 0x20 ADD SWAP1 DUP2 MSTORE PUSH1 0x20 ADD PUSH0 KECCAK256 SWAP1 POP DUP1 PUSH1 0x5 ADD PUSH0 SWAP1 SLOAD SWAP1 PUSH2 0x100 EXP SWAP1 DIV PUSH1 0xFF AND PUSH2 0x439 JUMPI PUSH1 0x40 MLOAD PUSH32 0x8C379A000000000000000000000000000000000000000000000000000000000 DUP2 MSTORE PUSH1 0x4 ADD PUSH2 0x430 SWAP1 PUSH2 0x20CB JUMP JUMPDEST PUSH1 0x40 MLOAD DUP1 SWAP2 SUB SWAP1 REVERT JUMPDEST PUSH2 0x454 DUP3 PUSH1 0x7 ADD SLOAD DUP3 PUSH1 0x1 ADD SLOAD PUSH2 0x17C7 SWAP1 SWAP2 SWAP1 PUSH4 0xFFFFFFFF AND JUMP JUMPDEST DUP2 PUSH1 0x1 ADD DUP2 SWAP1 SSTORE POP DUP1 PUSH0 ADD SLOAD DUP2 PUSH1 0x1 ADD SLOAD GT ISZERO PUSH2 0x4A6 JUMPI PUSH1 0x40 MLOAD PUSH32 0x8C379A000000000000000000000000000000000000000000000000000000000 DUP2 MSTORE PUSH1 0x4 ADD PUSH2 0x49D SWAP1 PUSH2 0x2133 JUMP JUMPDEST PUSH1 0x40 MLOAD DUP1 SWAP2 SUB SWAP1 REVERT JUMPDEST DUP1 PUSH1 0x5 ADD PUSH1 0x1 SWAP1 SLOAD SWAP1 PUSH2 0x100 EXP SWAP1 DIV PUSH20 0xFFFFFFFFFFFFFFFFFFFFFFFFFFFFFFFFFFFFFFFF AND PUSH20 0xFFFFFFFFFFFFFFFFFFFFFFFFFFFFFFFFFFFFFFFF AND PUSH4 0xA9059CBB DUP4 PUSH1 0x1 ADD PUSH0 SWAP1 SLOAD SWAP1 PUSH2 0x100 EXP SWAP1 DIV PUSH20 0xFFFFFFFFFFFFFFFFFFFFFFFFFFFFFFFFFFFFFFFF AND DUP5 PUSH1 0x7 ADD SLOAD PUSH1 0x40 MLOAD DUP4 PUSH4 0xFFFFFFFF AND PUSH1 0xE0 SHL DUP2 MSTORE PUSH1 0x4 ADD PUSH2 0x52C SWAP3 SWAP2 SWAP1 PUSH2 0x2151 JUMP JUMPDEST PUSH1 0x20 PUSH1 0x40 MLOAD DUP1 DUP4 SUB DUP2 PUSH0 DUP8 GAS CALL ISZERO DUP1 ISZERO PUSH2 0x548 JUMPI RETURNDATASIZE PUSH0 DUP1 RETURNDATACOPY RETURNDATASIZE PUSH0 REVERT JUMPDEST POP POP POP POP PUSH1 0x40 MLOAD RETURNDATASIZE PUSH1 0x1F NOT PUSH1 0x1F DUP3 ADD AND DUP3 ADD DUP1 PUSH1 0x40 MSTORE POP DUP2 ADD SWAP1 PUSH2 0x56C SWAP2 SWAP1 PUSH2 0x218C JUMP JUMPDEST POP POP PUSH2 0x6A6 JUMP JUMPDEST PUSH32 0xA99E074F7ED01ED29D2214DC7FA7597B09D83D0C921B513239F2A0CE30DCE124 DUP2 PUSH1 0x6 ADD PUSH1 0x40 MLOAD PUSH1 0x20 ADD PUSH2 0x5A8 SWAP2 SWAP1 PUSH2 0x206B JUMP JUMPDEST PUSH1 0x40 MLOAD PUSH1 0x20 DUP2 DUP4 SUB SUB DUP2 MSTORE SWAP1 PUSH1 0x40 MSTORE DUP1 MLOAD SWAP1 PUSH1 0x20 ADD KECCAK256 SUB PUSH2 0x6A5 JUMPI PUSH2 0x63D DUP2 PUSH1 0x7 ADD SLOAD PUSH1 0x3 PUSH0 DUP5 PUSH1 0x1 ADD PUSH0 SWAP1 SLOAD SWAP1 PUSH2 0x100 EXP SWAP1 DIV PUSH20 0xFFFFFFFFFFFFFFFFFFFFFFFFFFFFFFFFFFFFFFFF AND PUSH20 0xFFFFFFFFFFFFFFFFFFFFFFFFFFFFFFFFFFFFFFFF AND PUSH20 0xFFFFFFFFFFFFFFFFFFFFFFFFFFFFFFFFFFFFFFFF AND DUP2 MSTORE PUSH1 0x20 ADD SWAP1 DUP2 MSTORE PUSH1 0x20 ADD PUSH0 KECCAK256 PUSH1 0x3 ADD SLOAD PUSH2 0x17C7 SWAP1 SWAP2 SWAP1 PUSH4 0xFFFFFFFF AND JUMP JUMPDEST PUSH1 0x3 PUSH0 DUP4 PUSH1 0x1 ADD PUSH0 SWAP1 SLOAD SWAP1 PUSH2 0x100 EXP SWAP1 DIV PUSH20 0xFFFFFFFFFFFFFFFFFFFFFFFFFFFFFFFFFFFFFFFF AND PUSH20 0xFFFFFFFFFFFFFFFFFFFFFFFFFFFFFFFFFFFFFFFF AND PUSH20 0xFFFFFFFFFFFFFFFFFFFFFFFFFFFFFFFFFFFFFFFF AND DUP2 MSTORE PUSH1 0x20 ADD SWAP1 DUP2 MSTORE PUSH1 0x20 ADD PUSH0 KECCAK256 PUSH1 0x3 ADD DUP2 SWAP1 SSTORE POP JUMPDEST JUMPDEST JUMPDEST PUSH1 0x1 DUP2 PUSH1 0x8 ADD PUSH0 PUSH2 0x100 EXP DUP2 SLOAD DUP2 PUSH1 0xFF MUL NOT AND SWAP1 DUP4 ISZERO ISZERO MUL OR SWAP1 SSTORE POP DUP2 PUSH32 0x712AE1383F79AC853F8D882153778E0260EF8F03B504E2866E0593E04D2B291F PUSH1 0x40 MLOAD PUSH1 0x40 MLOAD DUP1 SWAP2 SUB SWAP1 LOG2 POP POP JUMP JUMPDEST PUSH0 PUSH1 0x2 PUSH0 DUP5 DUP2 MSTORE PUSH1 0x20 ADD SWAP1 DUP2 MSTORE PUSH1 0x20 ADD PUSH0 KECCAK256 SWAP1 POP DUP1 PUSH1 0x2 ADD SLOAD TIMESTAMP LT ISZERO PUSH2 0x74F JUMPI PUSH1 0x40 MLOAD PUSH32 0x8C379A000000000000000000000000000000000000000000000000000000000 DUP2 MSTORE PUSH1 0x4 ADD PUSH2 0x746 SWAP1 PUSH2 0x2201 JUMP JUMPDEST PUSH1 0x40 MLOAD DUP1 SWAP2 SUB SWAP1 REVERT JUMPDEST DUP1 PUSH1 0x3 ADD SLOAD TIMESTAMP GT ISZERO PUSH2 0x796 JUMPI PUSH1 0x40 MLOAD PUSH32 0x8C379A000000000000000000000000000000000000000000000000000000000 DUP2 MSTORE PUSH1 0x4 ADD PUSH2 0x78D SWAP1 PUSH2 0x2269 JUMP JUMPDEST PUSH1 0x40 MLOAD DUP1 SWAP2 SUB SWAP1 REVERT JUMPDEST DUP1 PUSH1 0x9 ADD PUSH0 CALLER PUSH20 0xFFFFFFFFFFFFFFFFFFFFFFFFFFFFFFFFFFFFFFFF AND PUSH20 0xFFFFFFFFFFFFFFFFFFFFFFFFFFFFFFFFFFFFFFFF AND DUP2 MSTORE PUSH1 0x20 ADD SWAP1 DUP2 MSTORE PUSH1 0x20 ADD PUSH0 KECCAK256 PUSH0 SWAP1 SLOAD SWAP1 PUSH2 0x100 EXP SWAP1 DIV PUSH1 0xFF AND ISZERO PUSH2 0x822 JUMPI PUSH1 0x40 MLOAD PUSH32 0x8C379A000000000000000000000000000000000000000000000000000000000 DUP2 MSTORE PUSH1 0x4 ADD PUSH2 0x819 SWAP1 PUSH2 0x22D1 JUMP JUMPDEST PUSH1 0x40 MLOAD DUP1 SWAP2 SUB SWAP1 REVERT JUMPDEST PUSH0 PUSH1 0x3 PUSH0 CALLER PUSH20 0xFFFFFFFFFFFFFFFFFFFFFFFFFFFFFFFFFFFFFFFF AND PUSH20 0xFFFFFFFFFFFFFFFFFFFFFFFFFFFFFFFFFFFFFFFF AND DUP2 MSTORE PUSH1 0x20 ADD SWAP1 DUP2 MSTORE PUSH1 0x20 ADD PUSH0 KECCAK256 PUSH1 0x5 ADD PUSH1 0x1 SWAP1 SLOAD SWAP1 PUSH2 0x100 EXP SWAP1 DIV PUSH20 0xFFFFFFFFFFFFFFFFFFFFFFFFFFFFFFFFFFFFFFFF AND PUSH20 0xFFFFFFFFFFFFFFFFFFFFFFFFFFFFFFFFFFFFFFFF AND PUSH4 0x70A08231 CALLER PUSH1 0x40 MLOAD DUP3 PUSH4 0xFFFFFFFF AND PUSH1 0xE0 SHL DUP2 MSTORE PUSH1 0x4 ADD PUSH2 0x8BC SWAP2 SWAP1 PUSH2 0x1D03 JUMP JUMPDEST PUSH1 0x20 PUSH1 0x40 MLOAD DUP1 DUP4 SUB DUP2 DUP7 GAS STATICCALL ISZERO DUP1 ISZERO PUSH2 0x8D7 JUMPI RETURNDATASIZE PUSH0 DUP1 RETURNDATACOPY RETURNDATASIZE PUSH0 REVERT JUMPDEST POP POP POP POP PUSH1 0x40 MLOAD RETURNDATASIZE PUSH1 0x1F NOT PUSH1 0x1F DUP3 ADD AND DUP3 ADD DUP1 PUSH1 0x40 MSTORE POP DUP2 ADD SWAP1 PUSH2 0x8FB SWAP2 SWAP1 PUSH2 0x2303 JUMP JUMPDEST SWAP1 POP PUSH0 PUSH2 0x990 PUSH1 0x3 PUSH0 CALLER PUSH20 0xFFFFFFFFFFFFFFFFFFFFFFFFFFFFFFFFFFFFFFFF AND PUSH20 0xFFFFFFFFFFFFFFFFFFFFFFFFFFFFFFFFFFFFFFFF AND DUP2 MSTORE PUSH1 0x20 ADD SWAP1 DUP2 MSTORE PUSH1 0x20 ADD PUSH0 KECCAK256 PUSH1 0x1 ADD SLOAD PUSH1 0x3 PUSH0 CALLER PUSH20 0xFFFFFFFFFFFFFFFFFFFFFFFFFFFFFFFFFFFFFFFF AND PUSH20 0xFFFFFFFFFFFFFFFFFFFFFFFFFFFFFFFFFFFFFFFF AND DUP2 MSTORE PUSH1 0x20 ADD SWAP1 DUP2 MSTORE PUSH1 0x20 ADD PUSH0 KECCAK256 PUSH0 ADD SLOAD PUSH2 0x17DC SWAP1 SWAP2 SWAP1 PUSH4 0xFFFFFFFF AND JUMP JUMPDEST SWAP1 POP PUSH0 PUSH2 0xA72 DUP3 PUSH1 0x3 PUSH0 CALLER PUSH20 0xFFFFFFFFFFFFFFFFFFFFFFFFFFFFFFFFFFFFFFFF AND PUSH20 0xFFFFFFFFFFFFFFFFFFFFFFFFFFFFFFFFFFFFFFFF AND DUP2 MSTORE PUSH1 0x20 ADD SWAP1 DUP2 MSTORE PUSH1 0x20 ADD PUSH0 KECCAK256 PUSH1 0x5 ADD PUSH1 0x1 SWAP1 SLOAD SWAP1 PUSH2 0x100 EXP SWAP1 DIV PUSH20 0xFFFFFFFFFFFFFFFFFFFFFFFFFFFFFFFFFFFFFFFF AND PUSH20 0xFFFFFFFFFFFFFFFFFFFFFFFFFFFFFFFFFFFFFFFF AND PUSH4 0x18160DDD PUSH1 0x40 MLOAD DUP2 PUSH4 0xFFFFFFFF AND PUSH1 0xE0 SHL DUP2 MSTORE PUSH1 0x4 ADD PUSH1 0x20 PUSH1 0x40 MLOAD DUP1 DUP4 SUB DUP2 DUP7 GAS STATICCALL ISZERO DUP1 ISZERO PUSH2 0xA40 JUMPI RETURNDATASIZE PUSH0 DUP1 RETURNDATACOPY RETURNDATASIZE PUSH0 REVERT JUMPDEST POP POP POP POP PUSH1 0x40 MLOAD RETURNDATASIZE PUSH1 0x1F NOT PUSH1 0x1F DUP3 ADD AND DUP3 ADD DUP1 PUSH1 0x40 MSTORE POP DUP2 ADD SWAP1 PUSH2 0xA64 SWAP2 SWAP1 PUSH2 0x2303 JUMP JUMPDEST PUSH2 0x17DC SWAP1 SWAP2 SWAP1 PUSH4 0xFFFFFFFF AND JUMP JUMPDEST SWAP1 POP PUSH0 PUSH2 0xAA2 DUP3 PUSH2 0xA94 PUSH8 0xDE0B6B3A7640000 DUP8 PUSH2 0x17F1 SWAP1 SWAP2 SWAP1 PUSH4 0xFFFFFFFF AND JUMP JUMPDEST PUSH2 0x1806 SWAP1 SWAP2 SWAP1 PUSH4 0xFFFFFFFF AND JUMP JUMPDEST SWAP1 POP PUSH0 DUP2 GT PUSH2 0xAE6 JUMPI PUSH1 0x40 MLOAD PUSH32 0x8C379A000000000000000000000000000000000000000000000000000000000 DUP2 MSTORE PUSH1 0x4 ADD PUSH2 0xADD SWAP1 PUSH2 0x2378 JUMP JUMPDEST PUSH1 0x40 MLOAD DUP1 SWAP2 SUB SWAP1 REVERT JUMPDEST DUP6 ISZERO PUSH2 0xB10 JUMPI PUSH2 0xB03 DUP2 DUP7 PUSH1 0x4 ADD SLOAD PUSH2 0x17C7 SWAP1 SWAP2 SWAP1 PUSH4 0xFFFFFFFF AND JUMP JUMPDEST DUP6 PUSH1 0x4 ADD DUP2 SWAP1 SSTORE POP PUSH2 0xB30 JUMP JUMPDEST PUSH2 0xB27 DUP2 DUP7 PUSH1 0x5 ADD SLOAD PUSH2 0x17C7 SWAP1 SWAP2 SWAP1 PUSH4 0xFFFFFFFF AND JUMP JUMPDEST DUP6 PUSH1 0x5 ADD DUP2 SWAP1 SSTORE POP JUMPDEST PUSH1 0x1 DUP6 PUSH1 0x9 ADD PUSH0 CALLER PUSH20 0xFFFFFFFFFFFFFFFFFFFFFFFFFFFFFFFFFFFFFFFF AND PUSH20 0xFFFFFFFFFFFFFFFFFFFFFFFFFFFFFFFFFFFFFFFF AND DUP2 MSTORE PUSH1 0x20 ADD SWAP1 DUP2 MSTORE PUSH1 0x20 ADD PUSH0 KECCAK256 PUSH0 PUSH2 0x100 EXP DUP2 SLOAD DUP2 PUSH1 0xFF MUL NOT AND SWAP1 DUP4 ISZERO ISZERO MUL OR SWAP1 SSTORE POP CALLER PUSH20 0xFFFFFFFFFFFFFFFFFFFFFFFFFFFFFFFFFFFFFFFF AND DUP8 PUSH32 0xCBDF6214089CBA887ECBF35A0B6A734589959C9763342C756BB2A80CA2BC9F6E DUP9 DUP5 PUSH1 0x40 MLOAD PUSH2 0xBD0 SWAP3 SWAP2 SWAP1 PUSH2 0x2396 JUMP JUMPDEST PUSH1 0x40 MLOAD DUP1 SWAP2 SUB SWAP1 LOG3 POP POP POP POP POP POP POP JUMP JUMPDEST PUSH1 0x1 SLOAD DUP2 JUMP JUMPDEST PUSH0 DUP4 GT PUSH2 0xC29 JUMPI PUSH1 0x40 MLOAD PUSH32 0x8C379A000000000000000000000000000000000000000000000000000000000 DUP2 MSTORE PUSH1 0x4 ADD PUSH2 0xC20 SWAP1 PUSH2 0x2407 JUMP JUMPDEST PUSH1 0x40 MLOAD DUP1 SWAP2 SUB SWAP1 REVERT JUMPDEST PUSH3 0xED4E00 DUP3 LT ISZERO PUSH2 0xC6F JUMPI PUSH1 0x40 MLOAD PUSH32 0x8C379A000000000000000000000000000000000000000000000000000000000 DUP2 MSTORE PUSH1 0x4 ADD PUSH2 0xC66 SWAP1 PUSH2 0x2495 JUMP JUMPDEST PUSH1 0x40 MLOAD DUP1 SWAP2 SUB SWAP1 REVERT JUMPDEST PUSH0 DUP2 LT ISZERO PUSH2 0xCB2 JUMPI PUSH1 0x40 MLOAD PUSH32 0x8C379A000000000000000000000000000000000000000000000000000000000 DUP2 MSTORE PUSH1 0x4 ADD PUSH2 0xCA9 SWAP1 PUSH2 0x2523 JUMP JUMPDEST PUSH1 0x40 MLOAD DUP1 SWAP2 SUB SWAP1 REVERT JUMPDEST PUSH0 DUP5 SWAP1 POP DUP1 PUSH20 0xFFFFFFFFFFFFFFFFFFFFFFFFFFFFFFFFFFFFFFFF AND PUSH4 0x23B872DD CALLER ADDRESS DUP8 PUSH1 0x40 MLOAD DUP5 PUSH4 0xFFFFFFFF AND PUSH1 0xE0 SHL DUP2 MSTORE PUSH1 0x4 ADD PUSH2 0xCF3 SWAP4 SWAP3 SWAP2 SWAP1 PUSH2 0x2541 JUMP JUMPDEST PUSH1 0x20 PUSH1 0x40 MLOAD DUP1 DUP4 SUB DUP2 PUSH0 DUP8 GAS CALL ISZERO DUP1 ISZERO PUSH2 0xD0F JUMPI RETURNDATASIZE PUSH0 DUP1 RETURNDATACOPY RETURNDATASIZE PUSH0 REVERT JUMPDEST POP POP POP POP PUSH1 0x40 MLOAD RETURNDATASIZE PUSH1 0x1F NOT PUSH1 0x1F DUP3 ADD AND DUP3 ADD DUP1 PUSH1 0x40 MSTORE POP DUP2 ADD SWAP1 PUSH2 0xD33 SWAP2 SWAP1 PUSH2 0x218C JUMP JUMPDEST PUSH2 0xD72 JUMPI PUSH1 0x40 MLOAD PUSH32 0x8C379A000000000000000000000000000000000000000000000000000000000 DUP2 MSTORE PUSH1 0x4 ADD PUSH2 0xD69 SWAP1 PUSH2 0x25C0 JUMP JUMPDEST PUSH1 0x40 MLOAD DUP1 SWAP2 SUB SWAP1 REVERT JUMPDEST PUSH1 0x40 MLOAD DUP1 PUSH1 0xE0 ADD PUSH1 0x40 MSTORE DUP1 DUP6 DUP2 MSTORE PUSH1 0x20 ADD PUSH0 DUP2 MSTORE PUSH1 0x20 ADD TIMESTAMP DUP2 MSTORE PUSH1 0x20 ADD DUP5 DUP2 MSTORE PUSH1 0x20 ADD DUP4 DUP2 MSTORE PUSH1 0x20 ADD PUSH1 0x1 ISZERO ISZERO DUP2 MSTORE PUSH1 0x20 ADD DUP7 PUSH20 0xFFFFFFFFFFFFFFFFFFFFFFFFFFFFFFFFFFFFFFFF AND DUP2 MSTORE POP PUSH1 0x3 PUSH0 CALLER PUSH20 0xFFFFFFFFFFFFFFFFFFFFFFFFFFFFFFFFFFFFFFFF AND PUSH20 0xFFFFFFFFFFFFFFFFFFFFFFFFFFFFFFFFFFFFFFFF AND DUP2 MSTORE PUSH1 0x20 ADD SWAP1 DUP2 MSTORE PUSH1 0x20 ADD PUSH0 KECCAK256 PUSH0 DUP3 ADD MLOAD DUP2 PUSH0 ADD SSTORE PUSH1 0x20 DUP3 ADD MLOAD DUP2 PUSH1 0x1 ADD SSTORE PUSH1 0x40 DUP3 ADD MLOAD DUP2 PUSH1 0x2 ADD SSTORE PUSH1 0x60 DUP3 ADD MLOAD DUP2 PUSH1 0x3 ADD SSTORE PUSH1 0x80 DUP3 ADD MLOAD DUP2 PUSH1 0x4 ADD SSTORE PUSH1 0xA0 DUP3 ADD MLOAD DUP2 PUSH1 0x5 ADD PUSH0 PUSH2 0x100 EXP DUP2 SLOAD DUP2 PUSH1 0xFF MUL NOT AND SWAP1 DUP4 ISZERO ISZERO MUL OR SWAP1 SSTORE POP PUSH1 0xC0 DUP3 ADD MLOAD DUP2 PUSH1 0x5 ADD PUSH1 0x1 PUSH2 0x100 EXP DUP2 SLOAD DUP2 PUSH20 0xFFFFFFFFFFFFFFFFFFFFFFFFFFFFFFFFFFFFFFFF MUL NOT AND SWAP1 DUP4 PUSH20 0xFFFFFFFFFFFFFFFFFFFFFFFFFFFFFFFFFFFFFFFF AND MUL OR SWAP1 SSTORE POP SWAP1 POP POP DUP5 PUSH20 0xFFFFFFFFFFFFFFFFFFFFFFFFFFFFFFFFFFFFFFFF AND CALLER PUSH20 0xFFFFFFFFFFFFFFFFFFFFFFFFFFFFFFFFFFFFFFFF AND PUSH32 0xA6782D3322ABBFBE850E6D5C5C78E8E1DF603EA07608BB9A62DD83F40D4FECCC DUP7 DUP7 DUP7 PUSH1 0x40 MLOAD PUSH2 0xEF5 SWAP4 SWAP3 SWAP2 SWAP1 PUSH2 0x25DE JUMP JUMPDEST PUSH1 0x40 MLOAD DUP1 SWAP2 SUB SWAP1 LOG3 POP POP POP POP POP JUMP JUMPDEST PUSH1 0x3 PUSH1 0x20 MSTORE DUP1 PUSH0 MSTORE PUSH1 0x40 PUSH0 KECCAK256 PUSH0 SWAP2 POP SWAP1 POP DUP1 PUSH0 ADD SLOAD SWAP1 DUP1 PUSH1 0x1 ADD SLOAD SWAP1 DUP1 PUSH1 0x2 ADD SLOAD SWAP1 DUP1 PUSH1 0x3 ADD SLOAD SWAP1 DUP1 PUSH1 0x4 ADD SLOAD SWAP1 DUP1 PUSH1 0x5 ADD PUSH0 SWAP1 SLOAD SWAP1 PUSH2 0x100 EXP SWAP1 DIV PUSH1 0xFF AND SWAP1 DUP1 PUSH1 0x5 ADD PUSH1 0x1 SWAP1 SLOAD SWAP1 PUSH2 0x100 EXP SWAP1 DIV PUSH20 0xFFFFFFFFFFFFFFFFFFFFFFFFFFFFFFFFFFFFFFFF AND SWAP1 POP DUP8 JUMP JUMPDEST PUSH1 0x2 PUSH1 0x20 MSTORE DUP1 PUSH0 MSTORE PUSH1 0x40 PUSH0 KECCAK256 PUSH0 SWAP2 POP SWAP1 POP DUP1 PUSH0 ADD SLOAD SWAP1 DUP1 PUSH1 0x1 ADD PUSH0 SWAP1 SLOAD SWAP1 PUSH2 0x100 EXP SWAP1 DIV PUSH20 0xFFFFFFFFFFFFFFFFFFFFFFFFFFFFFFFFFFFFFFFF AND SWAP1 DUP1 PUSH1 0x2 ADD SLOAD SWAP1 DUP1 PUSH1 0x3 ADD SLOAD SWAP1 DUP1 PUSH1 0x4 ADD SLOAD SWAP1 DUP1 PUSH1 0x5 ADD SLOAD SWAP1 DUP1 PUSH1 0x6 ADD DUP1 SLOAD PUSH2 0xFD0 SWAP1 PUSH2 0x1F9F JUMP JUMPDEST DUP1 PUSH1 0x1F ADD PUSH1 0x20 DUP1 SWAP2 DIV MUL PUSH1 0x20 ADD PUSH1 0x40 MLOAD SWAP1 DUP2 ADD PUSH1 0x40 MSTORE DUP1 SWAP3 SWAP2 SWAP1 DUP2 DUP2 MSTORE PUSH1 0x20 ADD DUP3 DUP1 SLOAD PUSH2 0xFFC SWAP1 PUSH2 0x1F9F JUMP JUMPDEST DUP1 ISZERO PUSH2 0x1047 JUMPI DUP1 PUSH1 0x1F LT PUSH2 0x101E JUMPI PUSH2 0x100 DUP1 DUP4 SLOAD DIV MUL DUP4 MSTORE SWAP2 PUSH1 0x20 ADD SWAP2 PUSH2 0x1047 JUMP JUMPDEST DUP3 ADD SWAP2 SWAP1 PUSH0 MSTORE PUSH1 0x20 PUSH0 KECCAK256 SWAP1 JUMPDEST DUP2 SLOAD DUP2 MSTORE SWAP1 PUSH1 0x1 ADD SWAP1 PUSH1 0x20 ADD DUP1 DUP4 GT PUSH2 0x102A JUMPI DUP3 SWAP1 SUB PUSH1 0x1F AND DUP3 ADD SWAP2 JUMPDEST POP POP POP POP POP SWAP1 DUP1 PUSH1 0x7 ADD SLOAD SWAP1 DUP1 PUSH1 0x8 ADD PUSH0 SWAP1 SLOAD SWAP1 PUSH2 0x100 EXP SWAP1 DIV PUSH1 0xFF AND SWAP1 POP DUP10 JUMP JUMPDEST PUSH2 0x1071 PUSH2 0x181B JUMP JUMPDEST PUSH2 0x107A PUSH0 PUSH2 0x18A2 JUMP JUMPDEST JUMP JUMPDEST PUSH1 0x4 PUSH1 0x20 MSTORE DUP1 PUSH0 MSTORE PUSH1 0x40 PUSH0 KECCAK256 PUSH0 SWAP2 POP SLOAD SWAP1 PUSH2 0x100 EXP SWAP1 DIV PUSH1 0xFF AND DUP2 JUMP JUMPDEST PUSH0 DUP1 PUSH0 SWAP1 SLOAD SWAP1 PUSH2 0x100 EXP SWAP1 DIV PUSH20 0xFFFFFFFFFFFFFFFFFFFFFFFFFFFFFFFFFFFFFFFF AND SWAP1 POP SWAP1 JUMP JUMPDEST PUSH0 DUP1 PUSH1 0x3 PUSH0 DUP5 PUSH20 0xFFFFFFFFFFFFFFFFFFFFFFFFFFFFFFFFFFFFFFFF AND PUSH20 0xFFFFFFFFFFFFFFFFFFFFFFFFFFFFFFFFFFFFFFFF AND DUP2 MSTORE PUSH1 0x20 ADD SWAP1 DUP2 MSTORE PUSH1 0x20 ADD PUSH0 KECCAK256 SWAP1 POP PUSH2 0x111B DUP2 PUSH1 0x1 ADD SLOAD DUP3 PUSH0 ADD SLOAD PUSH2 0x17DC SWAP1 SWAP2 SWAP1 PUSH4 0xFFFFFFFF AND JUMP JUMPDEST SWAP2 POP POP SWAP2 SWAP1 POP JUMP JUMPDEST CALLER PUSH1 0x3 PUSH0 DUP3 PUSH20 0xFFFFFFFFFFFFFFFFFFFFFFFFFFFFFFFFFFFFFFFF AND PUSH20 0xFFFFFFFFFFFFFFFFFFFFFFFFFFFFFFFFFFFFFFFF AND DUP2 MSTORE PUSH1 0x20 ADD SWAP1 DUP2 MSTORE PUSH1 0x20 ADD PUSH0 KECCAK256 PUSH1 0x5 ADD PUSH0 SWAP1 SLOAD SWAP1 PUSH2 0x100 EXP SWAP1 DIV PUSH1 0xFF AND PUSH2 0x11B0 JUMPI PUSH1 0x40 MLOAD PUSH32 0x8C379A000000000000000000000000000000000000000000000000000000000 DUP2 MSTORE PUSH1 0x4 ADD PUSH2 0x11A7 SWAP1 PUSH2 0x265D JUMP JUMPDEST PUSH1 0x40 MLOAD DUP1 SWAP2 SUB SWAP1 REVERT JUMPDEST PUSH0 PUSH1 0x3 PUSH0 CALLER PUSH20 0xFFFFFFFFFFFFFFFFFFFFFFFFFFFFFFFFFFFFFFFF AND PUSH20 0xFFFFFFFFFFFFFFFFFFFFFFFFFFFFFFFFFFFFFFFF AND DUP2 MSTORE PUSH1 0x20 ADD SWAP1 DUP2 MSTORE PUSH1 0x20 ADD PUSH0 KECCAK256 SWAP1 POP PUSH2 0x120B DUP2 PUSH1 0x3 ADD SLOAD DUP3 PUSH1 0x2 ADD SLOAD PUSH2 0x17C7 SWAP1 SWAP2 SWAP1 PUSH4 0xFFFFFFFF AND JUMP JUMPDEST TIMESTAMP LT ISZERO PUSH2 0x124D JUMPI PUSH1 0x40 MLOAD PUSH32 0x8C379A000000000000000000000000000000000000000000000000000000000 DUP2 MSTORE PUSH1 0x4 ADD PUSH2 0x1244 SWAP1 PUSH2 0x26C5 JUMP JUMPDEST PUSH1 0x40 MLOAD DUP1 SWAP2 SUB SWAP1 REVERT JUMPDEST PUSH0 PUSH2 0x127B PUSH2 0x126C DUP4 PUSH1 0x3 ADD SLOAD DUP5 PUSH1 0x2 ADD SLOAD PUSH2 0x17C7 SWAP1 SWAP2 SWAP1 PUSH4 0xFFFFFFFF AND JUMP JUMPDEST TIMESTAMP PUSH2 0x17DC SWAP1 SWAP2 SWAP1 PUSH4 0xFFFFFFFF AND JUMP JUMPDEST SWAP1 POP PUSH0 PUSH2 0x12AF DUP4 PUSH1 0x4 ADD SLOAD PUSH2 0x12A1 DUP6 PUSH1 0x3 ADD SLOAD DUP7 PUSH1 0x2 ADD SLOAD PUSH2 0x17C7 SWAP1 SWAP2 SWAP1 PUSH4 0xFFFFFFFF AND JUMP JUMPDEST PUSH2 0x17C7 SWAP1 SWAP2 SWAP1 PUSH4 0xFFFFFFFF AND JUMP JUMPDEST SWAP1 POP PUSH0 DUP2 TIMESTAMP LT PUSH2 0x12DA JUMPI PUSH2 0x12D3 DUP5 PUSH1 0x1 ADD SLOAD DUP6 PUSH0 ADD SLOAD PUSH2 0x17DC SWAP1 SWAP2 SWAP1 PUSH4 0xFFFFFFFF AND JUMP JUMPDEST SWAP1 POP PUSH2 0x131F JUMP JUMPDEST PUSH2 0x131C DUP5 PUSH1 0x1 ADD SLOAD PUSH2 0x130E DUP7 PUSH1 0x4 ADD SLOAD PUSH2 0x1300 DUP8 DUP10 PUSH0 ADD SLOAD PUSH2 0x17F1 SWAP1 SWAP2 SWAP1 PUSH4 0xFFFFFFFF AND JUMP JUMPDEST PUSH2 0x1806 SWAP1 SWAP2 SWAP1 PUSH4 0xFFFFFFFF AND JUMP JUMPDEST PUSH2 0x17DC SWAP1 SWAP2 SWAP1 PUSH4 0xFFFFFFFF AND JUMP JUMPDEST SWAP1 POP JUMPDEST PUSH0 DUP2 GT PUSH2 0x1361 JUMPI PUSH1 0x40 MLOAD PUSH32 0x8C379A000000000000000000000000000000000000000000000000000000000 DUP2 MSTORE PUSH1 0x4 ADD PUSH2 0x1358 SWAP1 PUSH2 0x272D JUMP JUMPDEST PUSH1 0x40 MLOAD DUP1 SWAP2 SUB SWAP1 REVERT JUMPDEST PUSH2 0x1378 DUP2 DUP6 PUSH1 0x1 ADD SLOAD PUSH2 0x17C7 SWAP1 SWAP2 SWAP1 PUSH4 0xFFFFFFFF AND JUMP JUMPDEST DUP5 PUSH1 0x1 ADD DUP2 SWAP1 SSTORE POP DUP4 PUSH1 0x5 ADD PUSH1 0x1 SWAP1 SLOAD SWAP1 PUSH2 0x100 EXP SWAP1 DIV PUSH20 0xFFFFFFFFFFFFFFFFFFFFFFFFFFFFFFFFFFFFFFFF AND PUSH20 0xFFFFFFFFFFFFFFFFFFFFFFFFFFFFFFFFFFFFFFFF AND PUSH4 0xA9059CBB CALLER DUP4 PUSH1 0x40 MLOAD DUP4 PUSH4 0xFFFFFFFF AND PUSH1 0xE0 SHL DUP2 MSTORE PUSH1 0x4 ADD PUSH2 0x13DF SWAP3 SWAP2 SWAP1 PUSH2 0x2151 JUMP JUMPDEST PUSH1 0x20 PUSH1 0x40 MLOAD DUP1 DUP4 SUB DUP2 PUSH0 DUP8 GAS CALL ISZERO DUP1 ISZERO PUSH2 0x13FB JUMPI RETURNDATASIZE PUSH0 DUP1 RETURNDATACOPY RETURNDATASIZE PUSH0 REVERT JUMPDEST POP POP POP POP PUSH1 0x40 MLOAD RETURNDATASIZE PUSH1 0x1F NOT PUSH1 0x1F DUP3 ADD AND DUP3 ADD DUP1 PUSH1 0x40 MSTORE POP DUP2 ADD SWAP1 PUSH2 0x141F SWAP2 SWAP1 PUSH2 0x218C JUMP JUMPDEST POP CALLER PUSH20 0xFFFFFFFFFFFFFFFFFFFFFFFFFFFFFFFFFFFFFFFF AND PUSH32 0xC7798891864187665AC6DD119286E44EC13F014527AEEB2B8EB3FD413DF93179 DUP3 PUSH1 0x40 MLOAD PUSH2 0x1466 SWAP2 SWAP1 PUSH2 0x1A5B JUMP JUMPDEST PUSH1 0x40 MLOAD DUP1 SWAP2 SUB SWAP1 LOG2 DUP4 PUSH0 ADD SLOAD DUP5 PUSH1 0x1 ADD SLOAD SUB PUSH2 0x1498 JUMPI PUSH0 DUP5 PUSH1 0x5 ADD PUSH0 PUSH2 0x100 EXP DUP2 SLOAD DUP2 PUSH1 0xFF MUL NOT AND SWAP1 DUP4 ISZERO ISZERO MUL OR SWAP1 SSTORE POP JUMPDEST POP POP POP POP POP JUMP JUMPDEST PUSH1 0x3 PUSH0 CALLER PUSH20 0xFFFFFFFFFFFFFFFFFFFFFFFFFFFFFFFFFFFFFFFF AND PUSH20 0xFFFFFFFFFFFFFFFFFFFFFFFFFFFFFFFFFFFFFFFF AND DUP2 MSTORE PUSH1 0x20 ADD SWAP1 DUP2 MSTORE PUSH1 0x20 ADD PUSH0 KECCAK256 PUSH1 0x5 ADD PUSH0 SWAP1 SLOAD SWAP1 PUSH2 0x100 EXP SWAP1 DIV PUSH1 0xFF AND PUSH2 0x152B JUMPI PUSH1 0x40 MLOAD PUSH32 0x8C379A000000000000000000000000000000000000000000000000000000000 DUP2 MSTORE PUSH1 0x4 ADD PUSH2 0x1522 SWAP1 PUSH2 0x2795 JUMP JUMPDEST PUSH1 0x40 MLOAD DUP1 SWAP2 SUB SWAP1 REVERT JUMPDEST PUSH32 0x585A6DC6F7E8656767705FA1B809EC2C27086762F615CDDDB3CD21888983B3E3 DUP3 PUSH1 0x40 MLOAD PUSH1 0x20 ADD PUSH2 0x155D SWAP2 SWAP1 PUSH2 0x27E3 JUMP JUMPDEST PUSH1 0x40 MLOAD PUSH1 0x20 DUP2 DUP4 SUB SUB DUP2 MSTORE SWAP1 PUSH1 0x40 MSTORE DUP1 MLOAD SWAP1 PUSH1 0x20 ADD KECCAK256 EQ DUP1 PUSH2 0x15C4 JUMPI POP PUSH32 0xA99E074F7ED01ED29D2214DC7FA7597B09D83D0C921B513239F2A0CE30DCE124 DUP3 PUSH1 0x40 MLOAD PUSH1 0x20 ADD PUSH2 0x15AC SWAP2 SWAP1 PUSH2 0x27E3 JUMP JUMPDEST PUSH1 0x40 MLOAD PUSH1 0x20 DUP2 DUP4 SUB SUB DUP2 MSTORE SWAP1 PUSH1 0x40 MSTORE DUP1 MLOAD SWAP1 PUSH1 0x20 ADD KECCAK256 EQ JUMPDEST PUSH2 0x1603 JUMPI PUSH1 0x40 MLOAD PUSH32 0x8C379A000000000000000000000000000000000000000000000000000000000 DUP2 MSTORE PUSH1 0x4 ADD PUSH2 0x15FA SWAP1 PUSH2 0x2843 JUMP JUMPDEST PUSH1 0x40 MLOAD DUP1 SWAP2 SUB SWAP1 REVERT JUMPDEST PUSH0 PUSH1 0x2 PUSH0 PUSH1 0x1 SLOAD DUP2 MSTORE PUSH1 0x20 ADD SWAP1 DUP2 MSTORE PUSH1 0x20 ADD PUSH0 KECCAK256 SWAP1 POP PUSH1 0x1 SLOAD DUP2 PUSH0 ADD DUP2 SWAP1 SSTORE POP CALLER DUP2 PUSH1 0x1 ADD PUSH0 PUSH2 0x100 EXP DUP2 SLOAD DUP2 PUSH20 0xFFFFFFFFFFFFFFFFFFFFFFFFFFFFFFFFFFFFFFFF MUL NOT AND SWAP1 DUP4 PUSH20 0xFFFFFFFFFFFFFFFFFFFFFFFFFFFFFFFFFFFFFFFF AND MUL OR SWAP1 SSTORE POP TIMESTAMP DUP2 PUSH1 0x2 ADD DUP2 SWAP1 SSTORE POP PUSH2 0x1684 PUSH3 0x93A80 TIMESTAMP PUSH2 0x17C7 SWAP1 SWAP2 SWAP1 PUSH4 0xFFFFFFFF AND JUMP JUMPDEST DUP2 PUSH1 0x3 ADD DUP2 SWAP1 SSTORE POP PUSH0 DUP2 PUSH1 0x4 ADD DUP2 SWAP1 SSTORE POP PUSH0 DUP2 PUSH1 0x5 ADD DUP2 SWAP1 SSTORE POP DUP3 DUP2 PUSH1 0x6 ADD SWAP1 DUP2 PUSH2 0x16AF SWAP2 SWAP1 PUSH2 0x29EC JUMP JUMPDEST POP DUP2 DUP2 PUSH1 0x7 ADD DUP2 SWAP1 SSTORE POP PUSH0 DUP2 PUSH1 0x8 ADD PUSH0 PUSH2 0x100 EXP DUP2 SLOAD DUP2 PUSH1 0xFF MUL NOT AND SWAP1 DUP4 ISZERO ISZERO MUL OR SWAP1 SSTORE POP CALLER PUSH20 0xFFFFFFFFFFFFFFFFFFFFFFFFFFFFFFFFFFFFFFFF AND PUSH1 0x1 SLOAD PUSH32 0x98120A6AAA04295520AB4E01C6C1235DD316E822CC9FF31DB7B3F197366D18BD DUP6 DUP6 PUSH1 0x40 MLOAD PUSH2 0x171F SWAP3 SWAP2 SWAP1 PUSH2 0x2ABB JUMP JUMPDEST PUSH1 0x40 MLOAD DUP1 SWAP2 SUB SWAP1 LOG3 PUSH1 0x1 PUSH0 DUP2 SLOAD DUP1 SWAP3 SWAP2 SWAP1 PUSH2 0x1739 SWAP1 PUSH2 0x2B16 JUMP JUMPDEST SWAP2 SWAP1 POP SSTORE POP POP POP POP JUMP JUMPDEST PUSH2 0x174B PUSH2 0x181B JUMP JUMPDEST PUSH0 PUSH20 0xFFFFFFFFFFFFFFFFFFFFFFFFFFFFFFFFFFFFFFFF AND DUP2 PUSH20 0xFFFFFFFFFFFFFFFFFFFFFFFFFFFFFFFFFFFFFFFF AND SUB PUSH2 0x17BB JUMPI PUSH0 PUSH1 0x40 MLOAD PUSH32 0x1E4FBDF700000000000000000000000000000000000000000000000000000000 DUP2 MSTORE PUSH1 0x4 ADD PUSH2 0x17B2 SWAP2 SWAP1 PUSH2 0x1D03 JUMP JUMPDEST PUSH1 0x40 MLOAD DUP1 SWAP2 SUB SWAP1 REVERT JUMPDEST PUSH2 0x17C4 DUP2 PUSH2 0x18A2 JUMP JUMPDEST POP JUMP JUMPDEST PUSH0 DUP2 DUP4 PUSH2 0x17D4 SWAP2 SWAP1 PUSH2 0x2B5D JUMP JUMPDEST SWAP1 POP SWAP3 SWAP2 POP POP JUMP JUMPDEST PUSH0 DUP2 DUP4 PUSH2 0x17E9 SWAP2 SWAP1 PUSH2 0x2B90 JUMP JUMPDEST SWAP1 POP SWAP3 SWAP2 POP POP JUMP JUMPDEST PUSH0 DUP2 DUP4 PUSH2 0x17FE SWAP2 SWAP1 PUSH2 0x2BC3 JUMP JUMPDEST SWAP1 POP SWAP3 SWAP2 POP POP JUMP JUMPDEST PUSH0 DUP2 DUP4 PUSH2 0x1813 SWAP2 SWAP1 PUSH2 0x2C31 JUMP JUMPDEST SWAP1 POP SWAP3 SWAP2 POP POP JUMP JUMPDEST PUSH2 0x1823 PUSH2 0x1963 JUMP JUMPDEST PUSH20 0xFFFFFFFFFFFFFFFFFFFFFFFFFFFFFFFFFFFFFFFF AND PUSH2 0x1841 PUSH2 0x1099 JUMP JUMPDEST PUSH20 0xFFFFFFFFFFFFFFFFFFFFFFFFFFFFFFFFFFFFFFFF AND EQ PUSH2 0x18A0 JUMPI PUSH2 0x1864 PUSH2 0x1963 JUMP JUMPDEST PUSH1 0x40 MLOAD PUSH32 0x118CDAA700000000000000000000000000000000000000000000000000000000 DUP2 MSTORE PUSH1 0x4 ADD PUSH2 0x1897 SWAP2 SWAP1 PUSH2 0x1D03 JUMP JUMPDEST PUSH1 0x40 MLOAD DUP1 SWAP2 SUB SWAP1 REVERT JUMPDEST JUMP JUMPDEST PUSH0 DUP1 PUSH0 SWAP1 SLOAD SWAP1 PUSH2 0x100 EXP SWAP1 DIV PUSH20 0xFFFFFFFFFFFFFFFFFFFFFFFFFFFFFFFFFFFFFFFF AND SWAP1 POP DUP2 PUSH0 DUP1 PUSH2 0x100 EXP DUP2 SLOAD DUP2 PUSH20 0xFFFFFFFFFFFFFFFFFFFFFFFFFFFFFFFFFFFFFFFF MUL NOT AND SWAP1 DUP4 PUSH20 0xFFFFFFFFFFFFFFFFFFFFFFFFFFFFFFFFFFFFFFFF AND MUL OR SWAP1 SSTORE POP DUP2 PUSH20 0xFFFFFFFFFFFFFFFFFFFFFFFFFFFFFFFFFFFFFFFF AND DUP2 PUSH20 0xFFFFFFFFFFFFFFFFFFFFFFFFFFFFFFFFFFFFFFFF AND PUSH32 0x8BE0079C531659141344CD1FD0A4F28419497F9722A3DAAFE3B4186F6B6457E0 PUSH1 0x40 MLOAD PUSH1 0x40 MLOAD DUP1 SWAP2 SUB SWAP1 LOG3 POP POP JUMP JUMPDEST PUSH0 CALLER SWAP1 POP SWAP1 JUMP JUMPDEST PUSH0 PUSH1 0x40 MLOAD SWAP1 POP SWAP1 JUMP JUMPDEST PUSH0 DUP1 REVERT JUMPDEST PUSH0 DUP1 REVERT JUMPDEST PUSH0 DUP2 SWAP1 POP SWAP2 SWAP1 POP JUMP JUMPDEST PUSH2 0x198D DUP2 PUSH2 0x197B JUMP JUMPDEST DUP2 EQ PUSH2 0x1997 JUMPI PUSH0 DUP1 REVERT JUMPDEST POP JUMP JUMPDEST PUSH0 DUP2 CALLDATALOAD SWAP1 POP PUSH2 0x19A8 DUP2 PUSH2 0x1984 JUMP JUMPDEST SWAP3 SWAP2 POP POP JUMP JUMPDEST PUSH0 PUSH1 0x20 DUP3 DUP5 SUB SLT ISZERO PUSH2 0x19C3 JUMPI PUSH2 0x19C2 PUSH2 0x1973 JUMP JUMPDEST JUMPDEST PUSH0 PUSH2 0x19D0 DUP5 DUP3 DUP6 ADD PUSH2 0x199A JUMP JUMPDEST SWAP2 POP POP SWAP3 SWAP2 POP POP JUMP JUMPDEST PUSH0 DUP2 ISZERO ISZERO SWAP1 POP SWAP2 SWAP1 POP JUMP JUMPDEST PUSH2 0x19ED DUP2 PUSH2 0x19D9 JUMP JUMPDEST DUP2 EQ PUSH2 0x19F7 JUMPI PUSH0 DUP1 REVERT JUMPDEST POP JUMP JUMPDEST PUSH0 DUP2 CALLDATALOAD SWAP1 POP PUSH2 0x1A08 DUP2 PUSH2 0x19E4 JUMP JUMPDEST SWAP3 SWAP2 POP POP JUMP JUMPDEST PUSH0 DUP1 PUSH1 0x40 DUP4 DUP6 SUB SLT ISZERO PUSH2 0x1A24 JUMPI PUSH2 0x1A23 PUSH2 0x1973 JUMP JUMPDEST JUMPDEST PUSH0 PUSH2 0x1A31 DUP6 DUP3 DUP7 ADD PUSH2 0x199A JUMP JUMPDEST SWAP3 POP POP PUSH1 0x20 PUSH2 0x1A42 DUP6 DUP3 DUP7 ADD PUSH2 0x19FA JUMP JUMPDEST SWAP2 POP POP SWAP3 POP SWAP3 SWAP1 POP JUMP JUMPDEST PUSH2 0x1A55 DUP2 PUSH2 0x197B JUMP JUMPDEST DUP3 MSTORE POP POP JUMP JUMPDEST PUSH0 PUSH1 0x20 DUP3 ADD SWAP1 POP PUSH2 0x1A6E PUSH0 DUP4 ADD DUP5 PUSH2 0x1A4C JUMP JUMPDEST SWAP3 SWAP2 POP POP JUMP JUMPDEST PUSH0 PUSH20 0xFFFFFFFFFFFFFFFFFFFFFFFFFFFFFFFFFFFFFFFF DUP3 AND SWAP1 POP SWAP2 SWAP1 POP JUMP JUMPDEST PUSH0 PUSH2 0x1A9D DUP3 PUSH2 0x1A74 JUMP JUMPDEST SWAP1 POP SWAP2 SWAP1 POP JUMP JUMPDEST PUSH2 0x1AAD DUP2 PUSH2 0x1A93 JUMP JUMPDEST DUP2 EQ PUSH2 0x1AB7 JUMPI PUSH0 DUP1 REVERT JUMPDEST POP JUMP JUMPDEST PUSH0 DUP2 CALLDATALOAD SWAP1 POP PUSH2 0x1AC8 DUP2 PUSH2 0x1AA4 JUMP JUMPDEST SWAP3 SWAP2 POP POP JUMP JUMPDEST PUSH0 DUP1 PUSH0 DUP1 PUSH1 0x80 DUP6 DUP8 SUB SLT ISZERO PUSH2 0x1AE6 JUMPI PUSH2 0x1AE5 PUSH2 0x1973 JUMP JUMPDEST JUMPDEST PUSH0 PUSH2 0x1AF3 DUP8 DUP3 DUP9 ADD PUSH2 0x1ABA JUMP JUMPDEST SWAP5 POP POP PUSH1 0x20 PUSH2 0x1B04 DUP8 DUP3 DUP9 ADD PUSH2 0x199A JUMP JUMPDEST SWAP4 POP POP PUSH1 0x40 PUSH2 0x1B15 DUP8 DUP3 DUP9 ADD PUSH2 0x199A JUMP JUMPDEST SWAP3 POP POP PUSH1 0x60 PUSH2 0x1B26 DUP8 DUP3 DUP9 ADD PUSH2 0x199A JUMP JUMPDEST SWAP2 POP POP SWAP3 SWAP6 SWAP2 SWAP5 POP SWAP3 POP JUMP JUMPDEST PUSH0 PUSH1 0x20 DUP3 DUP5 SUB SLT ISZERO PUSH2 0x1B47 JUMPI PUSH2 0x1B46 PUSH2 0x1973 JUMP JUMPDEST JUMPDEST PUSH0 PUSH2 0x1B54 DUP5 DUP3 DUP6 ADD PUSH2 0x1ABA JUMP JUMPDEST SWAP2 POP POP SWAP3 SWAP2 POP POP JUMP JUMPDEST PUSH2 0x1B66 DUP2 PUSH2 0x19D9 JUMP JUMPDEST DUP3 MSTORE POP POP JUMP JUMPDEST PUSH2 0x1B75 DUP2 PUSH2 0x1A93 JUMP JUMPDEST DUP3 MSTORE POP POP JUMP JUMPDEST PUSH0 PUSH1 0xE0 DUP3 ADD SWAP1 POP PUSH2 0x1B8E PUSH0 DUP4 ADD DUP11 PUSH2 0x1A4C JUMP JUMPDEST PUSH2 0x1B9B PUSH1 0x20 DUP4 ADD DUP10 PUSH2 0x1A4C JUMP JUMPDEST PUSH2 0x1BA8 PUSH1 0x40 DUP4 ADD DUP9 PUSH2 0x1A4C JUMP JUMPDEST PUSH2 0x1BB5 PUSH1 0x60 DUP4 ADD DUP8 PUSH2 0x1A4C JUMP JUMPDEST PUSH2 0x1BC2 PUSH1 0x80 DUP4 ADD DUP7 PUSH2 0x1A4C JUMP JUMPDEST PUSH2 0x1BCF PUSH1 0xA0 DUP4 ADD DUP6 PUSH2 0x1B5D JUMP JUMPDEST PUSH2 0x1BDC PUSH1 0xC0 DUP4 ADD DUP5 PUSH2 0x1B6C JUMP JUMPDEST SWAP9 SWAP8 POP POP POP POP POP POP POP POP JUMP JUMPDEST PUSH0 DUP2 MLOAD SWAP1 POP SWAP2 SWAP1 POP JUMP JUMPDEST PUSH0 DUP3 DUP3 MSTORE PUSH1 0x20 DUP3 ADD SWAP1 POP SWAP3 SWAP2 POP POP JUMP JUMPDEST DUP3 DUP2 DUP4 MCOPY PUSH0 DUP4 DUP4 ADD MSTORE POP POP POP JUMP JUMPDEST PUSH0 PUSH1 0x1F NOT PUSH1 0x1F DUP4 ADD AND SWAP1 POP SWAP2 SWAP1 POP JUMP JUMPDEST PUSH0 PUSH2 0x1C2A DUP3 PUSH2 0x1BE8 JUMP JUMPDEST PUSH2 0x1C34 DUP2 DUP6 PUSH2 0x1BF2 JUMP JUMPDEST SWAP4 POP PUSH2 0x1C44 DUP2 DUP6 PUSH1 0x20 DUP7 ADD PUSH2 0x1C02 JUMP JUMPDEST PUSH2 0x1C4D DUP2 PUSH2 0x1C10 JUMP JUMPDEST DUP5 ADD SWAP2 POP POP SWAP3 SWAP2 POP POP JUMP JUMPDEST PUSH0 PUSH2 0x120 DUP3 ADD SWAP1 POP PUSH2 0x1C6C PUSH0 DUP4 ADD DUP13 PUSH2 0x1A4C JUMP JUMPDEST PUSH2 0x1C79 PUSH1 0x20 DUP4 ADD DUP12 PUSH2 0x1B6C JUMP JUMPDEST PUSH2 0x1C86 PUSH1 0x40 DUP4 ADD DUP11 PUSH2 0x1A4C JUMP JUMPDEST PUSH2 0x1C93 PUSH1 0x60 DUP4 ADD DUP10 PUSH2 0x1A4C JUMP JUMPDEST PUSH2 0x1CA0 PUSH1 0x80 DUP4 ADD DUP9 PUSH2 0x1A4C JUMP JUMPDEST PUSH2 0x1CAD PUSH1 0xA0 DUP4 ADD DUP8 PUSH2 0x1A4C JUMP JUMPDEST DUP2 DUP2 SUB PUSH1 0xC0 DUP4 ADD MSTORE PUSH2 0x1CBF DUP2 DUP7 PUSH2 0x1C20 JUMP JUMPDEST SWAP1 POP PUSH2 0x1CCE PUSH1 0xE0 DUP4 ADD DUP6 PUSH2 0x1A4C JUMP JUMPDEST PUSH2 0x1CDC PUSH2 0x100 DUP4 ADD DUP5 PUSH2 0x1B5D JUMP JUMPDEST SWAP11 SWAP10 POP POP POP POP POP POP POP POP POP POP JUMP JUMPDEST PUSH0 PUSH1 0x20 DUP3 ADD SWAP1 POP PUSH2 0x1CFD PUSH0 DUP4 ADD DUP5 PUSH2 0x1B5D JUMP JUMPDEST SWAP3 SWAP2 POP POP JUMP JUMPDEST PUSH0 PUSH1 0x20 DUP3 ADD SWAP1 POP PUSH2 0x1D16 PUSH0 DUP4 ADD DUP5 PUSH2 0x1B6C JUMP JUMPDEST SWAP3 SWAP2 POP POP JUMP JUMPDEST PUSH0 DUP1 REVERT JUMPDEST PUSH0 DUP1 REVERT JUMPDEST PUSH32 0x4E487B7100000000000000000000000000000000000000000000000000000000 PUSH0 MSTORE PUSH1 0x41 PUSH1 0x4 MSTORE PUSH1 0x24 PUSH0 REVERT JUMPDEST PUSH2 0x1D5A DUP3 PUSH2 0x1C10 JUMP JUMPDEST DUP2 ADD DUP2 DUP2 LT PUSH8 0xFFFFFFFFFFFFFFFF DUP3 GT OR ISZERO PUSH2 0x1D79 JUMPI PUSH2 0x1D78 PUSH2 0x1D24 JUMP JUMPDEST JUMPDEST DUP1 PUSH1 0x40 MSTORE POP POP POP JUMP JUMPDEST PUSH0 PUSH2 0x1D8B PUSH2 0x196A JUMP JUMPDEST SWAP1 POP PUSH2 0x1D97 DUP3 DUP3 PUSH2 0x1D51 JUMP JUMPDEST SWAP2 SWAP1 POP JUMP JUMPDEST PUSH0 PUSH8 0xFFFFFFFFFFFFFFFF DUP3 GT ISZERO PUSH2 0x1DB6 JUMPI PUSH2 0x1DB5 PUSH2 0x1D24 JUMP JUMPDEST JUMPDEST PUSH2 0x1DBF DUP3 PUSH2 0x1C10 JUMP JUMPDEST SWAP1 POP PUSH1 0x20 DUP2 ADD SWAP1 POP SWAP2 SWAP1 POP JUMP JUMPDEST DUP3 DUP2 DUP4 CALLDATACOPY PUSH0 DUP4 DUP4 ADD MSTORE POP POP POP JUMP JUMPDEST PUSH0 PUSH2 0x1DEC PUSH2 0x1DE7 DUP5 PUSH2 0x1D9C JUMP JUMPDEST PUSH2 0x1D82 JUMP JUMPDEST SWAP1 POP DUP3 DUP2 MSTORE PUSH1 0x20 DUP2 ADD DUP5 DUP5 DUP5 ADD GT ISZERO PUSH2 0x1E08 JUMPI PUSH2 0x1E07 PUSH2 0x1D20 JUMP JUMPDEST JUMPDEST PUSH2 0x1E13 DUP5 DUP3 DUP6 PUSH2 0x1DCC JUMP JUMPDEST POP SWAP4 SWAP3 POP POP POP JUMP JUMPDEST PUSH0 DUP3 PUSH1 0x1F DUP4 ADD SLT PUSH2 0x1E2F JUMPI PUSH2 0x1E2E PUSH2 0x1D1C JUMP JUMPDEST JUMPDEST DUP2 CALLDATALOAD PUSH2 0x1E3F DUP5 DUP3 PUSH1 0x20 DUP7 ADD PUSH2 0x1DDA JUMP JUMPDEST SWAP2 POP POP SWAP3 SWAP2 POP POP JUMP JUMPDEST PUSH0 DUP1 PUSH1 0x40 DUP4 DUP6 SUB SLT ISZERO PUSH2 0x1E5E JUMPI PUSH2 0x1E5D PUSH2 0x1973 JUMP JUMPDEST JUMPDEST PUSH0 DUP4 ADD CALLDATALOAD PUSH8 0xFFFFFFFFFFFFFFFF DUP2 GT ISZERO PUSH2 0x1E7B JUMPI PUSH2 0x1E7A PUSH2 0x1977 JUMP JUMPDEST JUMPDEST PUSH2 0x1E87 DUP6 DUP3 DUP7 ADD PUSH2 0x1E1B JUMP JUMPDEST SWAP3 POP POP PUSH1 0x20 PUSH2 0x1E98 DUP6 DUP3 DUP7 ADD PUSH2 0x199A JUMP JUMPDEST SWAP2 POP POP SWAP3 POP SWAP3 SWAP1 POP JUMP JUMPDEST PUSH32 0x566F74696E6720706572696F64206E6F74206F76657200000000000000000000 PUSH0 DUP3 ADD MSTORE POP JUMP JUMPDEST PUSH0 PUSH2 0x1ED6 PUSH1 0x16 DUP4 PUSH2 0x1BF2 JUMP JUMPDEST SWAP2 POP PUSH2 0x1EE1 DUP3 PUSH2 0x1EA2 JUMP JUMPDEST PUSH1 0x20 DUP3 ADD SWAP1 POP SWAP2 SWAP1 POP JUMP JUMPDEST PUSH0 PUSH1 0x20 DUP3 ADD SWAP1 POP DUP2 DUP2 SUB PUSH0 DUP4 ADD MSTORE PUSH2 0x1F03 DUP2 PUSH2 0x1ECA JUMP JUMPDEST SWAP1 POP SWAP2 SWAP1 POP JUMP JUMPDEST PUSH32 0x50726F706F73616C20616C726561647920657865637574656400000000000000 PUSH0 DUP3 ADD MSTORE POP JUMP JUMPDEST PUSH0 PUSH2 0x1F3E PUSH1 0x19 DUP4 PUSH2 0x1BF2 JUMP JUMPDEST SWAP2 POP PUSH2 0x1F49 DUP3 PUSH2 0x1F0A JUMP JUMPDEST PUSH1 0x20 DUP3 ADD SWAP1 POP SWAP2 SWAP1 POP JUMP JUMPDEST PUSH0 PUSH1 0x20 DUP3 ADD SWAP1 POP DUP2 DUP2 SUB PUSH0 DUP4 ADD MSTORE PUSH2 0x1F6B DUP2 PUSH2 0x1F32 JUMP JUMPDEST SWAP1 POP SWAP2 SWAP1 POP JUMP JUMPDEST PUSH32 0x4E487B7100000000000000000000000000000000000000000000000000000000 PUSH0 MSTORE PUSH1 0x22 PUSH1 0x4 MSTORE PUSH1 0x24 PUSH0 REVERT JUMPDEST PUSH0 PUSH1 0x2 DUP3 DIV SWAP1 POP PUSH1 0x1 DUP3 AND DUP1 PUSH2 0x1FB6 JUMPI PUSH1 0x7F DUP3 AND SWAP2 POP JUMPDEST PUSH1 0x20 DUP3 LT DUP2 SUB PUSH2 0x1FC9 JUMPI PUSH2 0x1FC8 PUSH2 0x1F72 JUMP JUMPDEST JUMPDEST POP SWAP2 SWAP1 POP JUMP JUMPDEST PUSH0 DUP2 SWAP1 POP SWAP3 SWAP2 POP POP JUMP JUMPDEST PUSH0 DUP2 SWAP1 POP DUP2 PUSH0 MSTORE PUSH1 0x20 PUSH0 KECCAK256 SWAP1 POP SWAP2 SWAP1 POP JUMP JUMPDEST PUSH0 DUP2 SLOAD PUSH2 0x1FF7 DUP2 PUSH2 0x1F9F JUMP JUMPDEST PUSH2 0x2001 DUP2 DUP7 PUSH2 0x1FCF JUMP JUMPDEST SWAP5 POP PUSH1 0x1 DUP3 AND PUSH0 DUP2 EQ PUSH2 0x201B JUMPI PUSH1 0x1 DUP2 EQ PUSH2 0x2030 JUMPI PUSH2 0x2062 JUMP JUMPDEST PUSH1 0xFF NOT DUP4 AND DUP7 MSTORE DUP2 ISZERO ISZERO DUP3 MUL DUP7 ADD SWAP4 POP PUSH2 0x2062 JUMP JUMPDEST PUSH2 0x2039 DUP6 PUSH2 0x1FD9 JUMP JUMPDEST PUSH0 JUMPDEST DUP4 DUP2 LT ISZERO PUSH2 0x205A JUMPI DUP2 SLOAD DUP2 DUP10 ADD MSTORE PUSH1 0x1 DUP3 ADD SWAP2 POP PUSH1 0x20 DUP2 ADD SWAP1 POP PUSH2 0x203B JUMP JUMPDEST DUP4 DUP9 ADD SWAP6 POP POP POP JUMPDEST POP POP POP SWAP3 SWAP2 POP POP JUMP JUMPDEST PUSH0 PUSH2 0x2076 DUP3 DUP5 PUSH2 0x1FEB JUMP JUMPDEST SWAP2 POP DUP2 SWAP1 POP SWAP3 SWAP2 POP POP JUMP JUMPDEST PUSH32 0x4E6F20616374697665206C6F636B000000000000000000000000000000000000 PUSH0 DUP3 ADD MSTORE POP JUMP JUMPDEST PUSH0 PUSH2 0x20B5 PUSH1 0xE DUP4 PUSH2 0x1BF2 JUMP JUMPDEST SWAP2 POP PUSH2 0x20C0 DUP3 PUSH2 0x2081 JUMP JUMPDEST PUSH1 0x20 DUP3 ADD SWAP1 POP SWAP2 SWAP1 POP JUMP JUMPDEST PUSH0 PUSH1 0x20 DUP3 ADD SWAP1 POP DUP2 DUP2 SUB PUSH0 DUP4 ADD MSTORE PUSH2 0x20E2 DUP2 PUSH2 0x20A9 JUMP JUMPDEST SWAP1 POP SWAP2 SWAP1 POP JUMP JUMPDEST PUSH32 0x4578636565647320746F74616C206C6F636B656420616D6F756E740000000000 PUSH0 DUP3 ADD MSTORE POP JUMP JUMPDEST PUSH0 PUSH2 0x211D PUSH1 0x1B DUP4 PUSH2 0x1BF2 JUMP JUMPDEST SWAP2 POP PUSH2 0x2128 DUP3 PUSH2 0x20E9 JUMP JUMPDEST PUSH1 0x20 DUP3 ADD SWAP1 POP SWAP2 SWAP1 POP JUMP JUMPDEST PUSH0 PUSH1 0x20 DUP3 ADD SWAP1 POP DUP2 DUP2 SUB PUSH0 DUP4 ADD MSTORE PUSH2 0x214A DUP2 PUSH2 0x2111 JUMP JUMPDEST SWAP1 POP SWAP2 SWAP1 POP JUMP JUMPDEST PUSH0 PUSH1 0x40 DUP3 ADD SWAP1 POP PUSH2 0x2164 PUSH0 DUP4 ADD DUP6 PUSH2 0x1B6C JUMP JUMPDEST PUSH2 0x2171 PUSH1 0x20 DUP4 ADD DUP5 PUSH2 0x1A4C JUMP JUMPDEST SWAP4 SWAP3 POP POP POP JUMP JUMPDEST PUSH0 DUP2 MLOAD SWAP1 POP PUSH2 0x2186 DUP2 PUSH2 0x19E4 JUMP JUMPDEST SWAP3 SWAP2 POP POP JUMP JUMPDEST PUSH0 PUSH1 0x20 DUP3 DUP5 SUB SLT ISZERO PUSH2 0x21A1 JUMPI PUSH2 0x21A0 PUSH2 0x1973 JUMP JUMPDEST JUMPDEST PUSH0 PUSH2 0x21AE DUP5 DUP3 DUP6 ADD PUSH2 0x2178 JUMP JUMPDEST SWAP2 POP POP SWAP3 SWAP2 POP POP JUMP JUMPDEST PUSH32 0x566F74696E6720686173206E6F74207374617274656400000000000000000000 PUSH0 DUP3 ADD MSTORE POP JUMP JUMPDEST PUSH0 PUSH2 0x21EB PUSH1 0x16 DUP4 PUSH2 0x1BF2 JUMP JUMPDEST SWAP2 POP PUSH2 0x21F6 DUP3 PUSH2 0x21B7 JUMP JUMPDEST PUSH1 0x20 DUP3 ADD SWAP1 POP SWAP2 SWAP1 POP JUMP JUMPDEST PUSH0 PUSH1 0x20 DUP3 ADD SWAP1 POP DUP2 DUP2 SUB PUSH0 DUP4 ADD MSTORE PUSH2 0x2218 DUP2 PUSH2 0x21DF JUMP JUMPDEST SWAP1 POP SWAP2 SWAP1 POP JUMP JUMPDEST PUSH32 0x566F74696E672068617320656E64656400000000000000000000000000000000 PUSH0 DUP3 ADD MSTORE POP JUMP JUMPDEST PUSH0 PUSH2 0x2253 PUSH1 0x10 DUP4 PUSH2 0x1BF2 JUMP JUMPDEST SWAP2 POP PUSH2 0x225E DUP3 PUSH2 0x221F JUMP JUMPDEST PUSH1 0x20 DUP3 ADD SWAP1 POP SWAP2 SWAP1 POP JUMP JUMPDEST PUSH0 PUSH1 0x20 DUP3 ADD SWAP1 POP DUP2 DUP2 SUB PUSH0 DUP4 ADD MSTORE PUSH2 0x2280 DUP2 PUSH2 0x2247 JUMP JUMPDEST SWAP1 POP SWAP2 SWAP1 POP JUMP JUMPDEST PUSH32 0x416C726561647920766F74656400000000000000000000000000000000000000 PUSH0 DUP3 ADD MSTORE POP JUMP JUMPDEST PUSH0 PUSH2 0x22BB PUSH1 0xD DUP4 PUSH2 0x1BF2 JUMP JUMPDEST SWAP2 POP PUSH2 0x22C6 DUP3 PUSH2 0x2287 JUMP JUMPDEST PUSH1 0x20 DUP3 ADD SWAP1 POP SWAP2 SWAP1 POP JUMP JUMPDEST PUSH0 PUSH1 0x20 DUP3 ADD SWAP1 POP DUP2 DUP2 SUB PUSH0 DUP4 ADD MSTORE PUSH2 0x22E8 DUP2 PUSH2 0x22AF JUMP JUMPDEST SWAP1 POP SWAP2 SWAP1 POP JUMP JUMPDEST PUSH0 DUP2 MLOAD SWAP1 POP PUSH2 0x22FD DUP2 PUSH2 0x1984 JUMP JUMPDEST SWAP3 SWAP2 POP POP JUMP JUMPDEST PUSH0 PUSH1 0x20 DUP3 DUP5 SUB SLT ISZERO PUSH2 0x2318 JUMPI PUSH2 0x2317 PUSH2 0x1973 JUMP JUMPDEST JUMPDEST PUSH0 PUSH2 0x2325 DUP5 DUP3 DUP6 ADD PUSH2 0x22EF JUMP JUMPDEST SWAP2 POP POP SWAP3 SWAP2 POP POP JUMP JUMPDEST PUSH32 0x4E6F20766F74696E6720706F7765720000000000000000000000000000000000 PUSH0 DUP3 ADD MSTORE POP JUMP JUMPDEST PUSH0 PUSH2 0x2362 PUSH1 0xF DUP4 PUSH2 0x1BF2 JUMP JUMPDEST SWAP2 POP PUSH2 0x236D DUP3 PUSH2 0x232E JUMP JUMPDEST PUSH1 0x20 DUP3 ADD SWAP1 POP SWAP2 SWAP1 POP JUMP JUMPDEST PUSH0 PUSH1 0x20 DUP3 ADD SWAP1 POP DUP2 DUP2 SUB PUSH0 DUP4 ADD MSTORE PUSH2 0x238F DUP2 PUSH2 0x2356 JUMP JUMPDEST SWAP1 POP SWAP2 SWAP1 POP JUMP JUMPDEST PUSH0 PUSH1 0x40 DUP3 ADD SWAP1 POP PUSH2 0x23A9 PUSH0 DUP4 ADD DUP6 PUSH2 0x1B5D JUMP JUMPDEST PUSH2 0x23B6 PUSH1 0x20 DUP4 ADD DUP5 PUSH2 0x1A4C JUMP JUMPDEST SWAP4 SWAP3 POP POP POP JUMP JUMPDEST PUSH32 0x416D6F756E74206D7573742062652067726561746572207468616E207A65726F PUSH0 DUP3 ADD MSTORE POP JUMP JUMPDEST PUSH0 PUSH2 0x23F1 PUSH1 0x20 DUP4 PUSH2 0x1BF2 JUMP JUMPDEST SWAP2 POP PUSH2 0x23FC DUP3 PUSH2 0x23BD JUMP JUMPDEST PUSH1 0x20 DUP3 ADD SWAP1 POP SWAP2 SWAP1 POP JUMP JUMPDEST PUSH0 PUSH1 0x20 DUP3 ADD SWAP1 POP DUP2 DUP2 SUB PUSH0 DUP4 ADD MSTORE PUSH2 0x241E DUP2 PUSH2 0x23E5 JUMP JUMPDEST SWAP1 POP SWAP2 SWAP1 POP JUMP JUMPDEST PUSH32 0x4C6F636B206475726174696F6E206D757374206265206174206C656173742036 PUSH0 DUP3 ADD MSTORE PUSH32 0x206D6F6E74687300000000000000000000000000000000000000000000000000 PUSH1 0x20 DUP3 ADD MSTORE POP JUMP JUMPDEST PUSH0 PUSH2 0x247F PUSH1 0x27 DUP4 PUSH2 0x1BF2 JUMP JUMPDEST SWAP2 POP PUSH2 0x248A DUP3 PUSH2 0x2425 JUMP JUMPDEST PUSH1 0x40 DUP3 ADD SWAP1 POP SWAP2 SWAP1 POP JUMP JUMPDEST PUSH0 PUSH1 0x20 DUP3 ADD SWAP1 POP DUP2 DUP2 SUB PUSH0 DUP4 ADD MSTORE PUSH2 0x24AC DUP2 PUSH2 0x2473 JUMP JUMPDEST SWAP1 POP SWAP2 SWAP1 POP JUMP JUMPDEST PUSH32 0x56657374696E67206475726174696F6E206D757374206265206E6F6E2D6E6567 PUSH0 DUP3 ADD MSTORE PUSH32 0x6174697665000000000000000000000000000000000000000000000000000000 PUSH1 0x20 DUP3 ADD MSTORE POP JUMP JUMPDEST PUSH0 PUSH2 0x250D PUSH1 0x25 DUP4 PUSH2 0x1BF2 JUMP JUMPDEST SWAP2 POP PUSH2 0x2518 DUP3 PUSH2 0x24B3 JUMP JUMPDEST PUSH1 0x40 DUP3 ADD SWAP1 POP SWAP2 SWAP1 POP JUMP JUMPDEST PUSH0 PUSH1 0x20 DUP3 ADD SWAP1 POP DUP2 DUP2 SUB PUSH0 DUP4 ADD MSTORE PUSH2 0x253A DUP2 PUSH2 0x2501 JUMP JUMPDEST SWAP1 POP SWAP2 SWAP1 POP JUMP JUMPDEST PUSH0 PUSH1 0x60 DUP3 ADD SWAP1 POP PUSH2 0x2554 PUSH0 DUP4 ADD DUP7 PUSH2 0x1B6C JUMP JUMPDEST PUSH2 0x2561 PUSH1 0x20 DUP4 ADD DUP6 PUSH2 0x1B6C JUMP JUMPDEST PUSH2 0x256E PUSH1 0x40 DUP4 ADD DUP5 PUSH2 0x1A4C JUMP JUMPDEST SWAP5 SWAP4 POP POP POP POP JUMP JUMPDEST PUSH32 0x546F6B656E207472616E73666572206661696C65640000000000000000000000 PUSH0 DUP3 ADD MSTORE POP JUMP JUMPDEST PUSH0 PUSH2 0x25AA PUSH1 0x15 DUP4 PUSH2 0x1BF2 JUMP JUMPDEST SWAP2 POP PUSH2 0x25B5 DUP3 PUSH2 0x2576 JUMP JUMPDEST PUSH1 0x20 DUP3 ADD SWAP1 POP SWAP2 SWAP1 POP JUMP JUMPDEST PUSH0 PUSH1 0x20 DUP3 ADD SWAP1 POP DUP2 DUP2 SUB PUSH0 DUP4 ADD MSTORE PUSH2 0x25D7 DUP2 PUSH2 0x259E JUMP JUMPDEST SWAP1 POP SWAP2 SWAP1 POP JUMP JUMPDEST PUSH0 PUSH1 0x60 DUP3 ADD SWAP1 POP PUSH2 0x25F1 PUSH0 DUP4 ADD DUP7 PUSH2 0x1A4C JUMP JUMPDEST PUSH2 0x25FE PUSH1 0x20 DUP4 ADD DUP6 PUSH2 0x1A4C JUMP JUMPDEST PUSH2 0x260B PUSH1 0x40 DUP4 ADD DUP5 PUSH2 0x1A4C JUMP JUMPDEST SWAP5 SWAP4 POP POP POP POP JUMP JUMPDEST PUSH32 0x4E6F20616374697665206C6F636B20666F756E64000000000000000000000000 PUSH0 DUP3 ADD MSTORE POP JUMP JUMPDEST PUSH0 PUSH2 0x2647 PUSH1 0x14 DUP4 PUSH2 0x1BF2 JUMP JUMPDEST SWAP2 POP PUSH2 0x2652 DUP3 PUSH2 0x2613 JUMP JUMPDEST PUSH1 0x20 DUP3 ADD SWAP1 POP SWAP2 SWAP1 POP JUMP JUMPDEST PUSH0 PUSH1 0x20 DUP3 ADD SWAP1 POP DUP2 DUP2 SUB PUSH0 DUP4 ADD MSTORE PUSH2 0x2674 DUP2 PUSH2 0x263B JUMP JUMPDEST SWAP1 POP SWAP2 SWAP1 POP JUMP JUMPDEST PUSH32 0x4C6F636B20706572696F64206E6F7420796574206F7665720000000000000000 PUSH0 DUP3 ADD MSTORE POP JUMP JUMPDEST PUSH0 PUSH2 0x26AF PUSH1 0x18 DUP4 PUSH2 0x1BF2 JUMP JUMPDEST SWAP2 POP PUSH2 0x26BA DUP3 PUSH2 0x267B JUMP JUMPDEST PUSH1 0x20 DUP3 ADD SWAP1 POP SWAP2 SWAP1 POP JUMP JUMPDEST PUSH0 PUSH1 0x20 DUP3 ADD SWAP1 POP DUP2 DUP2 SUB PUSH0 DUP4 ADD MSTORE PUSH2 0x26DC DUP2 PUSH2 0x26A3 JUMP JUMPDEST SWAP1 POP SWAP2 SWAP1 POP JUMP JUMPDEST PUSH32 0x4E6F20746F6B656E7320617661696C61626C6520666F722072656C6561736500 PUSH0 DUP3 ADD MSTORE POP JUMP JUMPDEST PUSH0 PUSH2 0x2717 PUSH1 0x1F DUP4 PUSH2 0x1BF2 JUMP JUMPDEST SWAP2 POP PUSH2 0x2722 DUP3 PUSH2 0x26E3 JUMP JUMPDEST PUSH1 0x20 DUP3 ADD SWAP1 POP SWAP2 SWAP1 POP JUMP JUMPDEST PUSH0 PUSH1 0x20 DUP3 ADD SWAP1 POP DUP2 DUP2 SUB PUSH0 DUP4 ADD MSTORE PUSH2 0x2744 DUP2 PUSH2 0x270B JUMP JUMPDEST SWAP1 POP SWAP2 SWAP1 POP JUMP JUMPDEST PUSH32 0x4F6E6C7920616374697665206C6F636B6572732063616E2070726F706F736500 PUSH0 DUP3 ADD MSTORE POP JUMP JUMPDEST PUSH0 PUSH2 0x277F PUSH1 0x1F DUP4 PUSH2 0x1BF2 JUMP JUMPDEST SWAP2 POP PUSH2 0x278A DUP3 PUSH2 0x274B JUMP JUMPDEST PUSH1 0x20 DUP3 ADD SWAP1 POP SWAP2 SWAP1 POP JUMP JUMPDEST PUSH0 PUSH1 0x20 DUP3 ADD SWAP1 POP DUP2 DUP2 SUB PUSH0 DUP4 ADD MSTORE PUSH2 0x27AC DUP2 PUSH2 0x2773 JUMP JUMPDEST SWAP1 POP SWAP2 SWAP1 POP JUMP JUMPDEST PUSH0 PUSH2 0x27BD DUP3 PUSH2 0x1BE8 JUMP JUMPDEST PUSH2 0x27C7 DUP2 DUP6 PUSH2 0x1FCF JUMP JUMPDEST SWAP4 POP PUSH2 0x27D7 DUP2 DUP6 PUSH1 0x20 DUP7 ADD PUSH2 0x1C02 JUMP JUMPDEST DUP1 DUP5 ADD SWAP2 POP POP SWAP3 SWAP2 POP POP JUMP JUMPDEST PUSH0 PUSH2 0x27EE DUP3 DUP5 PUSH2 0x27B3 JUMP JUMPDEST SWAP2 POP DUP2 SWAP1 POP SWAP3 SWAP2 POP POP JUMP JUMPDEST PUSH32 0x496E76616C69642070726F706F73616C20747970650000000000000000000000 PUSH0 DUP3 ADD MSTORE POP JUMP JUMPDEST PUSH0 PUSH2 0x282D PUSH1 0x15 DUP4 PUSH2 0x1BF2 JUMP JUMPDEST SWAP2 POP PUSH2 0x2838 DUP3 PUSH2 0x27F9 JUMP JUMPDEST PUSH1 0x20 DUP3 ADD SWAP1 POP SWAP2 SWAP1 POP JUMP JUMPDEST PUSH0 PUSH1 0x20 DUP3 ADD SWAP1 POP DUP2 DUP2 SUB PUSH0 DUP4 ADD MSTORE PUSH2 0x285A DUP2 PUSH2 0x2821 JUMP JUMPDEST SWAP1 POP SWAP2 SWAP1 POP JUMP JUMPDEST PUSH0 PUSH1 0x20 PUSH1 0x1F DUP4 ADD DIV SWAP1 POP SWAP2 SWAP1 POP JUMP JUMPDEST PUSH0 DUP3 DUP3 SHL SWAP1 POP SWAP3 SWAP2 POP POP JUMP JUMPDEST PUSH0 PUSH1 0x8 DUP4 MUL PUSH2 0x28AB PUSH32 0xFFFFFFFFFFFFFFFFFFFFFFFFFFFFFFFFFFFFFFFFFFFFFFFFFFFFFFFFFFFFFFFF DUP3 PUSH2 0x2870 JUMP JUMPDEST PUSH2 0x28B5 DUP7 DUP4 PUSH2 0x2870 JUMP JUMPDEST SWAP6 POP DUP1 NOT DUP5 AND SWAP4 POP DUP1 DUP7 AND DUP5 OR SWAP3 POP POP POP SWAP4 SWAP3 POP POP POP JUMP JUMPDEST PUSH0 DUP2 SWAP1 POP SWAP2 SWAP1 POP JUMP JUMPDEST PUSH0 PUSH2 0x28F0 PUSH2 0x28EB PUSH2 0x28E6 DUP5 PUSH2 0x197B JUMP JUMPDEST PUSH2 0x28CD JUMP JUMPDEST PUSH2 0x197B JUMP JUMPDEST SWAP1 POP SWAP2 SWAP1 POP JUMP JUMPDEST PUSH0 DUP2 SWAP1 POP SWAP2 SWAP1 POP JUMP JUMPDEST PUSH2 0x2909 DUP4 PUSH2 0x28D6 JUMP JUMPDEST PUSH2 0x291D PUSH2 0x2915 DUP3 PUSH2 0x28F7 JUMP JUMPDEST DUP5 DUP5 SLOAD PUSH2 0x287C JUMP JUMPDEST DUP3 SSTORE POP POP POP POP JUMP JUMPDEST PUSH0 SWAP1 JUMP JUMPDEST PUSH2 0x2931 PUSH2 0x2925 JUMP JUMPDEST PUSH2 0x293C DUP2 DUP5 DUP5 PUSH2 0x2900 JUMP JUMPDEST POP POP POP JUMP JUMPDEST JUMPDEST DUP2 DUP2 LT ISZERO PUSH2 0x295F JUMPI PUSH2 0x2954 PUSH0 DUP3 PUSH2 0x2929 JUMP JUMPDEST PUSH1 0x1 DUP2 ADD SWAP1 POP PUSH2 0x2942 JUMP JUMPDEST POP POP JUMP JUMPDEST PUSH1 0x1F DUP3 GT ISZERO PUSH2 0x29A4 JUMPI PUSH2 0x2975 DUP2 PUSH2 0x1FD9 JUMP JUMPDEST PUSH2 0x297E DUP5 PUSH2 0x2861 JUMP JUMPDEST DUP2 ADD PUSH1 0x20 DUP6 LT ISZERO PUSH2 0x298D JUMPI DUP2 SWAP1 POP JUMPDEST PUSH2 0x29A1 PUSH2 0x2999 DUP6 PUSH2 0x2861 JUMP JUMPDEST DUP4 ADD DUP3 PUSH2 0x2941 JUMP JUMPDEST POP POP JUMPDEST POP POP POP JUMP JUMPDEST PUSH0 DUP3 DUP3 SHR SWAP1 POP SWAP3 SWAP2 POP POP JUMP JUMPDEST PUSH0 PUSH2 0x29C4 PUSH0 NOT DUP5 PUSH1 0x8 MUL PUSH2 0x29A9 JUMP JUMPDEST NOT DUP1 DUP4 AND SWAP2 POP POP SWAP3 SWAP2 POP POP JUMP JUMPDEST PUSH0 PUSH2 0x29DC DUP4 DUP4 PUSH2 0x29B5 JUMP JUMPDEST SWAP2 POP DUP3 PUSH1 0x2 MUL DUP3 OR SWAP1 POP SWAP3 SWAP2 POP POP JUMP JUMPDEST PUSH2 0x29F5 DUP3 PUSH2 0x1BE8 JUMP JUMPDEST PUSH8 0xFFFFFFFFFFFFFFFF DUP2 GT ISZERO PUSH2 0x2A0E JUMPI PUSH2 0x2A0D PUSH2 0x1D24 JUMP JUMPDEST JUMPDEST PUSH2 0x2A18 DUP3 SLOAD PUSH2 0x1F9F JUMP JUMPDEST PUSH2 0x2A23 DUP3 DUP3 DUP6 PUSH2 0x2963 JUMP JUMPDEST PUSH0 PUSH1 0x20 SWAP1 POP PUSH1 0x1F DUP4 GT PUSH1 0x1 DUP2 EQ PUSH2 0x2A54 JUMPI PUSH0 DUP5 ISZERO PUSH2 0x2A42 JUMPI DUP3 DUP8 ADD MLOAD SWAP1 POP JUMPDEST PUSH2 0x2A4C DUP6 DUP3 PUSH2 0x29D1 JUMP JUMPDEST DUP7 SSTORE POP PUSH2 0x2AB3 JUMP JUMPDEST PUSH1 0x1F NOT DUP5 AND PUSH2 0x2A62 DUP7 PUSH2 0x1FD9 JUMP JUMPDEST PUSH0 JUMPDEST DUP3 DUP2 LT ISZERO PUSH2 0x2A89 JUMPI DUP5 DUP10 ADD MLOAD DUP3 SSTORE PUSH1 0x1 DUP3 ADD SWAP2 POP PUSH1 0x20 DUP6 ADD SWAP5 POP PUSH1 0x20 DUP2 ADD SWAP1 POP PUSH2 0x2A64 JUMP JUMPDEST DUP7 DUP4 LT ISZERO PUSH2 0x2AA6 JUMPI DUP5 DUP10 ADD MLOAD PUSH2 0x2AA2 PUSH1 0x1F DUP10 AND DUP3 PUSH2 0x29B5 JUMP JUMPDEST DUP4 SSTORE POP JUMPDEST PUSH1 0x1 PUSH1 0x2 DUP9 MUL ADD DUP9 SSTORE POP POP POP JUMPDEST POP POP POP POP POP POP JUMP JUMPDEST PUSH0 PUSH1 0x40 DUP3 ADD SWAP1 POP DUP2 DUP2 SUB PUSH0 DUP4 ADD MSTORE PUSH2 0x2AD3 DUP2 DUP6 PUSH2 0x1C20 JUMP JUMPDEST SWAP1 POP PUSH2 0x2AE2 PUSH1 0x20 DUP4 ADD DUP5 PUSH2 0x1A4C JUMP JUMPDEST SWAP4 SWAP3 POP POP POP JUMP JUMPDEST PUSH32 0x4E487B7100000000000000000000000000000000000000000000000000000000 PUSH0 MSTORE PUSH1 0x11 PUSH1 0x4 MSTORE PUSH1 0x24 PUSH0 REVERT JUMPDEST PUSH0 PUSH2 0x2B20 DUP3 PUSH2 0x197B JUMP JUMPDEST SWAP2 POP PUSH32 0xFFFFFFFFFFFFFFFFFFFFFFFFFFFFFFFFFFFFFFFFFFFFFFFFFFFFFFFFFFFFFFFF DUP3 SUB PUSH2 0x2B52 JUMPI PUSH2 0x2B51 PUSH2 0x2AE9 JUMP JUMPDEST JUMPDEST PUSH1 0x1 DUP3 ADD SWAP1 POP SWAP2 SWAP1 POP JUMP JUMPDEST PUSH0 PUSH2 0x2B67 DUP3 PUSH2 0x197B JUMP JUMPDEST SWAP2 POP PUSH2 0x2B72 DUP4 PUSH2 0x197B JUMP JUMPDEST SWAP3 POP DUP3 DUP3 ADD SWAP1 POP DUP1 DUP3 GT ISZERO PUSH2 0x2B8A JUMPI PUSH2 0x2B89 PUSH2 0x2AE9 JUMP JUMPDEST JUMPDEST SWAP3 SWAP2 POP POP JUMP JUMPDEST PUSH0 PUSH2 0x2B9A DUP3 PUSH2 0x197B JUMP JUMPDEST SWAP2 POP PUSH2 0x2BA5 DUP4 PUSH2 0x197B JUMP JUMPDEST SWAP3 POP DUP3 DUP3 SUB SWAP1 POP DUP2 DUP2 GT ISZERO PUSH2 0x2BBD JUMPI PUSH2 0x2BBC PUSH2 0x2AE9 JUMP JUMPDEST JUMPDEST SWAP3 SWAP2 POP POP JUMP JUMPDEST PUSH0 PUSH2 0x2BCD DUP3 PUSH2 0x197B JUMP JUMPDEST SWAP2 POP PUSH2 0x2BD8 DUP4 PUSH2 0x197B JUMP JUMPDEST SWAP3 POP DUP3 DUP3 MUL PUSH2 0x2BE6 DUP2 PUSH2 0x197B JUMP JUMPDEST SWAP2 POP DUP3 DUP3 DIV DUP5 EQ DUP4 ISZERO OR PUSH2 0x2BFD JUMPI PUSH2 0x2BFC PUSH2 0x2AE9 JUMP JUMPDEST JUMPDEST POP SWAP3 SWAP2 POP POP JUMP JUMPDEST PUSH32 0x4E487B7100000000000000000000000000000000000000000000000000000000 PUSH0 MSTORE PUSH1 0x12 PUSH1 0x4 MSTORE PUSH1 0x24 PUSH0 REVERT JUMPDEST PUSH0 PUSH2 0x2C3B DUP3 PUSH2 0x197B JUMP JUMPDEST SWAP2 POP PUSH2 0x2C46 DUP4 PUSH2 0x197B JUMP JUMPDEST SWAP3 POP DUP3 PUSH2 0x2C56 JUMPI PUSH2 0x2C55 PUSH2 0x2C04 JUMP JUMPDEST JUMPDEST DUP3 DUP3 DIV SWAP1 POP SWAP3 SWAP2 POP POP JUMP INVALID LOG2 PUSH5 0x6970667358 0x22 SLT KECCAK256 0xB0 PUSH4 0x7A3B1FA3 CALLDATACOPY 0xC3 PUSH0 0xB3 0xB1 0xE7 0xDB DUP9 NUMBER 0x22 PUSH25 0x9A54C62E72C1CA7A32380D12111E6564736F6C634300081900 CALLER "
				},
				"gasEstimates": {
					"creation": {
						"codeDepositCost": "2283000",
						"executionCost": "infinite",
						"totalCost": "infinite"
					},
					"external": {
						"castVote(uint256,bool)": "infinite",
						"communityVotedUnlock(address)": "2878",
						"executeProposal(uint256)": "infinite",
						"lockTokens(address,uint256,uint256,uint256)": "infinite",
						"locks(address)": "infinite",
						"nextProposalId()": "2470",
						"owner()": "2582",
						"proposeVote(string,uint256)": "infinite",
						"releaseTokens()": "infinite",
						"renounceOwnership()": "infinite",
						"transferOwnership(address)": "infinite",
						"viewRemainingTokens(address)": "infinite",
						"votes(uint256)": "infinite"
					}
				},
				"methodIdentifiers": {
					"castVote(uint256,bool)": "15373e3d",
					"communityVotedUnlock(address)": "82134e7b",
					"executeProposal(uint256)": "0d61b519",
					"lockTokens(address,uint256,uint256,uint256)": "5783f8e7",
					"locks(address)": "5de9a137",
					"nextProposalId()": "2ab09d14",
					"owner()": "8da5cb5b",
					"proposeVote(string,uint256)": "e393173e",
					"releaseTokens()": "a96f8668",
					"renounceOwnership()": "715018a6",
					"transferOwnership(address)": "f2fde38b",
					"viewRemainingTokens(address)": "910a8dd2",
					"votes(uint256)": "5df81330"
				}
			},
			"storageLayout": {
				"storage": [
					{
						"astId": 8,
						"contract": "test.sol:TokenLockingPlatform",
						"label": "_owner",
						"offset": 0,
						"slot": "0",
						"type": "t_address"
					},
					{
						"astId": 619,
						"contract": "test.sol:TokenLockingPlatform",
						"label": "nextProposalId",
						"offset": 0,
						"slot": "1",
						"type": "t_uint256"
					},
					{
						"astId": 624,
						"contract": "test.sol:TokenLockingPlatform",
						"label": "votes",
						"offset": 0,
						"slot": "2",
						"type": "t_mapping(t_uint256,t_struct(Vote)617_storage)"
					},
					{
						"astId": 629,
						"contract": "test.sol:TokenLockingPlatform",
						"label": "locks",
						"offset": 0,
						"slot": "3",
						"type": "t_mapping(t_address,t_struct(Lock)594_storage)"
					},
					{
						"astId": 633,
						"contract": "test.sol:TokenLockingPlatform",
						"label": "communityVotedUnlock",
						"offset": 0,
						"slot": "4",
						"type": "t_mapping(t_address,t_bool)"
					}
				],
				"types": {
					"t_address": {
						"encoding": "inplace",
						"label": "address",
						"numberOfBytes": "20"
					},
					"t_bool": {
						"encoding": "inplace",
						"label": "bool",
						"numberOfBytes": "1"
					},
					"t_mapping(t_address,t_bool)": {
						"encoding": "mapping",
						"key": "t_address",
						"label": "mapping(address => bool)",
						"numberOfBytes": "32",
						"value": "t_bool"
					},
					"t_mapping(t_address,t_struct(Lock)594_storage)": {
						"encoding": "mapping",
						"key": "t_address",
						"label": "mapping(address => struct TokenLockingPlatform.Lock)",
						"numberOfBytes": "32",
						"value": "t_struct(Lock)594_storage"
					},
					"t_mapping(t_uint256,t_struct(Vote)617_storage)": {
						"encoding": "mapping",
						"key": "t_uint256",
						"label": "mapping(uint256 => struct TokenLockingPlatform.Vote)",
						"numberOfBytes": "32",
						"value": "t_struct(Vote)617_storage"
					},
					"t_string_storage": {
						"encoding": "bytes",
						"label": "string",
						"numberOfBytes": "32"
					},
					"t_struct(Lock)594_storage": {
						"encoding": "inplace",
						"label": "struct TokenLockingPlatform.Lock",
						"members": [
							{
								"astId": 581,
								"contract": "test.sol:TokenLockingPlatform",
								"label": "totalAmount",
								"offset": 0,
								"slot": "0",
								"type": "t_uint256"
							},
							{
								"astId": 583,
								"contract": "test.sol:TokenLockingPlatform",
								"label": "releasedAmount",
								"offset": 0,
								"slot": "1",
								"type": "t_uint256"
							},
							{
								"astId": 585,
								"contract": "test.sol:TokenLockingPlatform",
								"label": "lockStart",
								"offset": 0,
								"slot": "2",
								"type": "t_uint256"
							},
							{
								"astId": 587,
								"contract": "test.sol:TokenLockingPlatform",
								"label": "lockDuration",
								"offset": 0,
								"slot": "3",
								"type": "t_uint256"
							},
							{
								"astId": 589,
								"contract": "test.sol:TokenLockingPlatform",
								"label": "vestingDuration",
								"offset": 0,
								"slot": "4",
								"type": "t_uint256"
							},
							{
								"astId": 591,
								"contract": "test.sol:TokenLockingPlatform",
								"label": "active",
								"offset": 0,
								"slot": "5",
								"type": "t_bool"
							},
							{
								"astId": 593,
								"contract": "test.sol:TokenLockingPlatform",
								"label": "token",
								"offset": 1,
								"slot": "5",
								"type": "t_address"
							}
						],
						"numberOfBytes": "192"
					},
					"t_struct(Vote)617_storage": {
						"encoding": "inplace",
						"label": "struct TokenLockingPlatform.Vote",
						"members": [
							{
								"astId": 596,
								"contract": "test.sol:TokenLockingPlatform",
								"label": "proposalId",
								"offset": 0,
								"slot": "0",
								"type": "t_uint256"
							},
							{
								"astId": 598,
								"contract": "test.sol:TokenLockingPlatform",
								"label": "proposer",
								"offset": 0,
								"slot": "1",
								"type": "t_address"
							},
							{
								"astId": 600,
								"contract": "test.sol:TokenLockingPlatform",
								"label": "startTime",
								"offset": 0,
								"slot": "2",
								"type": "t_uint256"
							},
							{
								"astId": 602,
								"contract": "test.sol:TokenLockingPlatform",
								"label": "endTime",
								"offset": 0,
								"slot": "3",
								"type": "t_uint256"
							},
							{
								"astId": 604,
								"contract": "test.sol:TokenLockingPlatform",
								"label": "yesVotes",
								"offset": 0,
								"slot": "4",
								"type": "t_uint256"
							},
							{
								"astId": 606,
								"contract": "test.sol:TokenLockingPlatform",
								"label": "noVotes",
								"offset": 0,
								"slot": "5",
								"type": "t_uint256"
							},
							{
								"astId": 608,
								"contract": "test.sol:TokenLockingPlatform",
								"label": "proposalType",
								"offset": 0,
								"slot": "6",
								"type": "t_string_storage"
							},
							{
								"astId": 610,
								"contract": "test.sol:TokenLockingPlatform",
								"label": "parameter",
								"offset": 0,
								"slot": "7",
								"type": "t_uint256"
							},
							{
								"astId": 612,
								"contract": "test.sol:TokenLockingPlatform",
								"label": "executed",
								"offset": 0,
								"slot": "8",
								"type": "t_bool"
							},
							{
								"astId": 616,
								"contract": "test.sol:TokenLockingPlatform",
								"label": "hasVoted",
								"offset": 0,
								"slot": "9",
								"type": "t_mapping(t_address,t_bool)"
							}
						],
						"numberOfBytes": "320"
					},
					"t_uint256": {
						"encoding": "inplace",
						"label": "uint256",
						"numberOfBytes": "32"
					}
				}
			},
			"userdoc": {
				"kind": "user",
				"methods": {
					"castVote(uint256,bool)": {
						"notice": "Cast a vote on a proposal."
					},
					"executeProposal(uint256)": {
						"notice": "Execute a proposal if it passes."
					},
					"lockTokens(address,uint256,uint256,uint256)": {
						"notice": "Lock tokens with specified lock and vesting durations."
					},
					"proposeVote(string,uint256)": {
						"notice": "Propose a vote to release tokens early or extend the lock period."
					},
					"releaseTokens()": {
						"notice": "Release tokens based on the vesting schedule."
					},
					"viewRemainingTokens(address)": {
						"notice": "View the remaining locked tokens for a user."
					}
				},
				"version": 1
			}
		}
	}
}